{
  "_format": "hh-sol-artifact-1",
  "contractName": "PriceConsumerV3",
  "sourceName": "contracts/PriceConsumerV3.sol",
  "abi": [
    {
      "inputs": [],
      "stateMutability": "nonpayable",
      "type": "constructor"
    },
    {
      "anonymous": false,
      "inputs": [
        {
          "indexed": true,
          "internalType": "address",
          "name": "previousOwner",
          "type": "address"
        },
        {
          "indexed": true,
          "internalType": "address",
          "name": "newOwner",
          "type": "address"
        }
      ],
      "name": "OwnershipTransferred",
      "type": "event"
    },
    {
      "inputs": [
        {
          "internalType": "string",
          "name": "",
          "type": "string"
        }
      ],
      "name": "aggAddresses",
      "outputs": [
        {
          "internalType": "address",
          "name": "",
          "type": "address"
        }
      ],
      "stateMutability": "view",
      "type": "function"
    },
    {
      "inputs": [
        {
          "internalType": "string",
          "name": "",
          "type": "string"
        }
      ],
      "name": "aggDecimals",
      "outputs": [
        {
          "internalType": "uint8",
          "name": "",
          "type": "uint8"
        }
      ],
      "stateMutability": "view",
      "type": "function"
    },
    {
      "inputs": [
        {
          "internalType": "string",
          "name": "_pair",
          "type": "string"
        }
      ],
      "name": "getLatestPrice",
      "outputs": [
        {
          "internalType": "uint80",
          "name": "",
          "type": "uint80"
        },
        {
          "internalType": "int256",
          "name": "",
          "type": "int256"
        },
        {
          "internalType": "uint256",
          "name": "",
          "type": "uint256"
        },
        {
          "internalType": "uint256",
          "name": "",
          "type": "uint256"
        },
        {
          "internalType": "uint80",
          "name": "",
          "type": "uint80"
        }
      ],
      "stateMutability": "view",
      "type": "function"
    },
    {
      "inputs": [],
      "name": "owner",
      "outputs": [
        {
          "internalType": "address",
          "name": "",
          "type": "address"
        }
      ],
      "stateMutability": "view",
      "type": "function"
    },
    {
      "inputs": [],
      "name": "renounceOwnership",
      "outputs": [],
      "stateMutability": "nonpayable",
      "type": "function"
    },
    {
      "inputs": [
        {
          "internalType": "string",
          "name": "_pair",
          "type": "string"
        },
        {
          "internalType": "address",
          "name": "_aggAddress",
          "type": "address"
        }
      ],
      "name": "setAggAddress",
      "outputs": [],
      "stateMutability": "nonpayable",
      "type": "function"
    },
    {
      "inputs": [
        {
          "internalType": "string",
          "name": "_pair",
          "type": "string"
        },
        {
          "internalType": "uint8",
          "name": "_decimal",
          "type": "uint8"
        }
      ],
      "name": "setAggDecimal",
      "outputs": [],
      "stateMutability": "nonpayable",
      "type": "function"
    },
    {
      "inputs": [
        {
          "internalType": "address",
          "name": "newOwner",
          "type": "address"
        }
      ],
      "name": "transferOwnership",
      "outputs": [],
      "stateMutability": "nonpayable",
      "type": "function"
    }
  ],
  "bytecode": "0x608060405234801561001057600080fd5b50600061001b61006a565b600080546001600160a01b0319166001600160a01b0383169081178255604051929350917f8be0079c531659141344cd1fd0a4f28419497f9722a3daafe3b4186f6b6457e0908290a35061006e565b3390565b610a3b8061007d6000396000f3fe608060405234801561001057600080fd5b50600436106100885760003560e01c8063b17810231161005b578063b178102314610224578063c1f744b3146102c8578063f2fde38b14610371578063f66a1b711461039757610088565b80634e1e8db21461008d578063715018a61461013e5780638da5cb5b146101465780639a423d961461016a575b600080fd5b61013c600480360360408110156100a357600080fd5b810190602081018135600160201b8111156100bd57600080fd5b8201836020820111156100cf57600080fd5b803590602001918460018302840111600160201b831117156100f057600080fd5b91908080601f016020809104026020016040519081016040528093929190818152602001838380828437600092019190915250929550505090356001600160a01b031691506104859050565b005b61013c6105a5565b61014e610647565b604080516001600160a01b039092168252519081900360200190f35b61020e6004803603602081101561018057600080fd5b810190602081018135600160201b81111561019a57600080fd5b8201836020820111156101ac57600080fd5b803590602001918460018302840111600160201b831117156101cd57600080fd5b91908080601f016020809104026020016040519081016040528093929190818152602001838380828437600092019190915250929550610656945050505050565b6040805160ff9092168252519081900360200190f35b61014e6004803603602081101561023a57600080fd5b810190602081018135600160201b81111561025457600080fd5b82018360208201111561026657600080fd5b803590602001918460018302840111600160201b8311171561028757600080fd5b91908080601f016020809104026020016040519081016040528093929190818152602001838380828437600092019190915250929550610676945050505050565b61013c600480360360408110156102de57600080fd5b810190602081018135600160201b8111156102f857600080fd5b82018360208201111561030a57600080fd5b803590602001918460018302840111600160201b8311171561032b57600080fd5b91908080601f0160208091040260200160405190810160405280939291908181526020018383808284376000920191909152509295505050903560ff16915061069c9050565b61013c6004803603602081101561038757600080fd5b50356001600160a01b031661076b565b61043b600480360360208110156103ad57600080fd5b810190602081018135600160201b8111156103c757600080fd5b8201836020820111156103d957600080fd5b803590602001918460018302840111600160201b831117156103fa57600080fd5b91908080601f016020809104026020016040519081016040528093929190818152602001838380828437600092019190915250929550610863945050505050565b604051808669ffffffffffffffffffff1681526020018581526020018481526020018381526020018269ffffffffffffffffffff1681526020019550505050505060405180910390f35b61048d610986565b6000546001600160a01b039081169116146104dd576040805162461bcd60e51b815260206004820181905260248201526000805160206109b1833981519152604482015290519081900360640190fd5b6001600160a01b0381166105225760405162461bcd60e51b81526004018080602001828103825260358152602001806109d16035913960400191505060405180910390fd5b806002836040518082805190602001908083835b602083106105555780518252601f199092019160209182019101610536565b51815160209384036101000a6000190180199092169116179052920194855250604051938490030190922080546001600160a01b0319166001600160a01b03949094169390931790925550505050565b6105ad610986565b6000546001600160a01b039081169116146105fd576040805162461bcd60e51b815260206004820181905260248201526000805160206109b1833981519152604482015290519081900360640190fd5b600080546040516001600160a01b03909116907f8be0079c531659141344cd1fd0a4f28419497f9722a3daafe3b4186f6b6457e0908390a3600080546001600160a01b0319169055565b6000546001600160a01b031690565b805160208183018101805160038252928201919093012091525460ff1681565b80516020818301810180516002825292820191909301209152546001600160a01b031681565b6106a4610986565b6000546001600160a01b039081169116146106f4576040805162461bcd60e51b815260206004820181905260248201526000805160206109b1833981519152604482015290519081900360640190fd5b806003836040518082805190602001908083835b602083106107275780518252601f199092019160209182019101610708565b51815160209384036101000a60001901801990921691161790529201948552506040519384900301909220805460ff191660ff949094169390931790925550505050565b610773610986565b6000546001600160a01b039081169116146107c3576040805162461bcd60e51b815260206004820181905260248201526000805160206109b1833981519152604482015290519081900360640190fd5b6001600160a01b0381166108085760405162461bcd60e51b815260040180806020018281038252602681526020018061098b6026913960400191505060405180910390fd5b600080546040516001600160a01b03808516939216917f8be0079c531659141344cd1fd0a4f28419497f9722a3daafe3b4186f6b6457e091a3600080546001600160a01b0319166001600160a01b0392909216919091179055565b6000806000806000806002876040518082805190602001908083835b6020831061089e5780518252601f19909201916020918201910161087f565b6001836020036101000a038019825116818451168082178552505050505050905001915050908152602001604051809103902060009054906101000a90046001600160a01b031690506000806000806000856001600160a01b031663feaf968c6040518163ffffffff1660e01b815260040160a06040518083038186803b15801561092857600080fd5b505afa15801561093c573d6000803e3d6000fd5b505050506040513d60a081101561095257600080fd5b508051602082015160408301516060840151608090940151929e50909c509a50909850965050505050505091939590929450565b339056fe4f776e61626c653a206e6577206f776e657220697320746865207a65726f20616464726573734f776e61626c653a2063616c6c6572206973206e6f7420746865206f776e65725072696365436f6e73756d657256333a3a736574416767416464726573733a3a63616e6e6f74207365742061646472657373283029a26469706673582212207bba3701d8544150cb36994c92d3243cc4f446f4493da1eb9bac492fd825449264736f6c634300060c0033",
  "linkReferences": {},
  "deployedLinkReferences": {}
}