{
  "_format": "hh-sol-artifact-1",
  "contractName": "Synthetic",
  "sourceName": "contracts/Synthetic.sol",
  "abi": [
    {
      "inputs": [
        {
          "internalType": "contract IERC20",
          "name": "_dolly",
          "type": "address"
        },
        {
          "internalType": "contract IStdReference",
          "name": "_ref",
          "type": "address"
        }
      ],
      "stateMutability": "nonpayable",
      "type": "constructor"
    },
    {
      "anonymous": false,
      "inputs": [
        {
          "indexed": true,
          "internalType": "address",
          "name": "user",
          "type": "address"
        },
        {
          "indexed": false,
          "internalType": "uint256",
          "name": "amount",
          "type": "uint256"
        }
      ],
      "name": "AddCollateral",
      "type": "event"
    },
    {
      "anonymous": false,
      "inputs": [
        {
          "indexed": true,
          "internalType": "address",
          "name": "liquidated",
          "type": "address"
        },
        {
          "indexed": true,
          "internalType": "address",
          "name": "liquidator",
          "type": "address"
        },
        {
          "indexed": true,
          "internalType": "address",
          "name": "syntheticAddress",
          "type": "address"
        },
        {
          "indexed": false,
          "internalType": "uint256",
          "name": "amount",
          "type": "uint256"
        },
        {
          "indexed": false,
          "internalType": "uint256",
          "name": "timestamp",
          "type": "uint256"
        }
      ],
      "name": "Liquidated",
      "type": "event"
    },
    {
      "anonymous": false,
      "inputs": [
        {
          "indexed": false,
          "internalType": "address",
          "name": "minter",
          "type": "address"
        },
        {
          "indexed": true,
          "internalType": "address",
          "name": "syntheticAddress",
          "type": "address"
        },
        {
          "indexed": false,
          "internalType": "uint256",
          "name": "amount",
          "type": "uint256"
        }
      ],
      "name": "MintAsset",
      "type": "event"
    },
    {
      "anonymous": false,
      "inputs": [
        {
          "indexed": true,
          "internalType": "address",
          "name": "previousOwner",
          "type": "address"
        },
        {
          "indexed": true,
          "internalType": "address",
          "name": "newOwner",
          "type": "address"
        }
      ],
      "name": "OwnershipTransferred",
      "type": "event"
    },
    {
      "anonymous": false,
      "inputs": [
        {
          "indexed": false,
          "internalType": "address",
          "name": "account",
          "type": "address"
        }
      ],
      "name": "Paused",
      "type": "event"
    },
    {
      "anonymous": false,
      "inputs": [
        {
          "indexed": true,
          "internalType": "address",
          "name": "syntheticAddress",
          "type": "address"
        },
        {
          "indexed": false,
          "internalType": "uint256",
          "name": "amount",
          "type": "uint256"
        }
      ],
      "name": "RedeemAsset",
      "type": "event"
    },
    {
      "anonymous": false,
      "inputs": [
        {
          "indexed": true,
          "internalType": "address",
          "name": "user",
          "type": "address"
        },
        {
          "indexed": false,
          "internalType": "uint256",
          "name": "amount",
          "type": "uint256"
        }
      ],
      "name": "RemoveCollateral",
      "type": "event"
    },
    {
      "anonymous": false,
      "inputs": [
        {
          "indexed": false,
          "internalType": "address",
          "name": "oldDevAddress",
          "type": "address"
        },
        {
          "indexed": false,
          "internalType": "address",
          "name": "newDevAddress",
          "type": "address"
        }
      ],
      "name": "SetDevAddress",
      "type": "event"
    },
    {
      "anonymous": false,
      "inputs": [
        {
          "indexed": false,
          "internalType": "address",
          "name": "account",
          "type": "address"
        }
      ],
      "name": "Unpaused",
      "type": "event"
    },
    {
      "inputs": [
        {
          "internalType": "contract IERC20Burnable",
          "name": "_synthetic",
          "type": "address"
        },
        {
          "internalType": "uint256",
          "name": "_addAmount",
          "type": "uint256"
        }
      ],
      "name": "addCollateral",
      "outputs": [],
      "stateMutability": "nonpayable",
      "type": "function"
    },
    {
      "inputs": [
        {
          "internalType": "address",
          "name": "",
          "type": "address"
        }
      ],
      "name": "addressToPairs",
      "outputs": [
        {
          "internalType": "string",
          "name": "",
          "type": "string"
        }
      ],
      "stateMutability": "view",
      "type": "function"
    },
    {
      "inputs": [],
      "name": "bandOracle",
      "outputs": [
        {
          "internalType": "contract IStdReference",
          "name": "",
          "type": "address"
        }
      ],
      "stateMutability": "view",
      "type": "function"
    },
    {
      "inputs": [],
      "name": "collateralRatio",
      "outputs": [
        {
          "internalType": "uint256",
          "name": "",
          "type": "uint256"
        }
      ],
      "stateMutability": "view",
      "type": "function"
    },
    {
      "inputs": [
        {
          "internalType": "address",
          "name": "",
          "type": "address"
        },
        {
          "internalType": "address",
          "name": "",
          "type": "address"
        }
      ],
      "name": "contracts",
      "outputs": [
        {
          "internalType": "address",
          "name": "minter",
          "type": "address"
        },
        {
          "internalType": "contract IERC20Burnable",
          "name": "asset",
          "type": "address"
        },
        {
          "internalType": "contract IERC20",
          "name": "assetBacked",
          "type": "address"
        },
        {
          "internalType": "uint256",
          "name": "assetAmount",
          "type": "uint256"
        },
        {
          "internalType": "uint256",
          "name": "assetBackedAmount",
          "type": "uint256"
        },
        {
          "internalType": "uint256",
          "name": "currentRatio",
          "type": "uint256"
        },
        {
          "internalType": "uint256",
          "name": "willLiquidateAtPrice",
          "type": "uint256"
        },
        {
          "internalType": "uint256",
          "name": "canMintRemainning",
          "type": "uint256"
        },
        {
          "internalType": "uint256",
          "name": "canWithdrawRemainning",
          "type": "uint256"
        },
        {
          "internalType": "uint256",
          "name": "updatedAt",
          "type": "uint256"
        },
        {
          "internalType": "uint256",
          "name": "updatedBlock",
          "type": "uint256"
        },
        {
          "internalType": "uint256",
          "name": "exchangeRateAtMinted",
          "type": "uint256"
        },
        {
          "internalType": "uint256",
          "name": "currentExchangeRate",
          "type": "uint256"
        }
      ],
      "stateMutability": "view",
      "type": "function"
    },
    {
      "inputs": [],
      "name": "denominator",
      "outputs": [
        {
          "internalType": "uint256",
          "name": "",
          "type": "uint256"
        }
      ],
      "stateMutability": "view",
      "type": "function"
    },
    {
      "inputs": [],
      "name": "devAddress",
      "outputs": [
        {
          "internalType": "address",
          "name": "",
          "type": "address"
        }
      ],
      "stateMutability": "view",
      "type": "function"
    },
    {
      "inputs": [],
      "name": "dolly",
      "outputs": [
        {
          "internalType": "contract IERC20",
          "name": "",
          "type": "address"
        }
      ],
      "stateMutability": "view",
      "type": "function"
    },
    {
      "inputs": [
        {
          "internalType": "string",
          "name": "_pairs",
          "type": "string"
        }
      ],
      "name": "getRate",
      "outputs": [
        {
          "internalType": "uint256",
          "name": "",
          "type": "uint256"
        }
      ],
      "stateMutability": "view",
      "type": "function"
    },
    {
      "inputs": [
        {
          "internalType": "string",
          "name": "_pairs",
          "type": "string"
        }
      ],
      "name": "isSupported",
      "outputs": [
        {
          "internalType": "bool",
          "name": "",
          "type": "bool"
        }
      ],
      "stateMutability": "view",
      "type": "function"
    },
    {
      "inputs": [
        {
          "internalType": "contract IERC20Burnable",
          "name": "_synthetic",
          "type": "address"
        },
        {
          "internalType": "address",
          "name": "_minter",
          "type": "address"
        }
      ],
      "name": "liquidate",
      "outputs": [],
      "stateMutability": "nonpayable",
      "type": "function"
    },
    {
      "inputs": [],
      "name": "liquidationRatio",
      "outputs": [
        {
          "internalType": "uint256",
          "name": "",
          "type": "uint256"
        }
      ],
      "stateMutability": "view",
      "type": "function"
    },
    {
      "inputs": [],
      "name": "liquidatorRewardRatio",
      "outputs": [
        {
          "internalType": "uint256",
          "name": "",
          "type": "uint256"
        }
      ],
      "stateMutability": "view",
      "type": "function"
    },
    {
      "inputs": [
        {
          "internalType": "contract IERC20Burnable",
          "name": "_synthetic",
          "type": "address"
        },
        {
          "internalType": "uint256",
          "name": "_amount",
          "type": "uint256"
        },
        {
          "internalType": "uint256",
          "name": "_backedAmount",
          "type": "uint256"
        }
      ],
      "name": "mintSynthetic",
      "outputs": [],
      "stateMutability": "nonpayable",
      "type": "function"
    },
    {
      "inputs": [],
      "name": "owner",
      "outputs": [
        {
          "internalType": "address",
          "name": "",
          "type": "address"
        }
      ],
      "stateMutability": "view",
      "type": "function"
    },
    {
      "inputs": [
        {
          "internalType": "string",
          "name": "",
          "type": "string"
        }
      ],
      "name": "pairsToAddress",
      "outputs": [
        {
          "internalType": "address",
          "name": "",
          "type": "address"
        }
      ],
      "stateMutability": "view",
      "type": "function"
    },
    {
      "inputs": [
        {
          "internalType": "string",
          "name": "",
          "type": "string"
        },
        {
          "internalType": "uint256",
          "name": "",
          "type": "uint256"
        }
      ],
      "name": "pairsToQuote",
      "outputs": [
        {
          "internalType": "string",
          "name": "",
          "type": "string"
        }
      ],
      "stateMutability": "view",
      "type": "function"
    },
    {
      "inputs": [],
      "name": "pause",
      "outputs": [],
      "stateMutability": "nonpayable",
      "type": "function"
    },
    {
      "inputs": [],
      "name": "paused",
      "outputs": [
        {
          "internalType": "bool",
          "name": "",
          "type": "bool"
        }
      ],
      "stateMutability": "view",
      "type": "function"
    },
    {
      "inputs": [
        {
          "internalType": "address",
          "name": "",
          "type": "address"
        },
        {
          "internalType": "uint256",
          "name": "",
          "type": "uint256"
        }
      ],
      "name": "pendingLiquidate",
      "outputs": [
        {
          "internalType": "address",
          "name": "",
          "type": "address"
        }
      ],
      "stateMutability": "view",
      "type": "function"
    },
    {
      "inputs": [],
      "name": "platfromFeeRatio",
      "outputs": [
        {
          "internalType": "uint256",
          "name": "",
          "type": "uint256"
        }
      ],
      "stateMutability": "view",
      "type": "function"
    },
    {
      "inputs": [
        {
          "internalType": "contract IERC20Burnable",
          "name": "_synthetic",
          "type": "address"
        },
        {
          "internalType": "uint256",
          "name": "_amount",
          "type": "uint256"
        }
      ],
      "name": "redeemSynthetic",
      "outputs": [],
      "stateMutability": "nonpayable",
      "type": "function"
    },
    {
      "inputs": [],
      "name": "remainingToMinterRatio",
      "outputs": [
        {
          "internalType": "uint256",
          "name": "",
          "type": "uint256"
        }
      ],
      "stateMutability": "view",
      "type": "function"
    },
    {
      "inputs": [
        {
          "internalType": "contract IERC20Burnable",
          "name": "_synthetic",
          "type": "address"
        },
        {
          "internalType": "uint256",
          "name": "_removeBackedAmount",
          "type": "uint256"
        }
      ],
      "name": "removeCollateral",
      "outputs": [],
      "stateMutability": "nonpayable",
      "type": "function"
    },
    {
      "inputs": [
        {
          "internalType": "contract IERC20Burnable",
          "name": "_synthetic",
          "type": "address"
        },
        {
          "internalType": "uint256",
          "name": "_removeAmount",
          "type": "uint256"
        }
      ],
      "name": "removeLowerCollateral",
      "outputs": [],
      "stateMutability": "nonpayable",
      "type": "function"
    },
    {
      "inputs": [],
      "name": "renounceOwnership",
      "outputs": [],
      "stateMutability": "nonpayable",
      "type": "function"
    },
    {
      "inputs": [
        {
          "internalType": "address",
          "name": "_syntheticAddress",
          "type": "address"
        },
        {
          "internalType": "string",
          "name": "_pairs",
          "type": "string"
        }
      ],
      "name": "setAddressToPairs",
      "outputs": [],
      "stateMutability": "nonpayable",
      "type": "function"
    },
    {
      "inputs": [
        {
          "internalType": "address",
          "name": "_devAddress",
          "type": "address"
        }
      ],
      "name": "setDevAddress",
      "outputs": [],
      "stateMutability": "nonpayable",
      "type": "function"
    },
    {
      "inputs": [
        {
          "internalType": "string",
          "name": "_pairs",
          "type": "string"
        },
        {
          "internalType": "address",
          "name": "_syntheticAddress",
          "type": "address"
        }
      ],
      "name": "setPairsToAddress",
      "outputs": [],
      "stateMutability": "nonpayable",
      "type": "function"
    },
    {
      "inputs": [
        {
          "internalType": "string",
          "name": "_pairs",
          "type": "string"
        },
        {
          "internalType": "string[2]",
          "name": "baseAndQuote",
          "type": "string[2]"
        }
      ],
      "name": "setPairsToQuote",
      "outputs": [],
      "stateMutability": "nonpayable",
      "type": "function"
    },
    {
      "inputs": [],
      "name": "systheticAsset",
      "outputs": [
        {
          "internalType": "contract IERC20Burnable",
          "name": "",
          "type": "address"
        }
      ],
      "stateMutability": "view",
      "type": "function"
    },
    {
      "inputs": [
        {
          "internalType": "address",
          "name": "newOwner",
          "type": "address"
        }
      ],
      "name": "transferOwnership",
      "outputs": [],
      "stateMutability": "nonpayable",
      "type": "function"
    },
    {
      "inputs": [],
      "name": "unpause",
      "outputs": [],
      "stateMutability": "nonpayable",
      "type": "function"
    },
    {
      "inputs": [
        {
          "internalType": "contract IERC20Burnable",
          "name": "_synthetic",
          "type": "address"
        },
        {
          "internalType": "address",
          "name": "_minter",
          "type": "address"
        }
      ],
      "name": "viewRewardFromLiquidate",
      "outputs": [
        {
          "internalType": "uint256",
          "name": "",
          "type": "uint256"
        },
        {
          "internalType": "uint256",
          "name": "",
          "type": "uint256"
        },
        {
          "internalType": "uint256",
          "name": "",
          "type": "uint256"
        },
        {
          "internalType": "uint256",
          "name": "",
          "type": "uint256"
        },
        {
          "internalType": "uint256",
          "name": "",
          "type": "uint256"
        }
      ],
      "stateMutability": "view",
      "type": "function"
    }
  ],
  "bytecode": "0x6080604052670de0b6b3a76400006007556714d1120d7b160000600855671158e460913d000060095566b1a2bc2ec50000600a5566b1a2bc2ec50000600b55670c7d713b49da0000600c553480156200005757600080fd5b506040516200359c3803806200359c8339810160408190526200007a91620003ca565b6000620000866200026b565b600080546001600160a01b0319166001600160a01b0383169081178255604051929350917f8be0079c531659141344cd1fd0a4f28419497f9722a3daafe3b4186f6b6457e0908290a3506000805460ff60a01b19169055600280546001600160a01b038085166001600160a01b03199283161790925560038054928416929091169190911781556040805160808101825260048183018181526354534c4160e01b6060840152825282518084018452938452621554d160ea1b60208581019190915282019390935290519091906200015e9062000408565b9081526040519081900360200190206200017a9160026200026f565b507365cac0f09efdb88195a002e8dd4cbf6ec9bc7f606005604051620001a09062000408565b908152604080516020928190038301812080546001600160a01b0319166001600160a01b039590951694909417909355828101905260088252671514d3104bd554d160c21b8183019081527365cac0f09efdb88195a002e8dd4cbf6ec9bc7f606000526006909152905162000237917fb5aea66d9b9a38ebc3abed41876b8c9b8e80920b3fb821e1e214caaf12318c2391620002c6565b50620002426200026b565b600d80546001600160a01b0319166001600160a01b039290921691909117905550620004329050565b3390565b8260028101928215620002b4579160200282015b82811115620002b45782518051620002a3918491602090910190620002c6565b509160200191906001019062000283565b50620002c292915062000347565b5090565b828054600181600116156101000203166002900490600052602060002090601f016020900481019282601f106200030957805160ff191683800117855562000339565b8280016001018555821562000339579182015b82811115620003395782518255916020019190600101906200031c565b50620002c292915062000368565b80821115620002c25760006200035e82826200037f565b5060010162000347565b5b80821115620002c2576000815560010162000369565b50805460018160011615610100020316600290046000825580601f10620003a75750620003c7565b601f016020900490600052602060002090810190620003c7919062000368565b50565b60008060408385031215620003dd578182fd5b8251620003ea816200041c565b6020840151909250620003fd816200041c565b809150509250929050565b671514d3104bd554d160c21b815260080190565b6001600160a01b0381168114620003c757600080fd5b61315a80620004426000396000f3fe608060405234801561001057600080fd5b50600436106102065760003560e01c80638223c7701161011a578063b32ec546116100ad578063d0d41fe11161007c578063d0d41fe1146103e5578063e150f647146103f8578063f2fde38b1461040b578063f3a014a21461041e578063fcb589d51461043157610206565b8063b32ec546146103a4578063b4eae1cb146103b7578063bad82690146103bf578063bf15c3e1146103d257610206565b80638da5cb5b116100e95780638da5cb5b14610379578063956dcd1f1461038157806396ce0795146103895780639a12944c1461039157610206565b80638223c770146103385780638456cb591461034b57806386b9d81f14610353578063876467f81461036657610206565b80634e55b8a71161019d5780636c0daed81161016c5780636c0daed8146102ef5780636d75b9ee146103025780636e1aa51b14610315578063715018a61461031d5780637bda6e281461032557610206565b80634e55b8a7146102b75780635bcbdc96146102bf5780635c975abb146102d257806365c3ad00146102e757610206565b80631775765f116101d95780631775765f1461027d5780633ad10ef6146102855780633f4ba83a1461028d5780633f97bc5b1461029757610206565b8063095f14041461020b5780630b87d86e14610229578063120e4d6d1461023e57806314057fca14610251575b600080fd5b610213610455565b6040516102209190613080565b60405180910390f35b61023161045b565b6040516102209190612aa6565b61023161024c3660046127d4565b61046a565b61026461025f36600461274e565b61049f565b6040516102209d9c9b9a99989796959493929190612b11565b61021361051f565b610231610525565b610295610534565b005b6102aa6102a5366004612987565b6105a0565b6040516102209190612b8a565b610213610657565b6102956102cd3660046128e5565b61065d565b6102da6106c2565b6040516102209190612b7f565b6102136106d2565b6102136102fd366004612865565b6106d8565b6102956103103660046127d4565b6107c3565b610231610ab2565b610295610ac1565b6102956103333660046128a0565b610b40565b610295610346366004612786565b610bb9565b610295610c17565b61029561036136600461281f565b610c79565b6102956103743660046127d4565b611100565b6102316113bc565b6102316113cb565b6102136113da565b61029561039f366004612831565b6113e0565b6102956103b23660046127d4565b611733565b610213611ca6565b6102316103cd366004612865565b611cac565b6102aa6103e0366004612732565b611cd2565b6102956103f3366004612732565b611d3a565b6102956104063660046127d4565b611dce565b610295610419366004612732565b612069565b6102da61042c366004612865565b61211f565b61044461043f36600461281f565b61213c565b604051610220959493929190613089565b600a5481565b6002546001600160a01b031681565b600f602052816000526040600020818154811061048357fe5b6000918252602090912001546001600160a01b03169150829050565b600e602090815260009283526040808420909152908252902080546001820154600283015460038401546004850154600586015460068701546007880154600889015460098a0154600a8b0154600b8c0154600c909c01546001600160a01b039b8c169c9a8c169b9099169997989697959694959394929391929091908d565b60095481565b600d546001600160a01b031681565b61053c6106c2565b6105615760405162461bcd60e51b815260040161055890612beb565b60405180910390fd5b6105696122f5565b6000546001600160a01b039081169116146105965760405162461bcd60e51b815260040161055890612e9b565b61059e6122f9565b565b8151602081840181018051600482529282019185019190912091905281600281106105c757fe5b01805460408051602060026001851615610100026000190190941693909304601f8101849004840282018401909252818152945091925083018282801561064f5780601f106106245761010080835404028352916020019161064f565b820191906000526020600020905b81548152906001019060200180831161063257829003601f168201915b505050505081565b600c5481565b6106656122f5565b6000546001600160a01b039081169116146106925760405162461bcd60e51b815260040161055890612e9b565b806004836040516106a39190612a8a565b9081526040519081900360200190206106bd916002612565565b505050565b600054600160a01b900460ff1690565b600b5481565b60006106e38261211f565b6106ec57600080fd5b6106f46125b5565b6003546040516001600160a01b03909116906365555bcc9060049061071a908790612a8a565b90815260405190819003602001902060000160048660405161073c9190612a8a565b9081526040519081900360200190206001016040518363ffffffff1660e01b815260040161076b929190612bbd565b60606040518083038186803b15801561078357600080fd5b505afa158015610797573d6000803e3d6000fd5b505050506040513d601f19601f820116820180604052508101906107bb91906129ca565b519392505050565b6107cb6106c2565b156107e85760405162461bcd60e51b815260040161055890612d94565b6000600e60006107f66122f5565b6001600160a01b03166001600160a01b031681526020019081526020016000206000846001600160a01b03166001600160a01b031681526020019081526020016000209050600081600301541161085f5760405162461bcd60e51b815260040161055890612d2d565b600481015461086e908361236a565b60048201556001600160a01b038316600090815260066020908152604080832080548251601f6002600019610100600186161502019093169290920491820185900485028101850190935280835261091b938301828280156109115780601f106108e657610100808354040283529160200191610911565b820191906000526020600020905b8154815290600101906020018083116108f457829003601f168201915b50505050506106d8565b9050600061094260075461093c84866003015461239890919063ffffffff16565b906123d2565b9050600061096160075461093c6008548561239890919063ffffffff16565b9050600061097c82866004015461241490919063ffffffff16565b6002549091506001600160a01b03166323b872dd6109986122f5565b30896040518463ffffffff1660e01b81526004016109b893929190612aba565b602060405180830381600087803b1580156109d257600080fd5b505af11580156109e6573d6000803e3d6000fd5b505050506040513d601f19601f82011682018060405250810190610a0a91906127ff565b610a1357600080fd5b610a21856004015484612456565b60058601819055610a33908590612476565b600686015560088501819055610a498184612456565b6007860155600c850184905542600986015543600a860155610a696122f5565b6001600160a01b03167f2ac90482c3b6bea30a2c085cf093016bad7f970d91c5fd233e6b848d3e231dc387604051610aa19190613080565b60405180910390a250505050505050565b6001546001600160a01b031681565b610ac96122f5565b6000546001600160a01b03908116911614610af65760405162461bcd60e51b815260040161055890612e9b565b600080546040516001600160a01b03909116907f8be0079c531659141344cd1fd0a4f28419497f9722a3daafe3b4186f6b6457e0908390a3600080546001600160a01b0319169055565b610b486122f5565b6000546001600160a01b03908116911614610b755760405162461bcd60e51b815260040161055890612e9b565b80600583604051610b869190612a8a565b90815260405190819003602001902080546001600160a01b03929092166001600160a01b03199092169190911790555050565b610bc16122f5565b6000546001600160a01b03908116911614610bee5760405162461bcd60e51b815260040161055890612e9b565b6001600160a01b038216600090815260066020908152604090912082516106bd928401906125d6565b610c1f6106c2565b15610c3c5760405162461bcd60e51b815260040161055890612d94565b610c446122f5565b6000546001600160a01b03908116911614610c715760405162461bcd60e51b815260040161055890612e9b565b61059e6124a1565b610c816106c2565b15610c9e5760405162461bcd60e51b815260040161055890612d94565b6001600160a01b038082166000908152600e60209081526040808320868516845290915290208054909116610ce55760405162461bcd60e51b815260040161055890612f8d565b600954816005015410610d0a5760405162461bcd60e51b815260040161055890612dbe565b6001600160a01b038316600090815260066020908152604080832080548251601f60026000196101006001861615020190931692909204918201859004850281018501909352808352610d7d938301828280156109115780601f106108e657610100808354040283529160200191610911565b905080826006015410610da25760405162461bcd60e51b815260040161055890612c19565b6000610dc160075461093c84866003015461239890919063ffffffff16565b90506000610ddc82856004015461241490919063ffffffff16565b90506000610dfb60075461093c600c548561239890919063ffffffff16565b90506000610e1a60075461093c600a548661239890919063ffffffff16565b90506000610e3960075461093c600b548761239890919063ffffffff16565b6002549091506001600160a01b03166323b872dd610e556122f5565b30886040518463ffffffff1660e01b8152600401610e7593929190612aba565b602060405180830381600087803b158015610e8f57600080fd5b505af1158015610ea3573d6000803e3d6000fd5b505050506040513d601f19601f82011682018060405250810190610ec791906127ff565b50600254875460405163a9059cbb60e01b81526001600160a01b039283169263a9059cbb92610efd929116908790600401612ade565b602060405180830381600087803b158015610f1757600080fd5b505af1158015610f2b573d6000803e3d6000fd5b505050506040513d601f19601f82011682018060405250810190610f4f91906127ff565b506002546001600160a01b031663a9059cbb610f696122f5565b846040518363ffffffff1660e01b8152600401610f87929190612ade565b602060405180830381600087803b158015610fa157600080fd5b505af1158015610fb5573d6000803e3d6000fd5b505050506040513d601f19601f82011682018060405250810190610fd991906127ff565b50600254600d5460405163a9059cbb60e01b81526001600160a01b039283169263a9059cbb92611010929116908590600401612ade565b602060405180830381600087803b15801561102a57600080fd5b505af115801561103e573d6000803e3d6000fd5b505050506040513d601f19601f8201168201806040525081019061106291906127ff565b5050506001600160a01b039586166000908152600e602090815260408083209990981682529790975250505091832080546001600160a01b0319908116825560018201805482169055600282018054909116905560038101849055600481018490556005810184905560068101849055600781018490556008810184905560098101849055600a8101849055600b8101849055600c01929092555050565b6111086106c2565b156111255760405162461bcd60e51b815260040161055890612d94565b6000600e60006111336122f5565b6001600160a01b03166001600160a01b031681526020019081526020016000206000846001600160a01b03166001600160a01b031681526020019081526020016000209050600081600301541161119c5760405162461bcd60e51b815260040161055890612ed0565b60048101546111ab9083612414565b600482015560088101548211156111d45760405162461bcd60e51b815260040161055890613023565b6001600160a01b038316600090815260066020908152604080832080548251601f60026000196101006001861615020190931692909204918201859004850281018501909352808352611247938301828280156109115780601f106108e657610100808354040283529160200191610911565b9050600061126860075461093c84866003015461239890919063ffffffff16565b9050600061128760075461093c6008548561239890919063ffffffff16565b905060006112a282866004015461241490919063ffffffff16565b90506002546001600160a01b031663a9059cbb6112bd6122f5565b886040518363ffffffff1660e01b81526004016112db929190612ade565b602060405180830381600087803b1580156112f557600080fd5b505af1158015611309573d6000803e3d6000fd5b505050506040513d601f19601f8201168201806040525081019061132d91906127ff565b5061133c856004015484612456565b6005860181905561134e908590612476565b6006860155600885018190556113648184612456565b6007860155600c850184905542600986015543600a8601556113846122f5565b6001600160a01b03167fe25410a4059619c9594dc6f022fe231b02aaea733f689e7ab0cd21b3d4d0eb5487604051610aa19190613080565b6000546001600160a01b031690565b6003546001600160a01b031681565b60075481565b6113e86106c2565b156114055760405162461bcd60e51b815260040161055890612d94565b6000600e60006114136122f5565b6001600160a01b0390811682526020808301939093526040918201600090812088831682529093529120805490925016156114605760405162461bcd60e51b815260040161055890612f3d565b6001600160a01b038416600090815260066020908152604080832080548251601f600260001961010060018616150201909316929092049182018590048502810185019093528083526114d3938301828280156109115780601f106108e657610100808354040283529160200191610911565b905060006114f060075461093c848861239890919063ffffffff16565b9050600061150f60075461093c6008548561239890919063ffffffff16565b9050808510156115315760405162461bcd60e51b815260040161055890612ce3565b600061153d8683612414565b9050876001600160a01b03166340c10f196115566122f5565b896040518363ffffffff1660e01b8152600401611574929190612ade565b600060405180830381600087803b15801561158e57600080fd5b505af11580156115a2573d6000803e3d6000fd5b50506002546001600160a01b031691506323b872dd90506115c16122f5565b30896040518463ffffffff1660e01b81526004016115e193929190612aba565b602060405180830381600087803b1580156115fb57600080fd5b505af115801561160f573d6000803e3d6000fd5b505050506040513d601f19601f8201168201806040525081019061163391906127ff565b61163c57600080fd5b6116446122f5565b85546001600160a01b03199081166001600160a01b0392831617875560018701805482168b84161790556002805490880180549190931691161790556003850187905560048501869055600b8501849055600c85018490556116a68684612456565b600586018190556116b8908590612476565b6006860155600885018190556116ce8184612456565b600786015542600986015543600a8601556001600160a01b0388167fd7918d04fa8d2763da038d81b4ab65ea7b9eb8e5e3b199c548142ac304a8ad6f6117126122f5565b89604051611721929190612ade565b60405180910390a25050505050505050565b61173b6106c2565b156117585760405162461bcd60e51b815260040161055890612d94565b6000600e60006117666122f5565b6001600160a01b03166001600160a01b031681526020019081526020016000206000846001600160a01b03166001600160a01b03168152602001908152602001600020905081816003015410156117cf5760405162461bcd60e51b815260040161055890612e05565b80600301548214156119b157826001600160a01b03166379cc67906117f26122f5565b846040518363ffffffff1660e01b8152600401611810929190612ade565b600060405180830381600087803b15801561182a57600080fd5b505af115801561183e573d6000803e3d6000fd5b50506002546001600160a01b0316915063a9059cbb905061185d6122f5565b83600401546040518363ffffffff1660e01b815260040161187f929190612ade565b602060405180830381600087803b15801561189957600080fd5b505af11580156118ad573d6000803e3d6000fd5b505050506040513d601f19601f820116820180604052508101906118d191906127ff565b50600e60006118de6122f5565b6001600160a01b039081168252602080830193909352604091820160009081209187168082529190935281832080546001600160a01b0319908116825560018201805482169055600282018054909116905560038101849055600481018490556005810184905560068101849055600781018490556008810184905560098101849055600a8101849055600b8101849055600c0192909255517fb99b782c502642cbb60ce7d75f893727e5ef94003f2f9e56bcbbb013615e193e906119a4908590613080565b60405180910390a26106bd565b60006119c1838360030154612456565b9050600060075482846003015402816119d657fe5b049050600060075483856004015402816119ec57fe5b6001600160a01b038816600090815260066020908152604080832080548251601f600260001961010060018616150201909316929092049182018590048502810185019093528083529590940495509193611a6893918301828280156109115780601f106108e657610100808354040283529160200191610911565b90506000611a8383876004015461241490919063ffffffff16565b90506000611a9e85886003015461241490919063ffffffff16565b90506000611abb60075461093c868561239890919063ffffffff16565b90506000611ada60075461093c6008548561239890919063ffffffff16565b905080841015611afc5760405162461bcd60e51b815260040161055890612fd1565b6000611b088583612414565b90508b6001600160a01b03166379cc6790611b216122f5565b8a6040518363ffffffff1660e01b8152600401611b3f929190612ade565b600060405180830381600087803b158015611b5957600080fd5b505af1158015611b6d573d6000803e3d6000fd5b50506002546001600160a01b0316915063a9059cbb9050611b8c6122f5565b896040518363ffffffff1660e01b8152600401611baa929190612ade565b602060405180830381600087803b158015611bc457600080fd5b505af1158015611bd8573d6000803e3d6000fd5b505050506040513d601f19601f82011682018060405250810190611bfc91906127ff565b5060038a0184905560048a01859055611c158584612456565b60058b01819055611c27908790612476565b60068b015560088a01819055611c3d8184612456565b60078b0155600c8a018690554260098b015543600a8b01556040516001600160a01b038d16907fb99b782c502642cbb60ce7d75f893727e5ef94003f2f9e56bcbbb013615e193e90611c90908e90613080565b60405180910390a2505050505050505050505050565b60085481565b80516020818301810180516005825292820191909301209152546001600160a01b031681565b60066020908152600091825260409182902080548351601f60026000196101006001861615020190931692909204918201849004840281018401909452808452909183018282801561064f5780601f106106245761010080835404028352916020019161064f565b611d426122f5565b6000546001600160a01b03908116911614611d6f5760405162461bcd60e51b815260040161055890612e9b565b600d80546001600160a01b038381166001600160a01b03198316179092556040519116907f618c54559e94f1499a808aad71ee8729f8e74e8c48e979616328ce493a1a52e790611dc29083908590612af7565b60405180910390a15050565b611dd66122f5565b6000546001600160a01b03908116911614611e035760405162461bcd60e51b815260040161055890612e9b565b611e0b6106c2565b15611e285760405162461bcd60e51b815260040161055890612d94565b6000600e6000611e366122f5565b6001600160a01b03166001600160a01b031681526020019081526020016000206000846001600160a01b03166001600160a01b0316815260200190815260200160002090506000816003015411611e9f5760405162461bcd60e51b815260040161055890612ed0565b6004810154611eae9083612414565b60048201556001600160a01b038316600090815260066020908152604080832080548251601f60026000196101006001861615020190931692909204918201859004850281018501909352808352611f26938301828280156109115780601f106108e657610100808354040283529160200191610911565b90506000611f4760075461093c84866003015461239890919063ffffffff16565b6002549091506001600160a01b031663a9059cbb611f636122f5565b866040518363ffffffff1660e01b8152600401611f81929190612ade565b602060405180830381600087803b158015611f9b57600080fd5b505af1158015611faf573d6000803e3d6000fd5b505050506040513d601f19601f82011682018060405250810190611fd391906127ff565b50611fe2836004015482612456565b60058401819055611ff4908390612476565b60068401556000600884018190556007840155600c830182905542600984015543600a8401556120226122f5565b6001600160a01b03167fe25410a4059619c9594dc6f022fe231b02aaea733f689e7ab0cd21b3d4d0eb548560405161205a9190613080565b60405180910390a25050505050565b6120716122f5565b6000546001600160a01b0390811691161461209e5760405162461bcd60e51b815260040161055890612e9b565b6001600160a01b0381166120c45760405162461bcd60e51b815260040161055890612c66565b600080546040516001600160a01b03808516939216917f8be0079c531659141344cd1fd0a4f28419497f9722a3daafe3b4186f6b6457e091a3600080546001600160a01b0319166001600160a01b0392909216919091179055565b6000806004836040516121329190612a8a565b5260021192915050565b6001600160a01b038082166000908152600e60209081526040808320868516845290915281208054919283928392839283921661218b5760405162461bcd60e51b815260040161055890612f8d565b6009548160050154106121b05760405162461bcd60e51b815260040161055890612dbe565b6001600160a01b038816600090815260066020908152604080832080548251601f60026000196101006001861615020190931692909204918201859004850281018501909352808352612223938301828280156109115780601f106108e657610100808354040283529160200191610911565b9050808260060154106122485760405162461bcd60e51b815260040161055890612c19565b600061226760075461093c84866003015461239890919063ffffffff16565b9050600061228282856004015461241490919063ffffffff16565b905060006122a160075461093c600c548561239890919063ffffffff16565b905060006122c060075461093c600a548661239890919063ffffffff16565b905060006122df60075461093c600b548761239890919063ffffffff16565b949e939d50919b50995091975095505050505050565b3390565b6123016106c2565b61231d5760405162461bcd60e51b815260040161055890612beb565b6000805460ff60a01b191690557f5db9ee0a495bf2e6ff9c91a7834c1ba4fdd244a5e8aa4e537bd38aeae4b073aa6123536122f5565b6040516123609190612aa6565b60405180910390a1565b60008282018381101561238f5760405162461bcd60e51b815260040161055890612cac565b90505b92915050565b6000826123a757506000612392565b828202828482816123b457fe5b041461238f5760405162461bcd60e51b815260040161055890612e5a565b600061238f83836040518060400160405280601a81526020017f536166654d6174683a206469766973696f6e206279207a65726f000000000000815250612502565b600061238f83836040518060400160405280601e81526020017f536166654d6174683a207375627472616374696f6e206f766572666c6f770000815250612539565b60075460009061238f9061093c8161247086838984612398565b90612398565b600061238f60075461093c61249a600754600954038661241490919063ffffffff16565b8690612398565b6124a96106c2565b156124c65760405162461bcd60e51b815260040161055890612d94565b6000805460ff60a01b1916600160a01b1790557f62e78cea01bee320cd4e420270b5ea74000d11b0c9f74754ebdbfc544b05a2586123536122f5565b600081836125235760405162461bcd60e51b81526004016105589190612b8a565b50600083858161252f57fe5b0495945050505050565b6000818484111561255d5760405162461bcd60e51b81526004016105589190612b8a565b505050900390565b82600281019282156125a5579160200282015b828111156125a557825180516125959184916020909101906125d6565b5091602001919060010190612578565b506125b1929150612650565b5090565b60405180606001604052806000815260200160008152602001600081525090565b828054600181600116156101000203166002900490600052602060002090601f016020900481019282601f1061261757805160ff1916838001178555612644565b82800160010185558215612644579182015b82811115612644578251825591602001919060010190612629565b506125b192915061266d565b808211156125b15760006126648282612682565b50600101612650565b5b808211156125b1576000815560010161266e565b50805460018160011615610100020316600290046000825580601f106126a857506126c6565b601f0160209004906000526020600020908101906126c6919061266d565b50565b600082601f8301126126d9578081fd5b813567ffffffffffffffff8111156126ef578182fd5b612702601f8201601f19166020016130ac565b915080825283602082850101111561271957600080fd5b8060208401602084013760009082016020015292915050565b600060208284031215612743578081fd5b813561238f8161310f565b60008060408385031215612760578081fd5b823561276b8161310f565b9150602083013561277b8161310f565b809150509250929050565b60008060408385031215612798578182fd5b82356127a38161310f565b9150602083013567ffffffffffffffff8111156127be578182fd5b6127ca858286016126c9565b9150509250929050565b600080604083850312156127e6578182fd5b82356127f18161310f565b946020939093013593505050565b600060208284031215612810578081fd5b8151801515811461238f578182fd5b60008060408385031215612760578182fd5b600080600060608486031215612845578081fd5b83356128508161310f565b95602085013595506040909401359392505050565b600060208284031215612876578081fd5b813567ffffffffffffffff81111561288c578182fd5b612898848285016126c9565b949350505050565b600080604083850312156128b2578182fd5b823567ffffffffffffffff8111156128c8578283fd5b6128d4858286016126c9565b925050602083013561277b8161310f565b600080604083850312156128f7578182fd5b823567ffffffffffffffff8082111561290e578384fd5b61291a868387016126c9565b9350602091508185013581811115612930578384fd5b85019050601f81018613612942578283fd5b61294c60406130ac565b8082855b6002811015612978576129668a833587016126c9565b84529285019290850190600101612950565b50959890975095505050505050565b60008060408385031215612999578182fd5b823567ffffffffffffffff8111156129af578283fd5b6129bb858286016126c9565b95602094909401359450505050565b6000606082840312156129db578081fd5b6129e560606130ac565b8251815260208301516020820152604083015160408201528091505092915050565b60008154600180821660008114612a255760018114612a4357612a81565b60028304607f16865260ff1983166020870152604086019350612a81565b60028304808752612a53866130d3565b60005b82811015612a775781546020828b0101528482019150602081019050612a56565b8801602001955050505b50505092915050565b60008251612a9c8184602087016130df565b9190910192915050565b6001600160a01b0391909116815260200190565b6001600160a01b039384168152919092166020820152604081019190915260600190565b6001600160a01b03929092168252602082015260400190565b6001600160a01b0392831681529116602082015260400190565b6001600160a01b039d8e1681529b8d1660208d015299909b1660408b015260608a0197909752608089019590955260a088019390935260c087019190915260e08601526101008501526101208401526101408301526101608201929092526101808101919091526101a00190565b901515815260200190565b6000602082528251806020840152612ba98160408501602087016130df565b601f01601f19169190910160400192915050565b600060408252612bd06040830185612a07565b8281036020840152612be28185612a07565b95945050505050565b60208082526014908201527314185d5cd8589b194e881b9bdd081c185d5cd95960621b604082015260600190565b6020808252602d908201527f53796e7468657469633a3a6c69717569646174653a206173736574207072696360408201526c6520697320736173746973667960981b606082015260800190565b60208082526026908201527f4f776e61626c653a206e6577206f776e657220697320746865207a65726f206160408201526564647265737360d01b606082015260800190565b6020808252601b908201527f536166654d6174683a206164646974696f6e206f766572666c6f770000000000604082015260600190565b6020808252602a908201527f53796e7468657469633a3a6d696e7453796e7468657469633a20756e6465722060408201526918dbdb1b185d195c985b60b21b606082015260800190565b60208082526041908201527f53796e7468657469633a3a616464436f6c6c61746572616c3a2063616e6e6f7460408201527f2061646420636f6c6c61746572616c20746f20656d70747920636f6e747261636060820152601d60fa1b608082015260a00190565b60208082526010908201526f14185d5cd8589b194e881c185d5cd95960821b604082015260600190565b60208082526027908201527f53796e7468657469633a3a6c69717569646174653a20726174696f20697320736040820152666173746973667960c81b606082015260800190565b60208082526035908201527f53796e7468657469633a3a72656465656d53796e7468657469633a20616d6f756040820152741b9d08195e18d959591cc818dbdb1b185d195c985b605a1b606082015260800190565b60208082526021908201527f536166654d6174683a206d756c7469706c69636174696f6e206f766572666c6f6040820152607760f81b606082015260800190565b6020808252818101527f4f776e61626c653a2063616c6c6572206973206e6f7420746865206f776e6572604082015260600190565b60208082526047908201527f53796e7468657469633a3a72656d6f7665436f6c6c61746572616c3a2063616e60408201527f6e6f742072656d6f766520636f6c6c61746572616c20746f20656d70747920636060820152661bdb9d1c9858dd60ca1b608082015260a00190565b60208082526030908201527f53796e7468657469633a3a6d696e7453796e7468657469633a207472616e736660408201526f657220746f206164647265737328302960801b606082015260800190565b60208082526024908201527f53796e7468657469633a3a6c69717569646174653a20656d70747920636f6e746040820152631c9858dd60e21b606082015260800190565b60208082526032908201527f53796e7468657469633a3a72656465656d53796e7468657469633a20756e64656040820152717220636f6c6c61746572616c20726174696f60701b606082015260800190565b6020808252603f908201527f53796e7468657469633a3a72656d6f7665436f6c6c61746572616c3a20616d6f60408201527f756e74206578636565647320726571756972656420636f6c6c61746572616c00606082015260800190565b90815260200190565b948552602085019390935260408401919091526060830152608082015260a00190565b60405181810167ffffffffffffffff811182821017156130cb57600080fd5b604052919050565b60009081526020902090565b60005b838110156130fa5781810151838201526020016130e2565b83811115613109576000848401525b50505050565b6001600160a01b03811681146126c657600080fdfea2646970667358221220f4d995d955d3b852e168fcc56b4d22f41a0352643134548cea629ec62ed189eb64736f6c634300060c0033",
  "linkReferences": {},
  "deployedLinkReferences": {}
}