{
  "_format": "hh-sol-artifact-1",
  "contractName": "Synthetic",
  "sourceName": "contracts/Synthetic.sol",
  "abi": [
    {
      "inputs": [
        {
          "internalType": "contract IERC20",
          "name": "_dolly",
          "type": "address"
        },
        {
          "internalType": "contract IStdReference",
          "name": "_ref",
          "type": "address"
        }
      ],
      "stateMutability": "nonpayable",
      "type": "constructor"
    },
    {
      "anonymous": false,
      "inputs": [
        {
          "indexed": false,
          "internalType": "address",
          "name": "minter",
          "type": "address"
        },
        {
          "indexed": true,
          "internalType": "address",
          "name": "syntheticAddress",
          "type": "address"
        },
        {
          "indexed": false,
          "internalType": "uint256",
          "name": "amount",
          "type": "uint256"
        }
      ],
      "name": "MintAsset",
      "type": "event"
    },
    {
      "anonymous": false,
      "inputs": [
        {
          "indexed": true,
          "internalType": "address",
          "name": "previousOwner",
          "type": "address"
        },
        {
          "indexed": true,
          "internalType": "address",
          "name": "newOwner",
          "type": "address"
        }
      ],
      "name": "OwnershipTransferred",
      "type": "event"
    },
    {
      "anonymous": false,
      "inputs": [
        {
          "indexed": true,
          "internalType": "address",
          "name": "syntheticAddress",
          "type": "address"
        },
        {
          "indexed": false,
          "internalType": "uint256",
          "name": "amount",
          "type": "uint256"
        }
      ],
      "name": "RedeemAsset",
      "type": "event"
    },
    {
      "anonymous": false,
      "inputs": [
        {
          "indexed": true,
          "internalType": "address",
          "name": "user",
          "type": "address"
        },
        {
          "indexed": false,
          "internalType": "uint256",
          "name": "amount",
          "type": "uint256"
        }
      ],
      "name": "addCollateral",
      "type": "event"
    },
    {
      "anonymous": false,
      "inputs": [
        {
          "indexed": true,
          "internalType": "address",
          "name": "liquidated",
          "type": "address"
        },
        {
          "indexed": true,
          "internalType": "address",
          "name": "liquidator",
          "type": "address"
        },
        {
          "indexed": true,
          "internalType": "address",
          "name": "syntheticAddress",
          "type": "address"
        },
        {
          "indexed": false,
          "internalType": "uint256",
          "name": "amount",
          "type": "uint256"
        },
        {
          "indexed": false,
          "internalType": "uint256",
          "name": "timestamp",
          "type": "uint256"
        }
      ],
      "name": "liquidated",
      "type": "event"
    },
    {
      "anonymous": false,
      "inputs": [
        {
          "indexed": true,
          "internalType": "address",
          "name": "user",
          "type": "address"
        },
        {
          "indexed": false,
          "internalType": "uint256",
          "name": "amount",
          "type": "uint256"
        }
      ],
      "name": "removeCollateral",
      "type": "event"
    },
    {
      "inputs": [
        {
          "internalType": "address",
          "name": "",
          "type": "address"
        }
      ],
      "name": "addressToPairs",
      "outputs": [
        {
          "internalType": "string",
          "name": "",
          "type": "string"
        }
      ],
      "stateMutability": "view",
      "type": "function"
    },
    {
      "inputs": [],
      "name": "bandOracle",
      "outputs": [
        {
          "internalType": "contract IStdReference",
          "name": "",
          "type": "address"
        }
      ],
      "stateMutability": "view",
      "type": "function"
    },
    {
      "inputs": [],
      "name": "collateralRatio",
      "outputs": [
        {
          "internalType": "uint256",
          "name": "",
          "type": "uint256"
        }
      ],
      "stateMutability": "view",
      "type": "function"
    },
    {
      "inputs": [],
      "name": "denominator",
      "outputs": [
        {
          "internalType": "uint256",
          "name": "",
          "type": "uint256"
        }
      ],
      "stateMutability": "view",
      "type": "function"
    },
    {
      "inputs": [],
      "name": "dolly",
      "outputs": [
        {
          "internalType": "contract IERC20",
          "name": "",
          "type": "address"
        }
      ],
      "stateMutability": "view",
      "type": "function"
    },
    {
      "inputs": [
        {
          "internalType": "string",
          "name": "_pairs",
          "type": "string"
        }
      ],
      "name": "getRate",
      "outputs": [
        {
          "internalType": "uint256",
          "name": "",
          "type": "uint256"
        }
      ],
      "stateMutability": "view",
      "type": "function"
    },
    {
      "inputs": [
        {
          "internalType": "string",
          "name": "_pairs",
          "type": "string"
        }
      ],
      "name": "isSupported",
      "outputs": [
        {
          "internalType": "bool",
          "name": "",
          "type": "bool"
        }
      ],
      "stateMutability": "view",
      "type": "function"
    },
    {
      "inputs": [],
      "name": "liquidate",
      "outputs": [],
      "stateMutability": "nonpayable",
      "type": "function"
    },
    {
      "inputs": [],
      "name": "liquidationRatio",
      "outputs": [
        {
          "internalType": "uint256",
          "name": "",
          "type": "uint256"
        }
      ],
      "stateMutability": "view",
      "type": "function"
    },
    {
      "inputs": [
        {
          "internalType": "contract IERC20Burnable",
          "name": "_synthetic",
          "type": "address"
        },
        {
          "internalType": "uint256",
          "name": "_amount",
          "type": "uint256"
        },
        {
          "internalType": "uint256",
          "name": "_backedAmount",
          "type": "uint256"
        }
      ],
      "name": "mintSynthetic",
      "outputs": [],
      "stateMutability": "nonpayable",
      "type": "function"
    },
    {
      "inputs": [
        {
          "internalType": "address",
          "name": "",
          "type": "address"
        },
        {
          "internalType": "address",
          "name": "",
          "type": "address"
        }
      ],
      "name": "minter",
      "outputs": [
        {
          "internalType": "address",
          "name": "minter",
          "type": "address"
        },
        {
          "internalType": "contract IERC20Burnable",
          "name": "asset",
          "type": "address"
        },
        {
          "internalType": "contract IERC20",
          "name": "assetBacked",
          "type": "address"
        },
        {
          "internalType": "uint256",
          "name": "assetAmount",
          "type": "uint256"
        },
        {
          "internalType": "uint256",
          "name": "assetBackedAmount",
          "type": "uint256"
        },
        {
          "internalType": "uint256",
          "name": "currentRatio",
          "type": "uint256"
        },
        {
          "internalType": "uint256",
          "name": "willLiquidateAtPrice",
          "type": "uint256"
        },
        {
          "internalType": "uint256",
          "name": "canMintRemainning",
          "type": "uint256"
        },
        {
          "internalType": "uint256",
          "name": "canWithdrawRemainning",
          "type": "uint256"
        },
        {
          "internalType": "uint256",
          "name": "updatedAt",
          "type": "uint256"
        },
        {
          "internalType": "uint256",
          "name": "updatedBlock",
          "type": "uint256"
        },
        {
          "internalType": "uint256",
          "name": "exchangeRateAtMinted",
          "type": "uint256"
        }
      ],
      "stateMutability": "view",
      "type": "function"
    },
    {
      "inputs": [],
      "name": "owner",
      "outputs": [
        {
          "internalType": "address",
          "name": "",
          "type": "address"
        }
      ],
      "stateMutability": "view",
      "type": "function"
    },
    {
      "inputs": [
        {
          "internalType": "string",
          "name": "",
          "type": "string"
        }
      ],
      "name": "pairsToAddress",
      "outputs": [
        {
          "internalType": "address",
          "name": "",
          "type": "address"
        }
      ],
      "stateMutability": "view",
      "type": "function"
    },
    {
      "inputs": [
        {
          "internalType": "string",
          "name": "",
          "type": "string"
        },
        {
          "internalType": "uint256",
          "name": "",
          "type": "uint256"
        }
      ],
      "name": "pairsToQuote",
      "outputs": [
        {
          "internalType": "string",
          "name": "",
          "type": "string"
        }
      ],
      "stateMutability": "view",
      "type": "function"
    },
    {
      "inputs": [
        {
          "internalType": "contract IERC20Burnable",
          "name": "_synthetic",
          "type": "address"
        },
        {
          "internalType": "uint256",
          "name": "_amount",
          "type": "uint256"
        }
      ],
      "name": "redeemSynthetic",
      "outputs": [],
      "stateMutability": "nonpayable",
      "type": "function"
    },
    {
      "inputs": [],
      "name": "renounceOwnership",
      "outputs": [],
      "stateMutability": "nonpayable",
      "type": "function"
    },
    {
      "inputs": [
        {
          "internalType": "address",
          "name": "_syntheticAddress",
          "type": "address"
        },
        {
          "internalType": "string",
          "name": "_pairs",
          "type": "string"
        }
      ],
      "name": "setAddressToPairs",
      "outputs": [],
      "stateMutability": "nonpayable",
      "type": "function"
    },
    {
      "inputs": [
        {
          "internalType": "string",
          "name": "_pairs",
          "type": "string"
        },
        {
          "internalType": "address",
          "name": "_syntheticAddress",
          "type": "address"
        }
      ],
      "name": "setPairsToAddress",
      "outputs": [],
      "stateMutability": "nonpayable",
      "type": "function"
    },
    {
      "inputs": [
        {
          "internalType": "string",
          "name": "_pairs",
          "type": "string"
        },
        {
          "internalType": "string[2]",
          "name": "baseAndQuote",
          "type": "string[2]"
        }
      ],
      "name": "setPairsToQuote",
      "outputs": [],
      "stateMutability": "nonpayable",
      "type": "function"
    },
    {
      "inputs": [],
      "name": "systheticAsset",
      "outputs": [
        {
          "internalType": "contract IERC20Burnable",
          "name": "",
          "type": "address"
        }
      ],
      "stateMutability": "view",
      "type": "function"
    },
    {
      "inputs": [
        {
          "internalType": "address",
          "name": "newOwner",
          "type": "address"
        }
      ],
      "name": "transferOwnership",
      "outputs": [],
      "stateMutability": "nonpayable",
      "type": "function"
    }
  ],
  "bytecode": "0x6080604052670de0b6b3a76400006007556714d1120d7b160000600855671158e460913d00006009553480156200003557600080fd5b5060405162001d5438038062001d54833981016040819052620000589162000370565b60006200006462000211565b600080546001600160a01b0319166001600160a01b0383169081178255604051929350917f8be0079c531659141344cd1fd0a4f28419497f9722a3daafe3b4186f6b6457e0908290a350600280546001600160a01b038085166001600160a01b03199283161790925560038054928416929091169190911781556040805160808101825260048183018181526354534c4160e01b6060840152825282518084018452938452621554d160ea1b60208581019190915282019390935290519091906200012f90620003ae565b9081526040519081900360200190206200014b91600262000215565b507365cac0f09efdb88195a002e8dd4cbf6ec9bc7f6060056040516200017190620003ae565b908152604080516020928190038301812080546001600160a01b0319166001600160a01b039590951694909417909355828101905260088252671514d3104bd554d160c21b8183019081527365cac0f09efdb88195a002e8dd4cbf6ec9bc7f606000526006909152905162000208917fb5aea66d9b9a38ebc3abed41876b8c9b8e80920b3fb821e1e214caaf12318c23916200026c565b505050620003d8565b3390565b82600281019282156200025a579160200282015b828111156200025a5782518051620002499184916020909101906200026c565b509160200191906001019062000229565b5062000268929150620002ed565b5090565b828054600181600116156101000203166002900490600052602060002090601f016020900481019282601f10620002af57805160ff1916838001178555620002df565b82800160010185558215620002df579182015b82811115620002df578251825591602001919060010190620002c2565b50620002689291506200030e565b808211156200026857600062000304828262000325565b50600101620002ed565b5b808211156200026857600081556001016200030f565b50805460018160011615610100020316600290046000825580601f106200034d57506200036d565b601f0160209004906000526020600020908101906200036d91906200030e565b50565b6000806040838503121562000383578182fd5b82516200039081620003c2565b6020840151909250620003a381620003c2565b809150509250929050565b671514d3104bd554d160c21b815260080190565b6001600160a01b03811681146200036d57600080fd5b61196c80620003e86000396000f3fe608060405234801561001057600080fd5b50600436106101375760003560e01c80638223c770116100b8578063b32ec5461161007c578063b32ec5461461024b578063b4eae1cb1461025e578063bad8269014610266578063bf15c3e114610279578063f2fde38b1461028c578063f3a014a21461029f57610137565b80638223c7701461020d5780638da5cb5b14610220578063956dcd1f1461022857806396ce0795146102305780639a12944c1461023857610137565b80636502d171116100ff5780636502d171146101ac5780636c0daed8146101d75780636e1aa51b146101ea578063715018a6146101f25780637bda6e28146101fa57610137565b80630b87d86e1461013c5780631775765f1461015a57806328a070251461016f5780633f97bc5b146101795780635bcbdc9614610199575b600080fd5b6101446102bf565b60405161015191906115dd565b60405180910390f35b6101626102ce565b60405161015191906118b5565b6101776102d4565b005b61018c6101873660046114be565b6102d6565b604051610151919061169e565b6101776101a736600461141c565b61038d565b6101bf6101ba366004611297565b6103fb565b6040516101519c9b9a9998979695949392919061162e565b6101626101e536600461139c565b610471565b61014461055c565b61017761056b565b6101776102083660046113d7565b6105ea565b61017761021b3660046112cf565b610663565b6101446106c1565b6101446106d0565b6101626106df565b610177610246366004611368565b6106e5565b61017761025936600461133d565b610a48565b610162610f3c565b61014461027436600461139c565b610f42565b61018c610287366004611274565b610f68565b61017761029a366004611274565b610fd0565b6102b26102ad36600461139c565b611086565b6040516101519190611693565b6002546001600160a01b031681565b60095481565b565b8151602081840181018051600482529282019185019190912091905281600281106102fd57fe5b01805460408051602060026001851615610100026000190190941693909304601f810184900484028201840190925281815294509192508301828280156103855780601f1061035a57610100808354040283529160200191610385565b820191906000526020600020905b81548152906001019060200180831161036857829003601f168201915b505050505081565b6103956110a3565b6000546001600160a01b039081169116146103cb5760405162461bcd60e51b81526004016103c2906117e4565b60405180910390fd5b806004836040516103dc91906115c1565b9081526040519081900360200190206103f69160026110a7565b505050565b600a602081815260009384526040808520909152918352912080546001820154600283015460038401546004850154600586015460068701546007880154600889015460098a01549a8a0154600b909a01546001600160a01b03998a169b988a169a97909916989597949693959294919390928c565b600061047c82611086565b61048557600080fd5b61048d6110f7565b6003546040516001600160a01b03909116906365555bcc906004906104b39087906115c1565b9081526040519081900360200190206000016004866040516104d591906115c1565b9081526040519081900360200190206001016040518363ffffffff1660e01b81526004016105049291906116d1565b60606040518083038186803b15801561051c57600080fd5b505afa158015610530573d6000803e3d6000fd5b505050506040513d601f19601f820116820180604052508101906105549190611501565b519392505050565b6001546001600160a01b031681565b6105736110a3565b6000546001600160a01b039081169116146105a05760405162461bcd60e51b81526004016103c2906117e4565b600080546040516001600160a01b03909116907f8be0079c531659141344cd1fd0a4f28419497f9722a3daafe3b4186f6b6457e0908390a3600080546001600160a01b0319169055565b6105f26110a3565b6000546001600160a01b0390811691161461061f5760405162461bcd60e51b81526004016103c2906117e4565b8060058360405161063091906115c1565b90815260405190819003602001902080546001600160a01b03929092166001600160a01b03199092169190911790555050565b61066b6110a3565b6000546001600160a01b039081169116146106985760405162461bcd60e51b81526004016103c2906117e4565b6001600160a01b038216600090815260066020908152604090912082516103f692840190611118565b6000546001600160a01b031690565b6003546001600160a01b031681565b60075481565b6000600a60006106f36110a3565b6001600160a01b0390811682526020808301939093526040918201600090812088831682529093529120805490925016156107405760405162461bcd60e51b81526004016103c290611819565b6001600160a01b038416600090815260066020908152604080832080548251601f600260001961010060018616150201909316929092049182018590048502810185019093528083526107e8938301828280156107de5780601f106107b3576101008083540402835291602001916107de565b820191906000526020600020905b8154815290600101906020018083116107c157829003601f168201915b5050505050610471565b90506000600754828602816107f957fe5b049050600060075460085483028161080d57fe5b049050808510156108305760405162461bcd60e51b81526004016103c290611745565b8085036001600160a01b0388166340c10f1961084a6110a3565b896040518363ffffffff1660e01b8152600401610868929190611615565b600060405180830381600087803b15801561088257600080fd5b505af1158015610896573d6000803e3d6000fd5b50506002546001600160a01b031691506323b872dd90506108b56110a3565b30896040518463ffffffff1660e01b81526004016108d5939291906115f1565b602060405180830381600087803b1580156108ef57600080fd5b505af1158015610903573d6000803e3d6000fd5b505050506040513d601f19601f82011682018060405250810190610927919061131d565b61093057600080fd5b6109386110a3565b85546001600160a01b03199081166001600160a01b0392831617875560018701805482168b84161790556002805490880180549190931691161790556003850187905560048501869055600b850184905560075480858189028161099857fe5b0402816109a157fe5b0460058601556007546009548702816109b657fe5b046006860155600880860182905560075490548891908190898202816109d857fe5b0402816109e157fe5b0403600786015542600986015543600a8601556001600160a01b0388167fd7918d04fa8d2763da038d81b4ab65ea7b9eb8e5e3b199c548142ac304a8ad6f610a276110a3565b89604051610a36929190611615565b60405180910390a25050505050505050565b6000600a6000610a566110a3565b6001600160a01b03166001600160a01b031681526020019081526020016000206000846001600160a01b03166001600160a01b0316815260200190815260200160002090508181600301541015610abf5760405162461bcd60e51b81526004016103c29061178f565b8060030154821415610c9a57826001600160a01b03166379cc6790610ae26110a3565b846040518363ffffffff1660e01b8152600401610b00929190611615565b600060405180830381600087803b158015610b1a57600080fd5b505af1158015610b2e573d6000803e3d6000fd5b50506002546001600160a01b0316915063a9059cbb9050610b4d6110a3565b83600401546040518363ffffffff1660e01b8152600401610b6f929190611615565b602060405180830381600087803b158015610b8957600080fd5b505af1158015610b9d573d6000803e3d6000fd5b505050506040513d601f19601f82011682018060405250810190610bc1919061131d565b50600a6000610bce6110a3565b6001600160a01b039081168252602080830193909352604091820160009081209187168082529190935281832080546001600160a01b0319908116825560018201805482169055600282018054909116905560038101849055600481018490556005810184905560068101849055600781018490556008810184905560098101849055600a8101849055600b0192909255517fb99b782c502642cbb60ce7d75f893727e5ef94003f2f9e56bcbbb013615e193e90610c8d9085906118b5565b60405180910390a26103f6565b60006007546007548360030154600754860281610cb357fe5b040281610cbc57fe5b04905060006007548284600301540281610cd257fe5b04905060006007548385600401540281610ce857fe5b6001600160a01b038816600090815260066020908152604080832080548251601f600260001961010060018616150201909316929092049182018590048502810185019093528083529590940495509193610d6493918301828280156107de5780601f106107b3576101008083540402835291602001916107de565b905060008286600401540390506000848760030154039050600060075484830281610d8b57fe5b0490506000600754600854830281610d9f57fe5b04905080841015610dc25760405162461bcd60e51b81526004016103c290611869565b8084036001600160a01b038c166379cc6790610ddc6110a3565b8a6040518363ffffffff1660e01b8152600401610dfa929190611615565b600060405180830381600087803b158015610e1457600080fd5b505af1158015610e28573d6000803e3d6000fd5b50506002546001600160a01b0316915063a9059cbb9050610e476110a3565b896040518363ffffffff1660e01b8152600401610e65929190611615565b602060405180830381600087803b158015610e7f57600080fd5b505af1158015610e93573d6000803e3d6000fd5b505050506040513d601f19601f82011682018060405250810190610eb7919061131d565b5060038a0184905560048a01859055600754808781880281610ed557fe5b040281610ede57fe5b0460058b015560075460095460048c01540281610ef757fe5b0460068b015560088a01819055600754808781840281610f1357fe5b040281610f1c57fe5b0460078b01555050426009890155505043600a8701555050505050505050565b60085481565b80516020818301810180516005825292820191909301209152546001600160a01b031681565b60066020908152600091825260409182902080548351601f6002600019610100600186161502019093169290920491820184900484028101840190945280845290918301828280156103855780601f1061035a57610100808354040283529160200191610385565b610fd86110a3565b6000546001600160a01b039081169116146110055760405162461bcd60e51b81526004016103c2906117e4565b6001600160a01b03811661102b5760405162461bcd60e51b81526004016103c2906116ff565b600080546040516001600160a01b03808516939216917f8be0079c531659141344cd1fd0a4f28419497f9722a3daafe3b4186f6b6457e091a3600080546001600160a01b0319166001600160a01b0392909216919091179055565b60008060048360405161109991906115c1565b5260021192915050565b3390565b82600281019282156110e7579160200282015b828111156110e757825180516110d7918491602090910190611118565b50916020019190600101906110ba565b506110f3929150611192565b5090565b60405180606001604052806000815260200160008152602001600081525090565b828054600181600116156101000203166002900490600052602060002090601f016020900481019282601f1061115957805160ff1916838001178555611186565b82800160010185558215611186579182015b8281111561118657825182559160200191906001019061116b565b506110f39291506111af565b808211156110f35760006111a682826111c4565b50600101611192565b5b808211156110f357600081556001016111b0565b50805460018160011615610100020316600290046000825580601f106111ea5750611208565b601f01602090049060005260206000209081019061120891906111af565b50565b600082601f83011261121b578081fd5b813567ffffffffffffffff811115611231578182fd5b611244601f8201601f19166020016118be565b915080825283602082850101111561125b57600080fd5b8060208401602084013760009082016020015292915050565b600060208284031215611285578081fd5b813561129081611921565b9392505050565b600080604083850312156112a9578081fd5b82356112b481611921565b915060208301356112c481611921565b809150509250929050565b600080604083850312156112e1578182fd5b82356112ec81611921565b9150602083013567ffffffffffffffff811115611307578182fd5b6113138582860161120b565b9150509250929050565b60006020828403121561132e578081fd5b81518015158114611290578182fd5b6000806040838503121561134f578182fd5b823561135a81611921565b946020939093013593505050565b60008060006060848603121561137c578081fd5b833561138781611921565b95602085013595506040909401359392505050565b6000602082840312156113ad578081fd5b813567ffffffffffffffff8111156113c3578182fd5b6113cf8482850161120b565b949350505050565b600080604083850312156113e9578182fd5b823567ffffffffffffffff8111156113ff578283fd5b61140b8582860161120b565b92505060208301356112c481611921565b6000806040838503121561142e578182fd5b823567ffffffffffffffff80821115611445578384fd5b6114518683870161120b565b9350602091508185013581811115611467578384fd5b85019050601f81018613611479578283fd5b61148360406118be565b8082855b60028110156114af5761149d8a8335870161120b565b84529285019290850190600101611487565b50959890975095505050505050565b600080604083850312156114d0578182fd5b823567ffffffffffffffff8111156114e6578283fd5b6114f28582860161120b565b95602094909401359450505050565b600060608284031215611512578081fd5b61151c60606118be565b8251815260208301516020820152604083015160408201528091505092915050565b6000815460018082166000811461155c576001811461157a576115b8565b60028304607f16865260ff19831660208701526040860193506115b8565b6002830480875261158a866118e5565b60005b828110156115ae5781546020828b010152848201915060208101905061158d565b8801602001955050505b50505092915050565b600082516115d38184602087016118f1565b9190910192915050565b6001600160a01b0391909116815260200190565b6001600160a01b039384168152919092166020820152604081019190915260600190565b6001600160a01b03929092168252602082015260400190565b6001600160a01b039c8d1681529a8c1660208c015298909a1660408a01526060890196909652608088019490945260a087019290925260c086015260e08501526101008401526101208301526101408201929092526101608101919091526101800190565b901515815260200190565b60006020825282518060208401526116bd8160408501602087016118f1565b601f01601f19169190910160400192915050565b6000604082526116e4604083018561153e565b82810360208401526116f6818561153e565b95945050505050565b60208082526026908201527f4f776e61626c653a206e6577206f776e657220697320746865207a65726f206160408201526564647265737360d01b606082015260800190565b6020808252602a908201527f53796e7468657469633a3a6d696e7453796e7468657469633a20756e6465722060408201526918dbdb1b185d195c985b60b21b606082015260800190565b60208082526035908201527f53796e7468657469633a3a72656465656d53796e7468657469633a20616d6f756040820152741b9d08195e18d959591cc818dbdb1b185d195c985b605a1b606082015260800190565b6020808252818101527f4f776e61626c653a2063616c6c6572206973206e6f7420746865206f776e6572604082015260600190565b60208082526030908201527f53796e7468657469633a3a6d696e7453796e7468657469633a207472616e736660408201526f657220746f206164647265737328302960801b606082015260800190565b6020808252602c908201527f53796e7468657469633a3a72656465656d53796e7468657469633a20756e646560408201526b1c8818dbdb1b185d195c985b60a21b606082015260800190565b90815260200190565b60405181810167ffffffffffffffff811182821017156118dd57600080fd5b604052919050565b60009081526020902090565b60005b8381101561190c5781810151838201526020016118f4565b8381111561191b576000848401525b50505050565b6001600160a01b038116811461120857600080fdfea2646970667358221220474e1e1faa90793686988904306b1dec957876cfd974950c11a2f4d5dd2ccbf164736f6c634300060c0033",
  "linkReferences": {},
  "deployedLinkReferences": {}
}