{
  "_format": "hh-sol-artifact-1",
  "contractName": "Synthetic",
  "sourceName": "contracts/Synthetic.sol",
  "abi": [
    {
      "inputs": [
        {
          "internalType": "contract IERC20",
          "name": "_dolly",
          "type": "address"
        },
        {
          "internalType": "contract IStdReference",
          "name": "_ref",
          "type": "address"
        }
      ],
      "stateMutability": "nonpayable",
      "type": "constructor"
    },
    {
      "anonymous": false,
      "inputs": [
        {
          "indexed": true,
          "internalType": "address",
          "name": "user",
          "type": "address"
        },
        {
          "indexed": false,
          "internalType": "uint256",
          "name": "amount",
          "type": "uint256"
        }
      ],
      "name": "AddCollateral",
      "type": "event"
    },
    {
      "anonymous": false,
      "inputs": [
        {
          "indexed": true,
          "internalType": "address",
          "name": "liquidated",
          "type": "address"
        },
        {
          "indexed": true,
          "internalType": "address",
          "name": "liquidator",
          "type": "address"
        },
        {
          "indexed": true,
          "internalType": "address",
          "name": "syntheticAddress",
          "type": "address"
        },
        {
          "indexed": false,
          "internalType": "uint256",
          "name": "amount",
          "type": "uint256"
        },
        {
          "indexed": false,
          "internalType": "uint256",
          "name": "timestamp",
          "type": "uint256"
        }
      ],
      "name": "Liquidated",
      "type": "event"
    },
    {
      "anonymous": false,
      "inputs": [
        {
          "indexed": false,
          "internalType": "address",
          "name": "minter",
          "type": "address"
        },
        {
          "indexed": true,
          "internalType": "address",
          "name": "syntheticAddress",
          "type": "address"
        },
        {
          "indexed": false,
          "internalType": "uint256",
          "name": "amount",
          "type": "uint256"
        }
      ],
      "name": "MintAsset",
      "type": "event"
    },
    {
      "anonymous": false,
      "inputs": [
        {
          "indexed": true,
          "internalType": "address",
          "name": "previousOwner",
          "type": "address"
        },
        {
          "indexed": true,
          "internalType": "address",
          "name": "newOwner",
          "type": "address"
        }
      ],
      "name": "OwnershipTransferred",
      "type": "event"
    },
    {
      "anonymous": false,
      "inputs": [
        {
          "indexed": true,
          "internalType": "address",
          "name": "syntheticAddress",
          "type": "address"
        },
        {
          "indexed": false,
          "internalType": "uint256",
          "name": "amount",
          "type": "uint256"
        }
      ],
      "name": "RedeemAsset",
      "type": "event"
    },
    {
      "anonymous": false,
      "inputs": [
        {
          "indexed": true,
          "internalType": "address",
          "name": "user",
          "type": "address"
        },
        {
          "indexed": false,
          "internalType": "uint256",
          "name": "amount",
          "type": "uint256"
        }
      ],
      "name": "RemoveCollateral",
      "type": "event"
    },
    {
      "inputs": [
        {
          "internalType": "contract IERC20Burnable",
          "name": "_synthetic",
          "type": "address"
        },
        {
          "internalType": "uint256",
          "name": "_addAmount",
          "type": "uint256"
        }
      ],
      "name": "addCollateral",
      "outputs": [],
      "stateMutability": "nonpayable",
      "type": "function"
    },
    {
      "inputs": [
        {
          "internalType": "address",
          "name": "",
          "type": "address"
        }
      ],
      "name": "addressToPairs",
      "outputs": [
        {
          "internalType": "string",
          "name": "",
          "type": "string"
        }
      ],
      "stateMutability": "view",
      "type": "function"
    },
    {
      "inputs": [],
      "name": "bandOracle",
      "outputs": [
        {
          "internalType": "contract IStdReference",
          "name": "",
          "type": "address"
        }
      ],
      "stateMutability": "view",
      "type": "function"
    },
    {
      "inputs": [],
      "name": "collateralRatio",
      "outputs": [
        {
          "internalType": "uint256",
          "name": "",
          "type": "uint256"
        }
      ],
      "stateMutability": "view",
      "type": "function"
    },
    {
      "inputs": [],
      "name": "denominator",
      "outputs": [
        {
          "internalType": "uint256",
          "name": "",
          "type": "uint256"
        }
      ],
      "stateMutability": "view",
      "type": "function"
    },
    {
      "inputs": [],
      "name": "dolly",
      "outputs": [
        {
          "internalType": "contract IERC20",
          "name": "",
          "type": "address"
        }
      ],
      "stateMutability": "view",
      "type": "function"
    },
    {
      "inputs": [
        {
          "internalType": "string",
          "name": "_pairs",
          "type": "string"
        }
      ],
      "name": "getRate",
      "outputs": [
        {
          "internalType": "uint256",
          "name": "",
          "type": "uint256"
        }
      ],
      "stateMutability": "view",
      "type": "function"
    },
    {
      "inputs": [
        {
          "internalType": "string",
          "name": "_pairs",
          "type": "string"
        }
      ],
      "name": "isSupported",
      "outputs": [
        {
          "internalType": "bool",
          "name": "",
          "type": "bool"
        }
      ],
      "stateMutability": "view",
      "type": "function"
    },
    {
      "inputs": [],
      "name": "liquidate",
      "outputs": [],
      "stateMutability": "nonpayable",
      "type": "function"
    },
    {
      "inputs": [],
      "name": "liquidationRatio",
      "outputs": [
        {
          "internalType": "uint256",
          "name": "",
          "type": "uint256"
        }
      ],
      "stateMutability": "view",
      "type": "function"
    },
    {
      "inputs": [
        {
          "internalType": "contract IERC20Burnable",
          "name": "_synthetic",
          "type": "address"
        },
        {
          "internalType": "uint256",
          "name": "_amount",
          "type": "uint256"
        },
        {
          "internalType": "uint256",
          "name": "_backedAmount",
          "type": "uint256"
        }
      ],
      "name": "mintSynthetic",
      "outputs": [],
      "stateMutability": "nonpayable",
      "type": "function"
    },
    {
      "inputs": [
        {
          "internalType": "address",
          "name": "",
          "type": "address"
        },
        {
          "internalType": "address",
          "name": "",
          "type": "address"
        }
      ],
      "name": "minter",
      "outputs": [
        {
          "internalType": "address",
          "name": "minter",
          "type": "address"
        },
        {
          "internalType": "contract IERC20Burnable",
          "name": "asset",
          "type": "address"
        },
        {
          "internalType": "contract IERC20",
          "name": "assetBacked",
          "type": "address"
        },
        {
          "internalType": "uint256",
          "name": "assetAmount",
          "type": "uint256"
        },
        {
          "internalType": "uint256",
          "name": "assetBackedAmount",
          "type": "uint256"
        },
        {
          "internalType": "uint256",
          "name": "currentRatio",
          "type": "uint256"
        },
        {
          "internalType": "uint256",
          "name": "willLiquidateAtPrice",
          "type": "uint256"
        },
        {
          "internalType": "uint256",
          "name": "canMintRemainning",
          "type": "uint256"
        },
        {
          "internalType": "uint256",
          "name": "canWithdrawRemainning",
          "type": "uint256"
        },
        {
          "internalType": "uint256",
          "name": "updatedAt",
          "type": "uint256"
        },
        {
          "internalType": "uint256",
          "name": "updatedBlock",
          "type": "uint256"
        },
        {
          "internalType": "uint256",
          "name": "exchangeRateAtMinted",
          "type": "uint256"
        },
        {
          "internalType": "uint256",
          "name": "currentExchangeRate",
          "type": "uint256"
        }
      ],
      "stateMutability": "view",
      "type": "function"
    },
    {
      "inputs": [],
      "name": "owner",
      "outputs": [
        {
          "internalType": "address",
          "name": "",
          "type": "address"
        }
      ],
      "stateMutability": "view",
      "type": "function"
    },
    {
      "inputs": [
        {
          "internalType": "string",
          "name": "",
          "type": "string"
        }
      ],
      "name": "pairsToAddress",
      "outputs": [
        {
          "internalType": "address",
          "name": "",
          "type": "address"
        }
      ],
      "stateMutability": "view",
      "type": "function"
    },
    {
      "inputs": [
        {
          "internalType": "string",
          "name": "",
          "type": "string"
        },
        {
          "internalType": "uint256",
          "name": "",
          "type": "uint256"
        }
      ],
      "name": "pairsToQuote",
      "outputs": [
        {
          "internalType": "string",
          "name": "",
          "type": "string"
        }
      ],
      "stateMutability": "view",
      "type": "function"
    },
    {
      "inputs": [
        {
          "internalType": "contract IERC20Burnable",
          "name": "_synthetic",
          "type": "address"
        },
        {
          "internalType": "uint256",
          "name": "_amount",
          "type": "uint256"
        }
      ],
      "name": "redeemSynthetic",
      "outputs": [],
      "stateMutability": "nonpayable",
      "type": "function"
    },
    {
      "inputs": [
        {
          "internalType": "contract IERC20Burnable",
          "name": "_synthetic",
          "type": "address"
        },
        {
          "internalType": "uint256",
          "name": "_removeAmount",
          "type": "uint256"
        }
      ],
      "name": "removeCollateral",
      "outputs": [],
      "stateMutability": "nonpayable",
      "type": "function"
    },
    {
      "inputs": [],
      "name": "renounceOwnership",
      "outputs": [],
      "stateMutability": "nonpayable",
      "type": "function"
    },
    {
      "inputs": [
        {
          "internalType": "address",
          "name": "_syntheticAddress",
          "type": "address"
        },
        {
          "internalType": "string",
          "name": "_pairs",
          "type": "string"
        }
      ],
      "name": "setAddressToPairs",
      "outputs": [],
      "stateMutability": "nonpayable",
      "type": "function"
    },
    {
      "inputs": [
        {
          "internalType": "string",
          "name": "_pairs",
          "type": "string"
        },
        {
          "internalType": "address",
          "name": "_syntheticAddress",
          "type": "address"
        }
      ],
      "name": "setPairsToAddress",
      "outputs": [],
      "stateMutability": "nonpayable",
      "type": "function"
    },
    {
      "inputs": [
        {
          "internalType": "string",
          "name": "_pairs",
          "type": "string"
        },
        {
          "internalType": "string[2]",
          "name": "baseAndQuote",
          "type": "string[2]"
        }
      ],
      "name": "setPairsToQuote",
      "outputs": [],
      "stateMutability": "nonpayable",
      "type": "function"
    },
    {
      "inputs": [],
      "name": "systheticAsset",
      "outputs": [
        {
          "internalType": "contract IERC20Burnable",
          "name": "",
          "type": "address"
        }
      ],
      "stateMutability": "view",
      "type": "function"
    },
    {
      "inputs": [
        {
          "internalType": "address",
          "name": "newOwner",
          "type": "address"
        }
      ],
      "name": "transferOwnership",
      "outputs": [],
      "stateMutability": "nonpayable",
      "type": "function"
    }
  ],
  "bytecode": "0x6080604052670de0b6b3a76400006007556714d1120d7b160000600855671158e460913d00006009553480156200003557600080fd5b506040516200244938038062002449833981016040819052620000589162000370565b60006200006462000211565b600080546001600160a01b0319166001600160a01b0383169081178255604051929350917f8be0079c531659141344cd1fd0a4f28419497f9722a3daafe3b4186f6b6457e0908290a350600280546001600160a01b038085166001600160a01b03199283161790925560038054928416929091169190911781556040805160808101825260048183018181526354534c4160e01b6060840152825282518084018452938452621554d160ea1b60208581019190915282019390935290519091906200012f90620003ae565b9081526040519081900360200190206200014b91600262000215565b507365cac0f09efdb88195a002e8dd4cbf6ec9bc7f6060056040516200017190620003ae565b908152604080516020928190038301812080546001600160a01b0319166001600160a01b039590951694909417909355828101905260088252671514d3104bd554d160c21b8183019081527365cac0f09efdb88195a002e8dd4cbf6ec9bc7f606000526006909152905162000208917fb5aea66d9b9a38ebc3abed41876b8c9b8e80920b3fb821e1e214caaf12318c23916200026c565b505050620003d8565b3390565b82600281019282156200025a579160200282015b828111156200025a5782518051620002499184916020909101906200026c565b509160200191906001019062000229565b5062000268929150620002ed565b5090565b828054600181600116156101000203166002900490600052602060002090601f016020900481019282601f10620002af57805160ff1916838001178555620002df565b82800160010185558215620002df579182015b82811115620002df578251825591602001919060010190620002c2565b50620002689291506200030e565b808211156200026857600062000304828262000325565b50600101620002ed565b5b808211156200026857600081556001016200030f565b50805460018160011615610100020316600290046000825580601f106200034d57506200036d565b601f0160209004906000526020600020908101906200036d91906200030e565b50565b6000806040838503121562000383578182fd5b82516200039081620003c2565b6020840151909250620003a381620003c2565b809150509250929050565b671514d3104bd554d160c21b815260080190565b6001600160a01b03811681146200036d57600080fd5b61206180620003e86000396000f3fe608060405234801561001057600080fd5b506004361061014d5760003560e01c80638223c770116100c3578063b32ec5461161007c578063b32ec54614610288578063b4eae1cb1461029b578063bad82690146102a3578063bf15c3e1146102b6578063f2fde38b146102c9578063f3a014a2146102dc5761014d565b80638223c77014610237578063876467f81461024a5780638da5cb5b1461025d578063956dcd1f1461026557806396ce07951461026d5780639a12944c146102755761014d565b80636502d171116101155780636502d171146101c25780636c0daed8146101ee5780636d75b9ee146102015780636e1aa51b14610214578063715018a61461021c5780637bda6e28146102245761014d565b80630b87d86e146101525780631775765f1461017057806328a07025146101855780633f97bc5b1461018f5780635bcbdc96146101af575b600080fd5b61015a6102fc565b6040516101679190611bd9565b60405180910390f35b61017861030b565b6040516101679190611faa565b61018d610311565b005b6101a261019d366004611aba565b610313565b6040516101679190611ca3565b61018d6101bd366004611a18565b6103ca565b6101d56101d0366004611893565b610438565b6040516101679d9c9b9a99989796959493929190611c2a565b6101786101fc366004611998565b6104b5565b61018d61020f366004611939565b6105a0565b61015a61082a565b61018d610839565b61018d6102323660046119d3565b6108b8565b61018d6102453660046118cb565b610931565b61018d610258366004611939565b61098f565b61015a610c0c565b61015a610c1b565b610178610c2a565b61018d610283366004611964565b610c30565b61018d610296366004611939565b610f65565b6101786114aa565b61015a6102b1366004611998565b6114b0565b6101a26102c4366004611877565b6114d6565b61018d6102d7366004611877565b61153e565b6102ef6102ea366004611998565b6115f4565b6040516101679190611c98565b6002546001600160a01b031681565b60095481565b565b81516020818401810180516004825292820191850191909120919052816002811061033a57fe5b01805460408051602060026001851615610100026000190190941693909304601f810184900484028201840190925281815294509192508301828280156103c25780601f10610397576101008083540402835291602001916103c2565b820191906000526020600020905b8154815290600101906020018083116103a557829003601f168201915b505050505081565b6103d2611611565b6000546001600160a01b039081169116146104085760405162461bcd60e51b81526004016103ff90611e20565b60405180910390fd5b806004836040516104199190611bbd565b9081526040519081900360200190206104339160026116aa565b505050565b600a602081815260009384526040808520909152918352912080546001820154600283015460038401546004850154600586015460068701546007880154600889015460098a01549a8a0154600b8b0154600c909b01546001600160a01b039a8b169c998b169b9a9098169996989597949693959294919390918d565b60006104c0826115f4565b6104c957600080fd5b6104d16116fa565b6003546040516001600160a01b03909116906365555bcc906004906104f7908790611bbd565b9081526040519081900360200190206000016004866040516105199190611bbd565b9081526040519081900360200190206001016040518363ffffffff1660e01b8152600401610548929190611cd6565b60606040518083038186803b15801561056057600080fd5b505afa158015610574573d6000803e3d6000fd5b505050506040513d601f19601f820116820180604052508101906105989190611afd565b519392505050565b6000600a60006105ae611611565b6001600160a01b0390811682526020808301939093526040918201600090812091871681529252902060048101549091506105e99083611615565b60048201556001600160a01b038316600090815260066020908152604080832080548251601f600260001961010060018616150201909316929092049182018590048502810185019093528083526106969383018282801561068c5780601f106106615761010080835404028352916020019161068c565b820191906000526020600020905b81548152906001019060200180831161066f57829003601f168201915b50505050506104b5565b9050600060075482846003015402816106ab57fe5b04905060006007546008548302816106bf57fe5b6004860154600254929091049250829003906001600160a01b03166323b872dd6106e7611611565b30896040518463ffffffff1660e01b815260040161070793929190611bed565b602060405180830381600087803b15801561072157600080fd5b505af1158015610735573d6000803e3d6000fd5b505050506040513d601f19601f820116820180604052508101906107599190611919565b61076257600080fd5b600754600754856007548860040154028161077957fe5b04028161078257fe5b0460058601556007546009546004870154028161079b57fe5b046006860155600885018190556007548085818402816107b757fe5b0402816107c057fe5b046007860155600c850184905542600986015543600a8601556107e1611611565b6001600160a01b03167f2ac90482c3b6bea30a2c085cf093016bad7f970d91c5fd233e6b848d3e231dc3876040516108199190611faa565b60405180910390a250505050505050565b6001546001600160a01b031681565b610841611611565b6000546001600160a01b0390811691161461086e5760405162461bcd60e51b81526004016103ff90611e20565b600080546040516001600160a01b03909116907f8be0079c531659141344cd1fd0a4f28419497f9722a3daafe3b4186f6b6457e0908390a3600080546001600160a01b0319169055565b6108c0611611565b6000546001600160a01b039081169116146108ed5760405162461bcd60e51b81526004016103ff90611e20565b806005836040516108fe9190611bbd565b90815260405190819003602001902080546001600160a01b03929092166001600160a01b03199092169190911790555050565b610939611611565b6000546001600160a01b039081169116146109665760405162461bcd60e51b81526004016103ff90611e20565b6001600160a01b038216600090815260066020908152604090912082516104339284019061171b565b6000600a600061099d611611565b6001600160a01b0390811682526020808301939093526040918201600090812091871681529252902060048101549091506109d89083611641565b60048201556008810154821115610a015760405162461bcd60e51b81526004016103ff90611ef7565b6001600160a01b038316600090815260066020908152604080832080548251601f60026000196101006001861615020190931692909204918201859004850281018501909352808352610a749383018282801561068c5780601f106106615761010080835404028352916020019161068c565b905060006007548284600301540281610a8957fe5b0490506000600754600854830281610a9d57fe5b049050600081856004015403905060008111610acb5760405162461bcd60e51b81526004016103ff90611f54565b6002546001600160a01b031663a9059cbb610ae4611611565b886040518363ffffffff1660e01b8152600401610b02929190611c11565b602060405180830381600087803b158015610b1c57600080fd5b505af1158015610b30573d6000803e3d6000fd5b505050506040513d601f19601f82011682018060405250810190610b549190611919565b506007546007548560075488600401540281610b6c57fe5b040281610b7557fe5b04600586015560075460095460048701540281610b8e57fe5b04600686015560088501819055600754808581840281610baa57fe5b040281610bb357fe5b046007860155600c850184905542600986015543600a860155610bd4611611565b6001600160a01b03167fe25410a4059619c9594dc6f022fe231b02aaea733f689e7ab0cd21b3d4d0eb54876040516108199190611faa565b6000546001600160a01b031690565b6003546001600160a01b031681565b60075481565b6000600a6000610c3e611611565b6001600160a01b039081168252602080830193909352604091820160009081208883168252909352912080549092501615610c8b5760405162461bcd60e51b81526004016103ff90611e55565b6001600160a01b038416600090815260066020908152604080832080548251601f60026000196101006001861615020190931692909204918201859004850281018501909352808352610cfe9383018282801561068c5780601f106106615761010080835404028352916020019161068c565b9050600060075482860281610d0f57fe5b0490506000600754600854830281610d2357fe5b04905080851015610d465760405162461bcd60e51b81526004016103ff90611d81565b8085036001600160a01b0388166340c10f19610d60611611565b896040518363ffffffff1660e01b8152600401610d7e929190611c11565b600060405180830381600087803b158015610d9857600080fd5b505af1158015610dac573d6000803e3d6000fd5b50506002546001600160a01b031691506323b872dd9050610dcb611611565b30896040518463ffffffff1660e01b8152600401610deb93929190611bed565b602060405180830381600087803b158015610e0557600080fd5b505af1158015610e19573d6000803e3d6000fd5b505050506040513d601f19601f82011682018060405250810190610e3d9190611919565b610e4657600080fd5b610e4e611611565b85546001600160a01b03199081166001600160a01b0392831617875560018701805482168b84161790556002805490880180549190931691161790556003850187905560048501869055600b8501849055600c8501849055600754808581890281610eb557fe5b040281610ebe57fe5b046005860155600754600954870281610ed357fe5b04600686015560088086018290556007549054889190819089820281610ef557fe5b040281610efe57fe5b0403600786015542600986015543600a8601556001600160a01b0388167fd7918d04fa8d2763da038d81b4ab65ea7b9eb8e5e3b199c548142ac304a8ad6f610f44611611565b89604051610f53929190611c11565b60405180910390a25050505050505050565b6000600a6000610f73611611565b6001600160a01b03166001600160a01b031681526020019081526020016000206000846001600160a01b03166001600160a01b0316815260200190815260200160002090508181600301541015610fdc5760405162461bcd60e51b81526004016103ff90611dcb565b80600301548214156111be57826001600160a01b03166379cc6790610fff611611565b846040518363ffffffff1660e01b815260040161101d929190611c11565b600060405180830381600087803b15801561103757600080fd5b505af115801561104b573d6000803e3d6000fd5b50506002546001600160a01b0316915063a9059cbb905061106a611611565b83600401546040518363ffffffff1660e01b815260040161108c929190611c11565b602060405180830381600087803b1580156110a657600080fd5b505af11580156110ba573d6000803e3d6000fd5b505050506040513d601f19601f820116820180604052508101906110de9190611919565b50600a60006110eb611611565b6001600160a01b039081168252602080830193909352604091820160009081209187168082529190935281832080546001600160a01b0319908116825560018201805482169055600282018054909116905560038101849055600481018490556005810184905560068101849055600781018490556008810184905560098101849055600a8101849055600b8101849055600c0192909255517fb99b782c502642cbb60ce7d75f893727e5ef94003f2f9e56bcbbb013615e193e906111b1908590611faa565b60405180910390a2610433565b600060075460075483600301546007548602816111d757fe5b0402816111e057fe5b049050600060075482846003015402816111f657fe5b0490506000600754838560040154028161120c57fe5b6001600160a01b038816600090815260066020908152604080832080548251601f600260001961010060018616150201909316929092049182018590048502810185019093528083529590940495509193611288939183018282801561068c5780601f106106615761010080835404028352916020019161068c565b9050600082866004015403905060008487600301540390506000600754848302816112af57fe5b04905060006007546008548302816112c357fe5b049050808410156112e65760405162461bcd60e51b81526004016103ff90611ea5565b8084036001600160a01b038c166379cc6790611300611611565b8a6040518363ffffffff1660e01b815260040161131e929190611c11565b600060405180830381600087803b15801561133857600080fd5b505af115801561134c573d6000803e3d6000fd5b50506002546001600160a01b0316915063a9059cbb905061136b611611565b896040518363ffffffff1660e01b8152600401611389929190611c11565b602060405180830381600087803b1580156113a357600080fd5b505af11580156113b7573d6000803e3d6000fd5b505050506040513d601f19601f820116820180604052508101906113db9190611919565b5060038a0184905560048a018590556007548087818802816113f957fe5b04028161140257fe5b0460058b015560075460095460048c0154028161141b57fe5b0460068b015560088a0181905560075480878184028161143757fe5b04028161144057fe5b0460078b0155600c8a018690554260098b015543600a8b01556040516001600160a01b038d16907fb99b782c502642cbb60ce7d75f893727e5ef94003f2f9e56bcbbb013615e193e90611494908e90611faa565b60405180910390a2505050505050505050505050565b60085481565b80516020818301810180516005825292820191909301209152546001600160a01b031681565b60066020908152600091825260409182902080548351601f6002600019610100600186161502019093169290920491820184900484028101840190945280845290918301828280156103c25780601f10610397576101008083540402835291602001916103c2565b611546611611565b6000546001600160a01b039081169116146115735760405162461bcd60e51b81526004016103ff90611e20565b6001600160a01b0381166115995760405162461bcd60e51b81526004016103ff90611d04565b600080546040516001600160a01b03808516939216917f8be0079c531659141344cd1fd0a4f28419497f9722a3daafe3b4186f6b6457e091a3600080546001600160a01b0319166001600160a01b0392909216919091179055565b6000806004836040516116079190611bbd565b5260021192915050565b3390565b60008282018381101561163a5760405162461bcd60e51b81526004016103ff90611d4a565b9392505050565b600061163a83836040518060400160405280601e81526020017f536166654d6174683a207375627472616374696f6e206f766572666c6f770000815250600081848411156116a25760405162461bcd60e51b81526004016103ff9190611ca3565b505050900390565b82600281019282156116ea579160200282015b828111156116ea57825180516116da91849160209091019061171b565b50916020019190600101906116bd565b506116f6929150611795565b5090565b60405180606001604052806000815260200160008152602001600081525090565b828054600181600116156101000203166002900490600052602060002090601f016020900481019282601f1061175c57805160ff1916838001178555611789565b82800160010185558215611789579182015b8281111561178957825182559160200191906001019061176e565b506116f69291506117b2565b808211156116f65760006117a982826117c7565b50600101611795565b5b808211156116f657600081556001016117b3565b50805460018160011615610100020316600290046000825580601f106117ed575061180b565b601f01602090049060005260206000209081019061180b91906117b2565b50565b600082601f83011261181e578081fd5b813567ffffffffffffffff811115611834578182fd5b611847601f8201601f1916602001611fb3565b915080825283602082850101111561185e57600080fd5b8060208401602084013760009082016020015292915050565b600060208284031215611888578081fd5b813561163a81612016565b600080604083850312156118a5578081fd5b82356118b081612016565b915060208301356118c081612016565b809150509250929050565b600080604083850312156118dd578182fd5b82356118e881612016565b9150602083013567ffffffffffffffff811115611903578182fd5b61190f8582860161180e565b9150509250929050565b60006020828403121561192a578081fd5b8151801515811461163a578182fd5b6000806040838503121561194b578182fd5b823561195681612016565b946020939093013593505050565b600080600060608486031215611978578081fd5b833561198381612016565b95602085013595506040909401359392505050565b6000602082840312156119a9578081fd5b813567ffffffffffffffff8111156119bf578182fd5b6119cb8482850161180e565b949350505050565b600080604083850312156119e5578182fd5b823567ffffffffffffffff8111156119fb578283fd5b611a078582860161180e565b92505060208301356118c081612016565b60008060408385031215611a2a578182fd5b823567ffffffffffffffff80821115611a41578384fd5b611a4d8683870161180e565b9350602091508185013581811115611a63578384fd5b85019050601f81018613611a75578283fd5b611a7f6040611fb3565b8082855b6002811015611aab57611a998a8335870161180e565b84529285019290850190600101611a83565b50959890975095505050505050565b60008060408385031215611acc578182fd5b823567ffffffffffffffff811115611ae2578283fd5b611aee8582860161180e565b95602094909401359450505050565b600060608284031215611b0e578081fd5b611b186060611fb3565b8251815260208301516020820152604083015160408201528091505092915050565b60008154600180821660008114611b585760018114611b7657611bb4565b60028304607f16865260ff1983166020870152604086019350611bb4565b60028304808752611b8686611fda565b60005b82811015611baa5781546020828b0101528482019150602081019050611b89565b8801602001955050505b50505092915050565b60008251611bcf818460208701611fe6565b9190910192915050565b6001600160a01b0391909116815260200190565b6001600160a01b039384168152919092166020820152604081019190915260600190565b6001600160a01b03929092168252602082015260400190565b6001600160a01b039d8e1681529b8d1660208d015299909b1660408b015260608a0197909752608089019590955260a088019390935260c087019190915260e08601526101008501526101208401526101408301526101608201929092526101808101919091526101a00190565b901515815260200190565b6000602082528251806020840152611cc2816040850160208701611fe6565b601f01601f19169190910160400192915050565b600060408252611ce96040830185611b3a565b8281036020840152611cfb8185611b3a565b95945050505050565b60208082526026908201527f4f776e61626c653a206e6577206f776e657220697320746865207a65726f206160408201526564647265737360d01b606082015260800190565b6020808252601b908201527f536166654d6174683a206164646974696f6e206f766572666c6f770000000000604082015260600190565b6020808252602a908201527f53796e7468657469633a3a6d696e7453796e7468657469633a20756e6465722060408201526918dbdb1b185d195c985b60b21b606082015260800190565b60208082526035908201527f53796e7468657469633a3a72656465656d53796e7468657469633a20616d6f756040820152741b9d08195e18d959591cc818dbdb1b185d195c985b605a1b606082015260800190565b6020808252818101527f4f776e61626c653a2063616c6c6572206973206e6f7420746865206f776e6572604082015260600190565b60208082526030908201527f53796e7468657469633a3a6d696e7453796e7468657469633a207472616e736660408201526f657220746f206164647265737328302960801b606082015260800190565b60208082526032908201527f53796e7468657469633a3a72656465656d53796e7468657469633a20756e64656040820152717220636f6c6c61746572616c20726174696f60701b606082015260800190565b6020808252603f908201527f53796e7468657469633a3a72656d6f7665436f6c6c61746572616c3a20616d6f60408201527f756e74206578636565647320726571756972656420636f6c6c61746572616c00606082015260800190565b60208082526036908201527f53796e7468657469633a3a72656d6f7665436f6c6c61746572616c3a2063616e6040820152750576974686472617752656d61696e6e696e67203c20360541b606082015260800190565b90815260200190565b60405181810167ffffffffffffffff81118282101715611fd257600080fd5b604052919050565b60009081526020902090565b60005b83811015612001578181015183820152602001611fe9565b83811115612010576000848401525b50505050565b6001600160a01b038116811461180b57600080fdfea264697066735822122028b5ea57a97934c2aec0b99f4dd2681cfd9a1a98430504002c1ef44b7ac689f864736f6c634300060c0033",
  "linkReferences": {},
  "deployedLinkReferences": {}
}