{
  "_format": "hh-sol-artifact-1",
  "contractName": "Synthetic",
  "sourceName": "contracts/Synthetic.sol",
  "abi": [
    {
      "inputs": [
        {
          "internalType": "contract IERC20",
          "name": "_dolly",
          "type": "address"
        },
        {
          "internalType": "contract IStdReference",
          "name": "_ref",
          "type": "address"
        }
      ],
      "stateMutability": "nonpayable",
      "type": "constructor"
    },
    {
      "anonymous": false,
      "inputs": [
        {
          "indexed": true,
          "internalType": "address",
          "name": "user",
          "type": "address"
        },
        {
          "indexed": false,
          "internalType": "uint256",
          "name": "amount",
          "type": "uint256"
        }
      ],
      "name": "AddCollateral",
      "type": "event"
    },
    {
      "anonymous": false,
      "inputs": [
        {
          "indexed": true,
          "internalType": "address",
          "name": "liquidated",
          "type": "address"
        },
        {
          "indexed": true,
          "internalType": "address",
          "name": "liquidator",
          "type": "address"
        },
        {
          "indexed": true,
          "internalType": "address",
          "name": "syntheticAddress",
          "type": "address"
        },
        {
          "indexed": false,
          "internalType": "uint256",
          "name": "amount",
          "type": "uint256"
        },
        {
          "indexed": false,
          "internalType": "uint256",
          "name": "timestamp",
          "type": "uint256"
        }
      ],
      "name": "Liquidated",
      "type": "event"
    },
    {
      "anonymous": false,
      "inputs": [
        {
          "indexed": false,
          "internalType": "address",
          "name": "minter",
          "type": "address"
        },
        {
          "indexed": true,
          "internalType": "address",
          "name": "syntheticAddress",
          "type": "address"
        },
        {
          "indexed": false,
          "internalType": "uint256",
          "name": "amount",
          "type": "uint256"
        }
      ],
      "name": "MintAsset",
      "type": "event"
    },
    {
      "anonymous": false,
      "inputs": [
        {
          "indexed": true,
          "internalType": "address",
          "name": "previousOwner",
          "type": "address"
        },
        {
          "indexed": true,
          "internalType": "address",
          "name": "newOwner",
          "type": "address"
        }
      ],
      "name": "OwnershipTransferred",
      "type": "event"
    },
    {
      "anonymous": false,
      "inputs": [
        {
          "indexed": false,
          "internalType": "address",
          "name": "account",
          "type": "address"
        }
      ],
      "name": "Paused",
      "type": "event"
    },
    {
      "anonymous": false,
      "inputs": [
        {
          "indexed": true,
          "internalType": "address",
          "name": "syntheticAddress",
          "type": "address"
        },
        {
          "indexed": false,
          "internalType": "uint256",
          "name": "amount",
          "type": "uint256"
        }
      ],
      "name": "RedeemAsset",
      "type": "event"
    },
    {
      "anonymous": false,
      "inputs": [
        {
          "indexed": true,
          "internalType": "address",
          "name": "user",
          "type": "address"
        },
        {
          "indexed": false,
          "internalType": "uint256",
          "name": "amount",
          "type": "uint256"
        }
      ],
      "name": "RemoveCollateral",
      "type": "event"
    },
    {
      "anonymous": false,
      "inputs": [
        {
          "indexed": false,
          "internalType": "uint256",
          "name": "oldCollateralRatio",
          "type": "uint256"
        },
        {
          "indexed": false,
          "internalType": "uint256",
          "name": "newCollateralRatio",
          "type": "uint256"
        }
      ],
      "name": "SetCollateralRatio",
      "type": "event"
    },
    {
      "anonymous": false,
      "inputs": [
        {
          "indexed": false,
          "internalType": "address",
          "name": "oldDevAddress",
          "type": "address"
        },
        {
          "indexed": false,
          "internalType": "address",
          "name": "newDevAddress",
          "type": "address"
        }
      ],
      "name": "SetDevAddress",
      "type": "event"
    },
    {
      "anonymous": false,
      "inputs": [
        {
          "indexed": false,
          "internalType": "uint256",
          "name": "oldLiquidationRatio",
          "type": "uint256"
        },
        {
          "indexed": false,
          "internalType": "uint256",
          "name": "newLiquidationRatio",
          "type": "uint256"
        }
      ],
      "name": "SetLiquidationRatio",
      "type": "event"
    },
    {
      "anonymous": false,
      "inputs": [
        {
          "indexed": false,
          "internalType": "uint256",
          "name": "oldLiquidatorRewardRatio",
          "type": "uint256"
        },
        {
          "indexed": false,
          "internalType": "uint256",
          "name": "newLiquidatorRewardRatio",
          "type": "uint256"
        }
      ],
      "name": "SetLiquidatorRewardRatio",
      "type": "event"
    },
    {
      "anonymous": false,
      "inputs": [
        {
          "indexed": false,
          "internalType": "uint256",
          "name": "oldPlatfromFeeRatio",
          "type": "uint256"
        },
        {
          "indexed": false,
          "internalType": "uint256",
          "name": "newPlatfromFeeRatio",
          "type": "uint256"
        }
      ],
      "name": "SetPlatfromFeeRatio",
      "type": "event"
    },
    {
      "anonymous": false,
      "inputs": [
        {
          "indexed": false,
          "internalType": "uint256",
          "name": "oldRemainingToMinterRatio",
          "type": "uint256"
        },
        {
          "indexed": false,
          "internalType": "uint256",
          "name": "newRemainingToMinterRatio",
          "type": "uint256"
        }
      ],
      "name": "SetRemainingToMinterRatio",
      "type": "event"
    },
    {
      "anonymous": false,
      "inputs": [
        {
          "indexed": false,
          "internalType": "address",
          "name": "account",
          "type": "address"
        }
      ],
      "name": "Unpaused",
      "type": "event"
    },
    {
      "inputs": [
        {
          "internalType": "contract IERC20Burnable",
          "name": "_synthetic",
          "type": "address"
        },
        {
          "internalType": "uint256",
          "name": "_addAmount",
          "type": "uint256"
        }
      ],
      "name": "addCollateral",
      "outputs": [],
      "stateMutability": "nonpayable",
      "type": "function"
    },
    {
      "inputs": [
        {
          "internalType": "address",
          "name": "",
          "type": "address"
        }
      ],
      "name": "addressToPairs",
      "outputs": [
        {
          "internalType": "string",
          "name": "",
          "type": "string"
        }
      ],
      "stateMutability": "view",
      "type": "function"
    },
    {
      "inputs": [],
      "name": "bandOracle",
      "outputs": [
        {
          "internalType": "contract IStdReference",
          "name": "",
          "type": "address"
        }
      ],
      "stateMutability": "view",
      "type": "function"
    },
    {
      "inputs": [],
      "name": "collateralRatio",
      "outputs": [
        {
          "internalType": "uint256",
          "name": "",
          "type": "uint256"
        }
      ],
      "stateMutability": "view",
      "type": "function"
    },
    {
      "inputs": [
        {
          "internalType": "address",
          "name": "",
          "type": "address"
        },
        {
          "internalType": "address",
          "name": "",
          "type": "address"
        }
      ],
      "name": "contracts",
      "outputs": [
        {
          "internalType": "address",
          "name": "minter",
          "type": "address"
        },
        {
          "internalType": "contract IERC20Burnable",
          "name": "asset",
          "type": "address"
        },
        {
          "internalType": "contract IERC20",
          "name": "assetBacked",
          "type": "address"
        },
        {
          "internalType": "uint256",
          "name": "assetAmount",
          "type": "uint256"
        },
        {
          "internalType": "uint256",
          "name": "assetBackedAmount",
          "type": "uint256"
        },
        {
          "internalType": "uint256",
          "name": "currentRatio",
          "type": "uint256"
        },
        {
          "internalType": "uint256",
          "name": "willLiquidateAtPrice",
          "type": "uint256"
        },
        {
          "internalType": "uint256",
          "name": "canMintRemainning",
          "type": "uint256"
        },
        {
          "internalType": "uint256",
          "name": "canWithdrawRemainning",
          "type": "uint256"
        },
        {
          "internalType": "uint256",
          "name": "updatedAt",
          "type": "uint256"
        },
        {
          "internalType": "uint256",
          "name": "updatedBlock",
          "type": "uint256"
        },
        {
          "internalType": "uint256",
          "name": "exchangeRateAtMinted",
          "type": "uint256"
        },
        {
          "internalType": "uint256",
          "name": "currentExchangeRate",
          "type": "uint256"
        }
      ],
      "stateMutability": "view",
      "type": "function"
    },
    {
      "inputs": [],
      "name": "denominator",
      "outputs": [
        {
          "internalType": "uint256",
          "name": "",
          "type": "uint256"
        }
      ],
      "stateMutability": "view",
      "type": "function"
    },
    {
      "inputs": [],
      "name": "devAddress",
      "outputs": [
        {
          "internalType": "address",
          "name": "",
          "type": "address"
        }
      ],
      "stateMutability": "view",
      "type": "function"
    },
    {
      "inputs": [],
      "name": "dolly",
      "outputs": [
        {
          "internalType": "contract IERC20",
          "name": "",
          "type": "address"
        }
      ],
      "stateMutability": "view",
      "type": "function"
    },
    {
      "inputs": [
        {
          "internalType": "string",
          "name": "_pairs",
          "type": "string"
        }
      ],
      "name": "getRate",
      "outputs": [
        {
          "internalType": "uint256",
          "name": "",
          "type": "uint256"
        }
      ],
      "stateMutability": "view",
      "type": "function"
    },
    {
      "inputs": [
        {
          "internalType": "contract IERC20Burnable",
          "name": "_synthetic",
          "type": "address"
        },
        {
          "internalType": "address",
          "name": "_minter",
          "type": "address"
        }
      ],
      "name": "getRewardFromLiquidate",
      "outputs": [
        {
          "internalType": "uint256",
          "name": "",
          "type": "uint256"
        },
        {
          "internalType": "uint256",
          "name": "",
          "type": "uint256"
        },
        {
          "internalType": "uint256",
          "name": "",
          "type": "uint256"
        },
        {
          "internalType": "uint256",
          "name": "",
          "type": "uint256"
        },
        {
          "internalType": "uint256",
          "name": "",
          "type": "uint256"
        }
      ],
      "stateMutability": "view",
      "type": "function"
    },
    {
      "inputs": [
        {
          "internalType": "string",
          "name": "_pairs",
          "type": "string"
        }
      ],
      "name": "isSupported",
      "outputs": [
        {
          "internalType": "bool",
          "name": "",
          "type": "bool"
        }
      ],
      "stateMutability": "view",
      "type": "function"
    },
    {
      "inputs": [
        {
          "internalType": "contract IERC20Burnable",
          "name": "_synthetic",
          "type": "address"
        },
        {
          "internalType": "address",
          "name": "_minter",
          "type": "address"
        }
      ],
      "name": "liquidate",
      "outputs": [],
      "stateMutability": "nonpayable",
      "type": "function"
    },
    {
      "inputs": [],
      "name": "liquidationRatio",
      "outputs": [
        {
          "internalType": "uint256",
          "name": "",
          "type": "uint256"
        }
      ],
      "stateMutability": "view",
      "type": "function"
    },
    {
      "inputs": [],
      "name": "liquidatorRewardRatio",
      "outputs": [
        {
          "internalType": "uint256",
          "name": "",
          "type": "uint256"
        }
      ],
      "stateMutability": "view",
      "type": "function"
    },
    {
      "inputs": [
        {
          "internalType": "contract IERC20Burnable",
          "name": "_synthetic",
          "type": "address"
        },
        {
          "internalType": "uint256",
          "name": "_amount",
          "type": "uint256"
        },
        {
          "internalType": "uint256",
          "name": "_backedAmount",
          "type": "uint256"
        }
      ],
      "name": "mintSynthetic",
      "outputs": [],
      "stateMutability": "nonpayable",
      "type": "function"
    },
    {
      "inputs": [],
      "name": "owner",
      "outputs": [
        {
          "internalType": "address",
          "name": "",
          "type": "address"
        }
      ],
      "stateMutability": "view",
      "type": "function"
    },
    {
      "inputs": [
        {
          "internalType": "string",
          "name": "",
          "type": "string"
        }
      ],
      "name": "pairsToAddress",
      "outputs": [
        {
          "internalType": "address",
          "name": "",
          "type": "address"
        }
      ],
      "stateMutability": "view",
      "type": "function"
    },
    {
      "inputs": [
        {
          "internalType": "string",
          "name": "",
          "type": "string"
        },
        {
          "internalType": "uint256",
          "name": "",
          "type": "uint256"
        }
      ],
      "name": "pairsToQuote",
      "outputs": [
        {
          "internalType": "string",
          "name": "",
          "type": "string"
        }
      ],
      "stateMutability": "view",
      "type": "function"
    },
    {
      "inputs": [],
      "name": "pause",
      "outputs": [],
      "stateMutability": "nonpayable",
      "type": "function"
    },
    {
      "inputs": [],
      "name": "paused",
      "outputs": [
        {
          "internalType": "bool",
          "name": "",
          "type": "bool"
        }
      ],
      "stateMutability": "view",
      "type": "function"
    },
    {
      "inputs": [],
      "name": "platfromFeeRatio",
      "outputs": [
        {
          "internalType": "uint256",
          "name": "",
          "type": "uint256"
        }
      ],
      "stateMutability": "view",
      "type": "function"
    },
    {
      "inputs": [
        {
          "internalType": "contract IERC20Burnable",
          "name": "_synthetic",
          "type": "address"
        },
        {
          "internalType": "uint256",
          "name": "_amount",
          "type": "uint256"
        }
      ],
      "name": "redeemSynthetic",
      "outputs": [],
      "stateMutability": "nonpayable",
      "type": "function"
    },
    {
      "inputs": [],
      "name": "remainingToMinterRatio",
      "outputs": [
        {
          "internalType": "uint256",
          "name": "",
          "type": "uint256"
        }
      ],
      "stateMutability": "view",
      "type": "function"
    },
    {
      "inputs": [
        {
          "internalType": "contract IERC20Burnable",
          "name": "_synthetic",
          "type": "address"
        },
        {
          "internalType": "uint256",
          "name": "_removeBackedAmount",
          "type": "uint256"
        }
      ],
      "name": "removeCollateral",
      "outputs": [],
      "stateMutability": "nonpayable",
      "type": "function"
    },
    {
      "inputs": [
        {
          "internalType": "contract IERC20Burnable",
          "name": "_synthetic",
          "type": "address"
        },
        {
          "internalType": "uint256",
          "name": "_removeAmount",
          "type": "uint256"
        }
      ],
      "name": "removeLowerCollateral",
      "outputs": [],
      "stateMutability": "nonpayable",
      "type": "function"
    },
    {
      "inputs": [],
      "name": "renounceOwnership",
      "outputs": [],
      "stateMutability": "nonpayable",
      "type": "function"
    },
    {
      "inputs": [
        {
          "internalType": "address",
          "name": "_syntheticAddress",
          "type": "address"
        },
        {
          "internalType": "string",
          "name": "_pairs",
          "type": "string"
        }
      ],
      "name": "setAddressToPairs",
      "outputs": [],
      "stateMutability": "nonpayable",
      "type": "function"
    },
    {
      "inputs": [
        {
          "internalType": "uint256",
          "name": "_collateralRatio",
          "type": "uint256"
        }
      ],
      "name": "setCollateralRatio",
      "outputs": [],
      "stateMutability": "nonpayable",
      "type": "function"
    },
    {
      "inputs": [
        {
          "internalType": "address",
          "name": "_devAddress",
          "type": "address"
        }
      ],
      "name": "setDevAddress",
      "outputs": [],
      "stateMutability": "nonpayable",
      "type": "function"
    },
    {
      "inputs": [
        {
          "internalType": "uint256",
          "name": "_liquidationRatio",
          "type": "uint256"
        }
      ],
      "name": "setLiquidationRatio",
      "outputs": [],
      "stateMutability": "nonpayable",
      "type": "function"
    },
    {
      "inputs": [
        {
          "internalType": "uint256",
          "name": "_liquidatorRewardRatio",
          "type": "uint256"
        }
      ],
      "name": "setLiquidatorRewardRatio",
      "outputs": [],
      "stateMutability": "nonpayable",
      "type": "function"
    },
    {
      "inputs": [
        {
          "internalType": "string",
          "name": "_pairs",
          "type": "string"
        },
        {
          "internalType": "address",
          "name": "_syntheticAddress",
          "type": "address"
        }
      ],
      "name": "setPairsToAddress",
      "outputs": [],
      "stateMutability": "nonpayable",
      "type": "function"
    },
    {
      "inputs": [
        {
          "internalType": "string",
          "name": "_pairs",
          "type": "string"
        },
        {
          "internalType": "string[2]",
          "name": "baseAndQuote",
          "type": "string[2]"
        }
      ],
      "name": "setPairsToQuote",
      "outputs": [],
      "stateMutability": "nonpayable",
      "type": "function"
    },
    {
      "inputs": [
        {
          "internalType": "uint256",
          "name": "_platfromFeeRatio",
          "type": "uint256"
        }
      ],
      "name": "setPlatfromFeeRatio",
      "outputs": [],
      "stateMutability": "nonpayable",
      "type": "function"
    },
    {
      "inputs": [
        {
          "internalType": "uint256",
          "name": "_remainingToMinterRatio",
          "type": "uint256"
        }
      ],
      "name": "setRemainingToMinterRatio",
      "outputs": [],
      "stateMutability": "nonpayable",
      "type": "function"
    },
    {
      "inputs": [
        {
          "internalType": "address",
          "name": "newOwner",
          "type": "address"
        }
      ],
      "name": "transferOwnership",
      "outputs": [],
      "stateMutability": "nonpayable",
      "type": "function"
    },
    {
      "inputs": [],
      "name": "unpause",
      "outputs": [],
      "stateMutability": "nonpayable",
      "type": "function"
    }
  ],
  "bytecode": "0x60806040526714d1120d7b160000600755671158e460913d000060085566b1a2bc2ec5000060095566b1a2bc2ec50000600a55670c7d713b49da0000600b553480156200004b57600080fd5b50604051620035ec380380620035ec8339810160408190526200006e916200013c565b60006200007a62000138565b600080546001600160a01b0319166001600160a01b0383169081178255604051929350917f8be0079c531659141344cd1fd0a4f28419497f9722a3daafe3b4186f6b6457e0908290a3506000805460ff60a01b1916905560018055600280546001600160a01b038085166001600160a01b03199283161790925560038054928416929091169190911790556200010f62000138565b600c80546001600160a01b0319166001600160a01b039290921691909117905550620001939050565b3390565b600080604083850312156200014f578182fd5b82516200015c816200017a565b60208401519092506200016f816200017a565b809150509250929050565b6001600160a01b03811681146200019057600080fd5b50565b61344980620001a36000396000f3fe608060405234801561001057600080fd5b50600436106102275760003560e01c80638223c770116101305780639a12944c116100b8578063d0d41fe11161007c578063d0d41fe11461045b578063d2cd69611461046e578063e150f64714610481578063f2fde38b14610494578063f3a014a2146104a757610227565b80639a12944c14610407578063b32ec5461461041a578063b4eae1cb1461042d578063bad8269014610435578063bf15c3e11461044857610227565b8063876467f8116100ff578063876467f8146103c95780638da5cb5b146103dc578063946ce8cd146103e4578063956dcd1f146103f757806396ce0795146103ff57610227565b80638223c770146103885780638456cb591461039b57806384cd9b57146103a357806386b9d81f146103b657610227565b80634e55b8a7116101b357806365c3ad001161018257806365c3ad001461033f5780636c0daed8146103475780636d75b9ee1461035a578063715018a61461036d5780637bda6e281461037557610227565b80634e55b8a7146102fc5780635bcbdc96146103045780635c975abb146103175780636060663e1461032c57610227565b806314057fca116101fa57806314057fca146102985780631775765f146102c45780633ad10ef6146102cc5780633f4ba83a146102d45780633f97bc5b146102dc57610227565b8063095f14041461022c5780630b87d86e1461024a5780630cff3c5f1461025f578063123b089014610283575b600080fd5b6102346104ba565b6040516102419190613361565b60405180910390f35b6102526104c0565b6040516102419190612d50565b61027261026d366004612a86565b6104cf565b604051610241959493929190613378565b610296610291366004612c99565b610686565b005b6102ab6102a63660046129e0565b610701565b6040516102419d9c9b9a99989796959493929190612dbb565b610234610781565b610252610787565b610296610796565b6102ef6102ea366004612c19565b6107f9565b6040516102419190612e34565b6102346108b0565b610296610312366004612b77565b6108b6565b61031f61091b565b6040516102419190612e29565b61029661033a366004612c99565b61092b565b61023461099a565b610234610355366004612af7565b6109a0565b610296610368366004612a98565b610a8b565b610296610d7c565b610296610383366004612b32565b610dfb565b610296610396366004612a18565b610e74565b610296610ed2565b6102966103b1366004612c99565b610f34565b6102966103c4366004612a86565b610fa3565b6102966103d7366004612a98565b611372565b610252611661565b6102966103f2366004612c99565b611670565b6102526116df565b6102346116ee565b610296610415366004612ac3565b6116fa565b610296610428366004612a98565b611a7b565b610234612014565b610252610443366004612af7565b61201a565b6102ef6104563660046129c4565b612040565b6102966104693660046129c4565b6120a8565b61029661047c366004612c99565b612130565b61029661048f366004612a98565b61219f565b6102966104a23660046129c4565b61246b565b61031f6104b5366004612af7565b612521565b60095481565b6002546001600160a01b031681565b6001600160a01b038082166000908152600d6020908152604080832086851684529091528120805491928392839283928392166105275760405162461bcd60e51b815260040161051e90613237565b60405180910390fd5b60085481600501541061054c5760405162461bcd60e51b815260040161051e90613068565b6001600160a01b038816600090815260066020908152604080832080548251601f600260001961010060018616150201909316929092049182018590048502810185019093528083526105f4938301828280156105ea5780601f106105bf576101008083540402835291602001916105ea565b820191906000526020600020905b8154815290600101906020018083116105cd57829003601f168201915b50505050506109a0565b9050808260060154106106195760405162461bcd60e51b815260040161051e90612ec3565b600061062983600301548361255f565b905060008060008084876004015411156106715784876004015403935061065284600b5461255f565b92506106608460095461255f565b915061066e84600a5461255f565b90505b939d929c50909a509850909650945050505050565b61068e612580565b6000546001600160a01b039081169116146106bb5760405162461bcd60e51b815260040161051e90613145565b600b8054908290556040517f2e3ff2a57d8574a2f22d5c3e4f6d87795bb4311b40b959c0fdc5bce2d2075818906106f5908390859061336a565b60405180910390a15050565b600d602090815260009283526040808420909152908252902080546001820154600283015460038401546004850154600586015460068701546007880154600889015460098a0154600a8b0154600b8c0154600c909c01546001600160a01b039b8c169c9a8c169b9099169997989697959694959394929391929091908d565b60085481565b600c546001600160a01b031681565b61079e61091b565b6107ba5760405162461bcd60e51b815260040161051e90612e95565b6107c2612580565b6000546001600160a01b039081169116146107ef5760405162461bcd60e51b815260040161051e90613145565b6107f7612584565b565b81516020818401810180516004825292820191850191909120919052816002811061082057fe5b01805460408051602060026001851615610100026000190190941693909304601f810184900484028201840190925281815294509192508301828280156108a85780601f1061087d576101008083540402835291602001916108a8565b820191906000526020600020905b81548152906001019060200180831161088b57829003601f168201915b505050505081565b600b5481565b6108be612580565b6000546001600160a01b039081169116146108eb5760405162461bcd60e51b815260040161051e90613145565b806004836040516108fc9190612d34565b9081526040519081900360200190206109169160026127f7565b505050565b600054600160a01b900460ff1690565b610933612580565b6000546001600160a01b039081169116146109605760405162461bcd60e51b815260040161051e90613145565b60078054908290556040517fe21aac16189a7da506d3ccd8621d8639e3a32d51634174a427ebd25800884e99906106f5908390859061336a565b600a5481565b60006109ab82612521565b6109b457600080fd5b6109bc612847565b6003546040516001600160a01b03909116906365555bcc906004906109e2908790612d34565b908152604051908190036020019020600001600486604051610a049190612d34565b9081526040519081900360200190206001016040518363ffffffff1660e01b8152600401610a33929190612e67565b60606040518083038186803b158015610a4b57600080fd5b505afa158015610a5f573d6000803e3d6000fd5b505050506040513d601f19601f82011682018060405250810190610a839190612c5c565b519392505050565b610a9361091b565b15610ab05760405162461bcd60e51b815260040161051e9061303e565b60026001541415610ad35760405162461bcd60e51b815260040161051e9061327b565b60026001556000600d81610ae5612580565b6001600160a01b03166001600160a01b031681526020019081526020016000206000846001600160a01b03166001600160a01b0316815260200190815260200160002090506000816003015411610b4e5760405162461bcd60e51b815260040161051e90612fd7565b6004810154610b5d90836125f5565b60048201556001600160a01b038316600090815260066020908152604080832080548251601f60026000196101006001861615020190931692909204918201859004850281018501909352808352610bd5938301828280156105ea5780601f106105bf576101008083540402835291602001916105ea565b90506000610c02670de0b6b3a7640000610bfc84866003015461261a90919063ffffffff16565b90612654565b90506000610c27670de0b6b3a7640000610bfc6007548561261a90919063ffffffff16565b90506000610c4282866004015461269690919063ffffffff16565b6002549091506001600160a01b03166323b872dd610c5e612580565b30896040518463ffffffff1660e01b8152600401610c7e93929190612d64565b602060405180830381600087803b158015610c9857600080fd5b505af1158015610cac573d6000803e3d6000fd5b505050506040513d601f19601f82011682018060405250810190610cd09190612a66565b610cd957600080fd5b610ce78560040154846126d8565b60058601819055610cf99085906126fc565b600686015560088501819055610d0f81846126d8565b6007860155600c850184905542600986015543600a860155610d2f612580565b6001600160a01b03167f2ac90482c3b6bea30a2c085cf093016bad7f970d91c5fd233e6b848d3e231dc387604051610d679190613361565b60405180910390a25050600180555050505050565b610d84612580565b6000546001600160a01b03908116911614610db15760405162461bcd60e51b815260040161051e90613145565b600080546040516001600160a01b03909116907f8be0079c531659141344cd1fd0a4f28419497f9722a3daafe3b4186f6b6457e0908390a3600080546001600160a01b0319169055565b610e03612580565b6000546001600160a01b03908116911614610e305760405162461bcd60e51b815260040161051e90613145565b80600583604051610e419190612d34565b90815260405190819003602001902080546001600160a01b03929092166001600160a01b03199092169190911790555050565b610e7c612580565b6000546001600160a01b03908116911614610ea95760405162461bcd60e51b815260040161051e90613145565b6001600160a01b0382166000908152600660209081526040909120825161091692840190612868565b610eda61091b565b15610ef75760405162461bcd60e51b815260040161051e9061303e565b610eff612580565b6000546001600160a01b03908116911614610f2c5760405162461bcd60e51b815260040161051e90613145565b6107f7612733565b610f3c612580565b6000546001600160a01b03908116911614610f695760405162461bcd60e51b815260040161051e90613145565b60098054908290556040517f3ccaefdfe3295630104d687db5f7e07f2a19848b9f68c4f55a4ab591c9b5d90f906106f5908390859061336a565b610fab61091b565b15610fc85760405162461bcd60e51b815260040161051e9061303e565b60026001541415610feb5760405162461bcd60e51b815260040161051e9061327b565b600260015560008080808061100087876104cf565b945094509450945094506000841115611245576002546001600160a01b03166323b872dd61102c612580565b30886040518463ffffffff1660e01b815260040161104c93929190612d64565b602060405180830381600087803b15801561106657600080fd5b505af115801561107a573d6000803e3d6000fd5b505050506040513d601f19601f8201168201806040525081019061109e9190612a66565b5060025460405163a9059cbb60e01b81526001600160a01b039091169063a9059cbb906110d19089908790600401612d88565b602060405180830381600087803b1580156110eb57600080fd5b505af11580156110ff573d6000803e3d6000fd5b505050506040513d601f19601f820116820180604052508101906111239190612a66565b506002546001600160a01b031663a9059cbb61113d612580565b61114788866125f5565b6040518363ffffffff1660e01b8152600401611164929190612d88565b602060405180830381600087803b15801561117e57600080fd5b505af1158015611192573d6000803e3d6000fd5b505050506040513d601f19601f820116820180604052508101906111b69190612a66565b50600254600c5460405163a9059cbb60e01b81526001600160a01b039283169263a9059cbb926111ed929116908590600401612d88565b602060405180830381600087803b15801561120757600080fd5b505af115801561121b573d6000803e3d6000fd5b505050506040513d601f19601f8201168201806040525081019061123f9190612a66565b506112d2565b6002546001600160a01b03166323b872dd61125e612580565b30886040518463ffffffff1660e01b815260040161127e93929190612d64565b602060405180830381600087803b15801561129857600080fd5b505af11580156112ac573d6000803e3d6000fd5b505050506040513d601f19601f820116820180604052508101906112d09190612a66565b505b5050506001600160a01b039283166000908152600d60209081526040808320969095168252949094525050812080546001600160a01b03199081168255600180830180548316905560028301805490921690915560038201839055600482018390556005820183905560068201839055600782018390556008820183905560098201839055600a8201839055600b8201839055600c909101919091558055565b61137a61091b565b156113975760405162461bcd60e51b815260040161051e9061303e565b600260015414156113ba5760405162461bcd60e51b815260040161051e9061327b565b60026001556000600d816113cc612580565b6001600160a01b03166001600160a01b031681526020019081526020016000206000846001600160a01b03166001600160a01b03168152602001908152602001600020905060008160030154116114355760405162461bcd60e51b815260040161051e9061317a565b60048101546114449083612696565b6004820155600881015482111561146d5760405162461bcd60e51b815260040161051e90613304565b6001600160a01b038316600090815260066020908152604080832080548251601f600260001961010060018616150201909316929092049182018590048502810185019093528083526114e0938301828280156105ea5780601f106105bf576101008083540402835291602001916105ea565b90506000611507670de0b6b3a7640000610bfc84866003015461261a90919063ffffffff16565b9050600061152c670de0b6b3a7640000610bfc6007548561261a90919063ffffffff16565b9050600061154782866004015461269690919063ffffffff16565b90506002546001600160a01b031663a9059cbb611562612580565b886040518363ffffffff1660e01b8152600401611580929190612d88565b602060405180830381600087803b15801561159a57600080fd5b505af11580156115ae573d6000803e3d6000fd5b505050506040513d601f19601f820116820180604052508101906115d29190612a66565b506115e18560040154846126d8565b600586018190556115f39085906126fc565b60068601556008850181905561160981846126d8565b6007860155600c850184905542600986015543600a860155611629612580565b6001600160a01b03167fe25410a4059619c9594dc6f022fe231b02aaea733f689e7ab0cd21b3d4d0eb5487604051610d679190613361565b6000546001600160a01b031690565b611678612580565b6000546001600160a01b039081169116146116a55760405162461bcd60e51b815260040161051e90613145565b60088054908290556040517fad82ab9177533366e9282d4fe3d9537bd1beaf004633ebab48e3ef4e47f258bd906106f5908390859061336a565b6003546001600160a01b031681565b670de0b6b3a764000081565b61170261091b565b1561171f5760405162461bcd60e51b815260040161051e9061303e565b600260015414156117425760405162461bcd60e51b815260040161051e9061327b565b60026001556000600d81611754612580565b6001600160a01b0390811682526020808301939093526040918201600090812088831682529093529120805490925016156117a15760405162461bcd60e51b815260040161051e906131e7565b6001600160a01b038416600090815260066020908152604080832080548251601f60026000196101006001861615020190931692909204918201859004850281018501909352808352611814938301828280156105ea5780601f106105bf576101008083540402835291602001916105ea565b9050600061182e670de0b6b3a7640000610bfc878561261a565b90506000611853670de0b6b3a7640000610bfc6007548561261a90919063ffffffff16565b9050808510156118755760405162461bcd60e51b815260040161051e90612f8d565b60006118818683612696565b9050876001600160a01b03166340c10f1961189a612580565b896040518363ffffffff1660e01b81526004016118b8929190612d88565b600060405180830381600087803b1580156118d257600080fd5b505af11580156118e6573d6000803e3d6000fd5b50506002546001600160a01b031691506323b872dd9050611905612580565b30896040518463ffffffff1660e01b815260040161192593929190612d64565b602060405180830381600087803b15801561193f57600080fd5b505af1158015611953573d6000803e3d6000fd5b505050506040513d601f19601f820116820180604052508101906119779190612a66565b61198057600080fd5b611988612580565b85546001600160a01b03199081166001600160a01b0392831617875560018701805482168b84161790556002805490880180549190931691161790556003850187905560048501869055600b8501849055600c85018490556119ea86846126d8565b600586018190556119fc9085906126fc565b600686015560088501819055611a1281846126d8565b600786015542600986015543600a8601556001600160a01b0388167fd7918d04fa8d2763da038d81b4ab65ea7b9eb8e5e3b199c548142ac304a8ad6f611a56612580565b89604051611a65929190612d88565b60405180910390a2505060018055505050505050565b611a8361091b565b15611aa05760405162461bcd60e51b815260040161051e9061303e565b60026001541415611ac35760405162461bcd60e51b815260040161051e9061327b565b60026001556000600d81611ad5612580565b6001600160a01b03166001600160a01b031681526020019081526020016000206000846001600160a01b03166001600160a01b0316815260200190815260200160002090508181600301541015611b3e5760405162461bcd60e51b815260040161051e906130af565b8060030154821415611d2057826001600160a01b03166379cc6790611b61612580565b846040518363ffffffff1660e01b8152600401611b7f929190612d88565b600060405180830381600087803b158015611b9957600080fd5b505af1158015611bad573d6000803e3d6000fd5b50506002546001600160a01b0316915063a9059cbb9050611bcc612580565b83600401546040518363ffffffff1660e01b8152600401611bee929190612d88565b602060405180830381600087803b158015611c0857600080fd5b505af1158015611c1c573d6000803e3d6000fd5b505050506040513d601f19601f82011682018060405250810190611c409190612a66565b50600d6000611c4d612580565b6001600160a01b039081168252602080830193909352604091820160009081209187168082529190935281832080546001600160a01b0319908116825560018201805482169055600282018054909116905560038101849055600481018490556005810184905560068101849055600781018490556008810184905560098101849055600a8101849055600b8101849055600c0192909255517fb99b782c502642cbb60ce7d75f893727e5ef94003f2f9e56bcbbb013615e193e90611d13908590613361565b60405180910390a261200b565b6000611d308383600301546126d8565b90506000611d4283600301548361255f565b90506000611d5484600401548461255f565b6001600160a01b038716600090815260066020908152604080832080548251601f600260001961010060018616150201909316929092049182018590048502810185019093528083529495509293611dce9391928301828280156105ea5780601f106105bf576101008083540402835291602001916105ea565b90506000611de983876004015461269690919063ffffffff16565b90506000611e0485886003015461269690919063ffffffff16565b90506000611e1e670de0b6b3a7640000610bfc848761261a565b90506000611e43670de0b6b3a7640000610bfc6007548561261a90919063ffffffff16565b905080841015611e655760405162461bcd60e51b815260040161051e906132b2565b6000611e718583612696565b90508b6001600160a01b03166379cc6790611e8a612580565b8a6040518363ffffffff1660e01b8152600401611ea8929190612d88565b600060405180830381600087803b158015611ec257600080fd5b505af1158015611ed6573d6000803e3d6000fd5b50506002546001600160a01b0316915063a9059cbb9050611ef5612580565b896040518363ffffffff1660e01b8152600401611f13929190612d88565b602060405180830381600087803b158015611f2d57600080fd5b505af1158015611f41573d6000803e3d6000fd5b505050506040513d601f19601f82011682018060405250810190611f659190612a66565b5060038a0184905560048a01859055611f7e85846126d8565b60058b01819055611f909087906126fc565b60068b015560088a01819055611fa681846126d8565b60078b0155600c8a018690554260098b015543600a8b01556040516001600160a01b038d16907fb99b782c502642cbb60ce7d75f893727e5ef94003f2f9e56bcbbb013615e193e90611ff9908e90613361565b60405180910390a25050505050505050505b50506001805550565b60075481565b80516020818301810180516005825292820191909301209152546001600160a01b031681565b60066020908152600091825260409182902080548351601f6002600019610100600186161502019093169290920491820184900484028101840190945280845290918301828280156108a85780601f1061087d576101008083540402835291602001916108a8565b6120b0612580565b6000546001600160a01b039081169116146120dd5760405162461bcd60e51b815260040161051e90613145565b600c80546001600160a01b038381166001600160a01b03198316179092556040519116907f618c54559e94f1499a808aad71ee8729f8e74e8c48e979616328ce493a1a52e7906106f59083908590612da1565b612138612580565b6000546001600160a01b039081169116146121655760405162461bcd60e51b815260040161051e90613145565b600a8054908290556040517f6fe3d84266b6434a6a63810addd9a2075a300a5d5af2a48aba78e443e7eab3f9906106f5908390859061336a565b6121a7612580565b6000546001600160a01b039081169116146121d45760405162461bcd60e51b815260040161051e90613145565b6121dc61091b565b156121f95760405162461bcd60e51b815260040161051e9061303e565b6002600154141561221c5760405162461bcd60e51b815260040161051e9061327b565b60026001556000600d8161222e612580565b6001600160a01b03166001600160a01b031681526020019081526020016000206000846001600160a01b03166001600160a01b03168152602001908152602001600020905060008160030154116122975760405162461bcd60e51b815260040161051e9061317a565b60048101546122a69083612696565b60048201556001600160a01b038316600090815260066020908152604080832080548251601f6002600019610100600186161502019093169290920491820185900485028101850190935280835261231e938301828280156105ea5780601f106105bf576101008083540402835291602001916105ea565b90506000612345670de0b6b3a7640000610bfc84866003015461261a90919063ffffffff16565b6002549091506001600160a01b031663a9059cbb612361612580565b866040518363ffffffff1660e01b815260040161237f929190612d88565b602060405180830381600087803b15801561239957600080fd5b505af11580156123ad573d6000803e3d6000fd5b505050506040513d601f19601f820116820180604052508101906123d19190612a66565b506123e08360040154826126d8565b600584018190556123f29083906126fc565b60068401556000600884018190556007840155600c830182905542600984015543600a840155612420612580565b6001600160a01b03167fe25410a4059619c9594dc6f022fe231b02aaea733f689e7ab0cd21b3d4d0eb54856040516124589190613361565b60405180910390a2505060018055505050565b612473612580565b6000546001600160a01b039081169116146124a05760405162461bcd60e51b815260040161051e90613145565b6001600160a01b0381166124c65760405162461bcd60e51b815260040161051e90612f10565b600080546040516001600160a01b03808516939216917f8be0079c531659141344cd1fd0a4f28419497f9722a3daafe3b4186f6b6457e091a3600080546001600160a01b0319166001600160a01b0392909216919091179055565b6000806001600160a01b031660058360405161253d9190612d34565b908152604051908190036020019020546001600160a01b031614159050919050565b6000612577670de0b6b3a7640000610bfc858561261a565b90505b92915050565b3390565b61258c61091b565b6125a85760405162461bcd60e51b815260040161051e90612e95565b6000805460ff60a01b191690557f5db9ee0a495bf2e6ff9c91a7834c1ba4fdd244a5e8aa4e537bd38aeae4b073aa6125de612580565b6040516125eb9190612d50565b60405180910390a1565b6000828201838110156125775760405162461bcd60e51b815260040161051e90612f56565b6000826126295750600061257a565b8282028284828161263657fe5b04146125775760405162461bcd60e51b815260040161051e90613104565b600061257783836040518060400160405280601a81526020017f536166654d6174683a206469766973696f6e206279207a65726f000000000000815250612794565b600061257783836040518060400160405280601e81526020017f536166654d6174683a207375627472616374696f6e206f766572666c6f7700008152506127cb565b6000612577670de0b6b3a7640000610bfc816126f68683898461261a565b9061261a565b6000612577670de0b6b3a7640000610bfc61272c670de0b6b3a7640000600854038661269690919063ffffffff16565b869061261a565b61273b61091b565b156127585760405162461bcd60e51b815260040161051e9061303e565b6000805460ff60a01b1916600160a01b1790557f62e78cea01bee320cd4e420270b5ea74000d11b0c9f74754ebdbfc544b05a2586125de612580565b600081836127b55760405162461bcd60e51b815260040161051e9190612e34565b5060008385816127c157fe5b0495945050505050565b600081848411156127ef5760405162461bcd60e51b815260040161051e9190612e34565b505050900390565b8260028101928215612837579160200282015b828111156128375782518051612827918491602090910190612868565b509160200191906001019061280a565b506128439291506128e2565b5090565b60405180606001604052806000815260200160008152602001600081525090565b828054600181600116156101000203166002900490600052602060002090601f016020900481019282601f106128a957805160ff19168380011785556128d6565b828001600101855582156128d6579182015b828111156128d65782518255916020019190600101906128bb565b506128439291506128ff565b808211156128435760006128f68282612914565b506001016128e2565b5b808211156128435760008155600101612900565b50805460018160011615610100020316600290046000825580601f1061293a5750612958565b601f01602090049060005260206000209081019061295891906128ff565b50565b600082601f83011261296b578081fd5b813567ffffffffffffffff811115612981578182fd5b612994601f8201601f191660200161339b565b91508082528360208285010111156129ab57600080fd5b8060208401602084013760009082016020015292915050565b6000602082840312156129d5578081fd5b8135612577816133fe565b600080604083850312156129f2578081fd5b82356129fd816133fe565b91506020830135612a0d816133fe565b809150509250929050565b60008060408385031215612a2a578182fd5b8235612a35816133fe565b9150602083013567ffffffffffffffff811115612a50578182fd5b612a5c8582860161295b565b9150509250929050565b600060208284031215612a77578081fd5b81518015158114612577578182fd5b600080604083850312156129f2578182fd5b60008060408385031215612aaa578182fd5b8235612ab5816133fe565b946020939093013593505050565b600080600060608486031215612ad7578081fd5b8335612ae2816133fe565b95602085013595506040909401359392505050565b600060208284031215612b08578081fd5b813567ffffffffffffffff811115612b1e578182fd5b612b2a8482850161295b565b949350505050565b60008060408385031215612b44578182fd5b823567ffffffffffffffff811115612b5a578283fd5b612b668582860161295b565b9250506020830135612a0d816133fe565b60008060408385031215612b89578182fd5b823567ffffffffffffffff80821115612ba0578384fd5b612bac8683870161295b565b9350602091508185013581811115612bc2578384fd5b85019050601f81018613612bd4578283fd5b612bde604061339b565b8082855b6002811015612c0a57612bf88a8335870161295b565b84529285019290850190600101612be2565b50959890975095505050505050565b60008060408385031215612c2b578182fd5b823567ffffffffffffffff811115612c41578283fd5b612c4d8582860161295b565b95602094909401359450505050565b600060608284031215612c6d578081fd5b612c77606061339b565b8251815260208301516020820152604083015160408201528091505092915050565b600060208284031215612caa578081fd5b5035919050565b60008154600180821660008114612ccf5760018114612ced57612d2b565b60028304607f16865260ff1983166020870152604086019350612d2b565b60028304808752612cfd866133c2565b60005b82811015612d215781546020828b0101528482019150602081019050612d00565b8801602001955050505b50505092915050565b60008251612d468184602087016133ce565b9190910192915050565b6001600160a01b0391909116815260200190565b6001600160a01b039384168152919092166020820152604081019190915260600190565b6001600160a01b03929092168252602082015260400190565b6001600160a01b0392831681529116602082015260400190565b6001600160a01b039d8e1681529b8d1660208d015299909b1660408b015260608a0197909752608089019590955260a088019390935260c087019190915260e08601526101008501526101208401526101408301526101608201929092526101808101919091526101a00190565b901515815260200190565b6000602082528251806020840152612e538160408501602087016133ce565b601f01601f19169190910160400192915050565b600060408252612e7a6040830185612cb1565b8281036020840152612e8c8185612cb1565b95945050505050565b60208082526014908201527314185d5cd8589b194e881b9bdd081c185d5cd95960621b604082015260600190565b6020808252602d908201527f53796e7468657469633a3a6c69717569646174653a206173736574207072696360408201526c6520697320736173746973667960981b606082015260800190565b60208082526026908201527f4f776e61626c653a206e6577206f776e657220697320746865207a65726f206160408201526564647265737360d01b606082015260800190565b6020808252601b908201527f536166654d6174683a206164646974696f6e206f766572666c6f770000000000604082015260600190565b6020808252602a908201527f53796e7468657469633a3a6d696e7453796e7468657469633a20756e6465722060408201526918dbdb1b185d195c985b60b21b606082015260800190565b60208082526041908201527f53796e7468657469633a3a616464436f6c6c61746572616c3a2063616e6e6f7460408201527f2061646420636f6c6c61746572616c20746f20656d70747920636f6e747261636060820152601d60fa1b608082015260a00190565b60208082526010908201526f14185d5cd8589b194e881c185d5cd95960821b604082015260600190565b60208082526027908201527f53796e7468657469633a3a6c69717569646174653a20726174696f20697320736040820152666173746973667960c81b606082015260800190565b60208082526035908201527f53796e7468657469633a3a72656465656d53796e7468657469633a20616d6f756040820152741b9d08195e18d959591cc818dbdb1b185d195c985b605a1b606082015260800190565b60208082526021908201527f536166654d6174683a206d756c7469706c69636174696f6e206f766572666c6f6040820152607760f81b606082015260800190565b6020808252818101527f4f776e61626c653a2063616c6c6572206973206e6f7420746865206f776e6572604082015260600190565b60208082526047908201527f53796e7468657469633a3a72656d6f7665436f6c6c61746572616c3a2063616e60408201527f6e6f742072656d6f766520636f6c6c61746572616c20746f20656d70747920636060820152661bdb9d1c9858dd60ca1b608082015260a00190565b60208082526030908201527f53796e7468657469633a3a6d696e7453796e7468657469633a207472616e736660408201526f657220746f206164647265737328302960801b606082015260800190565b60208082526024908201527f53796e7468657469633a3a6c69717569646174653a20656d70747920636f6e746040820152631c9858dd60e21b606082015260800190565b6020808252601f908201527f5265656e7472616e637947756172643a207265656e7472616e742063616c6c00604082015260600190565b60208082526032908201527f53796e7468657469633a3a72656465656d53796e7468657469633a20756e64656040820152717220636f6c6c61746572616c20726174696f60701b606082015260800190565b6020808252603f908201527f53796e7468657469633a3a72656d6f7665436f6c6c61746572616c3a20616d6f60408201527f756e74206578636565647320726571756972656420636f6c6c61746572616c00606082015260800190565b90815260200190565b918252602082015260400190565b948552602085019390935260408401919091526060830152608082015260a00190565b60405181810167ffffffffffffffff811182821017156133ba57600080fd5b604052919050565b60009081526020902090565b60005b838110156133e95781810151838201526020016133d1565b838111156133f8576000848401525b50505050565b6001600160a01b038116811461295857600080fdfea2646970667358221220b89820e1a595c01904c690c486c8fd352b13778bf114d04fed08ec7e1617c07564736f6c634300060c0033",
  "linkReferences": {},
  "deployedLinkReferences": {}
}