{
  "_format": "hh-sol-artifact-1",
  "contractName": "Synthetic",
  "sourceName": "contracts/Synthetic.sol",
  "abi": [
    {
      "inputs": [
        {
          "internalType": "contract IERC20",
          "name": "_dolly",
          "type": "address"
        },
        {
          "internalType": "contract IStdReference",
          "name": "_ref",
          "type": "address"
        }
      ],
      "stateMutability": "nonpayable",
      "type": "constructor"
    },
    {
      "anonymous": false,
      "inputs": [
        {
          "indexed": true,
          "internalType": "address",
          "name": "user",
          "type": "address"
        },
        {
          "indexed": false,
          "internalType": "uint256",
          "name": "amount",
          "type": "uint256"
        }
      ],
      "name": "AddCollateral",
      "type": "event"
    },
    {
      "anonymous": false,
      "inputs": [
        {
          "indexed": true,
          "internalType": "address",
          "name": "liquidated",
          "type": "address"
        },
        {
          "indexed": true,
          "internalType": "address",
          "name": "liquidator",
          "type": "address"
        },
        {
          "indexed": true,
          "internalType": "address",
          "name": "syntheticAddress",
          "type": "address"
        },
        {
          "indexed": false,
          "internalType": "uint256",
          "name": "amount",
          "type": "uint256"
        },
        {
          "indexed": false,
          "internalType": "uint256",
          "name": "timestamp",
          "type": "uint256"
        }
      ],
      "name": "Liquidated",
      "type": "event"
    },
    {
      "anonymous": false,
      "inputs": [
        {
          "indexed": false,
          "internalType": "address",
          "name": "minter",
          "type": "address"
        },
        {
          "indexed": true,
          "internalType": "address",
          "name": "syntheticAddress",
          "type": "address"
        },
        {
          "indexed": false,
          "internalType": "uint256",
          "name": "amount",
          "type": "uint256"
        }
      ],
      "name": "MintAsset",
      "type": "event"
    },
    {
      "anonymous": false,
      "inputs": [
        {
          "indexed": true,
          "internalType": "address",
          "name": "previousOwner",
          "type": "address"
        },
        {
          "indexed": true,
          "internalType": "address",
          "name": "newOwner",
          "type": "address"
        }
      ],
      "name": "OwnershipTransferred",
      "type": "event"
    },
    {
      "anonymous": false,
      "inputs": [
        {
          "indexed": false,
          "internalType": "address",
          "name": "account",
          "type": "address"
        }
      ],
      "name": "Paused",
      "type": "event"
    },
    {
      "anonymous": false,
      "inputs": [
        {
          "indexed": true,
          "internalType": "address",
          "name": "syntheticAddress",
          "type": "address"
        },
        {
          "indexed": false,
          "internalType": "uint256",
          "name": "amount",
          "type": "uint256"
        }
      ],
      "name": "RedeemAsset",
      "type": "event"
    },
    {
      "anonymous": false,
      "inputs": [
        {
          "indexed": true,
          "internalType": "address",
          "name": "user",
          "type": "address"
        },
        {
          "indexed": false,
          "internalType": "uint256",
          "name": "amount",
          "type": "uint256"
        }
      ],
      "name": "RemoveCollateral",
      "type": "event"
    },
    {
      "anonymous": false,
      "inputs": [
        {
          "indexed": false,
          "internalType": "address",
          "name": "oldDevAddress",
          "type": "address"
        },
        {
          "indexed": false,
          "internalType": "address",
          "name": "newDevAddress",
          "type": "address"
        }
      ],
      "name": "SetDevAddress",
      "type": "event"
    },
    {
      "anonymous": false,
      "inputs": [
        {
          "indexed": false,
          "internalType": "address",
          "name": "account",
          "type": "address"
        }
      ],
      "name": "Unpaused",
      "type": "event"
    },
    {
      "inputs": [
        {
          "internalType": "contract IERC20Burnable",
          "name": "_synthetic",
          "type": "address"
        },
        {
          "internalType": "uint256",
          "name": "_addAmount",
          "type": "uint256"
        }
      ],
      "name": "addCollateral",
      "outputs": [],
      "stateMutability": "nonpayable",
      "type": "function"
    },
    {
      "inputs": [
        {
          "internalType": "address",
          "name": "",
          "type": "address"
        }
      ],
      "name": "addressToPairs",
      "outputs": [
        {
          "internalType": "string",
          "name": "",
          "type": "string"
        }
      ],
      "stateMutability": "view",
      "type": "function"
    },
    {
      "inputs": [],
      "name": "bandOracle",
      "outputs": [
        {
          "internalType": "contract IStdReference",
          "name": "",
          "type": "address"
        }
      ],
      "stateMutability": "view",
      "type": "function"
    },
    {
      "inputs": [],
      "name": "collateralRatio",
      "outputs": [
        {
          "internalType": "uint256",
          "name": "",
          "type": "uint256"
        }
      ],
      "stateMutability": "view",
      "type": "function"
    },
    {
      "inputs": [
        {
          "internalType": "address",
          "name": "",
          "type": "address"
        },
        {
          "internalType": "address",
          "name": "",
          "type": "address"
        }
      ],
      "name": "contracts",
      "outputs": [
        {
          "internalType": "address",
          "name": "minter",
          "type": "address"
        },
        {
          "internalType": "contract IERC20Burnable",
          "name": "asset",
          "type": "address"
        },
        {
          "internalType": "contract IERC20",
          "name": "assetBacked",
          "type": "address"
        },
        {
          "internalType": "uint256",
          "name": "assetAmount",
          "type": "uint256"
        },
        {
          "internalType": "uint256",
          "name": "assetBackedAmount",
          "type": "uint256"
        },
        {
          "internalType": "uint256",
          "name": "currentRatio",
          "type": "uint256"
        },
        {
          "internalType": "uint256",
          "name": "willLiquidateAtPrice",
          "type": "uint256"
        },
        {
          "internalType": "uint256",
          "name": "canMintRemainning",
          "type": "uint256"
        },
        {
          "internalType": "uint256",
          "name": "canWithdrawRemainning",
          "type": "uint256"
        },
        {
          "internalType": "uint256",
          "name": "updatedAt",
          "type": "uint256"
        },
        {
          "internalType": "uint256",
          "name": "updatedBlock",
          "type": "uint256"
        },
        {
          "internalType": "uint256",
          "name": "exchangeRateAtMinted",
          "type": "uint256"
        },
        {
          "internalType": "uint256",
          "name": "currentExchangeRate",
          "type": "uint256"
        }
      ],
      "stateMutability": "view",
      "type": "function"
    },
    {
      "inputs": [],
      "name": "denominator",
      "outputs": [
        {
          "internalType": "uint256",
          "name": "",
          "type": "uint256"
        }
      ],
      "stateMutability": "view",
      "type": "function"
    },
    {
      "inputs": [],
      "name": "devAddress",
      "outputs": [
        {
          "internalType": "address",
          "name": "",
          "type": "address"
        }
      ],
      "stateMutability": "view",
      "type": "function"
    },
    {
      "inputs": [],
      "name": "dolly",
      "outputs": [
        {
          "internalType": "contract IERC20",
          "name": "",
          "type": "address"
        }
      ],
      "stateMutability": "view",
      "type": "function"
    },
    {
      "inputs": [
        {
          "internalType": "string",
          "name": "_pairs",
          "type": "string"
        }
      ],
      "name": "getRate",
      "outputs": [
        {
          "internalType": "uint256",
          "name": "",
          "type": "uint256"
        }
      ],
      "stateMutability": "view",
      "type": "function"
    },
    {
      "inputs": [
        {
          "internalType": "string",
          "name": "_pairs",
          "type": "string"
        }
      ],
      "name": "isSupported",
      "outputs": [
        {
          "internalType": "bool",
          "name": "",
          "type": "bool"
        }
      ],
      "stateMutability": "view",
      "type": "function"
    },
    {
      "inputs": [
        {
          "internalType": "contract IERC20Burnable",
          "name": "_synthetic",
          "type": "address"
        },
        {
          "internalType": "address",
          "name": "_minter",
          "type": "address"
        }
      ],
      "name": "liquidate",
      "outputs": [],
      "stateMutability": "nonpayable",
      "type": "function"
    },
    {
      "inputs": [],
      "name": "liquidationRatio",
      "outputs": [
        {
          "internalType": "uint256",
          "name": "",
          "type": "uint256"
        }
      ],
      "stateMutability": "view",
      "type": "function"
    },
    {
      "inputs": [],
      "name": "liquidatorRewardRatio",
      "outputs": [
        {
          "internalType": "uint256",
          "name": "",
          "type": "uint256"
        }
      ],
      "stateMutability": "view",
      "type": "function"
    },
    {
      "inputs": [
        {
          "internalType": "contract IERC20Burnable",
          "name": "_synthetic",
          "type": "address"
        },
        {
          "internalType": "uint256",
          "name": "_amount",
          "type": "uint256"
        },
        {
          "internalType": "uint256",
          "name": "_backedAmount",
          "type": "uint256"
        }
      ],
      "name": "mintSynthetic",
      "outputs": [],
      "stateMutability": "nonpayable",
      "type": "function"
    },
    {
      "inputs": [],
      "name": "owner",
      "outputs": [
        {
          "internalType": "address",
          "name": "",
          "type": "address"
        }
      ],
      "stateMutability": "view",
      "type": "function"
    },
    {
      "inputs": [
        {
          "internalType": "string",
          "name": "",
          "type": "string"
        }
      ],
      "name": "pairsToAddress",
      "outputs": [
        {
          "internalType": "address",
          "name": "",
          "type": "address"
        }
      ],
      "stateMutability": "view",
      "type": "function"
    },
    {
      "inputs": [
        {
          "internalType": "string",
          "name": "",
          "type": "string"
        },
        {
          "internalType": "uint256",
          "name": "",
          "type": "uint256"
        }
      ],
      "name": "pairsToQuote",
      "outputs": [
        {
          "internalType": "string",
          "name": "",
          "type": "string"
        }
      ],
      "stateMutability": "view",
      "type": "function"
    },
    {
      "inputs": [],
      "name": "pause",
      "outputs": [],
      "stateMutability": "nonpayable",
      "type": "function"
    },
    {
      "inputs": [],
      "name": "paused",
      "outputs": [
        {
          "internalType": "bool",
          "name": "",
          "type": "bool"
        }
      ],
      "stateMutability": "view",
      "type": "function"
    },
    {
      "inputs": [],
      "name": "platfromFeeRatio",
      "outputs": [
        {
          "internalType": "uint256",
          "name": "",
          "type": "uint256"
        }
      ],
      "stateMutability": "view",
      "type": "function"
    },
    {
      "inputs": [
        {
          "internalType": "contract IERC20Burnable",
          "name": "_synthetic",
          "type": "address"
        },
        {
          "internalType": "uint256",
          "name": "_amount",
          "type": "uint256"
        }
      ],
      "name": "redeemSynthetic",
      "outputs": [],
      "stateMutability": "nonpayable",
      "type": "function"
    },
    {
      "inputs": [],
      "name": "remainingToMinterRatio",
      "outputs": [
        {
          "internalType": "uint256",
          "name": "",
          "type": "uint256"
        }
      ],
      "stateMutability": "view",
      "type": "function"
    },
    {
      "inputs": [
        {
          "internalType": "contract IERC20Burnable",
          "name": "_synthetic",
          "type": "address"
        },
        {
          "internalType": "uint256",
          "name": "_removeBackedAmount",
          "type": "uint256"
        }
      ],
      "name": "removeCollateral",
      "outputs": [],
      "stateMutability": "nonpayable",
      "type": "function"
    },
    {
      "inputs": [
        {
          "internalType": "contract IERC20Burnable",
          "name": "_synthetic",
          "type": "address"
        },
        {
          "internalType": "uint256",
          "name": "_removeAmount",
          "type": "uint256"
        }
      ],
      "name": "removeLowerCollateral",
      "outputs": [],
      "stateMutability": "nonpayable",
      "type": "function"
    },
    {
      "inputs": [],
      "name": "renounceOwnership",
      "outputs": [],
      "stateMutability": "nonpayable",
      "type": "function"
    },
    {
      "inputs": [
        {
          "internalType": "address",
          "name": "_syntheticAddress",
          "type": "address"
        },
        {
          "internalType": "string",
          "name": "_pairs",
          "type": "string"
        }
      ],
      "name": "setAddressToPairs",
      "outputs": [],
      "stateMutability": "nonpayable",
      "type": "function"
    },
    {
      "inputs": [
        {
          "internalType": "address",
          "name": "_devAddress",
          "type": "address"
        }
      ],
      "name": "setDevAddress",
      "outputs": [],
      "stateMutability": "nonpayable",
      "type": "function"
    },
    {
      "inputs": [
        {
          "internalType": "string",
          "name": "_pairs",
          "type": "string"
        },
        {
          "internalType": "address",
          "name": "_syntheticAddress",
          "type": "address"
        }
      ],
      "name": "setPairsToAddress",
      "outputs": [],
      "stateMutability": "nonpayable",
      "type": "function"
    },
    {
      "inputs": [
        {
          "internalType": "string",
          "name": "_pairs",
          "type": "string"
        },
        {
          "internalType": "string[2]",
          "name": "baseAndQuote",
          "type": "string[2]"
        }
      ],
      "name": "setPairsToQuote",
      "outputs": [],
      "stateMutability": "nonpayable",
      "type": "function"
    },
    {
      "inputs": [],
      "name": "systheticAsset",
      "outputs": [
        {
          "internalType": "contract IERC20Burnable",
          "name": "",
          "type": "address"
        }
      ],
      "stateMutability": "view",
      "type": "function"
    },
    {
      "inputs": [
        {
          "internalType": "address",
          "name": "newOwner",
          "type": "address"
        }
      ],
      "name": "transferOwnership",
      "outputs": [],
      "stateMutability": "nonpayable",
      "type": "function"
    },
    {
      "inputs": [],
      "name": "unpause",
      "outputs": [],
      "stateMutability": "nonpayable",
      "type": "function"
    },
    {
      "inputs": [
        {
          "internalType": "contract IERC20Burnable",
          "name": "_synthetic",
          "type": "address"
        },
        {
          "internalType": "address",
          "name": "_minter",
          "type": "address"
        }
      ],
      "name": "viewRewardFromLiquidate",
      "outputs": [
        {
          "internalType": "uint256",
          "name": "",
          "type": "uint256"
        },
        {
          "internalType": "uint256",
          "name": "",
          "type": "uint256"
        },
        {
          "internalType": "uint256",
          "name": "",
          "type": "uint256"
        },
        {
          "internalType": "uint256",
          "name": "",
          "type": "uint256"
        },
        {
          "internalType": "uint256",
          "name": "",
          "type": "uint256"
        }
      ],
      "stateMutability": "view",
      "type": "function"
    }
  ],
  "bytecode": "0x6080604052670de0b6b3a76400006008556714d1120d7b160000600955671158e460913d0000600a5566b1a2bc2ec50000600b5566b1a2bc2ec50000600c55670c7d713b49da0000600d553480156200005757600080fd5b5060405162003412380380620034128339810160408190526200007a9162000148565b60006200008662000144565b600080546001600160a01b0319166001600160a01b0383169081178255604051929350917f8be0079c531659141344cd1fd0a4f28419497f9722a3daafe3b4186f6b6457e0908290a3506000805460ff60a01b1916905560018055600380546001600160a01b038085166001600160a01b03199283161790925560048054928416929091169190911790556200011b62000144565b600e80546001600160a01b0319166001600160a01b0392909216919091179055506200019f9050565b3390565b600080604083850312156200015b578182fd5b8251620001688162000186565b60208401519092506200017b8162000186565b809150509250929050565b6001600160a01b03811681146200019c57600080fd5b50565b61326380620001af6000396000f3fe608060405234801561001057600080fd5b50600436106101fb5760003560e01c80638223c7701161011a578063b32ec546116100ad578063d0d41fe11161007c578063d0d41fe1146103c7578063e150f647146103da578063f2fde38b146103ed578063f3a014a214610400578063fcb589d514610413576101fb565b8063b32ec54614610386578063b4eae1cb14610399578063bad82690146103a1578063bf15c3e1146103b4576101fb565b80638da5cb5b116100e95780638da5cb5b1461035b578063956dcd1f1461036357806396ce07951461036b5780639a12944c14610373576101fb565b80638223c7701461031a5780638456cb591461032d57806386b9d81f14610335578063876467f814610348576101fb565b80635bcbdc96116101925780636d75b9ee116101615780636d75b9ee146102e45780636e1aa51b146102f7578063715018a6146102ff5780637bda6e2814610307576101fb565b80635bcbdc96146102a15780635c975abb146102b457806365c3ad00146102c95780636c0daed8146102d1576101fb565b80633ad10ef6116101ce5780633ad10ef6146102675780633f4ba83a1461026f5780633f97bc5b146102795780634e55b8a714610299576101fb565b8063095f1404146102005780630b87d86e1461021e57806314057fca146102335780631775765f1461025f575b600080fd5b610208610437565b6040516102159190613189565b60405180910390f35b61022661043d565b6040516102159190612b78565b610246610241366004612820565b61044c565b6040516102159d9c9b9a99989796959493929190612be3565b6102086104cc565b6102266104d2565b6102776104e1565b005b61028c610287366004612a59565b61054d565b6040516102159190612c5c565b610208610604565b6102776102af3660046129b7565b61060a565b6102bc61066f565b6040516102159190612c51565b61020861067f565b6102086102df366004612937565b610685565b6102776102f23660046128d8565b610770565b610226610a8a565b610277610a99565b610277610315366004612972565b610b18565b610277610328366004612858565b610b91565b610277610bef565b6102776103433660046128c6565b610c51565b6102776103563660046128d8565b611106565b6102266113e9565b6102266113f8565b610208611407565b610277610381366004612903565b61140d565b6102776103943660046128d8565b61178d565b610208611d2c565b6102266103af366004612937565b611d32565b61028c6103c2366004612804565b611d58565b6102776103d5366004612804565b611dc0565b6102776103e83660046128d8565b611e54565b6102776103fb366004612804565b61211a565b6102bc61040e366004612937565b6121d0565b6104266104213660046128c6565b61220e565b604051610215959493929190613192565b600b5481565b6003546001600160a01b031681565b600f602090815260009283526040808420909152908252902080546001820154600283015460038401546004850154600586015460068701546007880154600889015460098a0154600a8b0154600b8c0154600c909c01546001600160a01b039b8c169c9a8c169b9099169997989697959694959394929391929091908d565b600a5481565b600e546001600160a01b031681565b6104e961066f565b61050e5760405162461bcd60e51b815260040161050590612cbd565b60405180910390fd5b6105166123c7565b6000546001600160a01b039081169116146105435760405162461bcd60e51b815260040161050590612f6d565b61054b6123cb565b565b81516020818401810180516005825292820191850191909120919052816002811061057457fe5b01805460408051602060026001851615610100026000190190941693909304601f810184900484028201840190925281815294509192508301828280156105fc5780601f106105d1576101008083540402835291602001916105fc565b820191906000526020600020905b8154815290600101906020018083116105df57829003601f168201915b505050505081565b600d5481565b6106126123c7565b6000546001600160a01b0390811691161461063f5760405162461bcd60e51b815260040161050590612f6d565b806005836040516106509190612b5c565b90815260405190819003602001902061066a916002612637565b505050565b600054600160a01b900460ff1690565b600c5481565b6000610690826121d0565b61069957600080fd5b6106a1612687565b6004546040516001600160a01b03909116906365555bcc906005906106c7908790612b5c565b9081526040519081900360200190206000016005866040516106e99190612b5c565b9081526040519081900360200190206001016040518363ffffffff1660e01b8152600401610718929190612c8f565b60606040518083038186803b15801561073057600080fd5b505afa158015610744573d6000803e3d6000fd5b505050506040513d601f19601f820116820180604052508101906107689190612a9c565b519392505050565b61077861066f565b156107955760405162461bcd60e51b815260040161050590612e66565b600260015414156107b85760405162461bcd60e51b8152600401610505906130a3565b60026001556000600f816107ca6123c7565b6001600160a01b03166001600160a01b031681526020019081526020016000206000846001600160a01b03166001600160a01b03168152602001908152602001600020905060008160030154116108335760405162461bcd60e51b815260040161050590612dff565b6004810154610842908361243c565b60048201556001600160a01b038316600090815260076020908152604080832080548251601f600260001961010060018616150201909316929092049182018590048502810185019093528083526108ef938301828280156108e55780601f106108ba576101008083540402835291602001916108e5565b820191906000526020600020905b8154815290600101906020018083116108c857829003601f168201915b5050505050610685565b9050600061091660085461091084866003015461246a90919063ffffffff16565b906124a4565b905060006109356008546109106009548561246a90919063ffffffff16565b905060006109508286600401546124e690919063ffffffff16565b6003549091506001600160a01b03166323b872dd61096c6123c7565b30896040518463ffffffff1660e01b815260040161098c93929190612b8c565b602060405180830381600087803b1580156109a657600080fd5b505af11580156109ba573d6000803e3d6000fd5b505050506040513d601f19601f820116820180604052508101906109de91906128a6565b6109e757600080fd5b6109f5856004015484612528565b60058601819055610a07908590612548565b600686015560088501819055610a1d8184612528565b6007860155600c850184905542600986015543600a860155610a3d6123c7565b6001600160a01b03167f2ac90482c3b6bea30a2c085cf093016bad7f970d91c5fd233e6b848d3e231dc387604051610a759190613189565b60405180910390a25050600180555050505050565b6002546001600160a01b031681565b610aa16123c7565b6000546001600160a01b03908116911614610ace5760405162461bcd60e51b815260040161050590612f6d565b600080546040516001600160a01b03909116907f8be0079c531659141344cd1fd0a4f28419497f9722a3daafe3b4186f6b6457e0908390a3600080546001600160a01b0319169055565b610b206123c7565b6000546001600160a01b03908116911614610b4d5760405162461bcd60e51b815260040161050590612f6d565b80600683604051610b5e9190612b5c565b90815260405190819003602001902080546001600160a01b03929092166001600160a01b03199092169190911790555050565b610b996123c7565b6000546001600160a01b03908116911614610bc65760405162461bcd60e51b815260040161050590612f6d565b6001600160a01b0382166000908152600760209081526040909120825161066a928401906126a8565b610bf761066f565b15610c145760405162461bcd60e51b815260040161050590612e66565b610c1c6123c7565b6000546001600160a01b03908116911614610c495760405162461bcd60e51b815260040161050590612f6d565b61054b612573565b610c5961066f565b15610c765760405162461bcd60e51b815260040161050590612e66565b60026001541415610c995760405162461bcd60e51b8152600401610505906130a3565b60026001556001600160a01b038082166000908152600f60209081526040808320868516845290915290208054909116610ce55760405162461bcd60e51b81526004016105059061305f565b600a54816005015410610d0a5760405162461bcd60e51b815260040161050590612e90565b6001600160a01b038316600090815260076020908152604080832080548251601f60026000196101006001861615020190931692909204918201859004850281018501909352808352610d7d938301828280156108e55780601f106108ba576101008083540402835291602001916108e5565b905080826006015410610da25760405162461bcd60e51b815260040161050590612ceb565b6000610dc160085461091084866003015461246a90919063ffffffff16565b90506000610ddc8285600401546124e690919063ffffffff16565b90506000610dfb600854610910600d548561246a90919063ffffffff16565b90506000610e1a600854610910600b548661246a90919063ffffffff16565b90506000610e39600854610910600c548761246a90919063ffffffff16565b6003549091506001600160a01b03166323b872dd610e556123c7565b30886040518463ffffffff1660e01b8152600401610e7593929190612b8c565b602060405180830381600087803b158015610e8f57600080fd5b505af1158015610ea3573d6000803e3d6000fd5b505050506040513d601f19601f82011682018060405250810190610ec791906128a6565b50600354875460405163a9059cbb60e01b81526001600160a01b039283169263a9059cbb92610efd929116908790600401612bb0565b602060405180830381600087803b158015610f1757600080fd5b505af1158015610f2b573d6000803e3d6000fd5b505050506040513d601f19601f82011682018060405250810190610f4f91906128a6565b506003546001600160a01b031663a9059cbb610f696123c7565b846040518363ffffffff1660e01b8152600401610f87929190612bb0565b602060405180830381600087803b158015610fa157600080fd5b505af1158015610fb5573d6000803e3d6000fd5b505050506040513d601f19601f82011682018060405250810190610fd991906128a6565b50600354600e5460405163a9059cbb60e01b81526001600160a01b039283169263a9059cbb92611010929116908590600401612bb0565b602060405180830381600087803b15801561102a57600080fd5b505af115801561103e573d6000803e3d6000fd5b505050506040513d601f19601f8201168201806040525081019061106291906128a6565b5050506001600160a01b039586166000908152600f602090815260408083209990981682529790975250505091832080546001600160a01b03199081168255600180830180548316905560028301805490921690915560038201859055600482018590556005820185905560068201859055600782018590556008820185905560098201859055600a8201859055600b8201859055600c9091019390935550508055565b61110e61066f565b1561112b5760405162461bcd60e51b815260040161050590612e66565b6002600154141561114e5760405162461bcd60e51b8152600401610505906130a3565b60026001556000600f816111606123c7565b6001600160a01b03166001600160a01b031681526020019081526020016000206000846001600160a01b03166001600160a01b03168152602001908152602001600020905060008160030154116111c95760405162461bcd60e51b815260040161050590612fa2565b60048101546111d890836124e6565b600482015560088101548211156112015760405162461bcd60e51b81526004016105059061312c565b6001600160a01b038316600090815260076020908152604080832080548251601f60026000196101006001861615020190931692909204918201859004850281018501909352808352611274938301828280156108e55780601f106108ba576101008083540402835291602001916108e5565b9050600061129560085461091084866003015461246a90919063ffffffff16565b905060006112b46008546109106009548561246a90919063ffffffff16565b905060006112cf8286600401546124e690919063ffffffff16565b90506003546001600160a01b031663a9059cbb6112ea6123c7565b886040518363ffffffff1660e01b8152600401611308929190612bb0565b602060405180830381600087803b15801561132257600080fd5b505af1158015611336573d6000803e3d6000fd5b505050506040513d601f19601f8201168201806040525081019061135a91906128a6565b50611369856004015484612528565b6005860181905561137b908590612548565b6006860155600885018190556113918184612528565b6007860155600c850184905542600986015543600a8601556113b16123c7565b6001600160a01b03167fe25410a4059619c9594dc6f022fe231b02aaea733f689e7ab0cd21b3d4d0eb5487604051610a759190613189565b6000546001600160a01b031690565b6004546001600160a01b031681565b60085481565b61141561066f565b156114325760405162461bcd60e51b815260040161050590612e66565b600260015414156114555760405162461bcd60e51b8152600401610505906130a3565b60026001556000600f816114676123c7565b6001600160a01b0390811682526020808301939093526040918201600090812088831682529093529120805490925016156114b45760405162461bcd60e51b81526004016105059061300f565b6001600160a01b038416600090815260076020908152604080832080548251601f60026000196101006001861615020190931692909204918201859004850281018501909352808352611527938301828280156108e55780601f106108ba576101008083540402835291602001916108e5565b90506000611544600854610910848861246a90919063ffffffff16565b905060006115636008546109106009548561246a90919063ffffffff16565b9050808510156115855760405162461bcd60e51b815260040161050590612db5565b600061159186836124e6565b9050876001600160a01b03166340c10f196115aa6123c7565b896040518363ffffffff1660e01b81526004016115c8929190612bb0565b600060405180830381600087803b1580156115e257600080fd5b505af11580156115f6573d6000803e3d6000fd5b50506003546001600160a01b031691506323b872dd90506116156123c7565b30896040518463ffffffff1660e01b815260040161163593929190612b8c565b602060405180830381600087803b15801561164f57600080fd5b505af1158015611663573d6000803e3d6000fd5b505050506040513d601f19601f8201168201806040525081019061168791906128a6565b61169057600080fd5b6116986123c7565b85546001600160a01b039182166001600160a01b03199182161787556001870180548b8416908316179055600380546002890180549093169316929092179055850187905560048501869055600b8501849055600c85018490556116fc8684612528565b6005860181905561170e908590612548565b6006860155600885018190556117248184612528565b600786015542600986015543600a8601556001600160a01b0388167fd7918d04fa8d2763da038d81b4ab65ea7b9eb8e5e3b199c548142ac304a8ad6f6117686123c7565b89604051611777929190612bb0565b60405180910390a2505060018055505050505050565b61179561066f565b156117b25760405162461bcd60e51b815260040161050590612e66565b600260015414156117d55760405162461bcd60e51b8152600401610505906130a3565b60026001556000600f816117e76123c7565b6001600160a01b03166001600160a01b031681526020019081526020016000206000846001600160a01b03166001600160a01b03168152602001908152602001600020905081816003015410156118505760405162461bcd60e51b815260040161050590612ed7565b8060030154821415611a3257826001600160a01b03166379cc67906118736123c7565b846040518363ffffffff1660e01b8152600401611891929190612bb0565b600060405180830381600087803b1580156118ab57600080fd5b505af11580156118bf573d6000803e3d6000fd5b50506003546001600160a01b0316915063a9059cbb90506118de6123c7565b83600401546040518363ffffffff1660e01b8152600401611900929190612bb0565b602060405180830381600087803b15801561191a57600080fd5b505af115801561192e573d6000803e3d6000fd5b505050506040513d601f19601f8201168201806040525081019061195291906128a6565b50600f600061195f6123c7565b6001600160a01b039081168252602080830193909352604091820160009081209187168082529190935281832080546001600160a01b0319908116825560018201805482169055600282018054909116905560038101849055600481018490556005810184905560068101849055600781018490556008810184905560098101849055600a8101849055600b8101849055600c0192909255517fb99b782c502642cbb60ce7d75f893727e5ef94003f2f9e56bcbbb013615e193e90611a25908590613189565b60405180910390a2611d23565b6000611a42838360030154612528565b905060006008548284600301540281611a5757fe5b04905060006008548385600401540281611a6d57fe5b6001600160a01b038816600090815260076020908152604080832080548251601f600260001961010060018616150201909316929092049182018590048502810185019093528083529590940495509193611ae993918301828280156108e55780601f106108ba576101008083540402835291602001916108e5565b90506000611b048387600401546124e690919063ffffffff16565b90506000611b1f8588600301546124e690919063ffffffff16565b90506000611b3c600854610910868561246a90919063ffffffff16565b90506000611b5b6008546109106009548561246a90919063ffffffff16565b905080841015611b7d5760405162461bcd60e51b8152600401610505906130da565b6000611b8985836124e6565b90508b6001600160a01b03166379cc6790611ba26123c7565b8a6040518363ffffffff1660e01b8152600401611bc0929190612bb0565b600060405180830381600087803b158015611bda57600080fd5b505af1158015611bee573d6000803e3d6000fd5b50506003546001600160a01b0316915063a9059cbb9050611c0d6123c7565b896040518363ffffffff1660e01b8152600401611c2b929190612bb0565b602060405180830381600087803b158015611c4557600080fd5b505af1158015611c59573d6000803e3d6000fd5b505050506040513d601f19601f82011682018060405250810190611c7d91906128a6565b5060038a0184905560048a01859055611c968584612528565b60058b01819055611ca8908790612548565b60068b015560088a01819055611cbe8184612528565b60078b0155600c8a018690554260098b015543600a8b01556040516001600160a01b038d16907fb99b782c502642cbb60ce7d75f893727e5ef94003f2f9e56bcbbb013615e193e90611d11908e90613189565b60405180910390a25050505050505050505b50506001805550565b60095481565b80516020818301810180516006825292820191909301209152546001600160a01b031681565b60076020908152600091825260409182902080548351601f6002600019610100600186161502019093169290920491820184900484028101840190945280845290918301828280156105fc5780601f106105d1576101008083540402835291602001916105fc565b611dc86123c7565b6000546001600160a01b03908116911614611df55760405162461bcd60e51b815260040161050590612f6d565b600e80546001600160a01b038381166001600160a01b03198316179092556040519116907f618c54559e94f1499a808aad71ee8729f8e74e8c48e979616328ce493a1a52e790611e489083908590612bc9565b60405180910390a15050565b611e5c6123c7565b6000546001600160a01b03908116911614611e895760405162461bcd60e51b815260040161050590612f6d565b611e9161066f565b15611eae5760405162461bcd60e51b815260040161050590612e66565b60026001541415611ed15760405162461bcd60e51b8152600401610505906130a3565b60026001556000600f81611ee36123c7565b6001600160a01b03166001600160a01b031681526020019081526020016000206000846001600160a01b03166001600160a01b0316815260200190815260200160002090506000816003015411611f4c5760405162461bcd60e51b815260040161050590612fa2565b6004810154611f5b90836124e6565b60048201556001600160a01b038316600090815260076020908152604080832080548251601f60026000196101006001861615020190931692909204918201859004850281018501909352808352611fd3938301828280156108e55780601f106108ba576101008083540402835291602001916108e5565b90506000611ff460085461091084866003015461246a90919063ffffffff16565b6003549091506001600160a01b031663a9059cbb6120106123c7565b866040518363ffffffff1660e01b815260040161202e929190612bb0565b602060405180830381600087803b15801561204857600080fd5b505af115801561205c573d6000803e3d6000fd5b505050506040513d601f19601f8201168201806040525081019061208091906128a6565b5061208f836004015482612528565b600584018190556120a1908390612548565b60068401556000600884018190556007840155600c830182905542600984015543600a8401556120cf6123c7565b6001600160a01b03167fe25410a4059619c9594dc6f022fe231b02aaea733f689e7ab0cd21b3d4d0eb54856040516121079190613189565b60405180910390a2505060018055505050565b6121226123c7565b6000546001600160a01b0390811691161461214f5760405162461bcd60e51b815260040161050590612f6d565b6001600160a01b0381166121755760405162461bcd60e51b815260040161050590612d38565b600080546040516001600160a01b03808516939216917f8be0079c531659141344cd1fd0a4f28419497f9722a3daafe3b4186f6b6457e091a3600080546001600160a01b0319166001600160a01b0392909216919091179055565b6000806001600160a01b03166006836040516121ec9190612b5c565b908152604051908190036020019020546001600160a01b031614159050919050565b6001600160a01b038082166000908152600f60209081526040808320868516845290915281208054919283928392839283921661225d5760405162461bcd60e51b81526004016105059061305f565b600a548160050154106122825760405162461bcd60e51b815260040161050590612e90565b6001600160a01b038816600090815260076020908152604080832080548251601f600260001961010060018616150201909316929092049182018590048502810185019093528083526122f5938301828280156108e55780601f106108ba576101008083540402835291602001916108e5565b90508082600601541061231a5760405162461bcd60e51b815260040161050590612ceb565b600061233960085461091084866003015461246a90919063ffffffff16565b905060006123548285600401546124e690919063ffffffff16565b90506000612373600854610910600d548561246a90919063ffffffff16565b90506000612392600854610910600b548661246a90919063ffffffff16565b905060006123b1600854610910600c548761246a90919063ffffffff16565b949e939d50919b50995091975095505050505050565b3390565b6123d361066f565b6123ef5760405162461bcd60e51b815260040161050590612cbd565b6000805460ff60a01b191690557f5db9ee0a495bf2e6ff9c91a7834c1ba4fdd244a5e8aa4e537bd38aeae4b073aa6124256123c7565b6040516124329190612b78565b60405180910390a1565b6000828201838110156124615760405162461bcd60e51b815260040161050590612d7e565b90505b92915050565b60008261247957506000612464565b8282028284828161248657fe5b04146124615760405162461bcd60e51b815260040161050590612f2c565b600061246183836040518060400160405280601a81526020017f536166654d6174683a206469766973696f6e206279207a65726f0000000000008152506125d4565b600061246183836040518060400160405280601e81526020017f536166654d6174683a207375627472616374696f6e206f766572666c6f77000081525061260b565b60085460009061246190610910816125428683898461246a565b9061246a565b600061246160085461091061256c600854600a5403866124e690919063ffffffff16565b869061246a565b61257b61066f565b156125985760405162461bcd60e51b815260040161050590612e66565b6000805460ff60a01b1916600160a01b1790557f62e78cea01bee320cd4e420270b5ea74000d11b0c9f74754ebdbfc544b05a2586124256123c7565b600081836125f55760405162461bcd60e51b81526004016105059190612c5c565b50600083858161260157fe5b0495945050505050565b6000818484111561262f5760405162461bcd60e51b81526004016105059190612c5c565b505050900390565b8260028101928215612677579160200282015b8281111561267757825180516126679184916020909101906126a8565b509160200191906001019061264a565b50612683929150612722565b5090565b60405180606001604052806000815260200160008152602001600081525090565b828054600181600116156101000203166002900490600052602060002090601f016020900481019282601f106126e957805160ff1916838001178555612716565b82800160010185558215612716579182015b828111156127165782518255916020019190600101906126fb565b5061268392915061273f565b808211156126835760006127368282612754565b50600101612722565b5b808211156126835760008155600101612740565b50805460018160011615610100020316600290046000825580601f1061277a5750612798565b601f016020900490600052602060002090810190612798919061273f565b50565b600082601f8301126127ab578081fd5b813567ffffffffffffffff8111156127c1578182fd5b6127d4601f8201601f19166020016131b5565b91508082528360208285010111156127eb57600080fd5b8060208401602084013760009082016020015292915050565b600060208284031215612815578081fd5b813561246181613218565b60008060408385031215612832578081fd5b823561283d81613218565b9150602083013561284d81613218565b809150509250929050565b6000806040838503121561286a578182fd5b823561287581613218565b9150602083013567ffffffffffffffff811115612890578182fd5b61289c8582860161279b565b9150509250929050565b6000602082840312156128b7578081fd5b81518015158114612461578182fd5b60008060408385031215612832578182fd5b600080604083850312156128ea578182fd5b82356128f581613218565b946020939093013593505050565b600080600060608486031215612917578081fd5b833561292281613218565b95602085013595506040909401359392505050565b600060208284031215612948578081fd5b813567ffffffffffffffff81111561295e578182fd5b61296a8482850161279b565b949350505050565b60008060408385031215612984578182fd5b823567ffffffffffffffff81111561299a578283fd5b6129a68582860161279b565b925050602083013561284d81613218565b600080604083850312156129c9578182fd5b823567ffffffffffffffff808211156129e0578384fd5b6129ec8683870161279b565b9350602091508185013581811115612a02578384fd5b85019050601f81018613612a14578283fd5b612a1e60406131b5565b8082855b6002811015612a4a57612a388a8335870161279b565b84529285019290850190600101612a22565b50959890975095505050505050565b60008060408385031215612a6b578182fd5b823567ffffffffffffffff811115612a81578283fd5b612a8d8582860161279b565b95602094909401359450505050565b600060608284031215612aad578081fd5b612ab760606131b5565b8251815260208301516020820152604083015160408201528091505092915050565b60008154600180821660008114612af75760018114612b1557612b53565b60028304607f16865260ff1983166020870152604086019350612b53565b60028304808752612b25866131dc565b60005b82811015612b495781546020828b0101528482019150602081019050612b28565b8801602001955050505b50505092915050565b60008251612b6e8184602087016131e8565b9190910192915050565b6001600160a01b0391909116815260200190565b6001600160a01b039384168152919092166020820152604081019190915260600190565b6001600160a01b03929092168252602082015260400190565b6001600160a01b0392831681529116602082015260400190565b6001600160a01b039d8e1681529b8d1660208d015299909b1660408b015260608a0197909752608089019590955260a088019390935260c087019190915260e08601526101008501526101208401526101408301526101608201929092526101808101919091526101a00190565b901515815260200190565b6000602082528251806020840152612c7b8160408501602087016131e8565b601f01601f19169190910160400192915050565b600060408252612ca26040830185612ad9565b8281036020840152612cb48185612ad9565b95945050505050565b60208082526014908201527314185d5cd8589b194e881b9bdd081c185d5cd95960621b604082015260600190565b6020808252602d908201527f53796e7468657469633a3a6c69717569646174653a206173736574207072696360408201526c6520697320736173746973667960981b606082015260800190565b60208082526026908201527f4f776e61626c653a206e6577206f776e657220697320746865207a65726f206160408201526564647265737360d01b606082015260800190565b6020808252601b908201527f536166654d6174683a206164646974696f6e206f766572666c6f770000000000604082015260600190565b6020808252602a908201527f53796e7468657469633a3a6d696e7453796e7468657469633a20756e6465722060408201526918dbdb1b185d195c985b60b21b606082015260800190565b60208082526041908201527f53796e7468657469633a3a616464436f6c6c61746572616c3a2063616e6e6f7460408201527f2061646420636f6c6c61746572616c20746f20656d70747920636f6e747261636060820152601d60fa1b608082015260a00190565b60208082526010908201526f14185d5cd8589b194e881c185d5cd95960821b604082015260600190565b60208082526027908201527f53796e7468657469633a3a6c69717569646174653a20726174696f20697320736040820152666173746973667960c81b606082015260800190565b60208082526035908201527f53796e7468657469633a3a72656465656d53796e7468657469633a20616d6f756040820152741b9d08195e18d959591cc818dbdb1b185d195c985b605a1b606082015260800190565b60208082526021908201527f536166654d6174683a206d756c7469706c69636174696f6e206f766572666c6f6040820152607760f81b606082015260800190565b6020808252818101527f4f776e61626c653a2063616c6c6572206973206e6f7420746865206f776e6572604082015260600190565b60208082526047908201527f53796e7468657469633a3a72656d6f7665436f6c6c61746572616c3a2063616e60408201527f6e6f742072656d6f766520636f6c6c61746572616c20746f20656d70747920636060820152661bdb9d1c9858dd60ca1b608082015260a00190565b60208082526030908201527f53796e7468657469633a3a6d696e7453796e7468657469633a207472616e736660408201526f657220746f206164647265737328302960801b606082015260800190565b60208082526024908201527f53796e7468657469633a3a6c69717569646174653a20656d70747920636f6e746040820152631c9858dd60e21b606082015260800190565b6020808252601f908201527f5265656e7472616e637947756172643a207265656e7472616e742063616c6c00604082015260600190565b60208082526032908201527f53796e7468657469633a3a72656465656d53796e7468657469633a20756e64656040820152717220636f6c6c61746572616c20726174696f60701b606082015260800190565b6020808252603f908201527f53796e7468657469633a3a72656d6f7665436f6c6c61746572616c3a20616d6f60408201527f756e74206578636565647320726571756972656420636f6c6c61746572616c00606082015260800190565b90815260200190565b948552602085019390935260408401919091526060830152608082015260a00190565b60405181810167ffffffffffffffff811182821017156131d457600080fd5b604052919050565b60009081526020902090565b60005b838110156132035781810151838201526020016131eb565b83811115613212576000848401525b50505050565b6001600160a01b038116811461279857600080fdfea264697066735822122034ff91d54f7ef0d3890d708edf126a08afa91a6c7448b79c8d6fb7c5f979d4bb64736f6c634300060c0033",
  "linkReferences": {},
  "deployedLinkReferences": {}
}