{
  "_format": "hh-sol-artifact-1",
  "contractName": "Synthetic",
  "sourceName": "contracts/Synthetic.sol",
  "abi": [
    {
      "inputs": [
        {
          "internalType": "contract IERC20",
          "name": "_dolly",
          "type": "address"
        },
        {
          "internalType": "contract IStdReference",
          "name": "_ref",
          "type": "address"
        }
      ],
      "stateMutability": "nonpayable",
      "type": "constructor"
    },
    {
      "anonymous": false,
      "inputs": [
        {
          "indexed": true,
          "internalType": "address",
          "name": "user",
          "type": "address"
        },
        {
          "indexed": false,
          "internalType": "uint256",
          "name": "amount",
          "type": "uint256"
        }
      ],
      "name": "AddCollateral",
      "type": "event"
    },
    {
      "anonymous": false,
      "inputs": [
        {
          "indexed": true,
          "internalType": "address",
          "name": "liquidated",
          "type": "address"
        },
        {
          "indexed": true,
          "internalType": "address",
          "name": "liquidator",
          "type": "address"
        },
        {
          "indexed": true,
          "internalType": "address",
          "name": "syntheticAddress",
          "type": "address"
        },
        {
          "indexed": false,
          "internalType": "uint256",
          "name": "amount",
          "type": "uint256"
        },
        {
          "indexed": false,
          "internalType": "uint256",
          "name": "timestamp",
          "type": "uint256"
        }
      ],
      "name": "Liquidated",
      "type": "event"
    },
    {
      "anonymous": false,
      "inputs": [
        {
          "indexed": false,
          "internalType": "address",
          "name": "minter",
          "type": "address"
        },
        {
          "indexed": true,
          "internalType": "address",
          "name": "syntheticAddress",
          "type": "address"
        },
        {
          "indexed": false,
          "internalType": "uint256",
          "name": "amount",
          "type": "uint256"
        }
      ],
      "name": "MintAsset",
      "type": "event"
    },
    {
      "anonymous": false,
      "inputs": [
        {
          "indexed": true,
          "internalType": "address",
          "name": "previousOwner",
          "type": "address"
        },
        {
          "indexed": true,
          "internalType": "address",
          "name": "newOwner",
          "type": "address"
        }
      ],
      "name": "OwnershipTransferred",
      "type": "event"
    },
    {
      "anonymous": false,
      "inputs": [
        {
          "indexed": true,
          "internalType": "address",
          "name": "syntheticAddress",
          "type": "address"
        },
        {
          "indexed": false,
          "internalType": "uint256",
          "name": "amount",
          "type": "uint256"
        }
      ],
      "name": "RedeemAsset",
      "type": "event"
    },
    {
      "anonymous": false,
      "inputs": [
        {
          "indexed": true,
          "internalType": "address",
          "name": "user",
          "type": "address"
        },
        {
          "indexed": false,
          "internalType": "uint256",
          "name": "amount",
          "type": "uint256"
        }
      ],
      "name": "RemoveCollateral",
      "type": "event"
    },
    {
      "anonymous": false,
      "inputs": [
        {
          "indexed": false,
          "internalType": "address",
          "name": "oldDevAddress",
          "type": "address"
        },
        {
          "indexed": false,
          "internalType": "address",
          "name": "newDevAddress",
          "type": "address"
        }
      ],
      "name": "SetDevAddress",
      "type": "event"
    },
    {
      "inputs": [
        {
          "internalType": "contract IERC20Burnable",
          "name": "_synthetic",
          "type": "address"
        },
        {
          "internalType": "uint256",
          "name": "_addAmount",
          "type": "uint256"
        }
      ],
      "name": "addCollateral",
      "outputs": [],
      "stateMutability": "nonpayable",
      "type": "function"
    },
    {
      "inputs": [
        {
          "internalType": "address",
          "name": "",
          "type": "address"
        }
      ],
      "name": "addressToPairs",
      "outputs": [
        {
          "internalType": "string",
          "name": "",
          "type": "string"
        }
      ],
      "stateMutability": "view",
      "type": "function"
    },
    {
      "inputs": [],
      "name": "bandOracle",
      "outputs": [
        {
          "internalType": "contract IStdReference",
          "name": "",
          "type": "address"
        }
      ],
      "stateMutability": "view",
      "type": "function"
    },
    {
      "inputs": [],
      "name": "collateralRatio",
      "outputs": [
        {
          "internalType": "uint256",
          "name": "",
          "type": "uint256"
        }
      ],
      "stateMutability": "view",
      "type": "function"
    },
    {
      "inputs": [],
      "name": "denominator",
      "outputs": [
        {
          "internalType": "uint256",
          "name": "",
          "type": "uint256"
        }
      ],
      "stateMutability": "view",
      "type": "function"
    },
    {
      "inputs": [],
      "name": "devAddress",
      "outputs": [
        {
          "internalType": "address",
          "name": "",
          "type": "address"
        }
      ],
      "stateMutability": "view",
      "type": "function"
    },
    {
      "inputs": [],
      "name": "dolly",
      "outputs": [
        {
          "internalType": "contract IERC20",
          "name": "",
          "type": "address"
        }
      ],
      "stateMutability": "view",
      "type": "function"
    },
    {
      "inputs": [
        {
          "internalType": "string",
          "name": "_pairs",
          "type": "string"
        }
      ],
      "name": "getRate",
      "outputs": [
        {
          "internalType": "uint256",
          "name": "",
          "type": "uint256"
        }
      ],
      "stateMutability": "view",
      "type": "function"
    },
    {
      "inputs": [
        {
          "internalType": "string",
          "name": "_pairs",
          "type": "string"
        }
      ],
      "name": "isSupported",
      "outputs": [
        {
          "internalType": "bool",
          "name": "",
          "type": "bool"
        }
      ],
      "stateMutability": "view",
      "type": "function"
    },
    {
      "inputs": [
        {
          "internalType": "contract IERC20Burnable",
          "name": "_synthetic",
          "type": "address"
        },
        {
          "internalType": "address",
          "name": "_minter",
          "type": "address"
        }
      ],
      "name": "liquidate",
      "outputs": [],
      "stateMutability": "nonpayable",
      "type": "function"
    },
    {
      "inputs": [],
      "name": "liquidationRatio",
      "outputs": [
        {
          "internalType": "uint256",
          "name": "",
          "type": "uint256"
        }
      ],
      "stateMutability": "view",
      "type": "function"
    },
    {
      "inputs": [],
      "name": "liquidatorRewardRatio",
      "outputs": [
        {
          "internalType": "uint256",
          "name": "",
          "type": "uint256"
        }
      ],
      "stateMutability": "view",
      "type": "function"
    },
    {
      "inputs": [
        {
          "internalType": "contract IERC20Burnable",
          "name": "_synthetic",
          "type": "address"
        },
        {
          "internalType": "uint256",
          "name": "_amount",
          "type": "uint256"
        },
        {
          "internalType": "uint256",
          "name": "_backedAmount",
          "type": "uint256"
        }
      ],
      "name": "mintSynthetic",
      "outputs": [],
      "stateMutability": "nonpayable",
      "type": "function"
    },
    {
      "inputs": [
        {
          "internalType": "address",
          "name": "",
          "type": "address"
        },
        {
          "internalType": "address",
          "name": "",
          "type": "address"
        }
      ],
      "name": "minter",
      "outputs": [
        {
          "internalType": "address",
          "name": "minter",
          "type": "address"
        },
        {
          "internalType": "contract IERC20Burnable",
          "name": "asset",
          "type": "address"
        },
        {
          "internalType": "contract IERC20",
          "name": "assetBacked",
          "type": "address"
        },
        {
          "internalType": "uint256",
          "name": "assetAmount",
          "type": "uint256"
        },
        {
          "internalType": "uint256",
          "name": "assetBackedAmount",
          "type": "uint256"
        },
        {
          "internalType": "uint256",
          "name": "currentRatio",
          "type": "uint256"
        },
        {
          "internalType": "uint256",
          "name": "willLiquidateAtPrice",
          "type": "uint256"
        },
        {
          "internalType": "uint256",
          "name": "canMintRemainning",
          "type": "uint256"
        },
        {
          "internalType": "uint256",
          "name": "canWithdrawRemainning",
          "type": "uint256"
        },
        {
          "internalType": "uint256",
          "name": "updatedAt",
          "type": "uint256"
        },
        {
          "internalType": "uint256",
          "name": "updatedBlock",
          "type": "uint256"
        },
        {
          "internalType": "uint256",
          "name": "exchangeRateAtMinted",
          "type": "uint256"
        },
        {
          "internalType": "uint256",
          "name": "currentExchangeRate",
          "type": "uint256"
        }
      ],
      "stateMutability": "view",
      "type": "function"
    },
    {
      "inputs": [],
      "name": "owner",
      "outputs": [
        {
          "internalType": "address",
          "name": "",
          "type": "address"
        }
      ],
      "stateMutability": "view",
      "type": "function"
    },
    {
      "inputs": [
        {
          "internalType": "string",
          "name": "",
          "type": "string"
        }
      ],
      "name": "pairsToAddress",
      "outputs": [
        {
          "internalType": "address",
          "name": "",
          "type": "address"
        }
      ],
      "stateMutability": "view",
      "type": "function"
    },
    {
      "inputs": [
        {
          "internalType": "string",
          "name": "",
          "type": "string"
        },
        {
          "internalType": "uint256",
          "name": "",
          "type": "uint256"
        }
      ],
      "name": "pairsToQuote",
      "outputs": [
        {
          "internalType": "string",
          "name": "",
          "type": "string"
        }
      ],
      "stateMutability": "view",
      "type": "function"
    },
    {
      "inputs": [
        {
          "internalType": "address",
          "name": "",
          "type": "address"
        },
        {
          "internalType": "uint256",
          "name": "",
          "type": "uint256"
        }
      ],
      "name": "pendingLiquidate",
      "outputs": [
        {
          "internalType": "address",
          "name": "",
          "type": "address"
        }
      ],
      "stateMutability": "view",
      "type": "function"
    },
    {
      "inputs": [],
      "name": "platfromFeeRatio",
      "outputs": [
        {
          "internalType": "uint256",
          "name": "",
          "type": "uint256"
        }
      ],
      "stateMutability": "view",
      "type": "function"
    },
    {
      "inputs": [
        {
          "internalType": "contract IERC20Burnable",
          "name": "_synthetic",
          "type": "address"
        },
        {
          "internalType": "uint256",
          "name": "_amount",
          "type": "uint256"
        }
      ],
      "name": "redeemSynthetic",
      "outputs": [],
      "stateMutability": "nonpayable",
      "type": "function"
    },
    {
      "inputs": [],
      "name": "remainingToMinterRatio",
      "outputs": [
        {
          "internalType": "uint256",
          "name": "",
          "type": "uint256"
        }
      ],
      "stateMutability": "view",
      "type": "function"
    },
    {
      "inputs": [
        {
          "internalType": "contract IERC20Burnable",
          "name": "_synthetic",
          "type": "address"
        },
        {
          "internalType": "uint256",
          "name": "_removeBackedAmount",
          "type": "uint256"
        }
      ],
      "name": "removeCollateral",
      "outputs": [],
      "stateMutability": "nonpayable",
      "type": "function"
    },
    {
      "inputs": [
        {
          "internalType": "contract IERC20Burnable",
          "name": "_synthetic",
          "type": "address"
        },
        {
          "internalType": "uint256",
          "name": "_removeAmount",
          "type": "uint256"
        }
      ],
      "name": "removeLowerCollateral",
      "outputs": [],
      "stateMutability": "nonpayable",
      "type": "function"
    },
    {
      "inputs": [],
      "name": "renounceOwnership",
      "outputs": [],
      "stateMutability": "nonpayable",
      "type": "function"
    },
    {
      "inputs": [
        {
          "internalType": "address",
          "name": "_syntheticAddress",
          "type": "address"
        },
        {
          "internalType": "string",
          "name": "_pairs",
          "type": "string"
        }
      ],
      "name": "setAddressToPairs",
      "outputs": [],
      "stateMutability": "nonpayable",
      "type": "function"
    },
    {
      "inputs": [
        {
          "internalType": "address",
          "name": "_devAddress",
          "type": "address"
        }
      ],
      "name": "setDevAddress",
      "outputs": [],
      "stateMutability": "nonpayable",
      "type": "function"
    },
    {
      "inputs": [
        {
          "internalType": "string",
          "name": "_pairs",
          "type": "string"
        },
        {
          "internalType": "address",
          "name": "_syntheticAddress",
          "type": "address"
        }
      ],
      "name": "setPairsToAddress",
      "outputs": [],
      "stateMutability": "nonpayable",
      "type": "function"
    },
    {
      "inputs": [
        {
          "internalType": "string",
          "name": "_pairs",
          "type": "string"
        },
        {
          "internalType": "string[2]",
          "name": "baseAndQuote",
          "type": "string[2]"
        }
      ],
      "name": "setPairsToQuote",
      "outputs": [],
      "stateMutability": "nonpayable",
      "type": "function"
    },
    {
      "inputs": [],
      "name": "systheticAsset",
      "outputs": [
        {
          "internalType": "contract IERC20Burnable",
          "name": "",
          "type": "address"
        }
      ],
      "stateMutability": "view",
      "type": "function"
    },
    {
      "inputs": [
        {
          "internalType": "address",
          "name": "newOwner",
          "type": "address"
        }
      ],
      "name": "transferOwnership",
      "outputs": [],
      "stateMutability": "nonpayable",
      "type": "function"
    },
    {
      "inputs": [
        {
          "internalType": "contract IERC20Burnable",
          "name": "_synthetic",
          "type": "address"
        },
        {
          "internalType": "address",
          "name": "_minter",
          "type": "address"
        }
      ],
      "name": "viewRewardFromLiquidate",
      "outputs": [
        {
          "internalType": "uint256",
          "name": "",
          "type": "uint256"
        },
        {
          "internalType": "uint256",
          "name": "",
          "type": "uint256"
        },
        {
          "internalType": "uint256",
          "name": "",
          "type": "uint256"
        },
        {
          "internalType": "uint256",
          "name": "",
          "type": "uint256"
        },
        {
          "internalType": "uint256",
          "name": "",
          "type": "uint256"
        }
      ],
      "stateMutability": "view",
      "type": "function"
    }
  ],
  "bytecode": "0x6080604052670de0b6b3a76400006007556714d1120d7b160000600855671158e460913d000060095566b1a2bc2ec50000600a5566b1a2bc2ec50000600b55670c7d713b49da0000600c553480156200005757600080fd5b5060405162003348380380620033488339810160408190526200007a91620003bd565b6000620000866200025e565b600080546001600160a01b0319166001600160a01b0383169081178255604051929350917f8be0079c531659141344cd1fd0a4f28419497f9722a3daafe3b4186f6b6457e0908290a350600280546001600160a01b038085166001600160a01b03199283161790925560038054928416929091169190911781556040805160808101825260048183018181526354534c4160e01b6060840152825282518084018452938452621554d160ea1b60208581019190915282019390935290519091906200015190620003fb565b9081526040519081900360200190206200016d91600262000262565b507365cac0f09efdb88195a002e8dd4cbf6ec9bc7f6060056040516200019390620003fb565b908152604080516020928190038301812080546001600160a01b0319166001600160a01b039590951694909417909355828101905260088252671514d3104bd554d160c21b8183019081527365cac0f09efdb88195a002e8dd4cbf6ec9bc7f60600052600690915290516200022a917fb5aea66d9b9a38ebc3abed41876b8c9b8e80920b3fb821e1e214caaf12318c2391620002b9565b50620002356200025e565b600d80546001600160a01b0319166001600160a01b039290921691909117905550620004259050565b3390565b8260028101928215620002a7579160200282015b82811115620002a7578251805162000296918491602090910190620002b9565b509160200191906001019062000276565b50620002b59291506200033a565b5090565b828054600181600116156101000203166002900490600052602060002090601f016020900481019282601f10620002fc57805160ff19168380011785556200032c565b828001600101855582156200032c579182015b828111156200032c5782518255916020019190600101906200030f565b50620002b59291506200035b565b80821115620002b557600062000351828262000372565b506001016200033a565b5b80821115620002b557600081556001016200035c565b50805460018160011615610100020316600290046000825580601f106200039a5750620003ba565b601f016020900490600052602060002090810190620003ba91906200035b565b50565b60008060408385031215620003d0578182fd5b8251620003dd816200040f565b6020840151909250620003f0816200040f565b809150509250929050565b671514d3104bd554d160c21b815260080190565b6001600160a01b0381168114620003ba57600080fd5b612f1380620004356000396000f3fe608060405234801561001057600080fd5b50600436106101e55760003560e01c80638223c7701161010f578063b4eae1cb116100a2578063e150f64711610071578063e150f647146103b2578063f2fde38b146103c5578063f3a014a2146103d8578063fcb589d5146103f8576101e5565b8063b4eae1cb14610371578063bad8269014610379578063bf15c3e11461038c578063d0d41fe11461039f576101e5565b8063956dcd1f116100de578063956dcd1f1461033b57806396ce0795146103435780639a12944c1461034b578063b32ec5461461035e576101e5565b80638223c770146102fa57806386b9d81f1461030d578063876467f8146103205780638da5cb5b14610333576101e5565b80635bcbdc96116101875780636d75b9ee116101565780636d75b9ee146102c45780636e1aa51b146102d7578063715018a6146102df5780637bda6e28146102e7576101e5565b80635bcbdc96146102685780636502d1711461027d57806365c3ad00146102a95780636c0daed8146102b1576101e5565b80631775765f116101c35780631775765f146102305780633ad10ef6146102385780633f97bc5b146102405780634e55b8a714610260576101e5565b8063095f1404146101ea5780630b87d86e14610208578063120e4d6d1461021d575b600080fd5b6101f261041c565b6040516101ff9190612e39565b60405180910390f35b610210610422565b6040516101ff91906128b7565b61021061022b3660046125e5565b610431565b6101f2610466565b61021061046c565b61025361024e366004612798565b61047b565b6040516101ff919061299b565b6101f2610532565b61027b6102763660046126f6565b610538565b005b61029061028b36600461255f565b6105a6565b6040516101ff9d9c9b9a99989796959493929190612922565b6101f2610626565b6101f26102bf366004612676565b61062c565b61027b6102d23660046125e5565b610717565b610210610a26565b61027b610a35565b61027b6102f53660046126b1565b610ab4565b61027b610308366004612597565b610b2d565b61027b61031b366004612630565b610b8b565b61027b61032e3660046125e5565b610fed565b6102106112bc565b6102106112cb565b6101f26112da565b61027b610359366004612642565b6112e0565b61027b61036c3660046125e5565b61164a565b6101f2611bcf565b610210610387366004612676565b611bd5565b61025361039a366004612543565b611bfb565b61027b6103ad366004612543565b611c63565b61027b6103c03660046125e5565b611cf7565b61027b6103d3366004612543565b611f7d565b6103eb6103e6366004612676565b612033565b6040516101ff9190612990565b61040b610406366004612630565b612050565b6040516101ff959493929190612e42565b600a5481565b6002546001600160a01b031681565b600f602052816000526040600020818154811061044a57fe5b6000918252602090912001546001600160a01b03169150829050565b60095481565b600d546001600160a01b031681565b8151602081840181018051600482529282019185019190912091905281600281106104a257fe5b01805460408051602060026001851615610100026000190190941693909304601f8101849004840282018401909252818152945091925083018282801561052a5780601f106104ff5761010080835404028352916020019161052a565b820191906000526020600020905b81548152906001019060200180831161050d57829003601f168201915b505050505081565b600c5481565b610540612209565b6000546001600160a01b039081169116146105765760405162461bcd60e51b815260040161056d90612c54565b60405180910390fd5b80600483604051610587919061289b565b9081526040519081900360200190206105a1916002612376565b505050565b600e602090815260009283526040808420909152908252902080546001820154600283015460038401546004850154600586015460068701546007880154600889015460098a0154600a8b0154600b8c0154600c909c01546001600160a01b039b8c169c9a8c169b9099169997989697959694959394929391929091908d565b600b5481565b600061063782612033565b61064057600080fd5b6106486123c6565b6003546040516001600160a01b03909116906365555bcc9060049061066e90879061289b565b908152604051908190036020019020600001600486604051610690919061289b565b9081526040519081900360200190206001016040518363ffffffff1660e01b81526004016106bf9291906129ce565b60606040518083038186803b1580156106d757600080fd5b505afa1580156106eb573d6000803e3d6000fd5b505050506040513d601f19601f8201168201806040525081019061070f91906127db565b519392505050565b6000600e6000610725612209565b6001600160a01b03166001600160a01b031681526020019081526020016000206000846001600160a01b03166001600160a01b031681526020019081526020016000209050600081600301541161078e5760405162461bcd60e51b815260040161056d90612b10565b600481015461079d908361220d565b60048201556001600160a01b038316600090815260066020908152604080832080548251601f6002600019610100600186161502019093169290920491820185900485028101850190935280835261084a938301828280156108405780601f1061081557610100808354040283529160200191610840565b820191906000526020600020905b81548152906001019060200180831161082357829003601f168201915b505050505061062c565b9050600061087160075461086b84866003015461223b90919063ffffffff16565b90612275565b9050600061089060075461086b6008548561223b90919063ffffffff16565b905060006108ab8286600401546122b790919063ffffffff16565b6002549091506001600160a01b03166323b872dd6108c7612209565b30896040518463ffffffff1660e01b81526004016108e7939291906128cb565b602060405180830381600087803b15801561090157600080fd5b505af1158015610915573d6000803e3d6000fd5b505050506040513d601f19601f820116820180604052508101906109399190612610565b61094257600080fd5b61097160075461086b60075461096b8761086b6007548c6004015461223b90919063ffffffff16565b9061223b565b6005860181905560075460095461099a9261086b9161099391908490036122b7565b879061223b565b6006860155600885018190556007546109bd9061086b8161096b8783878461223b565b6007860155600c850184905542600986015543600a8601556109dd612209565b6001600160a01b03167f2ac90482c3b6bea30a2c085cf093016bad7f970d91c5fd233e6b848d3e231dc387604051610a159190612e39565b60405180910390a250505050505050565b6001546001600160a01b031681565b610a3d612209565b6000546001600160a01b03908116911614610a6a5760405162461bcd60e51b815260040161056d90612c54565b600080546040516001600160a01b03909116907f8be0079c531659141344cd1fd0a4f28419497f9722a3daafe3b4186f6b6457e0908390a3600080546001600160a01b0319169055565b610abc612209565b6000546001600160a01b03908116911614610ae95760405162461bcd60e51b815260040161056d90612c54565b80600583604051610afa919061289b565b90815260405190819003602001902080546001600160a01b03929092166001600160a01b03199092169190911790555050565b610b35612209565b6000546001600160a01b03908116911614610b625760405162461bcd60e51b815260040161056d90612c54565b6001600160a01b038216600090815260066020908152604090912082516105a1928401906123e7565b6001600160a01b038082166000908152600e60209081526040808320868516845290915290208054909116610bd25760405162461bcd60e51b815260040161056d90612d46565b600954816005015410610bf75760405162461bcd60e51b815260040161056d90612b77565b6001600160a01b038316600090815260066020908152604080832080548251601f60026000196101006001861615020190931692909204918201859004850281018501909352808352610c6a938301828280156108405780601f1061081557610100808354040283529160200191610840565b905080826006015410610c8f5760405162461bcd60e51b815260040161056d906129fc565b6000610cae60075461086b84866003015461223b90919063ffffffff16565b90506000610cc98285600401546122b790919063ffffffff16565b90506000610ce860075461086b600c548561223b90919063ffffffff16565b90506000610d0760075461086b600a548661223b90919063ffffffff16565b90506000610d2660075461086b600b548761223b90919063ffffffff16565b6002549091506001600160a01b03166323b872dd610d42612209565b30886040518463ffffffff1660e01b8152600401610d62939291906128cb565b602060405180830381600087803b158015610d7c57600080fd5b505af1158015610d90573d6000803e3d6000fd5b505050506040513d601f19601f82011682018060405250810190610db49190612610565b50600254875460405163a9059cbb60e01b81526001600160a01b039283169263a9059cbb92610dea9291169087906004016128ef565b602060405180830381600087803b158015610e0457600080fd5b505af1158015610e18573d6000803e3d6000fd5b505050506040513d601f19601f82011682018060405250810190610e3c9190612610565b506002546001600160a01b031663a9059cbb610e56612209565b846040518363ffffffff1660e01b8152600401610e749291906128ef565b602060405180830381600087803b158015610e8e57600080fd5b505af1158015610ea2573d6000803e3d6000fd5b505050506040513d601f19601f82011682018060405250810190610ec69190612610565b50600254600d5460405163a9059cbb60e01b81526001600160a01b039283169263a9059cbb92610efd9291169085906004016128ef565b602060405180830381600087803b158015610f1757600080fd5b505af1158015610f2b573d6000803e3d6000fd5b505050506040513d601f19601f82011682018060405250810190610f4f9190612610565b5050506001600160a01b039586166000908152600e602090815260408083209990981682529790975250505091832080546001600160a01b0319908116825560018201805482169055600282018054909116905560038101849055600481018490556005810184905560068101849055600781018490556008810184905560098101849055600a8101849055600b8101849055600c01929092555050565b6000600e6000610ffb612209565b6001600160a01b03166001600160a01b031681526020019081526020016000206000846001600160a01b03166001600160a01b03168152602001908152602001600020905060008160030154116110645760405162461bcd60e51b815260040161056d90612c89565b600481015461107390836122b7565b6004820155600881015482111561109c5760405162461bcd60e51b815260040161056d90612ddc565b6001600160a01b038316600090815260066020908152604080832080548251601f6002600019610100600186161502019093169290920491820185900485028101850190935280835261110f938301828280156108405780601f1061081557610100808354040283529160200191610840565b9050600061113060075461086b84866003015461223b90919063ffffffff16565b9050600061114f60075461086b6008548561223b90919063ffffffff16565b9050600061116a8286600401546122b790919063ffffffff16565b90506002546001600160a01b031663a9059cbb611185612209565b886040518363ffffffff1660e01b81526004016111a39291906128ef565b602060405180830381600087803b1580156111bd57600080fd5b505af11580156111d1573d6000803e3d6000fd5b505050506040513d601f19601f820116820180604052508101906111f59190612610565b5061121f60075461086b60075461096b8761086b6007548c6004015461223b90919063ffffffff16565b600586018190556007546009546112419261086b9161099391908490036122b7565b6006860155600885018190556007546112649061086b8161096b8783878461223b565b6007860155600c850184905542600986015543600a860155611284612209565b6001600160a01b03167fe25410a4059619c9594dc6f022fe231b02aaea733f689e7ab0cd21b3d4d0eb5487604051610a159190612e39565b6000546001600160a01b031690565b6003546001600160a01b031681565b60075481565b6000600e60006112ee612209565b6001600160a01b03908116825260208083019390935260409182016000908120888316825290935291208054909250161561133b5760405162461bcd60e51b815260040161056d90612cf6565b6001600160a01b038416600090815260066020908152604080832080548251601f600260001961010060018616150201909316929092049182018590048502810185019093528083526113ae938301828280156108405780601f1061081557610100808354040283529160200191610840565b905060006113cb60075461086b848861223b90919063ffffffff16565b905060006113ea60075461086b6008548561223b90919063ffffffff16565b90508085101561140c5760405162461bcd60e51b815260040161056d90612ac6565b600061141886836122b7565b9050876001600160a01b03166340c10f19611431612209565b896040518363ffffffff1660e01b815260040161144f9291906128ef565b600060405180830381600087803b15801561146957600080fd5b505af115801561147d573d6000803e3d6000fd5b50506002546001600160a01b031691506323b872dd905061149c612209565b30896040518463ffffffff1660e01b81526004016114bc939291906128cb565b602060405180830381600087803b1580156114d657600080fd5b505af11580156114ea573d6000803e3d6000fd5b505050506040513d601f19601f8201168201806040525081019061150e9190612610565b61151757600080fd5b61151f612209565b85546001600160a01b03199081166001600160a01b0392831617875560018701805482168b84161790556002805490880180549190931691161790556003850187905560048501869055600b8501849055600c850184905560075461158e9061086b8161096b87838c8461223b565b600586018190556007546009546115b09261086b9161099391908490036122b7565b6006860155600880860182905560075490546115e59189916115df919061086b90829061096b90838e8461223b565b906122b7565b600786015542600986015543600a8601556001600160a01b0388167fd7918d04fa8d2763da038d81b4ab65ea7b9eb8e5e3b199c548142ac304a8ad6f611629612209565b896040516116389291906128ef565b60405180910390a25050505050505050565b6000600e6000611658612209565b6001600160a01b03166001600160a01b031681526020019081526020016000206000846001600160a01b03166001600160a01b03168152602001908152602001600020905081816003015410156116c15760405162461bcd60e51b815260040161056d90612bbe565b80600301548214156118a357826001600160a01b03166379cc67906116e4612209565b846040518363ffffffff1660e01b81526004016117029291906128ef565b600060405180830381600087803b15801561171c57600080fd5b505af1158015611730573d6000803e3d6000fd5b50506002546001600160a01b0316915063a9059cbb905061174f612209565b83600401546040518363ffffffff1660e01b81526004016117719291906128ef565b602060405180830381600087803b15801561178b57600080fd5b505af115801561179f573d6000803e3d6000fd5b505050506040513d601f19601f820116820180604052508101906117c39190612610565b50600e60006117d0612209565b6001600160a01b039081168252602080830193909352604091820160009081209187168082529190935281832080546001600160a01b0319908116825560018201805482169055600282018054909116905560038101849055600481018490556005810184905560068101849055600781018490556008810184905560098101849055600a8101849055600b8101849055600c0192909255517fb99b782c502642cbb60ce7d75f893727e5ef94003f2f9e56bcbbb013615e193e90611896908590612e39565b60405180910390a26105a1565b60006118b38383600301546122f9565b9050600060075482846003015402816118c857fe5b049050600060075483856004015402816118de57fe5b6001600160a01b038816600090815260066020908152604080832080548251601f60026000196101006001861615020190931692909204918201859004850281018501909352808352959094049550919361195a93918301828280156108405780601f1061081557610100808354040283529160200191610840565b905060006119758387600401546122b790919063ffffffff16565b905060006119908588600301546122b790919063ffffffff16565b905060006119ad60075461086b868561223b90919063ffffffff16565b905060006119cc60075461086b6008548561223b90919063ffffffff16565b9050808410156119ee5760405162461bcd60e51b815260040161056d90612d8a565b60006119fa85836122b7565b90508b6001600160a01b03166379cc6790611a13612209565b8a6040518363ffffffff1660e01b8152600401611a319291906128ef565b600060405180830381600087803b158015611a4b57600080fd5b505af1158015611a5f573d6000803e3d6000fd5b50506002546001600160a01b0316915063a9059cbb9050611a7e612209565b896040518363ffffffff1660e01b8152600401611a9c9291906128ef565b602060405180830381600087803b158015611ab657600080fd5b505af1158015611aca573d6000803e3d6000fd5b505050506040513d601f19601f82011682018060405250810190611aee9190612610565b5060038a0184905560048a01859055600754611b1a9061086b8186818a0281611b1357fe5b049061223b565b60058b01819055600754600954611b439261086b91611b3c91908490036122b7565b899061223b565b60068b015560088a01819055600754611b669061086b8161096b8a83878461223b565b60078b0155600c8a018690554260098b015543600a8b01556040516001600160a01b038d16907fb99b782c502642cbb60ce7d75f893727e5ef94003f2f9e56bcbbb013615e193e90611bb9908e90612e39565b60405180910390a2505050505050505050505050565b60085481565b80516020818301810180516005825292820191909301209152546001600160a01b031681565b60066020908152600091825260409182902080548351601f60026000196101006001861615020190931692909204918201849004840281018401909452808452909183018282801561052a5780601f106104ff5761010080835404028352916020019161052a565b611c6b612209565b6000546001600160a01b03908116911614611c985760405162461bcd60e51b815260040161056d90612c54565b600d80546001600160a01b038381166001600160a01b03198316179092556040519116907f618c54559e94f1499a808aad71ee8729f8e74e8c48e979616328ce493a1a52e790611ceb9083908590612908565b60405180910390a15050565b611cff612209565b6000546001600160a01b03908116911614611d2c5760405162461bcd60e51b815260040161056d90612c54565b6000600e6000611d3a612209565b6001600160a01b03166001600160a01b031681526020019081526020016000206000846001600160a01b03166001600160a01b0316815260200190815260200160002090506000816003015411611da35760405162461bcd60e51b815260040161056d90612c89565b6004810154611db290836122b7565b60048201556001600160a01b038316600090815260066020908152604080832080548251601f60026000196101006001861615020190931692909204918201859004850281018501909352808352611e2a938301828280156108405780601f1061081557610100808354040283529160200191610840565b6002549091506001600160a01b031663a9059cbb611e46612209565b856040518363ffffffff1660e01b8152600401611e649291906128ef565b602060405180830381600087803b158015611e7e57600080fd5b505af1158015611e92573d6000803e3d6000fd5b505050506040513d601f19601f82011682018060405250810190611eb69190612610565b50611ee060075461086b60075461096b8561086b600754896004015461223b90919063ffffffff16565b60058301819055600754600954611f099261086b91611f0291908490036122b7565b849061223b565b60068301556000600883018190556007830155600c820181905542600983015543600a830155611f37612209565b6001600160a01b03167fe25410a4059619c9594dc6f022fe231b02aaea733f689e7ab0cd21b3d4d0eb5484604051611f6f9190612e39565b60405180910390a250505050565b611f85612209565b6000546001600160a01b03908116911614611fb25760405162461bcd60e51b815260040161056d90612c54565b6001600160a01b038116611fd85760405162461bcd60e51b815260040161056d90612a49565b600080546040516001600160a01b03808516939216917f8be0079c531659141344cd1fd0a4f28419497f9722a3daafe3b4186f6b6457e091a3600080546001600160a01b0319166001600160a01b0392909216919091179055565b600080600483604051612046919061289b565b5260021192915050565b6001600160a01b038082166000908152600e60209081526040808320868516845290915281208054919283928392839283921661209f5760405162461bcd60e51b815260040161056d90612d46565b6009548160050154106120c45760405162461bcd60e51b815260040161056d90612b77565b6001600160a01b038816600090815260066020908152604080832080548251601f60026000196101006001861615020190931692909204918201859004850281018501909352808352612137938301828280156108405780601f1061081557610100808354040283529160200191610840565b90508082600601541061215c5760405162461bcd60e51b815260040161056d906129fc565b600061217b60075461086b84866003015461223b90919063ffffffff16565b905060006121968285600401546122b790919063ffffffff16565b905060006121b560075461086b600c548561223b90919063ffffffff16565b905060006121d460075461086b600a548661223b90919063ffffffff16565b905060006121f360075461086b600b548761223b90919063ffffffff16565b949e939d50919b50995091975095505050505050565b3390565b6000828201838110156122325760405162461bcd60e51b815260040161056d90612a8f565b90505b92915050565b60008261224a57506000612235565b8282028284828161225757fe5b04146122325760405162461bcd60e51b815260040161056d90612c13565b600061223283836040518060400160405280601a81526020017f536166654d6174683a206469766973696f6e206279207a65726f000000000000815250612313565b600061223283836040518060400160405280601e81526020017f536166654d6174683a207375627472616374696f6e206f766572666c6f77000081525061234a565b6007546000906122329061086b8161096b8683898461223b565b600081836123345760405162461bcd60e51b815260040161056d919061299b565b50600083858161234057fe5b0495945050505050565b6000818484111561236e5760405162461bcd60e51b815260040161056d919061299b565b505050900390565b82600281019282156123b6579160200282015b828111156123b657825180516123a69184916020909101906123e7565b5091602001919060010190612389565b506123c2929150612461565b5090565b60405180606001604052806000815260200160008152602001600081525090565b828054600181600116156101000203166002900490600052602060002090601f016020900481019282601f1061242857805160ff1916838001178555612455565b82800160010185558215612455579182015b8281111561245557825182559160200191906001019061243a565b506123c292915061247e565b808211156123c25760006124758282612493565b50600101612461565b5b808211156123c2576000815560010161247f565b50805460018160011615610100020316600290046000825580601f106124b957506124d7565b601f0160209004906000526020600020908101906124d7919061247e565b50565b600082601f8301126124ea578081fd5b813567ffffffffffffffff811115612500578182fd5b612513601f8201601f1916602001612e65565b915080825283602082850101111561252a57600080fd5b8060208401602084013760009082016020015292915050565b600060208284031215612554578081fd5b813561223281612ec8565b60008060408385031215612571578081fd5b823561257c81612ec8565b9150602083013561258c81612ec8565b809150509250929050565b600080604083850312156125a9578182fd5b82356125b481612ec8565b9150602083013567ffffffffffffffff8111156125cf578182fd5b6125db858286016124da565b9150509250929050565b600080604083850312156125f7578182fd5b823561260281612ec8565b946020939093013593505050565b600060208284031215612621578081fd5b81518015158114612232578182fd5b60008060408385031215612571578182fd5b600080600060608486031215612656578081fd5b833561266181612ec8565b95602085013595506040909401359392505050565b600060208284031215612687578081fd5b813567ffffffffffffffff81111561269d578182fd5b6126a9848285016124da565b949350505050565b600080604083850312156126c3578182fd5b823567ffffffffffffffff8111156126d9578283fd5b6126e5858286016124da565b925050602083013561258c81612ec8565b60008060408385031215612708578182fd5b823567ffffffffffffffff8082111561271f578384fd5b61272b868387016124da565b9350602091508185013581811115612741578384fd5b85019050601f81018613612753578283fd5b61275d6040612e65565b8082855b6002811015612789576127778a833587016124da565b84529285019290850190600101612761565b50959890975095505050505050565b600080604083850312156127aa578182fd5b823567ffffffffffffffff8111156127c0578283fd5b6127cc858286016124da565b95602094909401359450505050565b6000606082840312156127ec578081fd5b6127f66060612e65565b8251815260208301516020820152604083015160408201528091505092915050565b60008154600180821660008114612836576001811461285457612892565b60028304607f16865260ff1983166020870152604086019350612892565b6002830480875261286486612e8c565b60005b828110156128885781546020828b0101528482019150602081019050612867565b8801602001955050505b50505092915050565b600082516128ad818460208701612e98565b9190910192915050565b6001600160a01b0391909116815260200190565b6001600160a01b039384168152919092166020820152604081019190915260600190565b6001600160a01b03929092168252602082015260400190565b6001600160a01b0392831681529116602082015260400190565b6001600160a01b039d8e1681529b8d1660208d015299909b1660408b015260608a0197909752608089019590955260a088019390935260c087019190915260e08601526101008501526101208401526101408301526101608201929092526101808101919091526101a00190565b901515815260200190565b60006020825282518060208401526129ba816040850160208701612e98565b601f01601f19169190910160400192915050565b6000604082526129e16040830185612818565b82810360208401526129f38185612818565b95945050505050565b6020808252602d908201527f53796e7468657469633a3a6c69717569646174653a206173736574207072696360408201526c6520697320736173746973667960981b606082015260800190565b60208082526026908201527f4f776e61626c653a206e6577206f776e657220697320746865207a65726f206160408201526564647265737360d01b606082015260800190565b6020808252601b908201527f536166654d6174683a206164646974696f6e206f766572666c6f770000000000604082015260600190565b6020808252602a908201527f53796e7468657469633a3a6d696e7453796e7468657469633a20756e6465722060408201526918dbdb1b185d195c985b60b21b606082015260800190565b60208082526041908201527f53796e7468657469633a3a616464436f6c6c61746572616c3a2063616e6e6f7460408201527f2061646420636f6c6c61746572616c20746f20656d70747920636f6e747261636060820152601d60fa1b608082015260a00190565b60208082526027908201527f53796e7468657469633a3a6c69717569646174653a20726174696f20697320736040820152666173746973667960c81b606082015260800190565b60208082526035908201527f53796e7468657469633a3a72656465656d53796e7468657469633a20616d6f756040820152741b9d08195e18d959591cc818dbdb1b185d195c985b605a1b606082015260800190565b60208082526021908201527f536166654d6174683a206d756c7469706c69636174696f6e206f766572666c6f6040820152607760f81b606082015260800190565b6020808252818101527f4f776e61626c653a2063616c6c6572206973206e6f7420746865206f776e6572604082015260600190565b60208082526047908201527f53796e7468657469633a3a72656d6f7665436f6c6c61746572616c3a2063616e60408201527f6e6f742072656d6f766520636f6c6c61746572616c20746f20656d70747920636060820152661bdb9d1c9858dd60ca1b608082015260a00190565b60208082526030908201527f53796e7468657469633a3a6d696e7453796e7468657469633a207472616e736660408201526f657220746f206164647265737328302960801b606082015260800190565b60208082526024908201527f53796e7468657469633a3a6c69717569646174653a20656d70747920636f6e746040820152631c9858dd60e21b606082015260800190565b60208082526032908201527f53796e7468657469633a3a72656465656d53796e7468657469633a20756e64656040820152717220636f6c6c61746572616c20726174696f60701b606082015260800190565b6020808252603f908201527f53796e7468657469633a3a72656d6f7665436f6c6c61746572616c3a20616d6f60408201527f756e74206578636565647320726571756972656420636f6c6c61746572616c00606082015260800190565b90815260200190565b948552602085019390935260408401919091526060830152608082015260a00190565b60405181810167ffffffffffffffff81118282101715612e8457600080fd5b604052919050565b60009081526020902090565b60005b83811015612eb3578181015183820152602001612e9b565b83811115612ec2576000848401525b50505050565b6001600160a01b03811681146124d757600080fdfea2646970667358221220c5ef69e3be86012d0dbf6655f9e9467bac7ec70a60bb222dd27527e9ad3c35b564736f6c634300060c0033",
  "linkReferences": {},
  "deployedLinkReferences": {}
}