{
  "_format": "hh-sol-artifact-1",
  "contractName": "Synthetic",
  "sourceName": "contracts/Synthetic.sol",
  "abi": [
    {
      "inputs": [
        {
          "internalType": "contract IERC20",
          "name": "_dolly",
          "type": "address"
        },
        {
          "internalType": "contract IStdReference",
          "name": "_ref",
          "type": "address"
        }
      ],
      "stateMutability": "nonpayable",
      "type": "constructor"
    },
    {
      "anonymous": false,
      "inputs": [
        {
          "indexed": false,
          "internalType": "address",
          "name": "minter",
          "type": "address"
        },
        {
          "indexed": true,
          "internalType": "address",
          "name": "syntheticAddress",
          "type": "address"
        },
        {
          "indexed": false,
          "internalType": "uint256",
          "name": "amount",
          "type": "uint256"
        }
      ],
      "name": "MintAsset",
      "type": "event"
    },
    {
      "anonymous": false,
      "inputs": [
        {
          "indexed": true,
          "internalType": "address",
          "name": "previousOwner",
          "type": "address"
        },
        {
          "indexed": true,
          "internalType": "address",
          "name": "newOwner",
          "type": "address"
        }
      ],
      "name": "OwnershipTransferred",
      "type": "event"
    },
    {
      "anonymous": false,
      "inputs": [
        {
          "indexed": true,
          "internalType": "address",
          "name": "syntheticAddress",
          "type": "address"
        },
        {
          "indexed": false,
          "internalType": "uint256",
          "name": "amount",
          "type": "uint256"
        }
      ],
      "name": "RedeemAsset",
      "type": "event"
    },
    {
      "anonymous": false,
      "inputs": [
        {
          "indexed": true,
          "internalType": "address",
          "name": "user",
          "type": "address"
        },
        {
          "indexed": false,
          "internalType": "uint256",
          "name": "amount",
          "type": "uint256"
        }
      ],
      "name": "addCollateral",
      "type": "event"
    },
    {
      "anonymous": false,
      "inputs": [
        {
          "indexed": true,
          "internalType": "address",
          "name": "liquidated",
          "type": "address"
        },
        {
          "indexed": true,
          "internalType": "address",
          "name": "liquidator",
          "type": "address"
        },
        {
          "indexed": true,
          "internalType": "address",
          "name": "syntheticAddress",
          "type": "address"
        },
        {
          "indexed": false,
          "internalType": "uint256",
          "name": "amount",
          "type": "uint256"
        },
        {
          "indexed": false,
          "internalType": "uint256",
          "name": "timestamp",
          "type": "uint256"
        }
      ],
      "name": "liquidated",
      "type": "event"
    },
    {
      "anonymous": false,
      "inputs": [
        {
          "indexed": true,
          "internalType": "address",
          "name": "user",
          "type": "address"
        },
        {
          "indexed": false,
          "internalType": "uint256",
          "name": "amount",
          "type": "uint256"
        }
      ],
      "name": "removeCollateral",
      "type": "event"
    },
    {
      "inputs": [
        {
          "internalType": "address",
          "name": "",
          "type": "address"
        }
      ],
      "name": "addressToPairs",
      "outputs": [
        {
          "internalType": "string",
          "name": "",
          "type": "string"
        }
      ],
      "stateMutability": "view",
      "type": "function"
    },
    {
      "inputs": [],
      "name": "bandOracle",
      "outputs": [
        {
          "internalType": "contract IStdReference",
          "name": "",
          "type": "address"
        }
      ],
      "stateMutability": "view",
      "type": "function"
    },
    {
      "inputs": [],
      "name": "collateralRatio",
      "outputs": [
        {
          "internalType": "uint256",
          "name": "",
          "type": "uint256"
        }
      ],
      "stateMutability": "view",
      "type": "function"
    },
    {
      "inputs": [],
      "name": "denominator",
      "outputs": [
        {
          "internalType": "uint256",
          "name": "",
          "type": "uint256"
        }
      ],
      "stateMutability": "view",
      "type": "function"
    },
    {
      "inputs": [],
      "name": "dolly",
      "outputs": [
        {
          "internalType": "contract IERC20",
          "name": "",
          "type": "address"
        }
      ],
      "stateMutability": "view",
      "type": "function"
    },
    {
      "inputs": [
        {
          "internalType": "string",
          "name": "_pairs",
          "type": "string"
        }
      ],
      "name": "getRate",
      "outputs": [
        {
          "internalType": "uint256",
          "name": "",
          "type": "uint256"
        }
      ],
      "stateMutability": "view",
      "type": "function"
    },
    {
      "inputs": [
        {
          "internalType": "string",
          "name": "_pairs",
          "type": "string"
        }
      ],
      "name": "isSupported",
      "outputs": [
        {
          "internalType": "bool",
          "name": "",
          "type": "bool"
        }
      ],
      "stateMutability": "view",
      "type": "function"
    },
    {
      "inputs": [],
      "name": "liquidate",
      "outputs": [],
      "stateMutability": "nonpayable",
      "type": "function"
    },
    {
      "inputs": [],
      "name": "liquidationRatio",
      "outputs": [
        {
          "internalType": "uint256",
          "name": "",
          "type": "uint256"
        }
      ],
      "stateMutability": "view",
      "type": "function"
    },
    {
      "inputs": [
        {
          "internalType": "contract IERC20Burnable",
          "name": "_synthetic",
          "type": "address"
        },
        {
          "internalType": "uint256",
          "name": "_amount",
          "type": "uint256"
        },
        {
          "internalType": "uint256",
          "name": "_backedAmount",
          "type": "uint256"
        }
      ],
      "name": "mintSynthetic",
      "outputs": [],
      "stateMutability": "nonpayable",
      "type": "function"
    },
    {
      "inputs": [
        {
          "internalType": "address",
          "name": "",
          "type": "address"
        },
        {
          "internalType": "address",
          "name": "",
          "type": "address"
        }
      ],
      "name": "minter",
      "outputs": [
        {
          "internalType": "address",
          "name": "minter",
          "type": "address"
        },
        {
          "internalType": "contract IERC20Burnable",
          "name": "asset",
          "type": "address"
        },
        {
          "internalType": "contract IERC20",
          "name": "assetBacked",
          "type": "address"
        },
        {
          "internalType": "uint256",
          "name": "assetAmount",
          "type": "uint256"
        },
        {
          "internalType": "uint256",
          "name": "assetBackedAmount",
          "type": "uint256"
        },
        {
          "internalType": "uint256",
          "name": "currentRatio",
          "type": "uint256"
        },
        {
          "internalType": "uint256",
          "name": "willLiquidateAtPrice",
          "type": "uint256"
        },
        {
          "internalType": "uint256",
          "name": "canMintRemainning",
          "type": "uint256"
        },
        {
          "internalType": "uint256",
          "name": "canWithdrawRemainning",
          "type": "uint256"
        },
        {
          "internalType": "uint256",
          "name": "updatedAt",
          "type": "uint256"
        },
        {
          "internalType": "uint256",
          "name": "updatedBlock",
          "type": "uint256"
        },
        {
          "internalType": "uint256",
          "name": "pastDays",
          "type": "uint256"
        },
        {
          "internalType": "uint256",
          "name": "exchangeRateAtMinted",
          "type": "uint256"
        }
      ],
      "stateMutability": "view",
      "type": "function"
    },
    {
      "inputs": [],
      "name": "owner",
      "outputs": [
        {
          "internalType": "address",
          "name": "",
          "type": "address"
        }
      ],
      "stateMutability": "view",
      "type": "function"
    },
    {
      "inputs": [
        {
          "internalType": "string",
          "name": "",
          "type": "string"
        }
      ],
      "name": "pairsToAddress",
      "outputs": [
        {
          "internalType": "address",
          "name": "",
          "type": "address"
        }
      ],
      "stateMutability": "view",
      "type": "function"
    },
    {
      "inputs": [
        {
          "internalType": "string",
          "name": "",
          "type": "string"
        },
        {
          "internalType": "uint256",
          "name": "",
          "type": "uint256"
        }
      ],
      "name": "pairsToQuote",
      "outputs": [
        {
          "internalType": "string",
          "name": "",
          "type": "string"
        }
      ],
      "stateMutability": "view",
      "type": "function"
    },
    {
      "inputs": [
        {
          "internalType": "contract IERC20Burnable",
          "name": "_synthetic",
          "type": "address"
        },
        {
          "internalType": "uint256",
          "name": "_amount",
          "type": "uint256"
        }
      ],
      "name": "redeemSynthetic",
      "outputs": [],
      "stateMutability": "nonpayable",
      "type": "function"
    },
    {
      "inputs": [],
      "name": "renounceOwnership",
      "outputs": [],
      "stateMutability": "nonpayable",
      "type": "function"
    },
    {
      "inputs": [
        {
          "internalType": "address",
          "name": "_syntheticAddress",
          "type": "address"
        },
        {
          "internalType": "string",
          "name": "_pairs",
          "type": "string"
        }
      ],
      "name": "setAddressToPairs",
      "outputs": [],
      "stateMutability": "nonpayable",
      "type": "function"
    },
    {
      "inputs": [
        {
          "internalType": "string",
          "name": "_pairs",
          "type": "string"
        },
        {
          "internalType": "address",
          "name": "_syntheticAddress",
          "type": "address"
        }
      ],
      "name": "setPairsToAddress",
      "outputs": [],
      "stateMutability": "nonpayable",
      "type": "function"
    },
    {
      "inputs": [
        {
          "internalType": "string",
          "name": "_pairs",
          "type": "string"
        },
        {
          "internalType": "string[2]",
          "name": "baseAndQuote",
          "type": "string[2]"
        }
      ],
      "name": "setPairsToQuote",
      "outputs": [],
      "stateMutability": "nonpayable",
      "type": "function"
    },
    {
      "inputs": [],
      "name": "systheticAsset",
      "outputs": [
        {
          "internalType": "contract IERC20Burnable",
          "name": "",
          "type": "address"
        }
      ],
      "stateMutability": "view",
      "type": "function"
    },
    {
      "inputs": [
        {
          "internalType": "address",
          "name": "newOwner",
          "type": "address"
        }
      ],
      "name": "transferOwnership",
      "outputs": [],
      "stateMutability": "nonpayable",
      "type": "function"
    }
  ],
  "bytecode": "0x6080604052670de0b6b3a7640000600755671158e460913d00006008556714d1120d7b1600006009553480156200003557600080fd5b5060405162001a9a38038062001a9a833981016040819052620000589162000370565b60006200006462000211565b600080546001600160a01b0319166001600160a01b0383169081178255604051929350917f8be0079c531659141344cd1fd0a4f28419497f9722a3daafe3b4186f6b6457e0908290a350600280546001600160a01b038085166001600160a01b03199283161790925560038054928416929091169190911781556040805160808101825260048183018181526354534c4160e01b6060840152825282518084018452938452621554d160ea1b60208581019190915282019390935290519091906200012f90620003ae565b9081526040519081900360200190206200014b91600262000215565b507365cac0f09efdb88195a002e8dd4cbf6ec9bc7f6060056040516200017190620003ae565b908152604080516020928190038301812080546001600160a01b0319166001600160a01b039590951694909417909355828101905260088252671514d3104bd554d160c21b8183019081527365cac0f09efdb88195a002e8dd4cbf6ec9bc7f606000526006909152905162000208917fb5aea66d9b9a38ebc3abed41876b8c9b8e80920b3fb821e1e214caaf12318c23916200026c565b505050620003d8565b3390565b82600281019282156200025a579160200282015b828111156200025a5782518051620002499184916020909101906200026c565b509160200191906001019062000229565b5062000268929150620002ed565b5090565b828054600181600116156101000203166002900490600052602060002090601f016020900481019282601f10620002af57805160ff1916838001178555620002df565b82800160010185558215620002df579182015b82811115620002df578251825591602001919060010190620002c2565b50620002689291506200030e565b808211156200026857600062000304828262000325565b50600101620002ed565b5b808211156200026857600081556001016200030f565b50805460018160011615610100020316600290046000825580601f106200034d57506200036d565b601f0160209004906000526020600020908101906200036d91906200030e565b50565b6000806040838503121562000383578182fd5b82516200039081620003c2565b6020840151909250620003a381620003c2565b809150509250929050565b671514d3104bd554d160c21b815260080190565b6001600160a01b03811681146200036d57600080fd5b6116b280620003e86000396000f3fe608060405234801561001057600080fd5b50600436106101375760003560e01c80638223c770116100b8578063b32ec5461161007c578063b32ec5461461024c578063b4eae1cb1461025f578063bad8269014610267578063bf15c3e11461027a578063f2fde38b1461028d578063f3a014a2146102a057610137565b80638223c7701461020e5780638da5cb5b14610221578063956dcd1f1461022957806396ce0795146102315780639a12944c1461023957610137565b80636502d171116100ff5780636502d171146101ac5780636c0daed8146101d85780636e1aa51b146101eb578063715018a6146101f35780637bda6e28146101fb57610137565b80630b87d86e1461013c5780631775765f1461015a57806328a070251461016f5780633f97bc5b146101795780635bcbdc9614610199575b600080fd5b6101446102c0565b6040516101519190611366565b60405180910390f35b6101626102cf565b60405161015191906115fb565b6101776102d5565b005b61018c610187366004611247565b6102d7565b6040516101519190611430565b6101776101a73660046111a5565b61038e565b6101bf6101ba366004611020565b6103fc565b6040516101519d9c9b9a999897969594939291906113b7565b6101626101e6366004611125565b610479565b610144610564565b610177610573565b610177610209366004611160565b6105f2565b61017761021c366004611058565b61066b565b6101446106c9565b6101446106d8565b6101626106e7565b6101776102473660046110f1565b6106ed565b61017761025a3660046110c6565b610a40565b610162610cc5565b610144610275366004611125565b610ccb565b61018c610288366004610ffd565b610cf1565b61017761029b366004610ffd565b610d59565b6102b36102ae366004611125565b610e0f565b6040516101519190611425565b6002546001600160a01b031681565b60085481565b565b8151602081840181018051600482529282019185019190912091905281600281106102fe57fe5b01805460408051602060026001851615610100026000190190941693909304601f810184900484028201840190925281815294509192508301828280156103865780601f1061035b57610100808354040283529160200191610386565b820191906000526020600020905b81548152906001019060200180831161036957829003601f168201915b505050505081565b610396610e2c565b6000546001600160a01b039081169116146103cc5760405162461bcd60e51b81526004016103c390611576565b60405180910390fd5b806004836040516103dd919061134a565b9081526040519081900360200190206103f7916002610e30565b505050565b600a602081815260009384526040808520909152918352912080546001820154600283015460038401546004850154600586015460068701546007880154600889015460098a01549a8a0154600b8b0154600c909b01546001600160a01b039a8b169c998b169b9a9098169996989597949693959294919390918d565b600061048482610e0f565b61048d57600080fd5b610495610e80565b6003546040516001600160a01b03909116906365555bcc906004906104bb90879061134a565b9081526040519081900360200190206000016004866040516104dd919061134a565b9081526040519081900360200190206001016040518363ffffffff1660e01b815260040161050c929190611463565b60606040518083038186803b15801561052457600080fd5b505afa158015610538573d6000803e3d6000fd5b505050506040513d601f19601f8201168201806040525081019061055c919061128a565b519392505050565b6001546001600160a01b031681565b61057b610e2c565b6000546001600160a01b039081169116146105a85760405162461bcd60e51b81526004016103c390611576565b600080546040516001600160a01b03909116907f8be0079c531659141344cd1fd0a4f28419497f9722a3daafe3b4186f6b6457e0908390a3600080546001600160a01b0319169055565b6105fa610e2c565b6000546001600160a01b039081169116146106275760405162461bcd60e51b81526004016103c390611576565b80600583604051610638919061134a565b90815260405190819003602001902080546001600160a01b03929092166001600160a01b03199092169190911790555050565b610673610e2c565b6000546001600160a01b039081169116146106a05760405162461bcd60e51b81526004016103c390611576565b6001600160a01b038216600090815260066020908152604090912082516103f792840190610ea1565b6000546001600160a01b031690565b6003546001600160a01b031681565b60075481565b6000600a60006106fb610e2c565b6001600160a01b0390811682526020808301939093526040918201600090812088831682529093529120805490925016156107485760405162461bcd60e51b81526004016103c3906115ab565b6001600160a01b038416600090815260066020908152604080832080548251601f600260001961010060018616150201909316929092049182018590048502810185019093528083526107f0938301828280156107e65780601f106107bb576101008083540402835291602001916107e6565b820191906000526020600020905b8154815290600101906020018083116107c957829003601f168201915b5050505050610479565b905060006007548286028161080157fe5b049050600060075460095483028161081557fe5b049050808510156108385760405162461bcd60e51b81526004016103c3906114d7565b8086036001600160a01b0388166340c10f19610852610e2c565b896040518363ffffffff1660e01b815260040161087092919061139e565b600060405180830381600087803b15801561088a57600080fd5b505af115801561089e573d6000803e3d6000fd5b50506002546001600160a01b031691506323b872dd90506108bd610e2c565b30896040518463ffffffff1660e01b81526004016108dd9392919061137a565b602060405180830381600087803b1580156108f757600080fd5b505af115801561090b573d6000803e3d6000fd5b505050506040513d601f19601f8201168201806040525081019061092f91906110a6565b61093857600080fd5b610940610e2c565b85546001600160a01b03199081166001600160a01b0392831617875560018701805482168b84161790556002805490880180549190931691161790556003850187905560048501869055600885018190556007548482028161099e57fe5b04600780870191909155600c8601859055548085888202816109bc57fe5b0402816109c557fe5b0460058601556007546008548702816109da57fe5b04600686015542600986015543600a8601556001600160a01b0388167fd7918d04fa8d2763da038d81b4ab65ea7b9eb8e5e3b199c548142ac304a8ad6f610a1f610e2c565b89604051610a2e92919061139e565b60405180910390a25050505050505050565b6000600a6000610a4e610e2c565b6001600160a01b03166001600160a01b031681526020019081526020016000206000846001600160a01b03166001600160a01b0316815260200190815260200160002090508181600301541015610ab75760405162461bcd60e51b81526004016103c390611521565b600060075482600301548481610ac957fe5b040290506000600754826007540384600301540281610ae457fe5b0490506000600754836007540385600401540281610afe57fe5b049050856001600160a01b03166379cc6790610b18610e2c565b846040518363ffffffff1660e01b8152600401610b3692919061139e565b600060405180830381600087803b158015610b5057600080fd5b505af1158015610b64573d6000803e3d6000fd5b50506002546001600160a01b0316915063a9059cbb9050610b83610e2c565b836040518363ffffffff1660e01b8152600401610ba192919061139e565b602060405180830381600087803b158015610bbb57600080fd5b505af1158015610bcf573d6000803e3d6000fd5b505050506040513d601f19601f82011682018060405250810190610bf391906110a6565b506001600160a01b038616600090815260066020908152604080832080548251601f60026000196101006001861615020190931692909204918201859004850281018501909352808352610c67938301828280156107e65780601f106107bb576101008083540402835291602001916107e6565b600386018054859003905560048601805484900390819055600754600854929350919081610c9157fe5b040260068601556007546004860154829081610ca957fe5b040260058601555050426009840155505043600a909101555050565b60095481565b80516020818301810180516005825292820191909301209152546001600160a01b031681565b60066020908152600091825260409182902080548351601f6002600019610100600186161502019093169290920491820184900484028101840190945280845290918301828280156103865780601f1061035b57610100808354040283529160200191610386565b610d61610e2c565b6000546001600160a01b03908116911614610d8e5760405162461bcd60e51b81526004016103c390611576565b6001600160a01b038116610db45760405162461bcd60e51b81526004016103c390611491565b600080546040516001600160a01b03808516939216917f8be0079c531659141344cd1fd0a4f28419497f9722a3daafe3b4186f6b6457e091a3600080546001600160a01b0319166001600160a01b0392909216919091179055565b600080600483604051610e22919061134a565b5260021192915050565b3390565b8260028101928215610e70579160200282015b82811115610e705782518051610e60918491602090910190610ea1565b5091602001919060010190610e43565b50610e7c929150610f1b565b5090565b60405180606001604052806000815260200160008152602001600081525090565b828054600181600116156101000203166002900490600052602060002090601f016020900481019282601f10610ee257805160ff1916838001178555610f0f565b82800160010185558215610f0f579182015b82811115610f0f578251825591602001919060010190610ef4565b50610e7c929150610f38565b80821115610e7c576000610f2f8282610f4d565b50600101610f1b565b5b80821115610e7c5760008155600101610f39565b50805460018160011615610100020316600290046000825580601f10610f735750610f91565b601f016020900490600052602060002090810190610f919190610f38565b50565b600082601f830112610fa4578081fd5b813567ffffffffffffffff811115610fba578182fd5b610fcd601f8201601f1916602001611604565b9150808252836020828501011115610fe457600080fd5b8060208401602084013760009082016020015292915050565b60006020828403121561100e578081fd5b813561101981611667565b9392505050565b60008060408385031215611032578081fd5b823561103d81611667565b9150602083013561104d81611667565b809150509250929050565b6000806040838503121561106a578182fd5b823561107581611667565b9150602083013567ffffffffffffffff811115611090578182fd5b61109c85828601610f94565b9150509250929050565b6000602082840312156110b7578081fd5b81518015158114611019578182fd5b600080604083850312156110d8578182fd5b82356110e381611667565b946020939093013593505050565b600080600060608486031215611105578081fd5b833561111081611667565b95602085013595506040909401359392505050565b600060208284031215611136578081fd5b813567ffffffffffffffff81111561114c578182fd5b61115884828501610f94565b949350505050565b60008060408385031215611172578182fd5b823567ffffffffffffffff811115611188578283fd5b61119485828601610f94565b925050602083013561104d81611667565b600080604083850312156111b7578182fd5b823567ffffffffffffffff808211156111ce578384fd5b6111da86838701610f94565b93506020915081850135818111156111f0578384fd5b85019050601f81018613611202578283fd5b61120c6040611604565b8082855b6002811015611238576112268a83358701610f94565b84529285019290850190600101611210565b50959890975095505050505050565b60008060408385031215611259578182fd5b823567ffffffffffffffff81111561126f578283fd5b61127b85828601610f94565b95602094909401359450505050565b60006060828403121561129b578081fd5b6112a56060611604565b8251815260208301516020820152604083015160408201528091505092915050565b600081546001808216600081146112e5576001811461130357611341565b60028304607f16865260ff1983166020870152604086019350611341565b600283048087526113138661162b565b60005b828110156113375781546020828b0101528482019150602081019050611316565b8801602001955050505b50505092915050565b6000825161135c818460208701611637565b9190910192915050565b6001600160a01b0391909116815260200190565b6001600160a01b039384168152919092166020820152604081019190915260600190565b6001600160a01b03929092168252602082015260400190565b6001600160a01b039d8e1681529b8d1660208d015299909b1660408b015260608a0197909752608089019590955260a088019390935260c087019190915260e08601526101008501526101208401526101408301526101608201929092526101808101919091526101a00190565b901515815260200190565b600060208252825180602084015261144f816040850160208701611637565b601f01601f19169190910160400192915050565b60006040825261147660408301856112c7565b828103602084015261148881856112c7565b95945050505050565b60208082526026908201527f4f776e61626c653a206e6577206f776e657220697320746865207a65726f206160408201526564647265737360d01b606082015260800190565b6020808252602a908201527f53796e7468657469633a3a6d696e7453796e7468657469633a20756e6465722060408201526918dbdb1b185d195c985b60b21b606082015260800190565b60208082526035908201527f53796e7468657469633a3a72656465656d53796e7468657469633a20616d6f756040820152741b9d08195e18d959591cc818dbdb1b185d195c985b605a1b606082015260800190565b6020808252818101527f4f776e61626c653a2063616c6c6572206973206e6f7420746865206f776e6572604082015260600190565b60208082526030908201527f53796e7468657469633a3a6d696e7453796e7468657469633a207472616e736660408201526f657220746f206164647265737328302960801b606082015260800190565b90815260200190565b60405181810167ffffffffffffffff8111828210171561162357600080fd5b604052919050565b60009081526020902090565b60005b8381101561165257818101518382015260200161163a565b83811115611661576000848401525b50505050565b6001600160a01b0381168114610f9157600080fdfea2646970667358221220b229dbcfa55d76a634688eb61e42257fadf0c9c7af42ce910fbdbe112f715e9364736f6c634300060c0033",
  "linkReferences": {},
  "deployedLinkReferences": {}
}