{
  "_format": "hh-sol-artifact-1",
  "contractName": "Synthetic",
  "sourceName": "contracts/Synthetic.sol",
  "abi": [
    {
      "inputs": [
        {
          "internalType": "contract IERC20",
          "name": "_dolly",
          "type": "address"
        },
        {
          "internalType": "contract IStdReference",
          "name": "_ref",
          "type": "address"
        }
      ],
      "stateMutability": "nonpayable",
      "type": "constructor"
    },
    {
      "anonymous": false,
      "inputs": [
        {
          "indexed": true,
          "internalType": "address",
          "name": "user",
          "type": "address"
        },
        {
          "indexed": false,
          "internalType": "uint256",
          "name": "amount",
          "type": "uint256"
        }
      ],
      "name": "AddCollateral",
      "type": "event"
    },
    {
      "anonymous": false,
      "inputs": [
        {
          "indexed": true,
          "internalType": "address",
          "name": "liquidated",
          "type": "address"
        },
        {
          "indexed": true,
          "internalType": "address",
          "name": "liquidator",
          "type": "address"
        },
        {
          "indexed": true,
          "internalType": "address",
          "name": "syntheticAddress",
          "type": "address"
        },
        {
          "indexed": false,
          "internalType": "uint256",
          "name": "amount",
          "type": "uint256"
        },
        {
          "indexed": false,
          "internalType": "uint256",
          "name": "timestamp",
          "type": "uint256"
        }
      ],
      "name": "Liquidated",
      "type": "event"
    },
    {
      "anonymous": false,
      "inputs": [
        {
          "indexed": false,
          "internalType": "address",
          "name": "minter",
          "type": "address"
        },
        {
          "indexed": true,
          "internalType": "address",
          "name": "syntheticAddress",
          "type": "address"
        },
        {
          "indexed": false,
          "internalType": "uint256",
          "name": "amount",
          "type": "uint256"
        }
      ],
      "name": "MintAsset",
      "type": "event"
    },
    {
      "anonymous": false,
      "inputs": [
        {
          "indexed": true,
          "internalType": "address",
          "name": "previousOwner",
          "type": "address"
        },
        {
          "indexed": true,
          "internalType": "address",
          "name": "newOwner",
          "type": "address"
        }
      ],
      "name": "OwnershipTransferred",
      "type": "event"
    },
    {
      "anonymous": false,
      "inputs": [
        {
          "indexed": true,
          "internalType": "address",
          "name": "syntheticAddress",
          "type": "address"
        },
        {
          "indexed": false,
          "internalType": "uint256",
          "name": "amount",
          "type": "uint256"
        }
      ],
      "name": "RedeemAsset",
      "type": "event"
    },
    {
      "anonymous": false,
      "inputs": [
        {
          "indexed": true,
          "internalType": "address",
          "name": "user",
          "type": "address"
        },
        {
          "indexed": false,
          "internalType": "uint256",
          "name": "amount",
          "type": "uint256"
        }
      ],
      "name": "RemoveCollateral",
      "type": "event"
    },
    {
      "anonymous": false,
      "inputs": [
        {
          "indexed": false,
          "internalType": "address",
          "name": "oldDevAddress",
          "type": "address"
        },
        {
          "indexed": false,
          "internalType": "address",
          "name": "newDevAddress",
          "type": "address"
        }
      ],
      "name": "SetDevAddress",
      "type": "event"
    },
    {
      "inputs": [
        {
          "internalType": "contract IERC20Burnable",
          "name": "_synthetic",
          "type": "address"
        },
        {
          "internalType": "uint256",
          "name": "_addAmount",
          "type": "uint256"
        }
      ],
      "name": "addCollateral",
      "outputs": [],
      "stateMutability": "nonpayable",
      "type": "function"
    },
    {
      "inputs": [
        {
          "internalType": "address",
          "name": "",
          "type": "address"
        }
      ],
      "name": "addressToPairs",
      "outputs": [
        {
          "internalType": "string",
          "name": "",
          "type": "string"
        }
      ],
      "stateMutability": "view",
      "type": "function"
    },
    {
      "inputs": [],
      "name": "bandOracle",
      "outputs": [
        {
          "internalType": "contract IStdReference",
          "name": "",
          "type": "address"
        }
      ],
      "stateMutability": "view",
      "type": "function"
    },
    {
      "inputs": [],
      "name": "collateralRatio",
      "outputs": [
        {
          "internalType": "uint256",
          "name": "",
          "type": "uint256"
        }
      ],
      "stateMutability": "view",
      "type": "function"
    },
    {
      "inputs": [
        {
          "internalType": "address",
          "name": "",
          "type": "address"
        },
        {
          "internalType": "address",
          "name": "",
          "type": "address"
        }
      ],
      "name": "contracts",
      "outputs": [
        {
          "internalType": "address",
          "name": "minter",
          "type": "address"
        },
        {
          "internalType": "contract IERC20Burnable",
          "name": "asset",
          "type": "address"
        },
        {
          "internalType": "contract IERC20",
          "name": "assetBacked",
          "type": "address"
        },
        {
          "internalType": "uint256",
          "name": "assetAmount",
          "type": "uint256"
        },
        {
          "internalType": "uint256",
          "name": "assetBackedAmount",
          "type": "uint256"
        },
        {
          "internalType": "uint256",
          "name": "currentRatio",
          "type": "uint256"
        },
        {
          "internalType": "uint256",
          "name": "willLiquidateAtPrice",
          "type": "uint256"
        },
        {
          "internalType": "uint256",
          "name": "canMintRemainning",
          "type": "uint256"
        },
        {
          "internalType": "uint256",
          "name": "canWithdrawRemainning",
          "type": "uint256"
        },
        {
          "internalType": "uint256",
          "name": "updatedAt",
          "type": "uint256"
        },
        {
          "internalType": "uint256",
          "name": "updatedBlock",
          "type": "uint256"
        },
        {
          "internalType": "uint256",
          "name": "exchangeRateAtMinted",
          "type": "uint256"
        },
        {
          "internalType": "uint256",
          "name": "currentExchangeRate",
          "type": "uint256"
        }
      ],
      "stateMutability": "view",
      "type": "function"
    },
    {
      "inputs": [],
      "name": "denominator",
      "outputs": [
        {
          "internalType": "uint256",
          "name": "",
          "type": "uint256"
        }
      ],
      "stateMutability": "view",
      "type": "function"
    },
    {
      "inputs": [],
      "name": "devAddress",
      "outputs": [
        {
          "internalType": "address",
          "name": "",
          "type": "address"
        }
      ],
      "stateMutability": "view",
      "type": "function"
    },
    {
      "inputs": [],
      "name": "dolly",
      "outputs": [
        {
          "internalType": "contract IERC20",
          "name": "",
          "type": "address"
        }
      ],
      "stateMutability": "view",
      "type": "function"
    },
    {
      "inputs": [
        {
          "internalType": "string",
          "name": "_pairs",
          "type": "string"
        }
      ],
      "name": "getRate",
      "outputs": [
        {
          "internalType": "uint256",
          "name": "",
          "type": "uint256"
        }
      ],
      "stateMutability": "view",
      "type": "function"
    },
    {
      "inputs": [
        {
          "internalType": "string",
          "name": "_pairs",
          "type": "string"
        }
      ],
      "name": "isSupported",
      "outputs": [
        {
          "internalType": "bool",
          "name": "",
          "type": "bool"
        }
      ],
      "stateMutability": "view",
      "type": "function"
    },
    {
      "inputs": [
        {
          "internalType": "contract IERC20Burnable",
          "name": "_synthetic",
          "type": "address"
        },
        {
          "internalType": "address",
          "name": "_minter",
          "type": "address"
        }
      ],
      "name": "liquidate",
      "outputs": [],
      "stateMutability": "nonpayable",
      "type": "function"
    },
    {
      "inputs": [],
      "name": "liquidationRatio",
      "outputs": [
        {
          "internalType": "uint256",
          "name": "",
          "type": "uint256"
        }
      ],
      "stateMutability": "view",
      "type": "function"
    },
    {
      "inputs": [],
      "name": "liquidatorRewardRatio",
      "outputs": [
        {
          "internalType": "uint256",
          "name": "",
          "type": "uint256"
        }
      ],
      "stateMutability": "view",
      "type": "function"
    },
    {
      "inputs": [
        {
          "internalType": "contract IERC20Burnable",
          "name": "_synthetic",
          "type": "address"
        },
        {
          "internalType": "uint256",
          "name": "_amount",
          "type": "uint256"
        },
        {
          "internalType": "uint256",
          "name": "_backedAmount",
          "type": "uint256"
        }
      ],
      "name": "mintSynthetic",
      "outputs": [],
      "stateMutability": "nonpayable",
      "type": "function"
    },
    {
      "inputs": [],
      "name": "owner",
      "outputs": [
        {
          "internalType": "address",
          "name": "",
          "type": "address"
        }
      ],
      "stateMutability": "view",
      "type": "function"
    },
    {
      "inputs": [
        {
          "internalType": "string",
          "name": "",
          "type": "string"
        }
      ],
      "name": "pairsToAddress",
      "outputs": [
        {
          "internalType": "address",
          "name": "",
          "type": "address"
        }
      ],
      "stateMutability": "view",
      "type": "function"
    },
    {
      "inputs": [
        {
          "internalType": "string",
          "name": "",
          "type": "string"
        },
        {
          "internalType": "uint256",
          "name": "",
          "type": "uint256"
        }
      ],
      "name": "pairsToQuote",
      "outputs": [
        {
          "internalType": "string",
          "name": "",
          "type": "string"
        }
      ],
      "stateMutability": "view",
      "type": "function"
    },
    {
      "inputs": [
        {
          "internalType": "address",
          "name": "",
          "type": "address"
        },
        {
          "internalType": "uint256",
          "name": "",
          "type": "uint256"
        }
      ],
      "name": "pendingLiquidate",
      "outputs": [
        {
          "internalType": "address",
          "name": "",
          "type": "address"
        }
      ],
      "stateMutability": "view",
      "type": "function"
    },
    {
      "inputs": [],
      "name": "platfromFeeRatio",
      "outputs": [
        {
          "internalType": "uint256",
          "name": "",
          "type": "uint256"
        }
      ],
      "stateMutability": "view",
      "type": "function"
    },
    {
      "inputs": [
        {
          "internalType": "contract IERC20Burnable",
          "name": "_synthetic",
          "type": "address"
        },
        {
          "internalType": "uint256",
          "name": "_amount",
          "type": "uint256"
        }
      ],
      "name": "redeemSynthetic",
      "outputs": [],
      "stateMutability": "nonpayable",
      "type": "function"
    },
    {
      "inputs": [],
      "name": "remainingToMinterRatio",
      "outputs": [
        {
          "internalType": "uint256",
          "name": "",
          "type": "uint256"
        }
      ],
      "stateMutability": "view",
      "type": "function"
    },
    {
      "inputs": [
        {
          "internalType": "contract IERC20Burnable",
          "name": "_synthetic",
          "type": "address"
        },
        {
          "internalType": "uint256",
          "name": "_removeBackedAmount",
          "type": "uint256"
        }
      ],
      "name": "removeCollateral",
      "outputs": [],
      "stateMutability": "nonpayable",
      "type": "function"
    },
    {
      "inputs": [
        {
          "internalType": "contract IERC20Burnable",
          "name": "_synthetic",
          "type": "address"
        },
        {
          "internalType": "uint256",
          "name": "_removeAmount",
          "type": "uint256"
        }
      ],
      "name": "removeLowerCollateral",
      "outputs": [],
      "stateMutability": "nonpayable",
      "type": "function"
    },
    {
      "inputs": [],
      "name": "renounceOwnership",
      "outputs": [],
      "stateMutability": "nonpayable",
      "type": "function"
    },
    {
      "inputs": [
        {
          "internalType": "address",
          "name": "_syntheticAddress",
          "type": "address"
        },
        {
          "internalType": "string",
          "name": "_pairs",
          "type": "string"
        }
      ],
      "name": "setAddressToPairs",
      "outputs": [],
      "stateMutability": "nonpayable",
      "type": "function"
    },
    {
      "inputs": [
        {
          "internalType": "address",
          "name": "_devAddress",
          "type": "address"
        }
      ],
      "name": "setDevAddress",
      "outputs": [],
      "stateMutability": "nonpayable",
      "type": "function"
    },
    {
      "inputs": [
        {
          "internalType": "string",
          "name": "_pairs",
          "type": "string"
        },
        {
          "internalType": "address",
          "name": "_syntheticAddress",
          "type": "address"
        }
      ],
      "name": "setPairsToAddress",
      "outputs": [],
      "stateMutability": "nonpayable",
      "type": "function"
    },
    {
      "inputs": [
        {
          "internalType": "string",
          "name": "_pairs",
          "type": "string"
        },
        {
          "internalType": "string[2]",
          "name": "baseAndQuote",
          "type": "string[2]"
        }
      ],
      "name": "setPairsToQuote",
      "outputs": [],
      "stateMutability": "nonpayable",
      "type": "function"
    },
    {
      "inputs": [],
      "name": "systheticAsset",
      "outputs": [
        {
          "internalType": "contract IERC20Burnable",
          "name": "",
          "type": "address"
        }
      ],
      "stateMutability": "view",
      "type": "function"
    },
    {
      "inputs": [
        {
          "internalType": "address",
          "name": "newOwner",
          "type": "address"
        }
      ],
      "name": "transferOwnership",
      "outputs": [],
      "stateMutability": "nonpayable",
      "type": "function"
    },
    {
      "inputs": [
        {
          "internalType": "contract IERC20Burnable",
          "name": "_synthetic",
          "type": "address"
        },
        {
          "internalType": "address",
          "name": "_minter",
          "type": "address"
        }
      ],
      "name": "viewRewardFromLiquidate",
      "outputs": [
        {
          "internalType": "uint256",
          "name": "",
          "type": "uint256"
        },
        {
          "internalType": "uint256",
          "name": "",
          "type": "uint256"
        },
        {
          "internalType": "uint256",
          "name": "",
          "type": "uint256"
        },
        {
          "internalType": "uint256",
          "name": "",
          "type": "uint256"
        },
        {
          "internalType": "uint256",
          "name": "",
          "type": "uint256"
        }
      ],
      "stateMutability": "view",
      "type": "function"
    }
  ],
  "bytecode": "0x6080604052670de0b6b3a76400006007556714d1120d7b160000600855671158e460913d000060095566b1a2bc2ec50000600a5566b1a2bc2ec50000600b55670c7d713b49da0000600c553480156200005757600080fd5b506040516200336a3803806200336a8339810160408190526200007a91620003bd565b6000620000866200025e565b600080546001600160a01b0319166001600160a01b0383169081178255604051929350917f8be0079c531659141344cd1fd0a4f28419497f9722a3daafe3b4186f6b6457e0908290a350600280546001600160a01b038085166001600160a01b03199283161790925560038054928416929091169190911781556040805160808101825260048183018181526354534c4160e01b6060840152825282518084018452938452621554d160ea1b60208581019190915282019390935290519091906200015190620003fb565b9081526040519081900360200190206200016d91600262000262565b507365cac0f09efdb88195a002e8dd4cbf6ec9bc7f6060056040516200019390620003fb565b908152604080516020928190038301812080546001600160a01b0319166001600160a01b039590951694909417909355828101905260088252671514d3104bd554d160c21b8183019081527365cac0f09efdb88195a002e8dd4cbf6ec9bc7f60600052600690915290516200022a917fb5aea66d9b9a38ebc3abed41876b8c9b8e80920b3fb821e1e214caaf12318c2391620002b9565b50620002356200025e565b600d80546001600160a01b0319166001600160a01b039290921691909117905550620004259050565b3390565b8260028101928215620002a7579160200282015b82811115620002a7578251805162000296918491602090910190620002b9565b509160200191906001019062000276565b50620002b59291506200033a565b5090565b828054600181600116156101000203166002900490600052602060002090601f016020900481019282601f10620002fc57805160ff19168380011785556200032c565b828001600101855582156200032c579182015b828111156200032c5782518255916020019190600101906200030f565b50620002b59291506200035b565b80821115620002b557600062000351828262000372565b506001016200033a565b5b80821115620002b557600081556001016200035c565b50805460018160011615610100020316600290046000825580601f106200039a5750620003ba565b601f016020900490600052602060002090810190620003ba91906200035b565b50565b60008060408385031215620003d0578182fd5b8251620003dd816200040f565b6020840151909250620003f0816200040f565b809150509250929050565b671514d3104bd554d160c21b815260080190565b6001600160a01b0381168114620003ba57600080fd5b612f3580620004356000396000f3fe608060405234801561001057600080fd5b50600436106101e55760003560e01c80638223c7701161010f578063b4eae1cb116100a2578063e150f64711610071578063e150f647146103b2578063f2fde38b146103c5578063f3a014a2146103d8578063fcb589d5146103f8576101e5565b8063b4eae1cb14610371578063bad8269014610379578063bf15c3e11461038c578063d0d41fe11461039f576101e5565b8063956dcd1f116100de578063956dcd1f1461033b57806396ce0795146103435780639a12944c1461034b578063b32ec5461461035e576101e5565b80638223c770146102fa57806386b9d81f1461030d578063876467f8146103205780638da5cb5b14610333576101e5565b80634e55b8a7116101875780636d75b9ee116101565780636d75b9ee146102c45780636e1aa51b146102d7578063715018a6146102df5780637bda6e28146102e7576101e5565b80634e55b8a71461028c5780635bcbdc961461029457806365c3ad00146102a95780636c0daed8146102b1576101e5565b806314057fca116101c357806314057fca146102305780631775765f1461025c5780633ad10ef6146102645780633f97bc5b1461026c576101e5565b8063095f1404146101ea5780630b87d86e14610208578063120e4d6d1461021d575b600080fd5b6101f261041c565b6040516101ff9190612e5b565b60405180910390f35b610210610422565b6040516101ff91906128d9565b61021061022b366004612607565b610431565b61024361023e366004612581565b610466565b6040516101ff9d9c9b9a99989796959493929190612944565b6101f26104e6565b6102106104ec565b61027f61027a3660046127ba565b6104fb565b6040516101ff91906129bd565b6101f26105b2565b6102a76102a2366004612718565b6105b8565b005b6101f2610626565b6101f26102bf366004612698565b61062c565b6102a76102d2366004612607565b610717565b610210610a26565b6102a7610a35565b6102a76102f53660046126d3565b610ab4565b6102a76103083660046125b9565b610b2d565b6102a761031b366004612652565b610b8b565b6102a761032e366004612607565b610fed565b6102106112bc565b6102106112cb565b6101f26112da565b6102a7610359366004612664565b6112e0565b6102a761036c366004612607565b61164a565b6101f2611bcf565b610210610387366004612698565b611bd5565b61027f61039a366004612565565b611bfb565b6102a76103ad366004612565565b611c63565b6102a76103c0366004612607565b611cf7565b6102a76103d3366004612565565b611f9f565b6103eb6103e6366004612698565b612055565b6040516101ff91906129b2565b61040b610406366004612652565b612072565b6040516101ff959493929190612e64565b600a5481565b6002546001600160a01b031681565b600f602052816000526040600020818154811061044a57fe5b6000918252602090912001546001600160a01b03169150829050565b600e602090815260009283526040808420909152908252902080546001820154600283015460038401546004850154600586015460068701546007880154600889015460098a0154600a8b0154600b8c0154600c909c01546001600160a01b039b8c169c9a8c169b9099169997989697959694959394929391929091908d565b60095481565b600d546001600160a01b031681565b81516020818401810180516004825292820191850191909120919052816002811061052257fe5b01805460408051602060026001851615610100026000190190941693909304601f810184900484028201840190925281815294509192508301828280156105aa5780601f1061057f576101008083540402835291602001916105aa565b820191906000526020600020905b81548152906001019060200180831161058d57829003601f168201915b505050505081565b600c5481565b6105c061222b565b6000546001600160a01b039081169116146105f65760405162461bcd60e51b81526004016105ed90612c76565b60405180910390fd5b8060048360405161060791906128bd565b908152604051908190036020019020610621916002612398565b505050565b600b5481565b600061063782612055565b61064057600080fd5b6106486123e8565b6003546040516001600160a01b03909116906365555bcc9060049061066e9087906128bd565b90815260405190819003602001902060000160048660405161069091906128bd565b9081526040519081900360200190206001016040518363ffffffff1660e01b81526004016106bf9291906129f0565b60606040518083038186803b1580156106d757600080fd5b505afa1580156106eb573d6000803e3d6000fd5b505050506040513d601f19601f8201168201806040525081019061070f91906127fd565b519392505050565b6000600e600061072561222b565b6001600160a01b03166001600160a01b031681526020019081526020016000206000846001600160a01b03166001600160a01b031681526020019081526020016000209050600081600301541161078e5760405162461bcd60e51b81526004016105ed90612b32565b600481015461079d908361222f565b60048201556001600160a01b038316600090815260066020908152604080832080548251601f6002600019610100600186161502019093169290920491820185900485028101850190935280835261084a938301828280156108405780601f1061081557610100808354040283529160200191610840565b820191906000526020600020905b81548152906001019060200180831161082357829003601f168201915b505050505061062c565b9050600061087160075461086b84866003015461225d90919063ffffffff16565b90612297565b9050600061089060075461086b6008548561225d90919063ffffffff16565b905060006108ab8286600401546122d990919063ffffffff16565b6002549091506001600160a01b03166323b872dd6108c761222b565b30896040518463ffffffff1660e01b81526004016108e7939291906128ed565b602060405180830381600087803b15801561090157600080fd5b505af1158015610915573d6000803e3d6000fd5b505050506040513d601f19601f820116820180604052508101906109399190612632565b61094257600080fd5b61097160075461086b60075461096b8761086b6007548c6004015461225d90919063ffffffff16565b9061225d565b6005860181905560075460095461099a9261086b9161099391908490036122d9565b879061225d565b6006860155600885018190556007546109bd9061086b8161096b8783878461225d565b6007860155600c850184905542600986015543600a8601556109dd61222b565b6001600160a01b03167f2ac90482c3b6bea30a2c085cf093016bad7f970d91c5fd233e6b848d3e231dc387604051610a159190612e5b565b60405180910390a250505050505050565b6001546001600160a01b031681565b610a3d61222b565b6000546001600160a01b03908116911614610a6a5760405162461bcd60e51b81526004016105ed90612c76565b600080546040516001600160a01b03909116907f8be0079c531659141344cd1fd0a4f28419497f9722a3daafe3b4186f6b6457e0908390a3600080546001600160a01b0319169055565b610abc61222b565b6000546001600160a01b03908116911614610ae95760405162461bcd60e51b81526004016105ed90612c76565b80600583604051610afa91906128bd565b90815260405190819003602001902080546001600160a01b03929092166001600160a01b03199092169190911790555050565b610b3561222b565b6000546001600160a01b03908116911614610b625760405162461bcd60e51b81526004016105ed90612c76565b6001600160a01b0382166000908152600660209081526040909120825161062192840190612409565b6001600160a01b038082166000908152600e60209081526040808320868516845290915290208054909116610bd25760405162461bcd60e51b81526004016105ed90612d68565b600954816005015410610bf75760405162461bcd60e51b81526004016105ed90612b99565b6001600160a01b038316600090815260066020908152604080832080548251601f60026000196101006001861615020190931692909204918201859004850281018501909352808352610c6a938301828280156108405780601f1061081557610100808354040283529160200191610840565b905080826006015410610c8f5760405162461bcd60e51b81526004016105ed90612a1e565b6000610cae60075461086b84866003015461225d90919063ffffffff16565b90506000610cc98285600401546122d990919063ffffffff16565b90506000610ce860075461086b600c548561225d90919063ffffffff16565b90506000610d0760075461086b600a548661225d90919063ffffffff16565b90506000610d2660075461086b600b548761225d90919063ffffffff16565b6002549091506001600160a01b03166323b872dd610d4261222b565b30886040518463ffffffff1660e01b8152600401610d62939291906128ed565b602060405180830381600087803b158015610d7c57600080fd5b505af1158015610d90573d6000803e3d6000fd5b505050506040513d601f19601f82011682018060405250810190610db49190612632565b50600254875460405163a9059cbb60e01b81526001600160a01b039283169263a9059cbb92610dea929116908790600401612911565b602060405180830381600087803b158015610e0457600080fd5b505af1158015610e18573d6000803e3d6000fd5b505050506040513d601f19601f82011682018060405250810190610e3c9190612632565b506002546001600160a01b031663a9059cbb610e5661222b565b846040518363ffffffff1660e01b8152600401610e74929190612911565b602060405180830381600087803b158015610e8e57600080fd5b505af1158015610ea2573d6000803e3d6000fd5b505050506040513d601f19601f82011682018060405250810190610ec69190612632565b50600254600d5460405163a9059cbb60e01b81526001600160a01b039283169263a9059cbb92610efd929116908590600401612911565b602060405180830381600087803b158015610f1757600080fd5b505af1158015610f2b573d6000803e3d6000fd5b505050506040513d601f19601f82011682018060405250810190610f4f9190612632565b5050506001600160a01b039586166000908152600e602090815260408083209990981682529790975250505091832080546001600160a01b0319908116825560018201805482169055600282018054909116905560038101849055600481018490556005810184905560068101849055600781018490556008810184905560098101849055600a8101849055600b8101849055600c01929092555050565b6000600e6000610ffb61222b565b6001600160a01b03166001600160a01b031681526020019081526020016000206000846001600160a01b03166001600160a01b03168152602001908152602001600020905060008160030154116110645760405162461bcd60e51b81526004016105ed90612cab565b600481015461107390836122d9565b6004820155600881015482111561109c5760405162461bcd60e51b81526004016105ed90612dfe565b6001600160a01b038316600090815260066020908152604080832080548251601f6002600019610100600186161502019093169290920491820185900485028101850190935280835261110f938301828280156108405780601f1061081557610100808354040283529160200191610840565b9050600061113060075461086b84866003015461225d90919063ffffffff16565b9050600061114f60075461086b6008548561225d90919063ffffffff16565b9050600061116a8286600401546122d990919063ffffffff16565b90506002546001600160a01b031663a9059cbb61118561222b565b886040518363ffffffff1660e01b81526004016111a3929190612911565b602060405180830381600087803b1580156111bd57600080fd5b505af11580156111d1573d6000803e3d6000fd5b505050506040513d601f19601f820116820180604052508101906111f59190612632565b5061121f60075461086b60075461096b8761086b6007548c6004015461225d90919063ffffffff16565b600586018190556007546009546112419261086b9161099391908490036122d9565b6006860155600885018190556007546112649061086b8161096b8783878461225d565b6007860155600c850184905542600986015543600a86015561128461222b565b6001600160a01b03167fe25410a4059619c9594dc6f022fe231b02aaea733f689e7ab0cd21b3d4d0eb5487604051610a159190612e5b565b6000546001600160a01b031690565b6003546001600160a01b031681565b60075481565b6000600e60006112ee61222b565b6001600160a01b03908116825260208083019390935260409182016000908120888316825290935291208054909250161561133b5760405162461bcd60e51b81526004016105ed90612d18565b6001600160a01b038416600090815260066020908152604080832080548251601f600260001961010060018616150201909316929092049182018590048502810185019093528083526113ae938301828280156108405780601f1061081557610100808354040283529160200191610840565b905060006113cb60075461086b848861225d90919063ffffffff16565b905060006113ea60075461086b6008548561225d90919063ffffffff16565b90508085101561140c5760405162461bcd60e51b81526004016105ed90612ae8565b600061141886836122d9565b9050876001600160a01b03166340c10f1961143161222b565b896040518363ffffffff1660e01b815260040161144f929190612911565b600060405180830381600087803b15801561146957600080fd5b505af115801561147d573d6000803e3d6000fd5b50506002546001600160a01b031691506323b872dd905061149c61222b565b30896040518463ffffffff1660e01b81526004016114bc939291906128ed565b602060405180830381600087803b1580156114d657600080fd5b505af11580156114ea573d6000803e3d6000fd5b505050506040513d601f19601f8201168201806040525081019061150e9190612632565b61151757600080fd5b61151f61222b565b85546001600160a01b03199081166001600160a01b0392831617875560018701805482168b84161790556002805490880180549190931691161790556003850187905560048501869055600b8501849055600c850184905560075461158e9061086b8161096b87838c8461225d565b600586018190556007546009546115b09261086b9161099391908490036122d9565b6006860155600880860182905560075490546115e59189916115df919061086b90829061096b90838e8461225d565b906122d9565b600786015542600986015543600a8601556001600160a01b0388167fd7918d04fa8d2763da038d81b4ab65ea7b9eb8e5e3b199c548142ac304a8ad6f61162961222b565b89604051611638929190612911565b60405180910390a25050505050505050565b6000600e600061165861222b565b6001600160a01b03166001600160a01b031681526020019081526020016000206000846001600160a01b03166001600160a01b03168152602001908152602001600020905081816003015410156116c15760405162461bcd60e51b81526004016105ed90612be0565b80600301548214156118a357826001600160a01b03166379cc67906116e461222b565b846040518363ffffffff1660e01b8152600401611702929190612911565b600060405180830381600087803b15801561171c57600080fd5b505af1158015611730573d6000803e3d6000fd5b50506002546001600160a01b0316915063a9059cbb905061174f61222b565b83600401546040518363ffffffff1660e01b8152600401611771929190612911565b602060405180830381600087803b15801561178b57600080fd5b505af115801561179f573d6000803e3d6000fd5b505050506040513d601f19601f820116820180604052508101906117c39190612632565b50600e60006117d061222b565b6001600160a01b039081168252602080830193909352604091820160009081209187168082529190935281832080546001600160a01b0319908116825560018201805482169055600282018054909116905560038101849055600481018490556005810184905560068101849055600781018490556008810184905560098101849055600a8101849055600b8101849055600c0192909255517fb99b782c502642cbb60ce7d75f893727e5ef94003f2f9e56bcbbb013615e193e90611896908590612e5b565b60405180910390a2610621565b60006118b383836003015461231b565b9050600060075482846003015402816118c857fe5b049050600060075483856004015402816118de57fe5b6001600160a01b038816600090815260066020908152604080832080548251601f60026000196101006001861615020190931692909204918201859004850281018501909352808352959094049550919361195a93918301828280156108405780601f1061081557610100808354040283529160200191610840565b905060006119758387600401546122d990919063ffffffff16565b905060006119908588600301546122d990919063ffffffff16565b905060006119ad60075461086b868561225d90919063ffffffff16565b905060006119cc60075461086b6008548561225d90919063ffffffff16565b9050808410156119ee5760405162461bcd60e51b81526004016105ed90612dac565b60006119fa85836122d9565b90508b6001600160a01b03166379cc6790611a1361222b565b8a6040518363ffffffff1660e01b8152600401611a31929190612911565b600060405180830381600087803b158015611a4b57600080fd5b505af1158015611a5f573d6000803e3d6000fd5b50506002546001600160a01b0316915063a9059cbb9050611a7e61222b565b896040518363ffffffff1660e01b8152600401611a9c929190612911565b602060405180830381600087803b158015611ab657600080fd5b505af1158015611aca573d6000803e3d6000fd5b505050506040513d601f19601f82011682018060405250810190611aee9190612632565b5060038a0184905560048a01859055600754611b1a9061086b8186818a0281611b1357fe5b049061225d565b60058b01819055600754600954611b439261086b91611b3c91908490036122d9565b899061225d565b60068b015560088a01819055600754611b669061086b8161096b8a83878461225d565b60078b0155600c8a018690554260098b015543600a8b01556040516001600160a01b038d16907fb99b782c502642cbb60ce7d75f893727e5ef94003f2f9e56bcbbb013615e193e90611bb9908e90612e5b565b60405180910390a2505050505050505050505050565b60085481565b80516020818301810180516005825292820191909301209152546001600160a01b031681565b60066020908152600091825260409182902080548351601f6002600019610100600186161502019093169290920491820184900484028101840190945280845290918301828280156105aa5780601f1061057f576101008083540402835291602001916105aa565b611c6b61222b565b6000546001600160a01b03908116911614611c985760405162461bcd60e51b81526004016105ed90612c76565b600d80546001600160a01b038381166001600160a01b03198316179092556040519116907f618c54559e94f1499a808aad71ee8729f8e74e8c48e979616328ce493a1a52e790611ceb908390859061292a565b60405180910390a15050565b611cff61222b565b6000546001600160a01b03908116911614611d2c5760405162461bcd60e51b81526004016105ed90612c76565b6000600e6000611d3a61222b565b6001600160a01b03166001600160a01b031681526020019081526020016000206000846001600160a01b03166001600160a01b0316815260200190815260200160002090506000816003015411611da35760405162461bcd60e51b81526004016105ed90612cab565b6004810154611db290836122d9565b60048201556001600160a01b038316600090815260066020908152604080832080548251601f60026000196101006001861615020190931692909204918201859004850281018501909352808352611e2a938301828280156108405780601f1061081557610100808354040283529160200191610840565b90506000611e4b60075461086b84866003015461225d90919063ffffffff16565b6002549091506001600160a01b031663a9059cbb611e6761222b565b866040518363ffffffff1660e01b8152600401611e85929190612911565b602060405180830381600087803b158015611e9f57600080fd5b505af1158015611eb3573d6000803e3d6000fd5b505050506040513d601f19601f82011682018060405250810190611ed79190612632565b50611f0160075461086b60075461096b8561086b6007548a6004015461225d90919063ffffffff16565b60058401819055600754600954611f2a9261086b91611f2391908490036122d9565b859061225d565b60068401556000600884018190556007840155600c830182905542600984015543600a840155611f5861222b565b6001600160a01b03167fe25410a4059619c9594dc6f022fe231b02aaea733f689e7ab0cd21b3d4d0eb5485604051611f909190612e5b565b60405180910390a25050505050565b611fa761222b565b6000546001600160a01b03908116911614611fd45760405162461bcd60e51b81526004016105ed90612c76565b6001600160a01b038116611ffa5760405162461bcd60e51b81526004016105ed90612a6b565b600080546040516001600160a01b03808516939216917f8be0079c531659141344cd1fd0a4f28419497f9722a3daafe3b4186f6b6457e091a3600080546001600160a01b0319166001600160a01b0392909216919091179055565b60008060048360405161206891906128bd565b5260021192915050565b6001600160a01b038082166000908152600e6020908152604080832086851684529091528120805491928392839283928392166120c15760405162461bcd60e51b81526004016105ed90612d68565b6009548160050154106120e65760405162461bcd60e51b81526004016105ed90612b99565b6001600160a01b038816600090815260066020908152604080832080548251601f60026000196101006001861615020190931692909204918201859004850281018501909352808352612159938301828280156108405780601f1061081557610100808354040283529160200191610840565b90508082600601541061217e5760405162461bcd60e51b81526004016105ed90612a1e565b600061219d60075461086b84866003015461225d90919063ffffffff16565b905060006121b88285600401546122d990919063ffffffff16565b905060006121d760075461086b600c548561225d90919063ffffffff16565b905060006121f660075461086b600a548661225d90919063ffffffff16565b9050600061221560075461086b600b548761225d90919063ffffffff16565b949e939d50919b50995091975095505050505050565b3390565b6000828201838110156122545760405162461bcd60e51b81526004016105ed90612ab1565b90505b92915050565b60008261226c57506000612257565b8282028284828161227957fe5b04146122545760405162461bcd60e51b81526004016105ed90612c35565b600061225483836040518060400160405280601a81526020017f536166654d6174683a206469766973696f6e206279207a65726f000000000000815250612335565b600061225483836040518060400160405280601e81526020017f536166654d6174683a207375627472616374696f6e206f766572666c6f77000081525061236c565b6007546000906122549061086b8161096b8683898461225d565b600081836123565760405162461bcd60e51b81526004016105ed91906129bd565b50600083858161236257fe5b0495945050505050565b600081848411156123905760405162461bcd60e51b81526004016105ed91906129bd565b505050900390565b82600281019282156123d8579160200282015b828111156123d857825180516123c8918491602090910190612409565b50916020019190600101906123ab565b506123e4929150612483565b5090565b60405180606001604052806000815260200160008152602001600081525090565b828054600181600116156101000203166002900490600052602060002090601f016020900481019282601f1061244a57805160ff1916838001178555612477565b82800160010185558215612477579182015b8281111561247757825182559160200191906001019061245c565b506123e49291506124a0565b808211156123e457600061249782826124b5565b50600101612483565b5b808211156123e457600081556001016124a1565b50805460018160011615610100020316600290046000825580601f106124db57506124f9565b601f0160209004906000526020600020908101906124f991906124a0565b50565b600082601f83011261250c578081fd5b813567ffffffffffffffff811115612522578182fd5b612535601f8201601f1916602001612e87565b915080825283602082850101111561254c57600080fd5b8060208401602084013760009082016020015292915050565b600060208284031215612576578081fd5b813561225481612eea565b60008060408385031215612593578081fd5b823561259e81612eea565b915060208301356125ae81612eea565b809150509250929050565b600080604083850312156125cb578182fd5b82356125d681612eea565b9150602083013567ffffffffffffffff8111156125f1578182fd5b6125fd858286016124fc565b9150509250929050565b60008060408385031215612619578182fd5b823561262481612eea565b946020939093013593505050565b600060208284031215612643578081fd5b81518015158114612254578182fd5b60008060408385031215612593578182fd5b600080600060608486031215612678578081fd5b833561268381612eea565b95602085013595506040909401359392505050565b6000602082840312156126a9578081fd5b813567ffffffffffffffff8111156126bf578182fd5b6126cb848285016124fc565b949350505050565b600080604083850312156126e5578182fd5b823567ffffffffffffffff8111156126fb578283fd5b612707858286016124fc565b92505060208301356125ae81612eea565b6000806040838503121561272a578182fd5b823567ffffffffffffffff80821115612741578384fd5b61274d868387016124fc565b9350602091508185013581811115612763578384fd5b85019050601f81018613612775578283fd5b61277f6040612e87565b8082855b60028110156127ab576127998a833587016124fc565b84529285019290850190600101612783565b50959890975095505050505050565b600080604083850312156127cc578182fd5b823567ffffffffffffffff8111156127e2578283fd5b6127ee858286016124fc565b95602094909401359450505050565b60006060828403121561280e578081fd5b6128186060612e87565b8251815260208301516020820152604083015160408201528091505092915050565b600081546001808216600081146128585760018114612876576128b4565b60028304607f16865260ff19831660208701526040860193506128b4565b6002830480875261288686612eae565b60005b828110156128aa5781546020828b0101528482019150602081019050612889565b8801602001955050505b50505092915050565b600082516128cf818460208701612eba565b9190910192915050565b6001600160a01b0391909116815260200190565b6001600160a01b039384168152919092166020820152604081019190915260600190565b6001600160a01b03929092168252602082015260400190565b6001600160a01b0392831681529116602082015260400190565b6001600160a01b039d8e1681529b8d1660208d015299909b1660408b015260608a0197909752608089019590955260a088019390935260c087019190915260e08601526101008501526101208401526101408301526101608201929092526101808101919091526101a00190565b901515815260200190565b60006020825282518060208401526129dc816040850160208701612eba565b601f01601f19169190910160400192915050565b600060408252612a03604083018561283a565b8281036020840152612a15818561283a565b95945050505050565b6020808252602d908201527f53796e7468657469633a3a6c69717569646174653a206173736574207072696360408201526c6520697320736173746973667960981b606082015260800190565b60208082526026908201527f4f776e61626c653a206e6577206f776e657220697320746865207a65726f206160408201526564647265737360d01b606082015260800190565b6020808252601b908201527f536166654d6174683a206164646974696f6e206f766572666c6f770000000000604082015260600190565b6020808252602a908201527f53796e7468657469633a3a6d696e7453796e7468657469633a20756e6465722060408201526918dbdb1b185d195c985b60b21b606082015260800190565b60208082526041908201527f53796e7468657469633a3a616464436f6c6c61746572616c3a2063616e6e6f7460408201527f2061646420636f6c6c61746572616c20746f20656d70747920636f6e747261636060820152601d60fa1b608082015260a00190565b60208082526027908201527f53796e7468657469633a3a6c69717569646174653a20726174696f20697320736040820152666173746973667960c81b606082015260800190565b60208082526035908201527f53796e7468657469633a3a72656465656d53796e7468657469633a20616d6f756040820152741b9d08195e18d959591cc818dbdb1b185d195c985b605a1b606082015260800190565b60208082526021908201527f536166654d6174683a206d756c7469706c69636174696f6e206f766572666c6f6040820152607760f81b606082015260800190565b6020808252818101527f4f776e61626c653a2063616c6c6572206973206e6f7420746865206f776e6572604082015260600190565b60208082526047908201527f53796e7468657469633a3a72656d6f7665436f6c6c61746572616c3a2063616e60408201527f6e6f742072656d6f766520636f6c6c61746572616c20746f20656d70747920636060820152661bdb9d1c9858dd60ca1b608082015260a00190565b60208082526030908201527f53796e7468657469633a3a6d696e7453796e7468657469633a207472616e736660408201526f657220746f206164647265737328302960801b606082015260800190565b60208082526024908201527f53796e7468657469633a3a6c69717569646174653a20656d70747920636f6e746040820152631c9858dd60e21b606082015260800190565b60208082526032908201527f53796e7468657469633a3a72656465656d53796e7468657469633a20756e64656040820152717220636f6c6c61746572616c20726174696f60701b606082015260800190565b6020808252603f908201527f53796e7468657469633a3a72656d6f7665436f6c6c61746572616c3a20616d6f60408201527f756e74206578636565647320726571756972656420636f6c6c61746572616c00606082015260800190565b90815260200190565b948552602085019390935260408401919091526060830152608082015260a00190565b60405181810167ffffffffffffffff81118282101715612ea657600080fd5b604052919050565b60009081526020902090565b60005b83811015612ed5578181015183820152602001612ebd565b83811115612ee4576000848401525b50505050565b6001600160a01b03811681146124f957600080fdfea2646970667358221220759a2727ec6b64f757bd8b994fbb3b5e52258077ee1fe6a146005f48ccba51fe64736f6c634300060c0033",
  "linkReferences": {},
  "deployedLinkReferences": {}
}