{
  "_format": "hh-sol-artifact-1",
  "contractName": "Synthetic",
  "sourceName": "contracts/Synthetic.sol",
  "abi": [
    {
      "inputs": [
        {
          "internalType": "contract IERC20",
          "name": "_dolly",
          "type": "address"
        },
        {
          "internalType": "contract IStdReference",
          "name": "_ref",
          "type": "address"
        }
      ],
      "stateMutability": "nonpayable",
      "type": "constructor"
    },
    {
      "anonymous": false,
      "inputs": [
        {
          "indexed": true,
          "internalType": "address",
          "name": "user",
          "type": "address"
        },
        {
          "indexed": false,
          "internalType": "uint256",
          "name": "amount",
          "type": "uint256"
        }
      ],
      "name": "AddCollateral",
      "type": "event"
    },
    {
      "anonymous": false,
      "inputs": [
        {
          "indexed": true,
          "internalType": "address",
          "name": "liquidated",
          "type": "address"
        },
        {
          "indexed": true,
          "internalType": "address",
          "name": "liquidator",
          "type": "address"
        },
        {
          "indexed": true,
          "internalType": "address",
          "name": "syntheticAddress",
          "type": "address"
        },
        {
          "indexed": false,
          "internalType": "uint256",
          "name": "amount",
          "type": "uint256"
        },
        {
          "indexed": false,
          "internalType": "uint256",
          "name": "timestamp",
          "type": "uint256"
        }
      ],
      "name": "Liquidated",
      "type": "event"
    },
    {
      "anonymous": false,
      "inputs": [
        {
          "indexed": false,
          "internalType": "address",
          "name": "minter",
          "type": "address"
        },
        {
          "indexed": true,
          "internalType": "address",
          "name": "syntheticAddress",
          "type": "address"
        },
        {
          "indexed": false,
          "internalType": "uint256",
          "name": "amount",
          "type": "uint256"
        }
      ],
      "name": "MintAsset",
      "type": "event"
    },
    {
      "anonymous": false,
      "inputs": [
        {
          "indexed": true,
          "internalType": "address",
          "name": "previousOwner",
          "type": "address"
        },
        {
          "indexed": true,
          "internalType": "address",
          "name": "newOwner",
          "type": "address"
        }
      ],
      "name": "OwnershipTransferred",
      "type": "event"
    },
    {
      "anonymous": false,
      "inputs": [
        {
          "indexed": true,
          "internalType": "address",
          "name": "syntheticAddress",
          "type": "address"
        },
        {
          "indexed": false,
          "internalType": "uint256",
          "name": "amount",
          "type": "uint256"
        }
      ],
      "name": "RedeemAsset",
      "type": "event"
    },
    {
      "anonymous": false,
      "inputs": [
        {
          "indexed": true,
          "internalType": "address",
          "name": "user",
          "type": "address"
        },
        {
          "indexed": false,
          "internalType": "uint256",
          "name": "amount",
          "type": "uint256"
        }
      ],
      "name": "RemoveCollateral",
      "type": "event"
    },
    {
      "anonymous": false,
      "inputs": [
        {
          "indexed": false,
          "internalType": "address",
          "name": "oldDevAddress",
          "type": "address"
        },
        {
          "indexed": false,
          "internalType": "address",
          "name": "newDevAddress",
          "type": "address"
        }
      ],
      "name": "SetDevAddress",
      "type": "event"
    },
    {
      "inputs": [
        {
          "internalType": "contract IERC20Burnable",
          "name": "_synthetic",
          "type": "address"
        },
        {
          "internalType": "uint256",
          "name": "_addAmount",
          "type": "uint256"
        }
      ],
      "name": "addCollateral",
      "outputs": [],
      "stateMutability": "nonpayable",
      "type": "function"
    },
    {
      "inputs": [
        {
          "internalType": "address",
          "name": "",
          "type": "address"
        }
      ],
      "name": "addressToPairs",
      "outputs": [
        {
          "internalType": "string",
          "name": "",
          "type": "string"
        }
      ],
      "stateMutability": "view",
      "type": "function"
    },
    {
      "inputs": [],
      "name": "bandOracle",
      "outputs": [
        {
          "internalType": "contract IStdReference",
          "name": "",
          "type": "address"
        }
      ],
      "stateMutability": "view",
      "type": "function"
    },
    {
      "inputs": [],
      "name": "collateralRatio",
      "outputs": [
        {
          "internalType": "uint256",
          "name": "",
          "type": "uint256"
        }
      ],
      "stateMutability": "view",
      "type": "function"
    },
    {
      "inputs": [
        {
          "internalType": "address",
          "name": "",
          "type": "address"
        },
        {
          "internalType": "address",
          "name": "",
          "type": "address"
        }
      ],
      "name": "contracts",
      "outputs": [
        {
          "internalType": "address",
          "name": "minter",
          "type": "address"
        },
        {
          "internalType": "contract IERC20Burnable",
          "name": "asset",
          "type": "address"
        },
        {
          "internalType": "contract IERC20",
          "name": "assetBacked",
          "type": "address"
        },
        {
          "internalType": "uint256",
          "name": "assetAmount",
          "type": "uint256"
        },
        {
          "internalType": "uint256",
          "name": "assetBackedAmount",
          "type": "uint256"
        },
        {
          "internalType": "uint256",
          "name": "currentRatio",
          "type": "uint256"
        },
        {
          "internalType": "uint256",
          "name": "willLiquidateAtPrice",
          "type": "uint256"
        },
        {
          "internalType": "uint256",
          "name": "canMintRemainning",
          "type": "uint256"
        },
        {
          "internalType": "uint256",
          "name": "canWithdrawRemainning",
          "type": "uint256"
        },
        {
          "internalType": "uint256",
          "name": "updatedAt",
          "type": "uint256"
        },
        {
          "internalType": "uint256",
          "name": "updatedBlock",
          "type": "uint256"
        },
        {
          "internalType": "uint256",
          "name": "exchangeRateAtMinted",
          "type": "uint256"
        },
        {
          "internalType": "uint256",
          "name": "currentExchangeRate",
          "type": "uint256"
        }
      ],
      "stateMutability": "view",
      "type": "function"
    },
    {
      "inputs": [],
      "name": "denominator",
      "outputs": [
        {
          "internalType": "uint256",
          "name": "",
          "type": "uint256"
        }
      ],
      "stateMutability": "view",
      "type": "function"
    },
    {
      "inputs": [],
      "name": "devAddress",
      "outputs": [
        {
          "internalType": "address",
          "name": "",
          "type": "address"
        }
      ],
      "stateMutability": "view",
      "type": "function"
    },
    {
      "inputs": [],
      "name": "dolly",
      "outputs": [
        {
          "internalType": "contract IERC20",
          "name": "",
          "type": "address"
        }
      ],
      "stateMutability": "view",
      "type": "function"
    },
    {
      "inputs": [
        {
          "internalType": "string",
          "name": "_pairs",
          "type": "string"
        }
      ],
      "name": "getRate",
      "outputs": [
        {
          "internalType": "uint256",
          "name": "",
          "type": "uint256"
        }
      ],
      "stateMutability": "view",
      "type": "function"
    },
    {
      "inputs": [
        {
          "internalType": "string",
          "name": "_pairs",
          "type": "string"
        }
      ],
      "name": "isSupported",
      "outputs": [
        {
          "internalType": "bool",
          "name": "",
          "type": "bool"
        }
      ],
      "stateMutability": "view",
      "type": "function"
    },
    {
      "inputs": [
        {
          "internalType": "contract IERC20Burnable",
          "name": "_synthetic",
          "type": "address"
        },
        {
          "internalType": "address",
          "name": "_minter",
          "type": "address"
        }
      ],
      "name": "liquidate",
      "outputs": [],
      "stateMutability": "nonpayable",
      "type": "function"
    },
    {
      "inputs": [],
      "name": "liquidationRatio",
      "outputs": [
        {
          "internalType": "uint256",
          "name": "",
          "type": "uint256"
        }
      ],
      "stateMutability": "view",
      "type": "function"
    },
    {
      "inputs": [],
      "name": "liquidatorRewardRatio",
      "outputs": [
        {
          "internalType": "uint256",
          "name": "",
          "type": "uint256"
        }
      ],
      "stateMutability": "view",
      "type": "function"
    },
    {
      "inputs": [
        {
          "internalType": "contract IERC20Burnable",
          "name": "_synthetic",
          "type": "address"
        },
        {
          "internalType": "uint256",
          "name": "_amount",
          "type": "uint256"
        },
        {
          "internalType": "uint256",
          "name": "_backedAmount",
          "type": "uint256"
        }
      ],
      "name": "mintSynthetic",
      "outputs": [],
      "stateMutability": "nonpayable",
      "type": "function"
    },
    {
      "inputs": [],
      "name": "owner",
      "outputs": [
        {
          "internalType": "address",
          "name": "",
          "type": "address"
        }
      ],
      "stateMutability": "view",
      "type": "function"
    },
    {
      "inputs": [
        {
          "internalType": "string",
          "name": "",
          "type": "string"
        }
      ],
      "name": "pairsToAddress",
      "outputs": [
        {
          "internalType": "address",
          "name": "",
          "type": "address"
        }
      ],
      "stateMutability": "view",
      "type": "function"
    },
    {
      "inputs": [
        {
          "internalType": "string",
          "name": "",
          "type": "string"
        },
        {
          "internalType": "uint256",
          "name": "",
          "type": "uint256"
        }
      ],
      "name": "pairsToQuote",
      "outputs": [
        {
          "internalType": "string",
          "name": "",
          "type": "string"
        }
      ],
      "stateMutability": "view",
      "type": "function"
    },
    {
      "inputs": [
        {
          "internalType": "address",
          "name": "",
          "type": "address"
        },
        {
          "internalType": "uint256",
          "name": "",
          "type": "uint256"
        }
      ],
      "name": "pendingLiquidate",
      "outputs": [
        {
          "internalType": "address",
          "name": "",
          "type": "address"
        }
      ],
      "stateMutability": "view",
      "type": "function"
    },
    {
      "inputs": [],
      "name": "platfromFeeRatio",
      "outputs": [
        {
          "internalType": "uint256",
          "name": "",
          "type": "uint256"
        }
      ],
      "stateMutability": "view",
      "type": "function"
    },
    {
      "inputs": [
        {
          "internalType": "contract IERC20Burnable",
          "name": "_synthetic",
          "type": "address"
        },
        {
          "internalType": "uint256",
          "name": "_amount",
          "type": "uint256"
        }
      ],
      "name": "redeemSynthetic",
      "outputs": [],
      "stateMutability": "nonpayable",
      "type": "function"
    },
    {
      "inputs": [],
      "name": "remainingToMinterRatio",
      "outputs": [
        {
          "internalType": "uint256",
          "name": "",
          "type": "uint256"
        }
      ],
      "stateMutability": "view",
      "type": "function"
    },
    {
      "inputs": [
        {
          "internalType": "contract IERC20Burnable",
          "name": "_synthetic",
          "type": "address"
        },
        {
          "internalType": "uint256",
          "name": "_removeBackedAmount",
          "type": "uint256"
        }
      ],
      "name": "removeCollateral",
      "outputs": [],
      "stateMutability": "nonpayable",
      "type": "function"
    },
    {
      "inputs": [
        {
          "internalType": "contract IERC20Burnable",
          "name": "_synthetic",
          "type": "address"
        },
        {
          "internalType": "uint256",
          "name": "_removeAmount",
          "type": "uint256"
        }
      ],
      "name": "removeLowerCollateral",
      "outputs": [],
      "stateMutability": "nonpayable",
      "type": "function"
    },
    {
      "inputs": [],
      "name": "renounceOwnership",
      "outputs": [],
      "stateMutability": "nonpayable",
      "type": "function"
    },
    {
      "inputs": [
        {
          "internalType": "address",
          "name": "_syntheticAddress",
          "type": "address"
        },
        {
          "internalType": "string",
          "name": "_pairs",
          "type": "string"
        }
      ],
      "name": "setAddressToPairs",
      "outputs": [],
      "stateMutability": "nonpayable",
      "type": "function"
    },
    {
      "inputs": [
        {
          "internalType": "address",
          "name": "_devAddress",
          "type": "address"
        }
      ],
      "name": "setDevAddress",
      "outputs": [],
      "stateMutability": "nonpayable",
      "type": "function"
    },
    {
      "inputs": [
        {
          "internalType": "string",
          "name": "_pairs",
          "type": "string"
        },
        {
          "internalType": "address",
          "name": "_syntheticAddress",
          "type": "address"
        }
      ],
      "name": "setPairsToAddress",
      "outputs": [],
      "stateMutability": "nonpayable",
      "type": "function"
    },
    {
      "inputs": [
        {
          "internalType": "string",
          "name": "_pairs",
          "type": "string"
        },
        {
          "internalType": "string[2]",
          "name": "baseAndQuote",
          "type": "string[2]"
        }
      ],
      "name": "setPairsToQuote",
      "outputs": [],
      "stateMutability": "nonpayable",
      "type": "function"
    },
    {
      "inputs": [],
      "name": "systheticAsset",
      "outputs": [
        {
          "internalType": "contract IERC20Burnable",
          "name": "",
          "type": "address"
        }
      ],
      "stateMutability": "view",
      "type": "function"
    },
    {
      "inputs": [
        {
          "internalType": "address",
          "name": "newOwner",
          "type": "address"
        }
      ],
      "name": "transferOwnership",
      "outputs": [],
      "stateMutability": "nonpayable",
      "type": "function"
    },
    {
      "inputs": [
        {
          "internalType": "contract IERC20Burnable",
          "name": "_synthetic",
          "type": "address"
        },
        {
          "internalType": "address",
          "name": "_minter",
          "type": "address"
        }
      ],
      "name": "viewRewardFromLiquidate",
      "outputs": [
        {
          "internalType": "uint256",
          "name": "",
          "type": "uint256"
        },
        {
          "internalType": "uint256",
          "name": "",
          "type": "uint256"
        },
        {
          "internalType": "uint256",
          "name": "",
          "type": "uint256"
        },
        {
          "internalType": "uint256",
          "name": "",
          "type": "uint256"
        },
        {
          "internalType": "uint256",
          "name": "",
          "type": "uint256"
        }
      ],
      "stateMutability": "view",
      "type": "function"
    }
  ],
  "bytecode": "0x6080604052670de0b6b3a76400006007556714d1120d7b160000600855671158e460913d000060095566b1a2bc2ec50000600a5566b1a2bc2ec50000600b55670c7d713b49da0000600c553480156200005757600080fd5b5060405162003279380380620032798339810160408190526200007a91620003bd565b6000620000866200025e565b600080546001600160a01b0319166001600160a01b0383169081178255604051929350917f8be0079c531659141344cd1fd0a4f28419497f9722a3daafe3b4186f6b6457e0908290a350600280546001600160a01b038085166001600160a01b03199283161790925560038054928416929091169190911781556040805160808101825260048183018181526354534c4160e01b6060840152825282518084018452938452621554d160ea1b60208581019190915282019390935290519091906200015190620003fb565b9081526040519081900360200190206200016d91600262000262565b507365cac0f09efdb88195a002e8dd4cbf6ec9bc7f6060056040516200019390620003fb565b908152604080516020928190038301812080546001600160a01b0319166001600160a01b039590951694909417909355828101905260088252671514d3104bd554d160c21b8183019081527365cac0f09efdb88195a002e8dd4cbf6ec9bc7f60600052600690915290516200022a917fb5aea66d9b9a38ebc3abed41876b8c9b8e80920b3fb821e1e214caaf12318c2391620002b9565b50620002356200025e565b600d80546001600160a01b0319166001600160a01b039290921691909117905550620004259050565b3390565b8260028101928215620002a7579160200282015b82811115620002a7578251805162000296918491602090910190620002b9565b509160200191906001019062000276565b50620002b59291506200033a565b5090565b828054600181600116156101000203166002900490600052602060002090601f016020900481019282601f10620002fc57805160ff19168380011785556200032c565b828001600101855582156200032c579182015b828111156200032c5782518255916020019190600101906200030f565b50620002b59291506200035b565b80821115620002b557600062000351828262000372565b506001016200033a565b5b80821115620002b557600081556001016200035c565b50805460018160011615610100020316600290046000825580601f106200039a5750620003ba565b601f016020900490600052602060002090810190620003ba91906200035b565b50565b60008060408385031215620003d0578182fd5b8251620003dd816200040f565b6020840151909250620003f0816200040f565b809150509250929050565b671514d3104bd554d160c21b815260080190565b6001600160a01b0381168114620003ba57600080fd5b612e4480620004356000396000f3fe608060405234801561001057600080fd5b50600436106101e55760003560e01c80638223c7701161010f578063b4eae1cb116100a2578063e150f64711610071578063e150f647146103b2578063f2fde38b146103c5578063f3a014a2146103d8578063fcb589d5146103f8576101e5565b8063b4eae1cb14610371578063bad8269014610379578063bf15c3e11461038c578063d0d41fe11461039f576101e5565b8063956dcd1f116100de578063956dcd1f1461033b57806396ce0795146103435780639a12944c1461034b578063b32ec5461461035e576101e5565b80638223c770146102fa57806386b9d81f1461030d578063876467f8146103205780638da5cb5b14610333576101e5565b80634e55b8a7116101875780636d75b9ee116101565780636d75b9ee146102c45780636e1aa51b146102d7578063715018a6146102df5780637bda6e28146102e7576101e5565b80634e55b8a71461028c5780635bcbdc961461029457806365c3ad00146102a95780636c0daed8146102b1576101e5565b806314057fca116101c357806314057fca146102305780631775765f1461025c5780633ad10ef6146102645780633f97bc5b1461026c576101e5565b8063095f1404146101ea5780630b87d86e14610208578063120e4d6d1461021d575b600080fd5b6101f261041c565b6040516101ff9190612d6a565b60405180910390f35b610210610422565b6040516101ff91906127e8565b61021061022b366004612516565b610431565b61024361023e366004612490565b610466565b6040516101ff9d9c9b9a99989796959493929190612853565b6101f26104e6565b6102106104ec565b61027f61027a3660046126c9565b6104fb565b6040516101ff91906128cc565b6101f26105b2565b6102a76102a2366004612627565b6105b8565b005b6101f2610626565b6101f26102bf3660046125a7565b61062c565b6102a76102d2366004612516565b610717565b6102106109e1565b6102a76109f0565b6102a76102f53660046125e2565b610a6f565b6102a76103083660046124c8565b610ae8565b6102a761031b366004612561565b610b46565b6102a761032e366004612516565b610fa8565b61021061123f565b61021061124e565b6101f261125d565b6102a7610359366004612573565b611263565b6102a761036c366004612516565b611591565b6101f2611adf565b6102106103873660046125a7565b611ae5565b61027f61039a366004612474565b611b0b565b6102a76103ad366004612474565b611b73565b6102a76103c0366004612516565b611c07565b6102a76103d3366004612474565b611e7d565b6103eb6103e63660046125a7565b611f33565b6040516101ff91906128c1565b61040b610406366004612561565b611f50565b6040516101ff959493929190612d73565b600a5481565b6002546001600160a01b031681565b600f602052816000526040600020818154811061044a57fe5b6000918252602090912001546001600160a01b03169150829050565b600e602090815260009283526040808420909152908252902080546001820154600283015460038401546004850154600586015460068701546007880154600889015460098a0154600a8b0154600b8c0154600c909c01546001600160a01b039b8c169c9a8c169b9099169997989697959694959394929391929091908d565b60095481565b600d546001600160a01b031681565b81516020818401810180516004825292820191850191909120919052816002811061052257fe5b01805460408051602060026001851615610100026000190190941693909304601f810184900484028201840190925281815294509192508301828280156105aa5780601f1061057f576101008083540402835291602001916105aa565b820191906000526020600020905b81548152906001019060200180831161058d57829003601f168201915b505050505081565b600c5481565b6105c0612109565b6000546001600160a01b039081169116146105f65760405162461bcd60e51b81526004016105ed90612b85565b60405180910390fd5b8060048360405161060791906127cc565b9081526040519081900360200190206106219160026122a7565b505050565b600b5481565b600061063782611f33565b61064057600080fd5b6106486122f7565b6003546040516001600160a01b03909116906365555bcc9060049061066e9087906127cc565b90815260405190819003602001902060000160048660405161069091906127cc565b9081526040519081900360200190206001016040518363ffffffff1660e01b81526004016106bf9291906128ff565b60606040518083038186803b1580156106d757600080fd5b505afa1580156106eb573d6000803e3d6000fd5b505050506040513d601f19601f8201168201806040525081019061070f919061270c565b519392505050565b6000600e6000610725612109565b6001600160a01b03166001600160a01b031681526020019081526020016000206000846001600160a01b03166001600160a01b031681526020019081526020016000209050600081600301541161078e5760405162461bcd60e51b81526004016105ed90612a41565b600481015461079d908361210d565b60048201556001600160a01b038316600090815260066020908152604080832080548251601f6002600019610100600186161502019093169290920491820185900485028101850190935280835261084a938301828280156108405780601f1061081557610100808354040283529160200191610840565b820191906000526020600020905b81548152906001019060200180831161082357829003601f168201915b505050505061062c565b9050600061087160075461086b84866003015461213b90919063ffffffff16565b90612175565b9050600061089060075461086b6008548561213b90919063ffffffff16565b905060006108ab8286600401546121b790919063ffffffff16565b6002549091506001600160a01b03166323b872dd6108c7612109565b30896040518463ffffffff1660e01b81526004016108e7939291906127fc565b602060405180830381600087803b15801561090157600080fd5b505af1158015610915573d6000803e3d6000fd5b505050506040513d601f19601f820116820180604052508101906109399190612541565b61094257600080fd5b6109508560040154846121f9565b60058601819055610962908590612219565b60068601556008850181905561097881846121f9565b6007860155600c850184905542600986015543600a860155610998612109565b6001600160a01b03167f2ac90482c3b6bea30a2c085cf093016bad7f970d91c5fd233e6b848d3e231dc3876040516109d09190612d6a565b60405180910390a250505050505050565b6001546001600160a01b031681565b6109f8612109565b6000546001600160a01b03908116911614610a255760405162461bcd60e51b81526004016105ed90612b85565b600080546040516001600160a01b03909116907f8be0079c531659141344cd1fd0a4f28419497f9722a3daafe3b4186f6b6457e0908390a3600080546001600160a01b0319169055565b610a77612109565b6000546001600160a01b03908116911614610aa45760405162461bcd60e51b81526004016105ed90612b85565b80600583604051610ab591906127cc565b90815260405190819003602001902080546001600160a01b03929092166001600160a01b03199092169190911790555050565b610af0612109565b6000546001600160a01b03908116911614610b1d5760405162461bcd60e51b81526004016105ed90612b85565b6001600160a01b0382166000908152600660209081526040909120825161062192840190612318565b6001600160a01b038082166000908152600e60209081526040808320868516845290915290208054909116610b8d5760405162461bcd60e51b81526004016105ed90612c77565b600954816005015410610bb25760405162461bcd60e51b81526004016105ed90612aa8565b6001600160a01b038316600090815260066020908152604080832080548251601f60026000196101006001861615020190931692909204918201859004850281018501909352808352610c25938301828280156108405780601f1061081557610100808354040283529160200191610840565b905080826006015410610c4a5760405162461bcd60e51b81526004016105ed9061292d565b6000610c6960075461086b84866003015461213b90919063ffffffff16565b90506000610c848285600401546121b790919063ffffffff16565b90506000610ca360075461086b600c548561213b90919063ffffffff16565b90506000610cc260075461086b600a548661213b90919063ffffffff16565b90506000610ce160075461086b600b548761213b90919063ffffffff16565b6002549091506001600160a01b03166323b872dd610cfd612109565b30886040518463ffffffff1660e01b8152600401610d1d939291906127fc565b602060405180830381600087803b158015610d3757600080fd5b505af1158015610d4b573d6000803e3d6000fd5b505050506040513d601f19601f82011682018060405250810190610d6f9190612541565b50600254875460405163a9059cbb60e01b81526001600160a01b039283169263a9059cbb92610da5929116908790600401612820565b602060405180830381600087803b158015610dbf57600080fd5b505af1158015610dd3573d6000803e3d6000fd5b505050506040513d601f19601f82011682018060405250810190610df79190612541565b506002546001600160a01b031663a9059cbb610e11612109565b846040518363ffffffff1660e01b8152600401610e2f929190612820565b602060405180830381600087803b158015610e4957600080fd5b505af1158015610e5d573d6000803e3d6000fd5b505050506040513d601f19601f82011682018060405250810190610e819190612541565b50600254600d5460405163a9059cbb60e01b81526001600160a01b039283169263a9059cbb92610eb8929116908590600401612820565b602060405180830381600087803b158015610ed257600080fd5b505af1158015610ee6573d6000803e3d6000fd5b505050506040513d601f19601f82011682018060405250810190610f0a9190612541565b5050506001600160a01b039586166000908152600e602090815260408083209990981682529790975250505091832080546001600160a01b0319908116825560018201805482169055600282018054909116905560038101849055600481018490556005810184905560068101849055600781018490556008810184905560098101849055600a8101849055600b8101849055600c01929092555050565b6000600e6000610fb6612109565b6001600160a01b03166001600160a01b031681526020019081526020016000206000846001600160a01b03166001600160a01b031681526020019081526020016000209050600081600301541161101f5760405162461bcd60e51b81526004016105ed90612bba565b600481015461102e90836121b7565b600482015560088101548211156110575760405162461bcd60e51b81526004016105ed90612d0d565b6001600160a01b038316600090815260066020908152604080832080548251601f600260001961010060018616150201909316929092049182018590048502810185019093528083526110ca938301828280156108405780601f1061081557610100808354040283529160200191610840565b905060006110eb60075461086b84866003015461213b90919063ffffffff16565b9050600061110a60075461086b6008548561213b90919063ffffffff16565b905060006111258286600401546121b790919063ffffffff16565b90506002546001600160a01b031663a9059cbb611140612109565b886040518363ffffffff1660e01b815260040161115e929190612820565b602060405180830381600087803b15801561117857600080fd5b505af115801561118c573d6000803e3d6000fd5b505050506040513d601f19601f820116820180604052508101906111b09190612541565b506111bf8560040154846121f9565b600586018190556111d1908590612219565b6006860155600885018190556111e781846121f9565b6007860155600c850184905542600986015543600a860155611207612109565b6001600160a01b03167fe25410a4059619c9594dc6f022fe231b02aaea733f689e7ab0cd21b3d4d0eb54876040516109d09190612d6a565b6000546001600160a01b031690565b6003546001600160a01b031681565b60075481565b6000600e6000611271612109565b6001600160a01b0390811682526020808301939093526040918201600090812088831682529093529120805490925016156112be5760405162461bcd60e51b81526004016105ed90612c27565b6001600160a01b038416600090815260066020908152604080832080548251601f60026000196101006001861615020190931692909204918201859004850281018501909352808352611331938301828280156108405780601f1061081557610100808354040283529160200191610840565b9050600061134e60075461086b848861213b90919063ffffffff16565b9050600061136d60075461086b6008548561213b90919063ffffffff16565b90508085101561138f5760405162461bcd60e51b81526004016105ed906129f7565b600061139b86836121b7565b9050876001600160a01b03166340c10f196113b4612109565b896040518363ffffffff1660e01b81526004016113d2929190612820565b600060405180830381600087803b1580156113ec57600080fd5b505af1158015611400573d6000803e3d6000fd5b50506002546001600160a01b031691506323b872dd905061141f612109565b30896040518463ffffffff1660e01b815260040161143f939291906127fc565b602060405180830381600087803b15801561145957600080fd5b505af115801561146d573d6000803e3d6000fd5b505050506040513d601f19601f820116820180604052508101906114919190612541565b61149a57600080fd5b6114a2612109565b85546001600160a01b03199081166001600160a01b0392831617875560018701805482168b84161790556002805490880180549190931691161790556003850187905560048501869055600b8501849055600c850184905561150486846121f9565b60058601819055611516908590612219565b60068601556008850181905561152c81846121f9565b600786015542600986015543600a8601556001600160a01b0388167fd7918d04fa8d2763da038d81b4ab65ea7b9eb8e5e3b199c548142ac304a8ad6f611570612109565b8960405161157f929190612820565b60405180910390a25050505050505050565b6000600e600061159f612109565b6001600160a01b03166001600160a01b031681526020019081526020016000206000846001600160a01b03166001600160a01b03168152602001908152602001600020905081816003015410156116085760405162461bcd60e51b81526004016105ed90612aef565b80600301548214156117ea57826001600160a01b03166379cc679061162b612109565b846040518363ffffffff1660e01b8152600401611649929190612820565b600060405180830381600087803b15801561166357600080fd5b505af1158015611677573d6000803e3d6000fd5b50506002546001600160a01b0316915063a9059cbb9050611696612109565b83600401546040518363ffffffff1660e01b81526004016116b8929190612820565b602060405180830381600087803b1580156116d257600080fd5b505af11580156116e6573d6000803e3d6000fd5b505050506040513d601f19601f8201168201806040525081019061170a9190612541565b50600e6000611717612109565b6001600160a01b039081168252602080830193909352604091820160009081209187168082529190935281832080546001600160a01b0319908116825560018201805482169055600282018054909116905560038101849055600481018490556005810184905560068101849055600781018490556008810184905560098101849055600a8101849055600b8101849055600c0192909255517fb99b782c502642cbb60ce7d75f893727e5ef94003f2f9e56bcbbb013615e193e906117dd908590612d6a565b60405180910390a2610621565b60006117fa8383600301546121f9565b90506000600754828460030154028161180f57fe5b0490506000600754838560040154028161182557fe5b6001600160a01b038816600090815260066020908152604080832080548251601f6002600019610100600186161502019093169290920491820185900485028101850190935280835295909404955091936118a193918301828280156108405780601f1061081557610100808354040283529160200191610840565b905060006118bc8387600401546121b790919063ffffffff16565b905060006118d78588600301546121b790919063ffffffff16565b905060006118f460075461086b868561213b90919063ffffffff16565b9050600061191360075461086b6008548561213b90919063ffffffff16565b9050808410156119355760405162461bcd60e51b81526004016105ed90612cbb565b600061194185836121b7565b90508b6001600160a01b03166379cc679061195a612109565b8a6040518363ffffffff1660e01b8152600401611978929190612820565b600060405180830381600087803b15801561199257600080fd5b505af11580156119a6573d6000803e3d6000fd5b50506002546001600160a01b0316915063a9059cbb90506119c5612109565b896040518363ffffffff1660e01b81526004016119e3929190612820565b602060405180830381600087803b1580156119fd57600080fd5b505af1158015611a11573d6000803e3d6000fd5b505050506040513d601f19601f82011682018060405250810190611a359190612541565b5060038a0184905560048a01859055611a4e85846121f9565b60058b01819055611a60908790612219565b60068b015560088a01819055611a7681846121f9565b60078b0155600c8a018690554260098b015543600a8b01556040516001600160a01b038d16907fb99b782c502642cbb60ce7d75f893727e5ef94003f2f9e56bcbbb013615e193e90611ac9908e90612d6a565b60405180910390a2505050505050505050505050565b60085481565b80516020818301810180516005825292820191909301209152546001600160a01b031681565b60066020908152600091825260409182902080548351601f6002600019610100600186161502019093169290920491820184900484028101840190945280845290918301828280156105aa5780601f1061057f576101008083540402835291602001916105aa565b611b7b612109565b6000546001600160a01b03908116911614611ba85760405162461bcd60e51b81526004016105ed90612b85565b600d80546001600160a01b038381166001600160a01b03198316179092556040519116907f618c54559e94f1499a808aad71ee8729f8e74e8c48e979616328ce493a1a52e790611bfb9083908590612839565b60405180910390a15050565b611c0f612109565b6000546001600160a01b03908116911614611c3c5760405162461bcd60e51b81526004016105ed90612b85565b6000600e6000611c4a612109565b6001600160a01b03166001600160a01b031681526020019081526020016000206000846001600160a01b03166001600160a01b0316815260200190815260200160002090506000816003015411611cb35760405162461bcd60e51b81526004016105ed90612bba565b6004810154611cc290836121b7565b60048201556001600160a01b038316600090815260066020908152604080832080548251601f60026000196101006001861615020190931692909204918201859004850281018501909352808352611d3a938301828280156108405780601f1061081557610100808354040283529160200191610840565b90506000611d5b60075461086b84866003015461213b90919063ffffffff16565b6002549091506001600160a01b031663a9059cbb611d77612109565b866040518363ffffffff1660e01b8152600401611d95929190612820565b602060405180830381600087803b158015611daf57600080fd5b505af1158015611dc3573d6000803e3d6000fd5b505050506040513d601f19601f82011682018060405250810190611de79190612541565b50611df68360040154826121f9565b60058401819055611e08908390612219565b60068401556000600884018190556007840155600c830182905542600984015543600a840155611e36612109565b6001600160a01b03167fe25410a4059619c9594dc6f022fe231b02aaea733f689e7ab0cd21b3d4d0eb5485604051611e6e9190612d6a565b60405180910390a25050505050565b611e85612109565b6000546001600160a01b03908116911614611eb25760405162461bcd60e51b81526004016105ed90612b85565b6001600160a01b038116611ed85760405162461bcd60e51b81526004016105ed9061297a565b600080546040516001600160a01b03808516939216917f8be0079c531659141344cd1fd0a4f28419497f9722a3daafe3b4186f6b6457e091a3600080546001600160a01b0319166001600160a01b0392909216919091179055565b600080600483604051611f4691906127cc565b5260021192915050565b6001600160a01b038082166000908152600e602090815260408083208685168452909152812080549192839283928392839216611f9f5760405162461bcd60e51b81526004016105ed90612c77565b600954816005015410611fc45760405162461bcd60e51b81526004016105ed90612aa8565b6001600160a01b038816600090815260066020908152604080832080548251601f60026000196101006001861615020190931692909204918201859004850281018501909352808352612037938301828280156108405780601f1061081557610100808354040283529160200191610840565b90508082600601541061205c5760405162461bcd60e51b81526004016105ed9061292d565b600061207b60075461086b84866003015461213b90919063ffffffff16565b905060006120968285600401546121b790919063ffffffff16565b905060006120b560075461086b600c548561213b90919063ffffffff16565b905060006120d460075461086b600a548661213b90919063ffffffff16565b905060006120f360075461086b600b548761213b90919063ffffffff16565b949e939d50919b50995091975095505050505050565b3390565b6000828201838110156121325760405162461bcd60e51b81526004016105ed906129c0565b90505b92915050565b60008261214a57506000612135565b8282028284828161215757fe5b04146121325760405162461bcd60e51b81526004016105ed90612b44565b600061213283836040518060400160405280601a81526020017f536166654d6174683a206469766973696f6e206279207a65726f000000000000815250612244565b600061213283836040518060400160405280601e81526020017f536166654d6174683a207375627472616374696f6e206f766572666c6f77000081525061227b565b6007546000906121329061086b816122138683898461213b565b9061213b565b600061213260075461086b61223d60075460095403866121b790919063ffffffff16565b869061213b565b600081836122655760405162461bcd60e51b81526004016105ed91906128cc565b50600083858161227157fe5b0495945050505050565b6000818484111561229f5760405162461bcd60e51b81526004016105ed91906128cc565b505050900390565b82600281019282156122e7579160200282015b828111156122e757825180516122d7918491602090910190612318565b50916020019190600101906122ba565b506122f3929150612392565b5090565b60405180606001604052806000815260200160008152602001600081525090565b828054600181600116156101000203166002900490600052602060002090601f016020900481019282601f1061235957805160ff1916838001178555612386565b82800160010185558215612386579182015b8281111561238657825182559160200191906001019061236b565b506122f39291506123af565b808211156122f35760006123a682826123c4565b50600101612392565b5b808211156122f357600081556001016123b0565b50805460018160011615610100020316600290046000825580601f106123ea5750612408565b601f01602090049060005260206000209081019061240891906123af565b50565b600082601f83011261241b578081fd5b813567ffffffffffffffff811115612431578182fd5b612444601f8201601f1916602001612d96565b915080825283602082850101111561245b57600080fd5b8060208401602084013760009082016020015292915050565b600060208284031215612485578081fd5b813561213281612df9565b600080604083850312156124a2578081fd5b82356124ad81612df9565b915060208301356124bd81612df9565b809150509250929050565b600080604083850312156124da578182fd5b82356124e581612df9565b9150602083013567ffffffffffffffff811115612500578182fd5b61250c8582860161240b565b9150509250929050565b60008060408385031215612528578182fd5b823561253381612df9565b946020939093013593505050565b600060208284031215612552578081fd5b81518015158114612132578182fd5b600080604083850312156124a2578182fd5b600080600060608486031215612587578081fd5b833561259281612df9565b95602085013595506040909401359392505050565b6000602082840312156125b8578081fd5b813567ffffffffffffffff8111156125ce578182fd5b6125da8482850161240b565b949350505050565b600080604083850312156125f4578182fd5b823567ffffffffffffffff81111561260a578283fd5b6126168582860161240b565b92505060208301356124bd81612df9565b60008060408385031215612639578182fd5b823567ffffffffffffffff80821115612650578384fd5b61265c8683870161240b565b9350602091508185013581811115612672578384fd5b85019050601f81018613612684578283fd5b61268e6040612d96565b8082855b60028110156126ba576126a88a8335870161240b565b84529285019290850190600101612692565b50959890975095505050505050565b600080604083850312156126db578182fd5b823567ffffffffffffffff8111156126f1578283fd5b6126fd8582860161240b565b95602094909401359450505050565b60006060828403121561271d578081fd5b6127276060612d96565b8251815260208301516020820152604083015160408201528091505092915050565b600081546001808216600081146127675760018114612785576127c3565b60028304607f16865260ff19831660208701526040860193506127c3565b6002830480875261279586612dbd565b60005b828110156127b95781546020828b0101528482019150602081019050612798565b8801602001955050505b50505092915050565b600082516127de818460208701612dc9565b9190910192915050565b6001600160a01b0391909116815260200190565b6001600160a01b039384168152919092166020820152604081019190915260600190565b6001600160a01b03929092168252602082015260400190565b6001600160a01b0392831681529116602082015260400190565b6001600160a01b039d8e1681529b8d1660208d015299909b1660408b015260608a0197909752608089019590955260a088019390935260c087019190915260e08601526101008501526101208401526101408301526101608201929092526101808101919091526101a00190565b901515815260200190565b60006020825282518060208401526128eb816040850160208701612dc9565b601f01601f19169190910160400192915050565b6000604082526129126040830185612749565b82810360208401526129248185612749565b95945050505050565b6020808252602d908201527f53796e7468657469633a3a6c69717569646174653a206173736574207072696360408201526c6520697320736173746973667960981b606082015260800190565b60208082526026908201527f4f776e61626c653a206e6577206f776e657220697320746865207a65726f206160408201526564647265737360d01b606082015260800190565b6020808252601b908201527f536166654d6174683a206164646974696f6e206f766572666c6f770000000000604082015260600190565b6020808252602a908201527f53796e7468657469633a3a6d696e7453796e7468657469633a20756e6465722060408201526918dbdb1b185d195c985b60b21b606082015260800190565b60208082526041908201527f53796e7468657469633a3a616464436f6c6c61746572616c3a2063616e6e6f7460408201527f2061646420636f6c6c61746572616c20746f20656d70747920636f6e747261636060820152601d60fa1b608082015260a00190565b60208082526027908201527f53796e7468657469633a3a6c69717569646174653a20726174696f20697320736040820152666173746973667960c81b606082015260800190565b60208082526035908201527f53796e7468657469633a3a72656465656d53796e7468657469633a20616d6f756040820152741b9d08195e18d959591cc818dbdb1b185d195c985b605a1b606082015260800190565b60208082526021908201527f536166654d6174683a206d756c7469706c69636174696f6e206f766572666c6f6040820152607760f81b606082015260800190565b6020808252818101527f4f776e61626c653a2063616c6c6572206973206e6f7420746865206f776e6572604082015260600190565b60208082526047908201527f53796e7468657469633a3a72656d6f7665436f6c6c61746572616c3a2063616e60408201527f6e6f742072656d6f766520636f6c6c61746572616c20746f20656d70747920636060820152661bdb9d1c9858dd60ca1b608082015260a00190565b60208082526030908201527f53796e7468657469633a3a6d696e7453796e7468657469633a207472616e736660408201526f657220746f206164647265737328302960801b606082015260800190565b60208082526024908201527f53796e7468657469633a3a6c69717569646174653a20656d70747920636f6e746040820152631c9858dd60e21b606082015260800190565b60208082526032908201527f53796e7468657469633a3a72656465656d53796e7468657469633a20756e64656040820152717220636f6c6c61746572616c20726174696f60701b606082015260800190565b6020808252603f908201527f53796e7468657469633a3a72656d6f7665436f6c6c61746572616c3a20616d6f60408201527f756e74206578636565647320726571756972656420636f6c6c61746572616c00606082015260800190565b90815260200190565b948552602085019390935260408401919091526060830152608082015260a00190565b60405181810167ffffffffffffffff81118282101715612db557600080fd5b604052919050565b60009081526020902090565b60005b83811015612de4578181015183820152602001612dcc565b83811115612df3576000848401525b50505050565b6001600160a01b038116811461240857600080fdfea2646970667358221220e012d490b41a2b2f10b20d061895d9f1fddbaf04c906a50e1618f31926ac675e64736f6c634300060c0033",
  "linkReferences": {},
  "deployedLinkReferences": {}
}