{
  "_format": "hh-sol-artifact-1",
  "contractName": "Synthetic",
  "sourceName": "contracts/Synthetic.sol",
  "abi": [
    {
      "inputs": [
        {
          "internalType": "contract IERC20",
          "name": "_dolly",
          "type": "address"
        },
        {
          "internalType": "contract IStdReference",
          "name": "_ref",
          "type": "address"
        }
      ],
      "stateMutability": "nonpayable",
      "type": "constructor"
    },
    {
      "anonymous": false,
      "inputs": [
        {
          "indexed": true,
          "internalType": "address",
          "name": "user",
          "type": "address"
        },
        {
          "indexed": false,
          "internalType": "uint256",
          "name": "amount",
          "type": "uint256"
        }
      ],
      "name": "AddCollateral",
      "type": "event"
    },
    {
      "anonymous": false,
      "inputs": [
        {
          "indexed": true,
          "internalType": "address",
          "name": "liquidated",
          "type": "address"
        },
        {
          "indexed": true,
          "internalType": "address",
          "name": "liquidator",
          "type": "address"
        },
        {
          "indexed": true,
          "internalType": "address",
          "name": "syntheticAddress",
          "type": "address"
        },
        {
          "indexed": false,
          "internalType": "uint256",
          "name": "amount",
          "type": "uint256"
        },
        {
          "indexed": false,
          "internalType": "uint256",
          "name": "timestamp",
          "type": "uint256"
        }
      ],
      "name": "Liquidated",
      "type": "event"
    },
    {
      "anonymous": false,
      "inputs": [
        {
          "indexed": false,
          "internalType": "address",
          "name": "minter",
          "type": "address"
        },
        {
          "indexed": true,
          "internalType": "address",
          "name": "syntheticAddress",
          "type": "address"
        },
        {
          "indexed": false,
          "internalType": "uint256",
          "name": "amount",
          "type": "uint256"
        }
      ],
      "name": "MintAsset",
      "type": "event"
    },
    {
      "anonymous": false,
      "inputs": [
        {
          "indexed": true,
          "internalType": "address",
          "name": "previousOwner",
          "type": "address"
        },
        {
          "indexed": true,
          "internalType": "address",
          "name": "newOwner",
          "type": "address"
        }
      ],
      "name": "OwnershipTransferred",
      "type": "event"
    },
    {
      "anonymous": false,
      "inputs": [
        {
          "indexed": false,
          "internalType": "address",
          "name": "account",
          "type": "address"
        }
      ],
      "name": "Paused",
      "type": "event"
    },
    {
      "anonymous": false,
      "inputs": [
        {
          "indexed": true,
          "internalType": "address",
          "name": "syntheticAddress",
          "type": "address"
        },
        {
          "indexed": false,
          "internalType": "uint256",
          "name": "amount",
          "type": "uint256"
        }
      ],
      "name": "RedeemAsset",
      "type": "event"
    },
    {
      "anonymous": false,
      "inputs": [
        {
          "indexed": true,
          "internalType": "address",
          "name": "user",
          "type": "address"
        },
        {
          "indexed": false,
          "internalType": "uint256",
          "name": "amount",
          "type": "uint256"
        }
      ],
      "name": "RemoveCollateral",
      "type": "event"
    },
    {
      "anonymous": false,
      "inputs": [
        {
          "indexed": false,
          "internalType": "uint256",
          "name": "oldCollateralRatio",
          "type": "uint256"
        },
        {
          "indexed": false,
          "internalType": "uint256",
          "name": "newCollateralRatio",
          "type": "uint256"
        }
      ],
      "name": "SetCollateralRatio",
      "type": "event"
    },
    {
      "anonymous": false,
      "inputs": [
        {
          "indexed": false,
          "internalType": "address",
          "name": "oldDevAddress",
          "type": "address"
        },
        {
          "indexed": false,
          "internalType": "address",
          "name": "newDevAddress",
          "type": "address"
        }
      ],
      "name": "SetDevAddress",
      "type": "event"
    },
    {
      "anonymous": false,
      "inputs": [
        {
          "indexed": false,
          "internalType": "uint256",
          "name": "oldLiquidationRatio",
          "type": "uint256"
        },
        {
          "indexed": false,
          "internalType": "uint256",
          "name": "newLiquidationRatio",
          "type": "uint256"
        }
      ],
      "name": "SetLiquidationRatio",
      "type": "event"
    },
    {
      "anonymous": false,
      "inputs": [
        {
          "indexed": false,
          "internalType": "uint256",
          "name": "oldLiquidatorRewardRatio",
          "type": "uint256"
        },
        {
          "indexed": false,
          "internalType": "uint256",
          "name": "newLiquidatorRewardRatio",
          "type": "uint256"
        }
      ],
      "name": "SetLiquidatorRewardRatio",
      "type": "event"
    },
    {
      "anonymous": false,
      "inputs": [
        {
          "indexed": false,
          "internalType": "uint256",
          "name": "oldPlatfromFeeRatio",
          "type": "uint256"
        },
        {
          "indexed": false,
          "internalType": "uint256",
          "name": "newPlatfromFeeRatio",
          "type": "uint256"
        }
      ],
      "name": "SetPlatfromFeeRatio",
      "type": "event"
    },
    {
      "anonymous": false,
      "inputs": [
        {
          "indexed": false,
          "internalType": "uint256",
          "name": "oldRemainingToMinterRatio",
          "type": "uint256"
        },
        {
          "indexed": false,
          "internalType": "uint256",
          "name": "newRemainingToMinterRatio",
          "type": "uint256"
        }
      ],
      "name": "SetRemainingToMinterRatio",
      "type": "event"
    },
    {
      "anonymous": false,
      "inputs": [
        {
          "indexed": false,
          "internalType": "address",
          "name": "account",
          "type": "address"
        }
      ],
      "name": "Unpaused",
      "type": "event"
    },
    {
      "inputs": [
        {
          "internalType": "contract IERC20Burnable",
          "name": "_synthetic",
          "type": "address"
        },
        {
          "internalType": "uint256",
          "name": "_addAmount",
          "type": "uint256"
        }
      ],
      "name": "addCollateral",
      "outputs": [],
      "stateMutability": "nonpayable",
      "type": "function"
    },
    {
      "inputs": [
        {
          "internalType": "address",
          "name": "",
          "type": "address"
        }
      ],
      "name": "addressToPairs",
      "outputs": [
        {
          "internalType": "string",
          "name": "",
          "type": "string"
        }
      ],
      "stateMutability": "view",
      "type": "function"
    },
    {
      "inputs": [],
      "name": "bandOracle",
      "outputs": [
        {
          "internalType": "contract IStdReference",
          "name": "",
          "type": "address"
        }
      ],
      "stateMutability": "view",
      "type": "function"
    },
    {
      "inputs": [],
      "name": "collateralRatio",
      "outputs": [
        {
          "internalType": "uint256",
          "name": "",
          "type": "uint256"
        }
      ],
      "stateMutability": "view",
      "type": "function"
    },
    {
      "inputs": [
        {
          "internalType": "address",
          "name": "",
          "type": "address"
        },
        {
          "internalType": "address",
          "name": "",
          "type": "address"
        }
      ],
      "name": "contracts",
      "outputs": [
        {
          "internalType": "address",
          "name": "minter",
          "type": "address"
        },
        {
          "internalType": "contract IERC20Burnable",
          "name": "asset",
          "type": "address"
        },
        {
          "internalType": "contract IERC20",
          "name": "assetBacked",
          "type": "address"
        },
        {
          "internalType": "uint256",
          "name": "assetAmount",
          "type": "uint256"
        },
        {
          "internalType": "uint256",
          "name": "assetBackedAmount",
          "type": "uint256"
        },
        {
          "internalType": "uint256",
          "name": "currentRatio",
          "type": "uint256"
        },
        {
          "internalType": "uint256",
          "name": "willLiquidateAtPrice",
          "type": "uint256"
        },
        {
          "internalType": "uint256",
          "name": "canMintRemainning",
          "type": "uint256"
        },
        {
          "internalType": "uint256",
          "name": "canWithdrawRemainning",
          "type": "uint256"
        },
        {
          "internalType": "uint256",
          "name": "updatedAt",
          "type": "uint256"
        },
        {
          "internalType": "uint256",
          "name": "updatedBlock",
          "type": "uint256"
        },
        {
          "internalType": "uint256",
          "name": "exchangeRateAtMinted",
          "type": "uint256"
        },
        {
          "internalType": "uint256",
          "name": "currentExchangeRate",
          "type": "uint256"
        }
      ],
      "stateMutability": "view",
      "type": "function"
    },
    {
      "inputs": [],
      "name": "denominator",
      "outputs": [
        {
          "internalType": "uint256",
          "name": "",
          "type": "uint256"
        }
      ],
      "stateMutability": "view",
      "type": "function"
    },
    {
      "inputs": [],
      "name": "devAddress",
      "outputs": [
        {
          "internalType": "address",
          "name": "",
          "type": "address"
        }
      ],
      "stateMutability": "view",
      "type": "function"
    },
    {
      "inputs": [],
      "name": "dolly",
      "outputs": [
        {
          "internalType": "contract IERC20",
          "name": "",
          "type": "address"
        }
      ],
      "stateMutability": "view",
      "type": "function"
    },
    {
      "inputs": [
        {
          "internalType": "string",
          "name": "_pairs",
          "type": "string"
        }
      ],
      "name": "getRate",
      "outputs": [
        {
          "internalType": "uint256",
          "name": "",
          "type": "uint256"
        }
      ],
      "stateMutability": "view",
      "type": "function"
    },
    {
      "inputs": [
        {
          "internalType": "string",
          "name": "_pairs",
          "type": "string"
        }
      ],
      "name": "isSupported",
      "outputs": [
        {
          "internalType": "bool",
          "name": "",
          "type": "bool"
        }
      ],
      "stateMutability": "view",
      "type": "function"
    },
    {
      "inputs": [
        {
          "internalType": "contract IERC20Burnable",
          "name": "_synthetic",
          "type": "address"
        },
        {
          "internalType": "address",
          "name": "_minter",
          "type": "address"
        }
      ],
      "name": "liquidate",
      "outputs": [],
      "stateMutability": "nonpayable",
      "type": "function"
    },
    {
      "inputs": [],
      "name": "liquidationRatio",
      "outputs": [
        {
          "internalType": "uint256",
          "name": "",
          "type": "uint256"
        }
      ],
      "stateMutability": "view",
      "type": "function"
    },
    {
      "inputs": [],
      "name": "liquidatorRewardRatio",
      "outputs": [
        {
          "internalType": "uint256",
          "name": "",
          "type": "uint256"
        }
      ],
      "stateMutability": "view",
      "type": "function"
    },
    {
      "inputs": [
        {
          "internalType": "contract IERC20Burnable",
          "name": "_synthetic",
          "type": "address"
        },
        {
          "internalType": "uint256",
          "name": "_amount",
          "type": "uint256"
        },
        {
          "internalType": "uint256",
          "name": "_backedAmount",
          "type": "uint256"
        }
      ],
      "name": "mintSynthetic",
      "outputs": [],
      "stateMutability": "nonpayable",
      "type": "function"
    },
    {
      "inputs": [],
      "name": "owner",
      "outputs": [
        {
          "internalType": "address",
          "name": "",
          "type": "address"
        }
      ],
      "stateMutability": "view",
      "type": "function"
    },
    {
      "inputs": [
        {
          "internalType": "string",
          "name": "",
          "type": "string"
        }
      ],
      "name": "pairsToAddress",
      "outputs": [
        {
          "internalType": "address",
          "name": "",
          "type": "address"
        }
      ],
      "stateMutability": "view",
      "type": "function"
    },
    {
      "inputs": [
        {
          "internalType": "string",
          "name": "",
          "type": "string"
        },
        {
          "internalType": "uint256",
          "name": "",
          "type": "uint256"
        }
      ],
      "name": "pairsToQuote",
      "outputs": [
        {
          "internalType": "string",
          "name": "",
          "type": "string"
        }
      ],
      "stateMutability": "view",
      "type": "function"
    },
    {
      "inputs": [],
      "name": "pause",
      "outputs": [],
      "stateMutability": "nonpayable",
      "type": "function"
    },
    {
      "inputs": [],
      "name": "paused",
      "outputs": [
        {
          "internalType": "bool",
          "name": "",
          "type": "bool"
        }
      ],
      "stateMutability": "view",
      "type": "function"
    },
    {
      "inputs": [],
      "name": "platfromFeeRatio",
      "outputs": [
        {
          "internalType": "uint256",
          "name": "",
          "type": "uint256"
        }
      ],
      "stateMutability": "view",
      "type": "function"
    },
    {
      "inputs": [
        {
          "internalType": "contract IERC20Burnable",
          "name": "_synthetic",
          "type": "address"
        },
        {
          "internalType": "uint256",
          "name": "_amount",
          "type": "uint256"
        }
      ],
      "name": "redeemSynthetic",
      "outputs": [],
      "stateMutability": "nonpayable",
      "type": "function"
    },
    {
      "inputs": [],
      "name": "remainingToMinterRatio",
      "outputs": [
        {
          "internalType": "uint256",
          "name": "",
          "type": "uint256"
        }
      ],
      "stateMutability": "view",
      "type": "function"
    },
    {
      "inputs": [
        {
          "internalType": "contract IERC20Burnable",
          "name": "_synthetic",
          "type": "address"
        },
        {
          "internalType": "uint256",
          "name": "_removeBackedAmount",
          "type": "uint256"
        }
      ],
      "name": "removeCollateral",
      "outputs": [],
      "stateMutability": "nonpayable",
      "type": "function"
    },
    {
      "inputs": [
        {
          "internalType": "contract IERC20Burnable",
          "name": "_synthetic",
          "type": "address"
        },
        {
          "internalType": "uint256",
          "name": "_removeAmount",
          "type": "uint256"
        }
      ],
      "name": "removeLowerCollateral",
      "outputs": [],
      "stateMutability": "nonpayable",
      "type": "function"
    },
    {
      "inputs": [],
      "name": "renounceOwnership",
      "outputs": [],
      "stateMutability": "nonpayable",
      "type": "function"
    },
    {
      "inputs": [
        {
          "internalType": "address",
          "name": "_syntheticAddress",
          "type": "address"
        },
        {
          "internalType": "string",
          "name": "_pairs",
          "type": "string"
        }
      ],
      "name": "setAddressToPairs",
      "outputs": [],
      "stateMutability": "nonpayable",
      "type": "function"
    },
    {
      "inputs": [
        {
          "internalType": "uint256",
          "name": "_collateralRatio",
          "type": "uint256"
        }
      ],
      "name": "setCollateralRatio",
      "outputs": [],
      "stateMutability": "nonpayable",
      "type": "function"
    },
    {
      "inputs": [
        {
          "internalType": "address",
          "name": "_devAddress",
          "type": "address"
        }
      ],
      "name": "setDevAddress",
      "outputs": [],
      "stateMutability": "nonpayable",
      "type": "function"
    },
    {
      "inputs": [
        {
          "internalType": "uint256",
          "name": "_liquidationRatio",
          "type": "uint256"
        }
      ],
      "name": "setLiquidationRatio",
      "outputs": [],
      "stateMutability": "nonpayable",
      "type": "function"
    },
    {
      "inputs": [
        {
          "internalType": "uint256",
          "name": "_liquidatorRewardRatio",
          "type": "uint256"
        }
      ],
      "name": "setLiquidatorRewardRatio",
      "outputs": [],
      "stateMutability": "nonpayable",
      "type": "function"
    },
    {
      "inputs": [
        {
          "internalType": "string",
          "name": "_pairs",
          "type": "string"
        },
        {
          "internalType": "address",
          "name": "_syntheticAddress",
          "type": "address"
        }
      ],
      "name": "setPairsToAddress",
      "outputs": [],
      "stateMutability": "nonpayable",
      "type": "function"
    },
    {
      "inputs": [
        {
          "internalType": "string",
          "name": "_pairs",
          "type": "string"
        },
        {
          "internalType": "string[2]",
          "name": "baseAndQuote",
          "type": "string[2]"
        }
      ],
      "name": "setPairsToQuote",
      "outputs": [],
      "stateMutability": "nonpayable",
      "type": "function"
    },
    {
      "inputs": [
        {
          "internalType": "uint256",
          "name": "_platfromFeeRatio",
          "type": "uint256"
        }
      ],
      "name": "setPlatfromFeeRatio",
      "outputs": [],
      "stateMutability": "nonpayable",
      "type": "function"
    },
    {
      "inputs": [
        {
          "internalType": "uint256",
          "name": "_remainingToMinterRatio",
          "type": "uint256"
        }
      ],
      "name": "setRemainingToMinterRatio",
      "outputs": [],
      "stateMutability": "nonpayable",
      "type": "function"
    },
    {
      "inputs": [
        {
          "internalType": "address",
          "name": "newOwner",
          "type": "address"
        }
      ],
      "name": "transferOwnership",
      "outputs": [],
      "stateMutability": "nonpayable",
      "type": "function"
    },
    {
      "inputs": [],
      "name": "unpause",
      "outputs": [],
      "stateMutability": "nonpayable",
      "type": "function"
    },
    {
      "inputs": [
        {
          "internalType": "contract IERC20Burnable",
          "name": "_synthetic",
          "type": "address"
        },
        {
          "internalType": "address",
          "name": "_minter",
          "type": "address"
        }
      ],
      "name": "viewRewardFromLiquidate",
      "outputs": [
        {
          "internalType": "uint256",
          "name": "",
          "type": "uint256"
        },
        {
          "internalType": "uint256",
          "name": "",
          "type": "uint256"
        },
        {
          "internalType": "uint256",
          "name": "",
          "type": "uint256"
        },
        {
          "internalType": "uint256",
          "name": "",
          "type": "uint256"
        },
        {
          "internalType": "uint256",
          "name": "",
          "type": "uint256"
        }
      ],
      "stateMutability": "view",
      "type": "function"
    }
  ],
  "bytecode": "0x60806040526714d1120d7b160000600755671158e460913d000060085566b1a2bc2ec5000060095566b1a2bc2ec50000600a55670c7d713b49da0000600b553480156200004b57600080fd5b5060405162003748380380620037488339810160408190526200006e916200013c565b60006200007a62000138565b600080546001600160a01b0319166001600160a01b0383169081178255604051929350917f8be0079c531659141344cd1fd0a4f28419497f9722a3daafe3b4186f6b6457e0908290a3506000805460ff60a01b1916905560018055600280546001600160a01b038085166001600160a01b03199283161790925560038054928416929091169190911790556200010f62000138565b600c80546001600160a01b0319166001600160a01b039290921691909117905550620001939050565b3390565b600080604083850312156200014f578182fd5b82516200015c816200017a565b60208401519092506200016f816200017a565b809150509250929050565b6001600160a01b03811681146200019057600080fd5b50565b6135a580620001a36000396000f3fe608060405234801561001057600080fd5b50600436106102275760003560e01c80638456cb5911610130578063b32ec546116100b8578063d2cd69611161007c578063d2cd69611461044a578063e150f6471461045d578063f2fde38b14610470578063f3a014a214610483578063fcb589d51461049657610227565b8063b32ec546146103f6578063b4eae1cb14610409578063bad8269014610411578063bf15c3e114610424578063d0d41fe11461043757610227565b80638da5cb5b116100ff5780638da5cb5b146103b8578063946ce8cd146103c0578063956dcd1f146103d357806396ce0795146103db5780639a12944c146103e357610227565b80638456cb591461037757806384cd9b571461037f57806386b9d81f14610392578063876467f8146103a557610227565b80635bcbdc96116101b35780636c0daed8116101825780636c0daed8146103235780636d75b9ee14610336578063715018a6146103495780637bda6e28146103515780638223c7701461036457610227565b80635bcbdc96146102e05780635c975abb146102f35780636060663e1461030857806365c3ad001461031b57610227565b80631775765f116101fa5780631775765f146102a05780633ad10ef6146102a85780633f4ba83a146102b05780633f97bc5b146102b85780634e55b8a7146102d857610227565b8063095f14041461022c5780630b87d86e1461024a578063123b08901461025f57806314057fca14610274575b600080fd5b6102346104ba565b60405161024191906134bd565b60405180910390f35b6102526104c0565b6040516102419190612eac565b61027261026d366004612df5565b6104cf565b005b610287610282366004612b3c565b610553565b6040516102419d9c9b9a99989796959493929190612f17565b6102346105d3565b6102526105d9565b6102726105e8565b6102cb6102c6366004612d75565b61064b565b6040516102419190612f90565b610234610702565b6102726102ee366004612cd3565b610708565b6102fb61076d565b6040516102419190612f85565b610272610316366004612df5565b61077d565b6102346107ec565b610234610331366004612c53565b6107f2565b610272610344366004612bf4565b6108dd565b610272610c03565b61027261035f366004612c8e565b610c82565b610272610372366004612b74565b610cfb565b610272610d59565b61027261038d366004612df5565b610dbb565b6102726103a0366004612be2565b610e2a565b6102726103b3366004612bf4565b611300565b6102526115ef565b6102726103ce366004612df5565b6115fe565b61025261166d565b61023461167c565b6102726103f1366004612c1f565b611688565b610272610404366004612bf4565b611a09565b610234611fb7565b61025261041f366004612c53565b611fbd565b6102cb610432366004612b20565b611fe3565b610272610445366004612b20565b61204b565b610272610458366004612df5565b6120d3565b61027261046b366004612bf4565b612142565b61027261047e366004612b20565b61240e565b6102fb610491366004612c53565b6124c4565b6104a96104a4366004612be2565b612502565b6040516102419594939291906134d4565b60095481565b6002546001600160a01b031681565b6104d76126d3565b6000546001600160a01b0390811691161461050d5760405162461bcd60e51b8152600401610504906132a1565b60405180910390fd5b600b8054908290556040517f2e3ff2a57d8574a2f22d5c3e4f6d87795bb4311b40b959c0fdc5bce2d20758189061054790839085906134c6565b60405180910390a15050565b600d602090815260009283526040808420909152908252902080546001820154600283015460038401546004850154600586015460068701546007880154600889015460098a0154600a8b0154600b8c0154600c909c01546001600160a01b039b8c169c9a8c169b9099169997989697959694959394929391929091908d565b60085481565b600c546001600160a01b031681565b6105f061076d565b61060c5760405162461bcd60e51b815260040161050490612ff1565b6106146126d3565b6000546001600160a01b039081169116146106415760405162461bcd60e51b8152600401610504906132a1565b6106496126d7565b565b81516020818401810180516004825292820191850191909120919052816002811061067257fe5b01805460408051602060026001851615610100026000190190941693909304601f810184900484028201840190925281815294509192508301828280156106fa5780601f106106cf576101008083540402835291602001916106fa565b820191906000526020600020905b8154815290600101906020018083116106dd57829003601f168201915b505050505081565b600b5481565b6107106126d3565b6000546001600160a01b0390811691161461073d5760405162461bcd60e51b8152600401610504906132a1565b8060048360405161074e9190612e90565b908152604051908190036020019020610768916002612953565b505050565b600054600160a01b900460ff1690565b6107856126d3565b6000546001600160a01b039081169116146107b25760405162461bcd60e51b8152600401610504906132a1565b60078054908290556040517fe21aac16189a7da506d3ccd8621d8639e3a32d51634174a427ebd25800884e999061054790839085906134c6565b600a5481565b60006107fd826124c4565b61080657600080fd5b61080e6129a3565b6003546040516001600160a01b03909116906365555bcc90600490610834908790612e90565b9081526040519081900360200190206000016004866040516108569190612e90565b9081526040519081900360200190206001016040518363ffffffff1660e01b8152600401610885929190612fc3565b60606040518083038186803b15801561089d57600080fd5b505afa1580156108b1573d6000803e3d6000fd5b505050506040513d601f19601f820116820180604052508101906108d59190612db8565b519392505050565b6108e561076d565b156109025760405162461bcd60e51b81526004016105049061319a565b600260015414156109255760405162461bcd60e51b8152600401610504906133d7565b60026001556000600d816109376126d3565b6001600160a01b03166001600160a01b031681526020019081526020016000206000846001600160a01b03166001600160a01b03168152602001908152602001600020905060008160030154116109a05760405162461bcd60e51b815260040161050490613133565b60048101546109af9083612748565b60048201556001600160a01b038316600090815260066020908152604080832080548251601f60026000196101006001861615020190931692909204918201859004850281018501909352808352610a5c93830182828015610a525780601f10610a2757610100808354040283529160200191610a52565b820191906000526020600020905b815481529060010190602001808311610a3557829003601f168201915b50505050506107f2565b90506000610a89670de0b6b3a7640000610a8384866003015461277690919063ffffffff16565b906127b0565b90506000610aae670de0b6b3a7640000610a836007548561277690919063ffffffff16565b90506000610ac98286600401546127f290919063ffffffff16565b6002549091506001600160a01b03166323b872dd610ae56126d3565b30896040518463ffffffff1660e01b8152600401610b0593929190612ec0565b602060405180830381600087803b158015610b1f57600080fd5b505af1158015610b33573d6000803e3d6000fd5b505050506040513d601f19601f82011682018060405250810190610b579190612bc2565b610b6057600080fd5b610b6e856004015484612834565b60058601819055610b80908590612858565b600686015560088501819055610b968184612834565b6007860155600c850184905542600986015543600a860155610bb66126d3565b6001600160a01b03167f2ac90482c3b6bea30a2c085cf093016bad7f970d91c5fd233e6b848d3e231dc387604051610bee91906134bd565b60405180910390a25050600180555050505050565b610c0b6126d3565b6000546001600160a01b03908116911614610c385760405162461bcd60e51b8152600401610504906132a1565b600080546040516001600160a01b03909116907f8be0079c531659141344cd1fd0a4f28419497f9722a3daafe3b4186f6b6457e0908390a3600080546001600160a01b0319169055565b610c8a6126d3565b6000546001600160a01b03908116911614610cb75760405162461bcd60e51b8152600401610504906132a1565b80600583604051610cc89190612e90565b90815260405190819003602001902080546001600160a01b03929092166001600160a01b03199092169190911790555050565b610d036126d3565b6000546001600160a01b03908116911614610d305760405162461bcd60e51b8152600401610504906132a1565b6001600160a01b03821660009081526006602090815260409091208251610768928401906129c4565b610d6161076d565b15610d7e5760405162461bcd60e51b81526004016105049061319a565b610d866126d3565b6000546001600160a01b03908116911614610db35760405162461bcd60e51b8152600401610504906132a1565b61064961288f565b610dc36126d3565b6000546001600160a01b03908116911614610df05760405162461bcd60e51b8152600401610504906132a1565b60098054908290556040517f3ccaefdfe3295630104d687db5f7e07f2a19848b9f68c4f55a4ab591c9b5d90f9061054790839085906134c6565b610e3261076d565b15610e4f5760405162461bcd60e51b81526004016105049061319a565b60026001541415610e725760405162461bcd60e51b8152600401610504906133d7565b60026001556001600160a01b038082166000908152600d60209081526040808320868516845290915290208054909116610ebe5760405162461bcd60e51b815260040161050490613393565b600854816005015410610ee35760405162461bcd60e51b8152600401610504906131c4565b6001600160a01b038316600090815260066020908152604080832080548251601f60026000196101006001861615020190931692909204918201859004850281018501909352808352610f5693830182828015610a525780601f10610a2757610100808354040283529160200191610a52565b905080826006015410610f7b5760405162461bcd60e51b81526004016105049061301f565b6000610fa0670de0b6b3a7640000610a8384866003015461277690919063ffffffff16565b90506000610fbb8285600401546127f290919063ffffffff16565b90506000610fe0670de0b6b3a7640000610a83600b548561277690919063ffffffff16565b90506000611005670de0b6b3a7640000610a836009548661277690919063ffffffff16565b9050600061102a670de0b6b3a7640000610a83600a548761277690919063ffffffff16565b6002549091506001600160a01b03166323b872dd6110466126d3565b30886040518463ffffffff1660e01b815260040161106693929190612ec0565b602060405180830381600087803b15801561108057600080fd5b505af1158015611094573d6000803e3d6000fd5b505050506040513d601f19601f820116820180604052508101906110b89190612bc2565b50600254875460405163a9059cbb60e01b81526001600160a01b039283169263a9059cbb926110ee929116908790600401612ee4565b602060405180830381600087803b15801561110857600080fd5b505af115801561111c573d6000803e3d6000fd5b505050506040513d601f19601f820116820180604052508101906111409190612bc2565b506002546001600160a01b031663a9059cbb61115a6126d3565b6111648886612748565b6040518363ffffffff1660e01b8152600401611181929190612ee4565b602060405180830381600087803b15801561119b57600080fd5b505af11580156111af573d6000803e3d6000fd5b505050506040513d601f19601f820116820180604052508101906111d39190612bc2565b50600254600c5460405163a9059cbb60e01b81526001600160a01b039283169263a9059cbb9261120a929116908590600401612ee4565b602060405180830381600087803b15801561122457600080fd5b505af1158015611238573d6000803e3d6000fd5b505050506040513d601f19601f8201168201806040525081019061125c9190612bc2565b5050506001600160a01b039586166000908152600d602090815260408083209990981682529790975250505091832080546001600160a01b03199081168255600180830180548316905560028301805490921690915560038201859055600482018590556005820185905560068201859055600782018590556008820185905560098201859055600a8201859055600b8201859055600c9091019390935550508055565b61130861076d565b156113255760405162461bcd60e51b81526004016105049061319a565b600260015414156113485760405162461bcd60e51b8152600401610504906133d7565b60026001556000600d8161135a6126d3565b6001600160a01b03166001600160a01b031681526020019081526020016000206000846001600160a01b03166001600160a01b03168152602001908152602001600020905060008160030154116113c35760405162461bcd60e51b8152600401610504906132d6565b60048101546113d290836127f2565b600482015560088101548211156113fb5760405162461bcd60e51b815260040161050490613460565b6001600160a01b038316600090815260066020908152604080832080548251601f6002600019610100600186161502019093169290920491820185900485028101850190935280835261146e93830182828015610a525780601f10610a2757610100808354040283529160200191610a52565b90506000611495670de0b6b3a7640000610a8384866003015461277690919063ffffffff16565b905060006114ba670de0b6b3a7640000610a836007548561277690919063ffffffff16565b905060006114d58286600401546127f290919063ffffffff16565b90506002546001600160a01b031663a9059cbb6114f06126d3565b886040518363ffffffff1660e01b815260040161150e929190612ee4565b602060405180830381600087803b15801561152857600080fd5b505af115801561153c573d6000803e3d6000fd5b505050506040513d601f19601f820116820180604052508101906115609190612bc2565b5061156f856004015484612834565b60058601819055611581908590612858565b6006860155600885018190556115978184612834565b6007860155600c850184905542600986015543600a8601556115b76126d3565b6001600160a01b03167fe25410a4059619c9594dc6f022fe231b02aaea733f689e7ab0cd21b3d4d0eb5487604051610bee91906134bd565b6000546001600160a01b031690565b6116066126d3565b6000546001600160a01b039081169116146116335760405162461bcd60e51b8152600401610504906132a1565b60088054908290556040517fad82ab9177533366e9282d4fe3d9537bd1beaf004633ebab48e3ef4e47f258bd9061054790839085906134c6565b6003546001600160a01b031681565b670de0b6b3a764000081565b61169061076d565b156116ad5760405162461bcd60e51b81526004016105049061319a565b600260015414156116d05760405162461bcd60e51b8152600401610504906133d7565b60026001556000600d816116e26126d3565b6001600160a01b03908116825260208083019390935260409182016000908120888316825290935291208054909250161561172f5760405162461bcd60e51b815260040161050490613343565b6001600160a01b038416600090815260066020908152604080832080548251601f600260001961010060018616150201909316929092049182018590048502810185019093528083526117a293830182828015610a525780601f10610a2757610100808354040283529160200191610a52565b905060006117bc670de0b6b3a7640000610a838785612776565b905060006117e1670de0b6b3a7640000610a836007548561277690919063ffffffff16565b9050808510156118035760405162461bcd60e51b8152600401610504906130e9565b600061180f86836127f2565b9050876001600160a01b03166340c10f196118286126d3565b896040518363ffffffff1660e01b8152600401611846929190612ee4565b600060405180830381600087803b15801561186057600080fd5b505af1158015611874573d6000803e3d6000fd5b50506002546001600160a01b031691506323b872dd90506118936126d3565b30896040518463ffffffff1660e01b81526004016118b393929190612ec0565b602060405180830381600087803b1580156118cd57600080fd5b505af11580156118e1573d6000803e3d6000fd5b505050506040513d601f19601f820116820180604052508101906119059190612bc2565b61190e57600080fd5b6119166126d3565b85546001600160a01b03199081166001600160a01b0392831617875560018701805482168b84161790556002805490880180549190931691161790556003850187905560048501869055600b8501849055600c85018490556119788684612834565b6005860181905561198a908590612858565b6006860155600885018190556119a08184612834565b600786015542600986015543600a8601556001600160a01b0388167fd7918d04fa8d2763da038d81b4ab65ea7b9eb8e5e3b199c548142ac304a8ad6f6119e46126d3565b896040516119f3929190612ee4565b60405180910390a2505060018055505050505050565b611a1161076d565b15611a2e5760405162461bcd60e51b81526004016105049061319a565b60026001541415611a515760405162461bcd60e51b8152600401610504906133d7565b60026001556000600d81611a636126d3565b6001600160a01b03166001600160a01b031681526020019081526020016000206000846001600160a01b03166001600160a01b0316815260200190815260200160002090508181600301541015611acc5760405162461bcd60e51b81526004016105049061320b565b8060030154821415611cae57826001600160a01b03166379cc6790611aef6126d3565b846040518363ffffffff1660e01b8152600401611b0d929190612ee4565b600060405180830381600087803b158015611b2757600080fd5b505af1158015611b3b573d6000803e3d6000fd5b50506002546001600160a01b0316915063a9059cbb9050611b5a6126d3565b83600401546040518363ffffffff1660e01b8152600401611b7c929190612ee4565b602060405180830381600087803b158015611b9657600080fd5b505af1158015611baa573d6000803e3d6000fd5b505050506040513d601f19601f82011682018060405250810190611bce9190612bc2565b50600d6000611bdb6126d3565b6001600160a01b039081168252602080830193909352604091820160009081209187168082529190935281832080546001600160a01b0319908116825560018201805482169055600282018054909116905560038101849055600481018490556005810184905560068101849055600781018490556008810184905560098101849055600a8101849055600b8101849055600c0192909255517fb99b782c502642cbb60ce7d75f893727e5ef94003f2f9e56bcbbb013615e193e90611ca19085906134bd565b60405180910390a2611fae565b6000611cbe838360030154612834565b90506000670de0b6b3a76400008284600301540281611cd957fe5b0490506000670de0b6b3a76400008385600401540281611cf557fe5b6001600160a01b038816600090815260066020908152604080832080548251601f600260001961010060018616150201909316929092049182018590048502810185019093528083529590940495509193611d719391830182828015610a525780601f10610a2757610100808354040283529160200191610a52565b90506000611d8c8387600401546127f290919063ffffffff16565b90506000611da78588600301546127f290919063ffffffff16565b90506000611dc1670de0b6b3a7640000610a838487612776565b90506000611de6670de0b6b3a7640000610a836007548561277690919063ffffffff16565b905080841015611e085760405162461bcd60e51b81526004016105049061340e565b6000611e1485836127f2565b90508b6001600160a01b03166379cc6790611e2d6126d3565b8a6040518363ffffffff1660e01b8152600401611e4b929190612ee4565b600060405180830381600087803b158015611e6557600080fd5b505af1158015611e79573d6000803e3d6000fd5b50506002546001600160a01b0316915063a9059cbb9050611e986126d3565b896040518363ffffffff1660e01b8152600401611eb6929190612ee4565b602060405180830381600087803b158015611ed057600080fd5b505af1158015611ee4573d6000803e3d6000fd5b505050506040513d601f19601f82011682018060405250810190611f089190612bc2565b5060038a0184905560048a01859055611f218584612834565b60058b01819055611f33908790612858565b60068b015560088a01819055611f498184612834565b60078b0155600c8a018690554260098b015543600a8b01556040516001600160a01b038d16907fb99b782c502642cbb60ce7d75f893727e5ef94003f2f9e56bcbbb013615e193e90611f9c908e906134bd565b60405180910390a25050505050505050505b50506001805550565b60075481565b80516020818301810180516005825292820191909301209152546001600160a01b031681565b60066020908152600091825260409182902080548351601f6002600019610100600186161502019093169290920491820184900484028101840190945280845290918301828280156106fa5780601f106106cf576101008083540402835291602001916106fa565b6120536126d3565b6000546001600160a01b039081169116146120805760405162461bcd60e51b8152600401610504906132a1565b600c80546001600160a01b038381166001600160a01b03198316179092556040519116907f618c54559e94f1499a808aad71ee8729f8e74e8c48e979616328ce493a1a52e7906105479083908590612efd565b6120db6126d3565b6000546001600160a01b039081169116146121085760405162461bcd60e51b8152600401610504906132a1565b600a8054908290556040517f6fe3d84266b6434a6a63810addd9a2075a300a5d5af2a48aba78e443e7eab3f99061054790839085906134c6565b61214a6126d3565b6000546001600160a01b039081169116146121775760405162461bcd60e51b8152600401610504906132a1565b61217f61076d565b1561219c5760405162461bcd60e51b81526004016105049061319a565b600260015414156121bf5760405162461bcd60e51b8152600401610504906133d7565b60026001556000600d816121d16126d3565b6001600160a01b03166001600160a01b031681526020019081526020016000206000846001600160a01b03166001600160a01b031681526020019081526020016000209050600081600301541161223a5760405162461bcd60e51b8152600401610504906132d6565b600481015461224990836127f2565b60048201556001600160a01b038316600090815260066020908152604080832080548251601f600260001961010060018616150201909316929092049182018590048502810185019093528083526122c193830182828015610a525780601f10610a2757610100808354040283529160200191610a52565b905060006122e8670de0b6b3a7640000610a8384866003015461277690919063ffffffff16565b6002549091506001600160a01b031663a9059cbb6123046126d3565b866040518363ffffffff1660e01b8152600401612322929190612ee4565b602060405180830381600087803b15801561233c57600080fd5b505af1158015612350573d6000803e3d6000fd5b505050506040513d601f19601f820116820180604052508101906123749190612bc2565b50612383836004015482612834565b60058401819055612395908390612858565b60068401556000600884018190556007840155600c830182905542600984015543600a8401556123c36126d3565b6001600160a01b03167fe25410a4059619c9594dc6f022fe231b02aaea733f689e7ab0cd21b3d4d0eb54856040516123fb91906134bd565b60405180910390a2505060018055505050565b6124166126d3565b6000546001600160a01b039081169116146124435760405162461bcd60e51b8152600401610504906132a1565b6001600160a01b0381166124695760405162461bcd60e51b81526004016105049061306c565b600080546040516001600160a01b03808516939216917f8be0079c531659141344cd1fd0a4f28419497f9722a3daafe3b4186f6b6457e091a3600080546001600160a01b0319166001600160a01b0392909216919091179055565b6000806001600160a01b03166005836040516124e09190612e90565b908152604051908190036020019020546001600160a01b031614159050919050565b6001600160a01b038082166000908152600d6020908152604080832086851684529091528120805491928392839283928392166125515760405162461bcd60e51b815260040161050490613393565b6008548160050154106125765760405162461bcd60e51b8152600401610504906131c4565b6001600160a01b038816600090815260066020908152604080832080548251601f600260001961010060018616150201909316929092049182018590048502810185019093528083526125e993830182828015610a525780601f10610a2757610100808354040283529160200191610a52565b90508082600601541061260e5760405162461bcd60e51b81526004016105049061301f565b6000612633670de0b6b3a7640000610a8384866003015461277690919063ffffffff16565b9050600061264e8285600401546127f290919063ffffffff16565b90506000612673670de0b6b3a7640000610a83600b548561277690919063ffffffff16565b90506000612698670de0b6b3a7640000610a836009548661277690919063ffffffff16565b905060006126bd670de0b6b3a7640000610a83600a548761277690919063ffffffff16565b949e939d50919b50995091975095505050505050565b3390565b6126df61076d565b6126fb5760405162461bcd60e51b815260040161050490612ff1565b6000805460ff60a01b191690557f5db9ee0a495bf2e6ff9c91a7834c1ba4fdd244a5e8aa4e537bd38aeae4b073aa6127316126d3565b60405161273e9190612eac565b60405180910390a1565b60008282018381101561276d5760405162461bcd60e51b8152600401610504906130b2565b90505b92915050565b60008261278557506000612770565b8282028284828161279257fe5b041461276d5760405162461bcd60e51b815260040161050490613260565b600061276d83836040518060400160405280601a81526020017f536166654d6174683a206469766973696f6e206279207a65726f0000000000008152506128f0565b600061276d83836040518060400160405280601e81526020017f536166654d6174683a207375627472616374696f6e206f766572666c6f770000815250612927565b600061276d670de0b6b3a7640000610a838161285286838984612776565b90612776565b600061276d670de0b6b3a7640000610a83612888670de0b6b3a764000060085403866127f290919063ffffffff16565b8690612776565b61289761076d565b156128b45760405162461bcd60e51b81526004016105049061319a565b6000805460ff60a01b1916600160a01b1790557f62e78cea01bee320cd4e420270b5ea74000d11b0c9f74754ebdbfc544b05a2586127316126d3565b600081836129115760405162461bcd60e51b81526004016105049190612f90565b50600083858161291d57fe5b0495945050505050565b6000818484111561294b5760405162461bcd60e51b81526004016105049190612f90565b505050900390565b8260028101928215612993579160200282015b8281111561299357825180516129839184916020909101906129c4565b5091602001919060010190612966565b5061299f929150612a3e565b5090565b60405180606001604052806000815260200160008152602001600081525090565b828054600181600116156101000203166002900490600052602060002090601f016020900481019282601f10612a0557805160ff1916838001178555612a32565b82800160010185558215612a32579182015b82811115612a32578251825591602001919060010190612a17565b5061299f929150612a5b565b8082111561299f576000612a528282612a70565b50600101612a3e565b5b8082111561299f5760008155600101612a5c565b50805460018160011615610100020316600290046000825580601f10612a965750612ab4565b601f016020900490600052602060002090810190612ab49190612a5b565b50565b600082601f830112612ac7578081fd5b813567ffffffffffffffff811115612add578182fd5b612af0601f8201601f19166020016134f7565b9150808252836020828501011115612b0757600080fd5b8060208401602084013760009082016020015292915050565b600060208284031215612b31578081fd5b813561276d8161355a565b60008060408385031215612b4e578081fd5b8235612b598161355a565b91506020830135612b698161355a565b809150509250929050565b60008060408385031215612b86578182fd5b8235612b918161355a565b9150602083013567ffffffffffffffff811115612bac578182fd5b612bb885828601612ab7565b9150509250929050565b600060208284031215612bd3578081fd5b8151801515811461276d578182fd5b60008060408385031215612b4e578182fd5b60008060408385031215612c06578182fd5b8235612c118161355a565b946020939093013593505050565b600080600060608486031215612c33578081fd5b8335612c3e8161355a565b95602085013595506040909401359392505050565b600060208284031215612c64578081fd5b813567ffffffffffffffff811115612c7a578182fd5b612c8684828501612ab7565b949350505050565b60008060408385031215612ca0578182fd5b823567ffffffffffffffff811115612cb6578283fd5b612cc285828601612ab7565b9250506020830135612b698161355a565b60008060408385031215612ce5578182fd5b823567ffffffffffffffff80821115612cfc578384fd5b612d0886838701612ab7565b9350602091508185013581811115612d1e578384fd5b85019050601f81018613612d30578283fd5b612d3a60406134f7565b8082855b6002811015612d6657612d548a83358701612ab7565b84529285019290850190600101612d3e565b50959890975095505050505050565b60008060408385031215612d87578182fd5b823567ffffffffffffffff811115612d9d578283fd5b612da985828601612ab7565b95602094909401359450505050565b600060608284031215612dc9578081fd5b612dd360606134f7565b8251815260208301516020820152604083015160408201528091505092915050565b600060208284031215612e06578081fd5b5035919050565b60008154600180821660008114612e2b5760018114612e4957612e87565b60028304607f16865260ff1983166020870152604086019350612e87565b60028304808752612e598661351e565b60005b82811015612e7d5781546020828b0101528482019150602081019050612e5c565b8801602001955050505b50505092915050565b60008251612ea281846020870161352a565b9190910192915050565b6001600160a01b0391909116815260200190565b6001600160a01b039384168152919092166020820152604081019190915260600190565b6001600160a01b03929092168252602082015260400190565b6001600160a01b0392831681529116602082015260400190565b6001600160a01b039d8e1681529b8d1660208d015299909b1660408b015260608a0197909752608089019590955260a088019390935260c087019190915260e08601526101008501526101208401526101408301526101608201929092526101808101919091526101a00190565b901515815260200190565b6000602082528251806020840152612faf81604085016020870161352a565b601f01601f19169190910160400192915050565b600060408252612fd66040830185612e0d565b8281036020840152612fe88185612e0d565b95945050505050565b60208082526014908201527314185d5cd8589b194e881b9bdd081c185d5cd95960621b604082015260600190565b6020808252602d908201527f53796e7468657469633a3a6c69717569646174653a206173736574207072696360408201526c6520697320736173746973667960981b606082015260800190565b60208082526026908201527f4f776e61626c653a206e6577206f776e657220697320746865207a65726f206160408201526564647265737360d01b606082015260800190565b6020808252601b908201527f536166654d6174683a206164646974696f6e206f766572666c6f770000000000604082015260600190565b6020808252602a908201527f53796e7468657469633a3a6d696e7453796e7468657469633a20756e6465722060408201526918dbdb1b185d195c985b60b21b606082015260800190565b60208082526041908201527f53796e7468657469633a3a616464436f6c6c61746572616c3a2063616e6e6f7460408201527f2061646420636f6c6c61746572616c20746f20656d70747920636f6e747261636060820152601d60fa1b608082015260a00190565b60208082526010908201526f14185d5cd8589b194e881c185d5cd95960821b604082015260600190565b60208082526027908201527f53796e7468657469633a3a6c69717569646174653a20726174696f20697320736040820152666173746973667960c81b606082015260800190565b60208082526035908201527f53796e7468657469633a3a72656465656d53796e7468657469633a20616d6f756040820152741b9d08195e18d959591cc818dbdb1b185d195c985b605a1b606082015260800190565b60208082526021908201527f536166654d6174683a206d756c7469706c69636174696f6e206f766572666c6f6040820152607760f81b606082015260800190565b6020808252818101527f4f776e61626c653a2063616c6c6572206973206e6f7420746865206f776e6572604082015260600190565b60208082526047908201527f53796e7468657469633a3a72656d6f7665436f6c6c61746572616c3a2063616e60408201527f6e6f742072656d6f766520636f6c6c61746572616c20746f20656d70747920636060820152661bdb9d1c9858dd60ca1b608082015260a00190565b60208082526030908201527f53796e7468657469633a3a6d696e7453796e7468657469633a207472616e736660408201526f657220746f206164647265737328302960801b606082015260800190565b60208082526024908201527f53796e7468657469633a3a6c69717569646174653a20656d70747920636f6e746040820152631c9858dd60e21b606082015260800190565b6020808252601f908201527f5265656e7472616e637947756172643a207265656e7472616e742063616c6c00604082015260600190565b60208082526032908201527f53796e7468657469633a3a72656465656d53796e7468657469633a20756e64656040820152717220636f6c6c61746572616c20726174696f60701b606082015260800190565b6020808252603f908201527f53796e7468657469633a3a72656d6f7665436f6c6c61746572616c3a20616d6f60408201527f756e74206578636565647320726571756972656420636f6c6c61746572616c00606082015260800190565b90815260200190565b918252602082015260400190565b948552602085019390935260408401919091526060830152608082015260a00190565b60405181810167ffffffffffffffff8111828210171561351657600080fd5b604052919050565b60009081526020902090565b60005b8381101561354557818101518382015260200161352d565b83811115613554576000848401525b50505050565b6001600160a01b0381168114612ab457600080fdfea2646970667358221220daf0642f5ef850ac5b88a7077f93c04934b5a3d6723a12f6bc391cc247f25a0664736f6c634300060c0033",
  "linkReferences": {},
  "deployedLinkReferences": {}
}