{
  "_format": "hh-sol-artifact-1",
  "contractName": "Synthetic",
  "sourceName": "contracts/Synthetic.sol",
  "abi": [
    {
      "inputs": [
        {
          "internalType": "contract IERC20",
          "name": "_dolly",
          "type": "address"
        },
        {
          "internalType": "contract IStdReference",
          "name": "_ref",
          "type": "address"
        }
      ],
      "stateMutability": "nonpayable",
      "type": "constructor"
    },
    {
      "anonymous": false,
      "inputs": [
        {
          "indexed": true,
          "internalType": "address",
          "name": "previousOwner",
          "type": "address"
        },
        {
          "indexed": true,
          "internalType": "address",
          "name": "newOwner",
          "type": "address"
        }
      ],
      "name": "OwnershipTransferred",
      "type": "event"
    },
    {
      "inputs": [
        {
          "internalType": "address",
          "name": "",
          "type": "address"
        }
      ],
      "name": "addressToPairs",
      "outputs": [
        {
          "internalType": "string",
          "name": "",
          "type": "string"
        }
      ],
      "stateMutability": "view",
      "type": "function"
    },
    {
      "inputs": [],
      "name": "bandOracle",
      "outputs": [
        {
          "internalType": "contract IStdReference",
          "name": "",
          "type": "address"
        }
      ],
      "stateMutability": "view",
      "type": "function"
    },
    {
      "inputs": [],
      "name": "collateralRatio",
      "outputs": [
        {
          "internalType": "uint256",
          "name": "",
          "type": "uint256"
        }
      ],
      "stateMutability": "view",
      "type": "function"
    },
    {
      "inputs": [],
      "name": "denominator",
      "outputs": [
        {
          "internalType": "uint256",
          "name": "",
          "type": "uint256"
        }
      ],
      "stateMutability": "view",
      "type": "function"
    },
    {
      "inputs": [],
      "name": "dolly",
      "outputs": [
        {
          "internalType": "contract IERC20",
          "name": "",
          "type": "address"
        }
      ],
      "stateMutability": "view",
      "type": "function"
    },
    {
      "inputs": [
        {
          "internalType": "string",
          "name": "_pairs",
          "type": "string"
        }
      ],
      "name": "isSupported",
      "outputs": [
        {
          "internalType": "bool",
          "name": "",
          "type": "bool"
        }
      ],
      "stateMutability": "view",
      "type": "function"
    },
    {
      "inputs": [],
      "name": "liquidate",
      "outputs": [],
      "stateMutability": "nonpayable",
      "type": "function"
    },
    {
      "inputs": [],
      "name": "liquidationRatio",
      "outputs": [
        {
          "internalType": "uint256",
          "name": "",
          "type": "uint256"
        }
      ],
      "stateMutability": "view",
      "type": "function"
    },
    {
      "inputs": [
        {
          "internalType": "contract IERC20Burnable",
          "name": "_synthetic",
          "type": "address"
        },
        {
          "internalType": "uint256",
          "name": "_amount",
          "type": "uint256"
        },
        {
          "internalType": "uint256",
          "name": "_backedAmount",
          "type": "uint256"
        }
      ],
      "name": "mintSynthetic",
      "outputs": [],
      "stateMutability": "nonpayable",
      "type": "function"
    },
    {
      "inputs": [
        {
          "internalType": "address",
          "name": "",
          "type": "address"
        },
        {
          "internalType": "address",
          "name": "",
          "type": "address"
        }
      ],
      "name": "minter",
      "outputs": [
        {
          "internalType": "address",
          "name": "minter",
          "type": "address"
        },
        {
          "internalType": "contract IERC20Burnable",
          "name": "asset",
          "type": "address"
        },
        {
          "internalType": "contract IERC20",
          "name": "assetBacked",
          "type": "address"
        },
        {
          "internalType": "uint256",
          "name": "assetAmount",
          "type": "uint256"
        },
        {
          "internalType": "uint256",
          "name": "assetBackedAmount",
          "type": "uint256"
        },
        {
          "internalType": "uint256",
          "name": "currentRatio",
          "type": "uint256"
        },
        {
          "internalType": "uint256",
          "name": "canMintRemainning",
          "type": "uint256"
        },
        {
          "internalType": "uint256",
          "name": "canWithdrawRemainning",
          "type": "uint256"
        },
        {
          "internalType": "uint256",
          "name": "startMintingDate",
          "type": "uint256"
        },
        {
          "internalType": "uint256",
          "name": "pastDays",
          "type": "uint256"
        }
      ],
      "stateMutability": "view",
      "type": "function"
    },
    {
      "inputs": [],
      "name": "owner",
      "outputs": [
        {
          "internalType": "address",
          "name": "",
          "type": "address"
        }
      ],
      "stateMutability": "view",
      "type": "function"
    },
    {
      "inputs": [
        {
          "internalType": "string",
          "name": "",
          "type": "string"
        }
      ],
      "name": "pairsToAddress",
      "outputs": [
        {
          "internalType": "address",
          "name": "",
          "type": "address"
        }
      ],
      "stateMutability": "view",
      "type": "function"
    },
    {
      "inputs": [
        {
          "internalType": "string",
          "name": "",
          "type": "string"
        },
        {
          "internalType": "uint256",
          "name": "",
          "type": "uint256"
        }
      ],
      "name": "pairsToQuote",
      "outputs": [
        {
          "internalType": "string",
          "name": "",
          "type": "string"
        }
      ],
      "stateMutability": "view",
      "type": "function"
    },
    {
      "inputs": [
        {
          "internalType": "contract IERC20Burnable",
          "name": "_synthetic",
          "type": "address"
        },
        {
          "internalType": "uint256",
          "name": "_amount",
          "type": "uint256"
        }
      ],
      "name": "redeemSynthetic",
      "outputs": [],
      "stateMutability": "nonpayable",
      "type": "function"
    },
    {
      "inputs": [],
      "name": "renounceOwnership",
      "outputs": [],
      "stateMutability": "nonpayable",
      "type": "function"
    },
    {
      "inputs": [
        {
          "internalType": "address",
          "name": "_syntheticAddress",
          "type": "address"
        },
        {
          "internalType": "string",
          "name": "_pairs",
          "type": "string"
        }
      ],
      "name": "setAddressToPairs",
      "outputs": [],
      "stateMutability": "nonpayable",
      "type": "function"
    },
    {
      "inputs": [
        {
          "internalType": "string",
          "name": "_pairs",
          "type": "string"
        },
        {
          "internalType": "address",
          "name": "_syntheticAddress",
          "type": "address"
        }
      ],
      "name": "setPairsToAddress",
      "outputs": [],
      "stateMutability": "nonpayable",
      "type": "function"
    },
    {
      "inputs": [
        {
          "internalType": "string",
          "name": "_pairs",
          "type": "string"
        },
        {
          "internalType": "string[2]",
          "name": "baseAndQuote",
          "type": "string[2]"
        }
      ],
      "name": "setPairsToQuote",
      "outputs": [],
      "stateMutability": "nonpayable",
      "type": "function"
    },
    {
      "inputs": [],
      "name": "systheticAsset",
      "outputs": [
        {
          "internalType": "contract IERC20Burnable",
          "name": "",
          "type": "address"
        }
      ],
      "stateMutability": "view",
      "type": "function"
    },
    {
      "inputs": [
        {
          "internalType": "address",
          "name": "newOwner",
          "type": "address"
        }
      ],
      "name": "transferOwnership",
      "outputs": [],
      "stateMutability": "nonpayable",
      "type": "function"
    }
  ],
  "bytecode": "0x6080604052670de0b6b3a76400006007556718493fba64ef00006008556714d1120d7b1600006009553480156200003557600080fd5b50604051620016eb380380620016eb833981016040819052620000589162000370565b60006200006462000211565b600080546001600160a01b0319166001600160a01b0383169081178255604051929350917f8be0079c531659141344cd1fd0a4f28419497f9722a3daafe3b4186f6b6457e0908290a350600280546001600160a01b038085166001600160a01b03199283161790925560038054928416929091169190911781556040805160808101825260048183018181526354534c4160e01b6060840152825282518084018452938452621554d160ea1b60208581019190915282019390935290519091906200012f90620003ae565b9081526040519081900360200190206200014b91600262000215565b507365cac0f09efdb88195a002e8dd4cbf6ec9bc7f6060056040516200017190620003ae565b908152604080516020928190038301812080546001600160a01b0319166001600160a01b039590951694909417909355828101905260088252671514d3104bd554d160c21b8183019081527365cac0f09efdb88195a002e8dd4cbf6ec9bc7f606000526006909152905162000208917fb5aea66d9b9a38ebc3abed41876b8c9b8e80920b3fb821e1e214caaf12318c23916200026c565b505050620003d8565b3390565b82600281019282156200025a579160200282015b828111156200025a5782518051620002499184916020909101906200026c565b509160200191906001019062000229565b5062000268929150620002ed565b5090565b828054600181600116156101000203166002900490600052602060002090601f016020900481019282601f10620002af57805160ff1916838001178555620002df565b82800160010185558215620002df579182015b82811115620002df578251825591602001919060010190620002c2565b50620002689291506200030e565b808211156200026857600062000304828262000325565b50600101620002ed565b5b808211156200026857600081556001016200030f565b50805460018160011615610100020316600290046000825580601f106200034d57506200036d565b601f0160209004906000526020600020908101906200036d91906200030e565b50565b6000806040838503121562000383578182fd5b82516200039081620003c2565b6020840151909250620003a381620003c2565b809150509250929050565b671514d3104bd554d160c21b815260080190565b6001600160a01b03811681146200036d57600080fd5b61130380620003e86000396000f3fe608060405234801561001057600080fd5b506004361061012c5760003560e01c80638da5cb5b116100ad578063b4eae1cb11610071578063b4eae1cb1461023e578063bad8269014610246578063bf15c3e114610259578063f2fde38b1461026c578063f3a014a21461027f5761012c565b80638da5cb5b14610200578063956dcd1f1461020857806396ce0795146102105780639a12944c14610218578063b32ec5461461022b5761012c565b80636502d171116100f45780636502d171146101a15780636e1aa51b146101ca578063715018a6146101d25780637bda6e28146101da5780638223c770146101ed5761012c565b80630b87d86e146101315780631775765f1461014f57806328a07025146101645780633f97bc5b1461016e5780635bcbdc961461018e575b600080fd5b61013961029f565b60405161014691906110be565b60405180910390f35b6101576102ae565b604051610146919061124c565b61016c6102b4565b005b61018161017c366004610f9f565b6102b6565b6040516101469190611170565b61016c61019c366004610efd565b61036d565b6101b46101af366004610d78565b6103db565b6040516101469a9998979695949392919061110f565b610139610445565b61016c610454565b61016c6101e8366004610eb8565b6104d3565b61016c6101fb366004610db0565b61054c565b6101396105aa565b6101396105b9565b6101576105c8565b61016c610226366004610e49565b6105ce565b61016c610239366004610e1e565b610838565b610157610932565b610139610254366004610e7d565b610938565b610181610267366004610d55565b61095e565b61016c61027a366004610d55565b6109c6565b61029261028d366004610e7d565b610a7c565b6040516101469190611165565b6002546001600160a01b031681565b60085481565b565b8151602081840181018051600482529282019185019190912091905281600281106102dd57fe5b01805460408051602060026001851615610100026000190190941693909304601f810184900484028201840190925281815294509192508301828280156103655780601f1061033a57610100808354040283529160200191610365565b820191906000526020600020905b81548152906001019060200180831161034857829003601f168201915b505050505081565b610375610a99565b6000546001600160a01b039081169116146103ab5760405162461bcd60e51b81526004016103a290611217565b60405180910390fd5b806004836040516103bc91906110a2565b9081526040519081900360200190206103d6916002610b88565b505050565b600a60209081526000928352604080842090915290825290208054600182015460028301546003840154600485015460058601546006870154600788015460088901546009909901546001600160a01b03988916999789169890961696949593949293919290918a565b6001546001600160a01b031681565b61045c610a99565b6000546001600160a01b039081169116146104895760405162461bcd60e51b81526004016103a290611217565b600080546040516001600160a01b03909116907f8be0079c531659141344cd1fd0a4f28419497f9722a3daafe3b4186f6b6457e0908390a3600080546001600160a01b0319169055565b6104db610a99565b6000546001600160a01b039081169116146105085760405162461bcd60e51b81526004016103a290611217565b8060058360405161051991906110a2565b90815260405190819003602001902080546001600160a01b03929092166001600160a01b03199092169190911790555050565b610554610a99565b6000546001600160a01b039081169116146105815760405162461bcd60e51b81526004016103a290611217565b6001600160a01b038216600090815260066020908152604090912082516103d692840190610bd8565b6000546001600160a01b031690565b6003546001600160a01b031681565b60075481565b6000600a60006105dc610a99565b6001600160a01b03908116825260208083019390935260409182016000908120888316825290935291208054909250161561061657600080fd5b6001600160a01b038416600090815260066020908152604080832080548251601f600260001961010060018616150201909316929092049182018590048502810185019093528083526106be938301828280156106b45780601f10610689576101008083540402835291602001916106b4565b820191906000526020600020905b81548152906001019060200180831161069757829003601f168201915b5050505050610a9d565b9050600060075482846003015402816106d357fe5b0490506007546009548202816106e557fe5b048410156106f257600080fd5b856001600160a01b03166340c10f19610709610a99565b866040518363ffffffff1660e01b81526004016107279291906110f6565b600060405180830381600087803b15801561074157600080fd5b505af1158015610755573d6000803e3d6000fd5b50506002546001600160a01b031691506323b872dd9050610774610a99565b30876040518463ffffffff1660e01b8152600401610794939291906110d2565b602060405180830381600087803b1580156107ae57600080fd5b505af11580156107c2573d6000803e3d6000fd5b505050506040513d601f19601f820116820180604052508101906107e69190610dfe565b6107ef57600080fd5b6107f7610a99565b83546001600160a01b039182166001600160a01b03199182161785556001850180549890921697169690961790955550600381019290925560049091015550565b816001600160a01b03166379cc679061084f610a99565b836040518363ffffffff1660e01b815260040161086d9291906110f6565b600060405180830381600087803b15801561088757600080fd5b505af115801561089b573d6000803e3d6000fd5b50506002546001600160a01b0316915063a9059cbb90506108ba610a99565b670de0b6b3a76400006040518363ffffffff1660e01b81526004016108e09291906110f6565b602060405180830381600087803b1580156108fa57600080fd5b505af115801561090e573d6000803e3d6000fd5b505050506040513d601f19601f820116820180604052508101906103d69190610dfe565b60095481565b80516020818301810180516005825292820191909301209152546001600160a01b031681565b60066020908152600091825260409182902080548351601f6002600019610100600186161502019093169290920491820184900484028101840190945280845290918301828280156103655780601f1061033a57610100808354040283529160200191610365565b6109ce610a99565b6000546001600160a01b039081169116146109fb5760405162461bcd60e51b81526004016103a290611217565b6001600160a01b038116610a215760405162461bcd60e51b81526004016103a2906111d1565b600080546040516001600160a01b03808516939216917f8be0079c531659141344cd1fd0a4f28419497f9722a3daafe3b4186f6b6457e091a3600080546001600160a01b0319166001600160a01b0392909216919091179055565b600080600483604051610a8f91906110a2565b5260021192915050565b3390565b6000610aa882610a7c565b610ab157600080fd5b610ab9610c52565b6003546040516001600160a01b03909116906365555bcc90600490610adf9087906110a2565b908152604051908190036020019020600001600486604051610b0191906110a2565b9081526040519081900360200190206001016040518363ffffffff1660e01b8152600401610b309291906111a3565b60606040518083038186803b158015610b4857600080fd5b505afa158015610b5c573d6000803e3d6000fd5b505050506040513d601f19601f82011682018060405250810190610b809190610fe2565b519392505050565b8260028101928215610bc8579160200282015b82811115610bc85782518051610bb8918491602090910190610bd8565b5091602001919060010190610b9b565b50610bd4929150610c73565b5090565b828054600181600116156101000203166002900490600052602060002090601f016020900481019282601f10610c1957805160ff1916838001178555610c46565b82800160010185558215610c46579182015b82811115610c46578251825591602001919060010190610c2b565b50610bd4929150610c90565b60405180606001604052806000815260200160008152602001600081525090565b80821115610bd4576000610c878282610ca5565b50600101610c73565b5b80821115610bd45760008155600101610c91565b50805460018160011615610100020316600290046000825580601f10610ccb5750610ce9565b601f016020900490600052602060002090810190610ce99190610c90565b50565b600082601f830112610cfc578081fd5b813567ffffffffffffffff811115610d12578182fd5b610d25601f8201601f1916602001611255565b9150808252836020828501011115610d3c57600080fd5b8060208401602084013760009082016020015292915050565b600060208284031215610d66578081fd5b8135610d71816112b8565b9392505050565b60008060408385031215610d8a578081fd5b8235610d95816112b8565b91506020830135610da5816112b8565b809150509250929050565b60008060408385031215610dc2578182fd5b8235610dcd816112b8565b9150602083013567ffffffffffffffff811115610de8578182fd5b610df485828601610cec565b9150509250929050565b600060208284031215610e0f578081fd5b81518015158114610d71578182fd5b60008060408385031215610e30578182fd5b8235610e3b816112b8565b946020939093013593505050565b600080600060608486031215610e5d578081fd5b8335610e68816112b8565b95602085013595506040909401359392505050565b600060208284031215610e8e578081fd5b813567ffffffffffffffff811115610ea4578182fd5b610eb084828501610cec565b949350505050565b60008060408385031215610eca578182fd5b823567ffffffffffffffff811115610ee0578283fd5b610eec85828601610cec565b9250506020830135610da5816112b8565b60008060408385031215610f0f578182fd5b823567ffffffffffffffff80821115610f26578384fd5b610f3286838701610cec565b9350602091508185013581811115610f48578384fd5b85019050601f81018613610f5a578283fd5b610f646040611255565b8082855b6002811015610f9057610f7e8a83358701610cec565b84529285019290850190600101610f68565b50959890975095505050505050565b60008060408385031215610fb1578182fd5b823567ffffffffffffffff811115610fc7578283fd5b610fd385828601610cec565b95602094909401359450505050565b600060608284031215610ff3578081fd5b610ffd6060611255565b8251815260208301516020820152604083015160408201528091505092915050565b6000815460018082166000811461103d576001811461105b57611099565b60028304607f16865260ff1983166020870152604086019350611099565b6002830480875261106b8661127c565b60005b8281101561108f5781546020828b010152848201915060208101905061106e565b8801602001955050505b50505092915050565b600082516110b4818460208701611288565b9190910192915050565b6001600160a01b0391909116815260200190565b6001600160a01b039384168152919092166020820152604081019190915260600190565b6001600160a01b03929092168252602082015260400190565b6001600160a01b039a8b168152988a1660208a01529690981660408801526060870194909452608086019290925260a085015260c084015260e08301526101008201929092526101208101919091526101400190565b901515815260200190565b600060208252825180602084015261118f816040850160208701611288565b601f01601f19169190910160400192915050565b6000604082526111b6604083018561101f565b82810360208401526111c8818561101f565b95945050505050565b60208082526026908201527f4f776e61626c653a206e6577206f776e657220697320746865207a65726f206160408201526564647265737360d01b606082015260800190565b6020808252818101527f4f776e61626c653a2063616c6c6572206973206e6f7420746865206f776e6572604082015260600190565b90815260200190565b60405181810167ffffffffffffffff8111828210171561127457600080fd5b604052919050565b60009081526020902090565b60005b838110156112a357818101518382015260200161128b565b838111156112b2576000848401525b50505050565b6001600160a01b0381168114610ce957600080fdfea2646970667358221220882516c35d175a849f9910fa5444310357c005fce858bb4523619d52fe3f436564736f6c634300060c0033",
  "linkReferences": {},
  "deployedLinkReferences": {}
}