{
  "_format": "hh-sol-artifact-1",
  "contractName": "Synthetic",
  "sourceName": "contracts/Synthetic.sol",
  "abi": [
    {
      "inputs": [
        {
          "internalType": "contract IERC20",
          "name": "_dolly",
          "type": "address"
        },
        {
          "internalType": "contract IStdReference",
          "name": "_ref",
          "type": "address"
        }
      ],
      "stateMutability": "nonpayable",
      "type": "constructor"
    },
    {
      "anonymous": false,
      "inputs": [
        {
          "indexed": true,
          "internalType": "address",
          "name": "previousOwner",
          "type": "address"
        },
        {
          "indexed": true,
          "internalType": "address",
          "name": "newOwner",
          "type": "address"
        }
      ],
      "name": "OwnershipTransferred",
      "type": "event"
    },
    {
      "inputs": [],
      "name": "bandOracle",
      "outputs": [
        {
          "internalType": "contract IStdReference",
          "name": "",
          "type": "address"
        }
      ],
      "stateMutability": "view",
      "type": "function"
    },
    {
      "inputs": [],
      "name": "dolly",
      "outputs": [
        {
          "internalType": "contract IERC20",
          "name": "",
          "type": "address"
        }
      ],
      "stateMutability": "view",
      "type": "function"
    },
    {
      "inputs": [
        {
          "internalType": "string",
          "name": "_pairs",
          "type": "string"
        }
      ],
      "name": "isSupported",
      "outputs": [
        {
          "internalType": "bool",
          "name": "",
          "type": "bool"
        }
      ],
      "stateMutability": "view",
      "type": "function"
    },
    {
      "inputs": [],
      "name": "liquidate",
      "outputs": [],
      "stateMutability": "nonpayable",
      "type": "function"
    },
    {
      "inputs": [
        {
          "internalType": "contract IERC20Burnable",
          "name": "_synthetic",
          "type": "address"
        },
        {
          "internalType": "uint256",
          "name": "_amount",
          "type": "uint256"
        },
        {
          "internalType": "uint256",
          "name": "_backedAmount",
          "type": "uint256"
        }
      ],
      "name": "mintSynthetic",
      "outputs": [],
      "stateMutability": "nonpayable",
      "type": "function"
    },
    {
      "inputs": [],
      "name": "owner",
      "outputs": [
        {
          "internalType": "address",
          "name": "",
          "type": "address"
        }
      ],
      "stateMutability": "view",
      "type": "function"
    },
    {
      "inputs": [
        {
          "internalType": "contract IERC20Burnable",
          "name": "_synthetic",
          "type": "address"
        },
        {
          "internalType": "uint256",
          "name": "_amount",
          "type": "uint256"
        }
      ],
      "name": "redeemSynthetic",
      "outputs": [],
      "stateMutability": "nonpayable",
      "type": "function"
    },
    {
      "inputs": [],
      "name": "renounceOwnership",
      "outputs": [],
      "stateMutability": "nonpayable",
      "type": "function"
    },
    {
      "inputs": [
        {
          "internalType": "string",
          "name": "",
          "type": "string"
        },
        {
          "internalType": "uint256",
          "name": "",
          "type": "uint256"
        }
      ],
      "name": "supportedAssets",
      "outputs": [
        {
          "internalType": "string",
          "name": "",
          "type": "string"
        }
      ],
      "stateMutability": "view",
      "type": "function"
    },
    {
      "inputs": [
        {
          "internalType": "string",
          "name": "",
          "type": "string"
        }
      ],
      "name": "supportedAssetsAddr",
      "outputs": [
        {
          "internalType": "address",
          "name": "",
          "type": "address"
        }
      ],
      "stateMutability": "view",
      "type": "function"
    },
    {
      "inputs": [],
      "name": "systheticAsset",
      "outputs": [
        {
          "internalType": "contract IERC20Burnable",
          "name": "",
          "type": "address"
        }
      ],
      "stateMutability": "view",
      "type": "function"
    },
    {
      "inputs": [
        {
          "internalType": "address",
          "name": "newOwner",
          "type": "address"
        }
      ],
      "name": "transferOwnership",
      "outputs": [],
      "stateMutability": "nonpayable",
      "type": "function"
    }
  ],
  "bytecode": "0x60806040523480156200001157600080fd5b5060405162000c0838038062000c088339810160408190526200003491620002e6565b60006200004062000187565b600080546001600160a01b0319166001600160a01b0383169081178255604051929350917f8be0079c531659141344cd1fd0a4f28419497f9722a3daafe3b4186f6b6457e0908290a350600280546001600160a01b038085166001600160a01b03199283161790925560038054928416929091169190911781556040805160808101825260048183018181526354534c4160e01b6060840152825282518084018452938452621554d160ea1b60208581019190915282019390935290519091906200010b9062000324565b908152604051908190036020019020620001279160026200018b565b507365cac0f09efdb88195a002e8dd4cbf6ec9bc7f6060056040516200014d9062000324565b908152602001604051809103902060006101000a8154816001600160a01b0302191690836001600160a01b0316021790555050506200034e565b3390565b8260028101928215620001d0579160200282015b82811115620001d05782518051620001bf918491602090910190620001e2565b50916020019190600101906200019f565b50620001de92915062000263565b5090565b828054600181600116156101000203166002900490600052602060002090601f016020900481019282601f106200022557805160ff191683800117855562000255565b8280016001018555821562000255579182015b828111156200025557825182559160200191906001019062000238565b50620001de92915062000284565b80821115620001de5760006200027a82826200029b565b5060010162000263565b5b80821115620001de576000815560010162000285565b50805460018160011615610100020316600290046000825580601f10620002c35750620002e3565b601f016020900490600052602060002090810190620002e3919062000284565b50565b60008060408385031215620002f9578182fd5b8251620003068162000338565b6020840151909250620003198162000338565b809150509250929050565b671514d3104bd554d160c21b815260080190565b6001600160a01b0381168114620002e357600080fd5b6108aa806200035e6000396000f3fe608060405234801561001057600080fd5b50600436106100b45760003560e01c806395ac1cf21161007157806395ac1cf2146101015780639a12944c14610121578063b32ec54614610134578063f2fde38b14610147578063f3a014a21461015a578063f7b9f2f71461017a576100b4565b80630b87d86e146100b957806328a07025146100d75780636e1aa51b146100e1578063715018a6146100e95780638da5cb5b146100f1578063956dcd1f146100f9575b600080fd5b6100c161018d565b6040516100ce9190610726565b60405180910390f35b6100df61019c565b005b6100c161019e565b6100df6101ad565b6100c1610235565b6100c1610244565b61011461010f3660046106c7565b610253565b6040516100ce9190610782565b6100df61012f366004610658565b61030a565b6100df61014236600461062d565b610404565b6100df6101553660046105ea565b61046f565b61016d61016836600461068c565b610525565b6040516100ce9190610777565b6100c161018836600461068c565b610542565b6002546001600160a01b031681565b565b6001546001600160a01b031681565b6101b5610568565b6000546001600160a01b039081169116146101eb5760405162461bcd60e51b81526004016101e2906107fb565b60405180910390fd5b600080546040516001600160a01b03909116907f8be0079c531659141344cd1fd0a4f28419497f9722a3daafe3b4186f6b6457e0908390a3600080546001600160a01b0319169055565b6000546001600160a01b031690565b6003546001600160a01b031681565b81516020818401810180516004825292820191850191909120919052816002811061027a57fe5b01805460408051602060026001851615610100026000190190941693909304601f810184900484028201840190925281815294509192508301828280156103025780601f106102d757610100808354040283529160200191610302565b820191906000526020600020905b8154815290600101906020018083116102e557829003601f168201915b505050505081565b826001600160a01b03166340c10f19610321610568565b846040518363ffffffff1660e01b815260040161033f92919061075e565b600060405180830381600087803b15801561035957600080fd5b505af115801561036d573d6000803e3d6000fd5b50506002546001600160a01b031691506323b872dd905061038c610568565b30846040518463ffffffff1660e01b81526004016103ac9392919061073a565b602060405180830381600087803b1580156103c657600080fd5b505af11580156103da573d6000803e3d6000fd5b505050506040513d601f19601f820116820180604052508101906103fe919061060d565b50505050565b816001600160a01b03166379cc679061041b610568565b836040518363ffffffff1660e01b815260040161043992919061075e565b600060405180830381600087803b15801561045357600080fd5b505af1158015610467573d6000803e3d6000fd5b505050505050565b610477610568565b6000546001600160a01b039081169116146104a45760405162461bcd60e51b81526004016101e2906107fb565b6001600160a01b0381166104ca5760405162461bcd60e51b81526004016101e2906107b5565b600080546040516001600160a01b03808516939216917f8be0079c531659141344cd1fd0a4f28419497f9722a3daafe3b4186f6b6457e091a3600080546001600160a01b0319166001600160a01b0392909216919091179055565b600080600483604051610538919061070a565b5260021192915050565b80516020818301810180516005825292820191909301209152546001600160a01b031681565b3390565b600082601f83011261057c578081fd5b813567ffffffffffffffff80821115610593578283fd5b604051601f8301601f1916810160200182811182821017156105b3578485fd5b6040528281529250828483016020018610156105ce57600080fd5b8260208601602083013760006020848301015250505092915050565b6000602082840312156105fb578081fd5b81356106068161085c565b9392505050565b60006020828403121561061e578081fd5b81518015158114610606578182fd5b6000806040838503121561063f578081fd5b823561064a8161085c565b946020939093013593505050565b60008060006060848603121561066c578081fd5b83356106778161085c565b95602085013595506040909401359392505050565b60006020828403121561069d578081fd5b813567ffffffffffffffff8111156106b3578182fd5b6106bf8482850161056c565b949350505050565b600080604083850312156106d9578182fd5b823567ffffffffffffffff8111156106ef578283fd5b6106fb8582860161056c565b95602094909401359450505050565b6000825161071c818460208701610830565b9190910192915050565b6001600160a01b0391909116815260200190565b6001600160a01b039384168152919092166020820152604081019190915260600190565b6001600160a01b03929092168252602082015260400190565b901515815260200190565b60006020825282518060208401526107a1816040850160208701610830565b601f01601f19169190910160400192915050565b60208082526026908201527f4f776e61626c653a206e6577206f776e657220697320746865207a65726f206160408201526564647265737360d01b606082015260800190565b6020808252818101527f4f776e61626c653a2063616c6c6572206973206e6f7420746865206f776e6572604082015260600190565b60005b8381101561084b578181015183820152602001610833565b838111156103fe5750506000910152565b6001600160a01b038116811461087157600080fd5b5056fea2646970667358221220325c7078e0e2e673286f2724fc8e2938a0da2dfa9697f47e7a85ee7b1b92b1de64736f6c634300060c0033",
  "linkReferences": {},
  "deployedLinkReferences": {}
}