{
  "_format": "hh-sol-artifact-1",
  "contractName": "Synthetic",
  "sourceName": "contracts/Synthetic.sol",
  "abi": [
    {
      "inputs": [
        {
          "internalType": "contract IERC20",
          "name": "_dolly",
          "type": "address"
        },
        {
          "internalType": "contract IStdReference",
          "name": "_ref",
          "type": "address"
        }
      ],
      "stateMutability": "nonpayable",
      "type": "constructor"
    },
    {
      "anonymous": false,
      "inputs": [
        {
          "indexed": true,
          "internalType": "address",
          "name": "user",
          "type": "address"
        },
        {
          "indexed": false,
          "internalType": "uint256",
          "name": "amount",
          "type": "uint256"
        }
      ],
      "name": "AddCollateral",
      "type": "event"
    },
    {
      "anonymous": false,
      "inputs": [
        {
          "indexed": true,
          "internalType": "address",
          "name": "liquidated",
          "type": "address"
        },
        {
          "indexed": true,
          "internalType": "address",
          "name": "liquidator",
          "type": "address"
        },
        {
          "indexed": true,
          "internalType": "address",
          "name": "syntheticAddress",
          "type": "address"
        },
        {
          "indexed": false,
          "internalType": "uint256",
          "name": "amount",
          "type": "uint256"
        },
        {
          "indexed": false,
          "internalType": "uint256",
          "name": "timestamp",
          "type": "uint256"
        }
      ],
      "name": "Liquidated",
      "type": "event"
    },
    {
      "anonymous": false,
      "inputs": [
        {
          "indexed": false,
          "internalType": "address",
          "name": "minter",
          "type": "address"
        },
        {
          "indexed": true,
          "internalType": "address",
          "name": "syntheticAddress",
          "type": "address"
        },
        {
          "indexed": false,
          "internalType": "uint256",
          "name": "amount",
          "type": "uint256"
        }
      ],
      "name": "MintAsset",
      "type": "event"
    },
    {
      "anonymous": false,
      "inputs": [
        {
          "indexed": true,
          "internalType": "address",
          "name": "previousOwner",
          "type": "address"
        },
        {
          "indexed": true,
          "internalType": "address",
          "name": "newOwner",
          "type": "address"
        }
      ],
      "name": "OwnershipTransferred",
      "type": "event"
    },
    {
      "anonymous": false,
      "inputs": [
        {
          "indexed": true,
          "internalType": "address",
          "name": "syntheticAddress",
          "type": "address"
        },
        {
          "indexed": false,
          "internalType": "uint256",
          "name": "amount",
          "type": "uint256"
        }
      ],
      "name": "RedeemAsset",
      "type": "event"
    },
    {
      "anonymous": false,
      "inputs": [
        {
          "indexed": true,
          "internalType": "address",
          "name": "user",
          "type": "address"
        },
        {
          "indexed": false,
          "internalType": "uint256",
          "name": "amount",
          "type": "uint256"
        }
      ],
      "name": "RemoveCollateral",
      "type": "event"
    },
    {
      "inputs": [
        {
          "internalType": "contract IERC20Burnable",
          "name": "_synthetic",
          "type": "address"
        },
        {
          "internalType": "uint256",
          "name": "_extraAmount",
          "type": "uint256"
        }
      ],
      "name": "addCollateral",
      "outputs": [],
      "stateMutability": "nonpayable",
      "type": "function"
    },
    {
      "inputs": [
        {
          "internalType": "address",
          "name": "",
          "type": "address"
        }
      ],
      "name": "addressToPairs",
      "outputs": [
        {
          "internalType": "string",
          "name": "",
          "type": "string"
        }
      ],
      "stateMutability": "view",
      "type": "function"
    },
    {
      "inputs": [],
      "name": "bandOracle",
      "outputs": [
        {
          "internalType": "contract IStdReference",
          "name": "",
          "type": "address"
        }
      ],
      "stateMutability": "view",
      "type": "function"
    },
    {
      "inputs": [],
      "name": "collateralRatio",
      "outputs": [
        {
          "internalType": "uint256",
          "name": "",
          "type": "uint256"
        }
      ],
      "stateMutability": "view",
      "type": "function"
    },
    {
      "inputs": [],
      "name": "denominator",
      "outputs": [
        {
          "internalType": "uint256",
          "name": "",
          "type": "uint256"
        }
      ],
      "stateMutability": "view",
      "type": "function"
    },
    {
      "inputs": [],
      "name": "dolly",
      "outputs": [
        {
          "internalType": "contract IERC20",
          "name": "",
          "type": "address"
        }
      ],
      "stateMutability": "view",
      "type": "function"
    },
    {
      "inputs": [
        {
          "internalType": "string",
          "name": "_pairs",
          "type": "string"
        }
      ],
      "name": "getRate",
      "outputs": [
        {
          "internalType": "uint256",
          "name": "",
          "type": "uint256"
        }
      ],
      "stateMutability": "view",
      "type": "function"
    },
    {
      "inputs": [
        {
          "internalType": "string",
          "name": "_pairs",
          "type": "string"
        }
      ],
      "name": "isSupported",
      "outputs": [
        {
          "internalType": "bool",
          "name": "",
          "type": "bool"
        }
      ],
      "stateMutability": "view",
      "type": "function"
    },
    {
      "inputs": [],
      "name": "liquidate",
      "outputs": [],
      "stateMutability": "nonpayable",
      "type": "function"
    },
    {
      "inputs": [],
      "name": "liquidationRatio",
      "outputs": [
        {
          "internalType": "uint256",
          "name": "",
          "type": "uint256"
        }
      ],
      "stateMutability": "view",
      "type": "function"
    },
    {
      "inputs": [
        {
          "internalType": "contract IERC20Burnable",
          "name": "_synthetic",
          "type": "address"
        },
        {
          "internalType": "uint256",
          "name": "_amount",
          "type": "uint256"
        },
        {
          "internalType": "uint256",
          "name": "_backedAmount",
          "type": "uint256"
        }
      ],
      "name": "mintSynthetic",
      "outputs": [],
      "stateMutability": "nonpayable",
      "type": "function"
    },
    {
      "inputs": [
        {
          "internalType": "address",
          "name": "",
          "type": "address"
        },
        {
          "internalType": "address",
          "name": "",
          "type": "address"
        }
      ],
      "name": "minter",
      "outputs": [
        {
          "internalType": "address",
          "name": "minter",
          "type": "address"
        },
        {
          "internalType": "contract IERC20Burnable",
          "name": "asset",
          "type": "address"
        },
        {
          "internalType": "contract IERC20",
          "name": "assetBacked",
          "type": "address"
        },
        {
          "internalType": "uint256",
          "name": "assetAmount",
          "type": "uint256"
        },
        {
          "internalType": "uint256",
          "name": "assetBackedAmount",
          "type": "uint256"
        },
        {
          "internalType": "uint256",
          "name": "currentRatio",
          "type": "uint256"
        },
        {
          "internalType": "uint256",
          "name": "willLiquidateAtPrice",
          "type": "uint256"
        },
        {
          "internalType": "uint256",
          "name": "canMintRemainning",
          "type": "uint256"
        },
        {
          "internalType": "uint256",
          "name": "canWithdrawRemainning",
          "type": "uint256"
        },
        {
          "internalType": "uint256",
          "name": "updatedAt",
          "type": "uint256"
        },
        {
          "internalType": "uint256",
          "name": "updatedBlock",
          "type": "uint256"
        },
        {
          "internalType": "uint256",
          "name": "exchangeRateAtMinted",
          "type": "uint256"
        },
        {
          "internalType": "uint256",
          "name": "currentExchangeRate",
          "type": "uint256"
        }
      ],
      "stateMutability": "view",
      "type": "function"
    },
    {
      "inputs": [],
      "name": "owner",
      "outputs": [
        {
          "internalType": "address",
          "name": "",
          "type": "address"
        }
      ],
      "stateMutability": "view",
      "type": "function"
    },
    {
      "inputs": [
        {
          "internalType": "string",
          "name": "",
          "type": "string"
        }
      ],
      "name": "pairsToAddress",
      "outputs": [
        {
          "internalType": "address",
          "name": "",
          "type": "address"
        }
      ],
      "stateMutability": "view",
      "type": "function"
    },
    {
      "inputs": [
        {
          "internalType": "string",
          "name": "",
          "type": "string"
        },
        {
          "internalType": "uint256",
          "name": "",
          "type": "uint256"
        }
      ],
      "name": "pairsToQuote",
      "outputs": [
        {
          "internalType": "string",
          "name": "",
          "type": "string"
        }
      ],
      "stateMutability": "view",
      "type": "function"
    },
    {
      "inputs": [
        {
          "internalType": "contract IERC20Burnable",
          "name": "_synthetic",
          "type": "address"
        },
        {
          "internalType": "uint256",
          "name": "_amount",
          "type": "uint256"
        }
      ],
      "name": "redeemSynthetic",
      "outputs": [],
      "stateMutability": "nonpayable",
      "type": "function"
    },
    {
      "inputs": [],
      "name": "renounceOwnership",
      "outputs": [],
      "stateMutability": "nonpayable",
      "type": "function"
    },
    {
      "inputs": [
        {
          "internalType": "address",
          "name": "_syntheticAddress",
          "type": "address"
        },
        {
          "internalType": "string",
          "name": "_pairs",
          "type": "string"
        }
      ],
      "name": "setAddressToPairs",
      "outputs": [],
      "stateMutability": "nonpayable",
      "type": "function"
    },
    {
      "inputs": [
        {
          "internalType": "string",
          "name": "_pairs",
          "type": "string"
        },
        {
          "internalType": "address",
          "name": "_syntheticAddress",
          "type": "address"
        }
      ],
      "name": "setPairsToAddress",
      "outputs": [],
      "stateMutability": "nonpayable",
      "type": "function"
    },
    {
      "inputs": [
        {
          "internalType": "string",
          "name": "_pairs",
          "type": "string"
        },
        {
          "internalType": "string[2]",
          "name": "baseAndQuote",
          "type": "string[2]"
        }
      ],
      "name": "setPairsToQuote",
      "outputs": [],
      "stateMutability": "nonpayable",
      "type": "function"
    },
    {
      "inputs": [],
      "name": "systheticAsset",
      "outputs": [
        {
          "internalType": "contract IERC20Burnable",
          "name": "",
          "type": "address"
        }
      ],
      "stateMutability": "view",
      "type": "function"
    },
    {
      "inputs": [
        {
          "internalType": "address",
          "name": "newOwner",
          "type": "address"
        }
      ],
      "name": "transferOwnership",
      "outputs": [],
      "stateMutability": "nonpayable",
      "type": "function"
    }
  ],
  "bytecode": "0x6080604052670de0b6b3a76400006007556714d1120d7b160000600855671158e460913d00006009553480156200003557600080fd5b506040516200208c3803806200208c833981016040819052620000589162000370565b60006200006462000211565b600080546001600160a01b0319166001600160a01b0383169081178255604051929350917f8be0079c531659141344cd1fd0a4f28419497f9722a3daafe3b4186f6b6457e0908290a350600280546001600160a01b038085166001600160a01b03199283161790925560038054928416929091169190911781556040805160808101825260048183018181526354534c4160e01b6060840152825282518084018452938452621554d160ea1b60208581019190915282019390935290519091906200012f90620003ae565b9081526040519081900360200190206200014b91600262000215565b507365cac0f09efdb88195a002e8dd4cbf6ec9bc7f6060056040516200017190620003ae565b908152604080516020928190038301812080546001600160a01b0319166001600160a01b039590951694909417909355828101905260088252671514d3104bd554d160c21b8183019081527365cac0f09efdb88195a002e8dd4cbf6ec9bc7f606000526006909152905162000208917fb5aea66d9b9a38ebc3abed41876b8c9b8e80920b3fb821e1e214caaf12318c23916200026c565b505050620003d8565b3390565b82600281019282156200025a579160200282015b828111156200025a5782518051620002499184916020909101906200026c565b509160200191906001019062000229565b5062000268929150620002ed565b5090565b828054600181600116156101000203166002900490600052602060002090601f016020900481019282601f10620002af57805160ff1916838001178555620002df565b82800160010185558215620002df579182015b82811115620002df578251825591602001919060010190620002c2565b50620002689291506200030e565b808211156200026857600062000304828262000325565b50600101620002ed565b5b808211156200026857600081556001016200030f565b50805460018160011615610100020316600290046000825580601f106200034d57506200036d565b601f0160209004906000526020600020908101906200036d91906200030e565b50565b6000806040838503121562000383578182fd5b82516200039081620003c2565b6020840151909250620003a381620003c2565b809150509250929050565b671514d3104bd554d160c21b815260080190565b6001600160a01b03811681146200036d57600080fd5b611ca480620003e86000396000f3fe608060405234801561001057600080fd5b50600436106101425760003560e01c80638223c770116100b8578063b32ec5461161007c578063b32ec5461461026a578063b4eae1cb1461027d578063bad8269014610285578063bf15c3e114610298578063f2fde38b146102ab578063f3a014a2146102be57610142565b80638223c7701461022c5780638da5cb5b1461023f578063956dcd1f1461024757806396ce07951461024f5780639a12944c1461025757610142565b80636502d1711161010a5780636502d171146101b75780636c0daed8146101e35780636d75b9ee146101f65780636e1aa51b14610209578063715018a6146102115780637bda6e281461021957610142565b80630b87d86e146101475780631775765f1461016557806328a070251461017a5780633f97bc5b146101845780635bcbdc96146101a4575b600080fd5b61014f6102de565b60405161015c91906118d5565b60405180910390f35b61016d6102ed565b60405161015c9190611bed565b6101826102f3565b005b6101976101923660046117b6565b6102f5565b60405161015c919061199f565b6101826101b2366004611714565b6103ac565b6101ca6101c536600461158f565b61041a565b60405161015c9d9c9b9a99989796959493929190611926565b61016d6101f1366004611694565b610497565b610182610204366004611635565b610582565b61014f61080c565b61018261081b565b6101826102273660046116cf565b61089a565b61018261023a3660046115c7565b610913565b61014f610971565b61014f610980565b61016d61098f565b610182610265366004611660565b610995565b610182610278366004611635565b610cca565b61016d61120f565b61014f610293366004611694565b611215565b6101976102a6366004611573565b61123b565b6101826102b9366004611573565b6112a3565b6102d16102cc366004611694565b611359565b60405161015c9190611994565b6002546001600160a01b031681565b60095481565b565b81516020818401810180516004825292820191850191909120919052816002811061031c57fe5b01805460408051602060026001851615610100026000190190941693909304601f810184900484028201840190925281815294509192508301828280156103a45780601f10610379576101008083540402835291602001916103a4565b820191906000526020600020905b81548152906001019060200180831161038757829003601f168201915b505050505081565b6103b4611376565b6000546001600160a01b039081169116146103ea5760405162461bcd60e51b81526004016103e190611b1c565b60405180910390fd5b806004836040516103fb91906118b9565b9081526040519081900360200190206104159160026113a6565b505050565b600a602081815260009384526040808520909152918352912080546001820154600283015460038401546004850154600586015460068701546007880154600889015460098a01549a8a0154600b8b0154600c909b01546001600160a01b039a8b169c998b169b9a9098169996989597949693959294919390918d565b60006104a282611359565b6104ab57600080fd5b6104b36113f6565b6003546040516001600160a01b03909116906365555bcc906004906104d99087906118b9565b9081526040519081900360200190206000016004866040516104fb91906118b9565b9081526040519081900360200190206001016040518363ffffffff1660e01b815260040161052a9291906119d2565b60606040518083038186803b15801561054257600080fd5b505afa158015610556573d6000803e3d6000fd5b505050506040513d601f19601f8201168201806040525081019061057a91906117f9565b519392505050565b6000600a6000610590611376565b6001600160a01b0390811682526020808301939093526040918201600090812091871681529252902060048101549091506105cb908361137a565b60048201556001600160a01b038316600090815260066020908152604080832080548251601f600260001961010060018616150201909316929092049182018590048502810185019093528083526106789383018282801561066e5780601f106106435761010080835404028352916020019161066e565b820191906000526020600020905b81548152906001019060200180831161065157829003601f168201915b5050505050610497565b90506000600754828460030154028161068d57fe5b04905060006007546008548302816106a157fe5b6004860154600254929091049250829003906001600160a01b03166323b872dd6106c9611376565b30896040518463ffffffff1660e01b81526004016106e9939291906118e9565b602060405180830381600087803b15801561070357600080fd5b505af1158015610717573d6000803e3d6000fd5b505050506040513d601f19601f8201168201806040525081019061073b9190611615565b61074457600080fd5b600754600754856007548860040154028161075b57fe5b04028161076457fe5b0460058601556007546009546004870154028161077d57fe5b0460068601556008850181905560075480858184028161079957fe5b0402816107a257fe5b046007860155600c850184905542600986015543600a8601556107c3611376565b6001600160a01b03167f2ac90482c3b6bea30a2c085cf093016bad7f970d91c5fd233e6b848d3e231dc3876040516107fb9190611bed565b60405180910390a250505050505050565b6001546001600160a01b031681565b610823611376565b6000546001600160a01b039081169116146108505760405162461bcd60e51b81526004016103e190611b1c565b600080546040516001600160a01b03909116907f8be0079c531659141344cd1fd0a4f28419497f9722a3daafe3b4186f6b6457e0908390a3600080546001600160a01b0319169055565b6108a2611376565b6000546001600160a01b039081169116146108cf5760405162461bcd60e51b81526004016103e190611b1c565b806005836040516108e091906118b9565b90815260405190819003602001902080546001600160a01b03929092166001600160a01b03199092169190911790555050565b61091b611376565b6000546001600160a01b039081169116146109485760405162461bcd60e51b81526004016103e190611b1c565b6001600160a01b0382166000908152600660209081526040909120825161041592840190611417565b6000546001600160a01b031690565b6003546001600160a01b031681565b60075481565b6000600a60006109a3611376565b6001600160a01b0390811682526020808301939093526040918201600090812088831682529093529120805490925016156109f05760405162461bcd60e51b81526004016103e190611b51565b6001600160a01b038416600090815260066020908152604080832080548251601f60026000196101006001861615020190931692909204918201859004850281018501909352808352610a639383018282801561066e5780601f106106435761010080835404028352916020019161066e565b9050600060075482860281610a7457fe5b0490506000600754600854830281610a8857fe5b04905080851015610aab5760405162461bcd60e51b81526004016103e190611a7d565b8085036001600160a01b0388166340c10f19610ac5611376565b896040518363ffffffff1660e01b8152600401610ae392919061190d565b600060405180830381600087803b158015610afd57600080fd5b505af1158015610b11573d6000803e3d6000fd5b50506002546001600160a01b031691506323b872dd9050610b30611376565b30896040518463ffffffff1660e01b8152600401610b50939291906118e9565b602060405180830381600087803b158015610b6a57600080fd5b505af1158015610b7e573d6000803e3d6000fd5b505050506040513d601f19601f82011682018060405250810190610ba29190611615565b610bab57600080fd5b610bb3611376565b85546001600160a01b03199081166001600160a01b0392831617875560018701805482168b84161790556002805490880180549190931691161790556003850187905560048501869055600b8501849055600c8501849055600754808581890281610c1a57fe5b040281610c2357fe5b046005860155600754600954870281610c3857fe5b04600686015560088086018290556007549054889190819089820281610c5a57fe5b040281610c6357fe5b0403600786015542600986015543600a8601556001600160a01b0388167fd7918d04fa8d2763da038d81b4ab65ea7b9eb8e5e3b199c548142ac304a8ad6f610ca9611376565b89604051610cb892919061190d565b60405180910390a25050505050505050565b6000600a6000610cd8611376565b6001600160a01b03166001600160a01b031681526020019081526020016000206000846001600160a01b03166001600160a01b0316815260200190815260200160002090508181600301541015610d415760405162461bcd60e51b81526004016103e190611ac7565b8060030154821415610f2357826001600160a01b03166379cc6790610d64611376565b846040518363ffffffff1660e01b8152600401610d8292919061190d565b600060405180830381600087803b158015610d9c57600080fd5b505af1158015610db0573d6000803e3d6000fd5b50506002546001600160a01b0316915063a9059cbb9050610dcf611376565b83600401546040518363ffffffff1660e01b8152600401610df192919061190d565b602060405180830381600087803b158015610e0b57600080fd5b505af1158015610e1f573d6000803e3d6000fd5b505050506040513d601f19601f82011682018060405250810190610e439190611615565b50600a6000610e50611376565b6001600160a01b039081168252602080830193909352604091820160009081209187168082529190935281832080546001600160a01b0319908116825560018201805482169055600282018054909116905560038101849055600481018490556005810184905560068101849055600781018490556008810184905560098101849055600a8101849055600b8101849055600c0192909255517fb99b782c502642cbb60ce7d75f893727e5ef94003f2f9e56bcbbb013615e193e90610f16908590611bed565b60405180910390a2610415565b60006007546007548360030154600754860281610f3c57fe5b040281610f4557fe5b04905060006007548284600301540281610f5b57fe5b04905060006007548385600401540281610f7157fe5b6001600160a01b038816600090815260066020908152604080832080548251601f600260001961010060018616150201909316929092049182018590048502810185019093528083529590940495509193610fed939183018282801561066e5780601f106106435761010080835404028352916020019161066e565b90506000828660040154039050600084876003015403905060006007548483028161101457fe5b049050600060075460085483028161102857fe5b0490508084101561104b5760405162461bcd60e51b81526004016103e190611ba1565b8084036001600160a01b038c166379cc6790611065611376565b8a6040518363ffffffff1660e01b815260040161108392919061190d565b600060405180830381600087803b15801561109d57600080fd5b505af11580156110b1573d6000803e3d6000fd5b50506002546001600160a01b0316915063a9059cbb90506110d0611376565b896040518363ffffffff1660e01b81526004016110ee92919061190d565b602060405180830381600087803b15801561110857600080fd5b505af115801561111c573d6000803e3d6000fd5b505050506040513d601f19601f820116820180604052508101906111409190611615565b5060038a0184905560048a0185905560075480878188028161115e57fe5b04028161116757fe5b0460058b015560075460095460048c0154028161118057fe5b0460068b015560088a0181905560075480878184028161119c57fe5b0402816111a557fe5b0460078b0155600c8a018690554260098b015543600a8b01556040516001600160a01b038d16907fb99b782c502642cbb60ce7d75f893727e5ef94003f2f9e56bcbbb013615e193e906111f9908e90611bed565b60405180910390a2505050505050505050505050565b60085481565b80516020818301810180516005825292820191909301209152546001600160a01b031681565b60066020908152600091825260409182902080548351601f6002600019610100600186161502019093169290920491820184900484028101840190945280845290918301828280156103a45780601f10610379576101008083540402835291602001916103a4565b6112ab611376565b6000546001600160a01b039081169116146112d85760405162461bcd60e51b81526004016103e190611b1c565b6001600160a01b0381166112fe5760405162461bcd60e51b81526004016103e190611a00565b600080546040516001600160a01b03808516939216917f8be0079c531659141344cd1fd0a4f28419497f9722a3daafe3b4186f6b6457e091a3600080546001600160a01b0319166001600160a01b0392909216919091179055565b60008060048360405161136c91906118b9565b5260021192915050565b3390565b60008282018381101561139f5760405162461bcd60e51b81526004016103e190611a46565b9392505050565b82600281019282156113e6579160200282015b828111156113e657825180516113d6918491602090910190611417565b50916020019190600101906113b9565b506113f2929150611491565b5090565b60405180606001604052806000815260200160008152602001600081525090565b828054600181600116156101000203166002900490600052602060002090601f016020900481019282601f1061145857805160ff1916838001178555611485565b82800160010185558215611485579182015b8281111561148557825182559160200191906001019061146a565b506113f29291506114ae565b808211156113f25760006114a582826114c3565b50600101611491565b5b808211156113f257600081556001016114af565b50805460018160011615610100020316600290046000825580601f106114e95750611507565b601f01602090049060005260206000209081019061150791906114ae565b50565b600082601f83011261151a578081fd5b813567ffffffffffffffff811115611530578182fd5b611543601f8201601f1916602001611bf6565b915080825283602082850101111561155a57600080fd5b8060208401602084013760009082016020015292915050565b600060208284031215611584578081fd5b813561139f81611c59565b600080604083850312156115a1578081fd5b82356115ac81611c59565b915060208301356115bc81611c59565b809150509250929050565b600080604083850312156115d9578182fd5b82356115e481611c59565b9150602083013567ffffffffffffffff8111156115ff578182fd5b61160b8582860161150a565b9150509250929050565b600060208284031215611626578081fd5b8151801515811461139f578182fd5b60008060408385031215611647578182fd5b823561165281611c59565b946020939093013593505050565b600080600060608486031215611674578081fd5b833561167f81611c59565b95602085013595506040909401359392505050565b6000602082840312156116a5578081fd5b813567ffffffffffffffff8111156116bb578182fd5b6116c78482850161150a565b949350505050565b600080604083850312156116e1578182fd5b823567ffffffffffffffff8111156116f7578283fd5b6117038582860161150a565b92505060208301356115bc81611c59565b60008060408385031215611726578182fd5b823567ffffffffffffffff8082111561173d578384fd5b6117498683870161150a565b935060209150818501358181111561175f578384fd5b85019050601f81018613611771578283fd5b61177b6040611bf6565b8082855b60028110156117a7576117958a8335870161150a565b8452928501929085019060010161177f565b50959890975095505050505050565b600080604083850312156117c8578182fd5b823567ffffffffffffffff8111156117de578283fd5b6117ea8582860161150a565b95602094909401359450505050565b60006060828403121561180a578081fd5b6118146060611bf6565b8251815260208301516020820152604083015160408201528091505092915050565b600081546001808216600081146118545760018114611872576118b0565b60028304607f16865260ff19831660208701526040860193506118b0565b6002830480875261188286611c1d565b60005b828110156118a65781546020828b0101528482019150602081019050611885565b8801602001955050505b50505092915050565b600082516118cb818460208701611c29565b9190910192915050565b6001600160a01b0391909116815260200190565b6001600160a01b039384168152919092166020820152604081019190915260600190565b6001600160a01b03929092168252602082015260400190565b6001600160a01b039d8e1681529b8d1660208d015299909b1660408b015260608a0197909752608089019590955260a088019390935260c087019190915260e08601526101008501526101208401526101408301526101608201929092526101808101919091526101a00190565b901515815260200190565b60006020825282518060208401526119be816040850160208701611c29565b601f01601f19169190910160400192915050565b6000604082526119e56040830185611836565b82810360208401526119f78185611836565b95945050505050565b60208082526026908201527f4f776e61626c653a206e6577206f776e657220697320746865207a65726f206160408201526564647265737360d01b606082015260800190565b6020808252601b908201527f536166654d6174683a206164646974696f6e206f766572666c6f770000000000604082015260600190565b6020808252602a908201527f53796e7468657469633a3a6d696e7453796e7468657469633a20756e6465722060408201526918dbdb1b185d195c985b60b21b606082015260800190565b60208082526035908201527f53796e7468657469633a3a72656465656d53796e7468657469633a20616d6f756040820152741b9d08195e18d959591cc818dbdb1b185d195c985b605a1b606082015260800190565b6020808252818101527f4f776e61626c653a2063616c6c6572206973206e6f7420746865206f776e6572604082015260600190565b60208082526030908201527f53796e7468657469633a3a6d696e7453796e7468657469633a207472616e736660408201526f657220746f206164647265737328302960801b606082015260800190565b6020808252602c908201527f53796e7468657469633a3a72656465656d53796e7468657469633a20756e646560408201526b1c8818dbdb1b185d195c985b60a21b606082015260800190565b90815260200190565b60405181810167ffffffffffffffff81118282101715611c1557600080fd5b604052919050565b60009081526020902090565b60005b83811015611c44578181015183820152602001611c2c565b83811115611c53576000848401525b50505050565b6001600160a01b038116811461150757600080fdfea264697066735822122014f0b20b1d160bc0b72d83bf99d5eaec06edfeee0e052373f2eb5ce9403e2e2f64736f6c634300060c0033",
  "linkReferences": {},
  "deployedLinkReferences": {}
}