{
  "_format": "hh-sol-artifact-1",
  "contractName": "Synthetic",
  "sourceName": "contracts/Synthetic.sol",
  "abi": [
    {
      "inputs": [
        {
          "internalType": "contract IERC20",
          "name": "_dolly",
          "type": "address"
        },
        {
          "internalType": "contract IStdReference",
          "name": "_ref",
          "type": "address"
        }
      ],
      "stateMutability": "nonpayable",
      "type": "constructor"
    },
    {
      "anonymous": false,
      "inputs": [
        {
          "indexed": true,
          "internalType": "address",
          "name": "user",
          "type": "address"
        },
        {
          "indexed": false,
          "internalType": "uint256",
          "name": "amount",
          "type": "uint256"
        }
      ],
      "name": "AddCollateral",
      "type": "event"
    },
    {
      "anonymous": false,
      "inputs": [
        {
          "indexed": true,
          "internalType": "address",
          "name": "liquidated",
          "type": "address"
        },
        {
          "indexed": true,
          "internalType": "address",
          "name": "liquidator",
          "type": "address"
        },
        {
          "indexed": true,
          "internalType": "address",
          "name": "syntheticAddress",
          "type": "address"
        },
        {
          "indexed": false,
          "internalType": "uint256",
          "name": "amount",
          "type": "uint256"
        },
        {
          "indexed": false,
          "internalType": "uint256",
          "name": "timestamp",
          "type": "uint256"
        }
      ],
      "name": "Liquidated",
      "type": "event"
    },
    {
      "anonymous": false,
      "inputs": [
        {
          "indexed": false,
          "internalType": "address",
          "name": "minter",
          "type": "address"
        },
        {
          "indexed": true,
          "internalType": "address",
          "name": "syntheticAddress",
          "type": "address"
        },
        {
          "indexed": false,
          "internalType": "uint256",
          "name": "amount",
          "type": "uint256"
        }
      ],
      "name": "MintAsset",
      "type": "event"
    },
    {
      "anonymous": false,
      "inputs": [
        {
          "indexed": true,
          "internalType": "address",
          "name": "previousOwner",
          "type": "address"
        },
        {
          "indexed": true,
          "internalType": "address",
          "name": "newOwner",
          "type": "address"
        }
      ],
      "name": "OwnershipTransferred",
      "type": "event"
    },
    {
      "anonymous": false,
      "inputs": [
        {
          "indexed": false,
          "internalType": "address",
          "name": "account",
          "type": "address"
        }
      ],
      "name": "Paused",
      "type": "event"
    },
    {
      "anonymous": false,
      "inputs": [
        {
          "indexed": true,
          "internalType": "address",
          "name": "syntheticAddress",
          "type": "address"
        },
        {
          "indexed": false,
          "internalType": "uint256",
          "name": "amount",
          "type": "uint256"
        }
      ],
      "name": "RedeemAsset",
      "type": "event"
    },
    {
      "anonymous": false,
      "inputs": [
        {
          "indexed": true,
          "internalType": "address",
          "name": "user",
          "type": "address"
        },
        {
          "indexed": false,
          "internalType": "uint256",
          "name": "amount",
          "type": "uint256"
        }
      ],
      "name": "RemoveCollateral",
      "type": "event"
    },
    {
      "anonymous": false,
      "inputs": [
        {
          "indexed": false,
          "internalType": "uint256",
          "name": "oldCollateralRatio",
          "type": "uint256"
        },
        {
          "indexed": false,
          "internalType": "uint256",
          "name": "newCollateralRatio",
          "type": "uint256"
        }
      ],
      "name": "SetCollateralRatio",
      "type": "event"
    },
    {
      "anonymous": false,
      "inputs": [
        {
          "indexed": false,
          "internalType": "address",
          "name": "oldDevAddress",
          "type": "address"
        },
        {
          "indexed": false,
          "internalType": "address",
          "name": "newDevAddress",
          "type": "address"
        }
      ],
      "name": "SetDevAddress",
      "type": "event"
    },
    {
      "anonymous": false,
      "inputs": [
        {
          "indexed": false,
          "internalType": "uint256",
          "name": "oldLiquidationRatio",
          "type": "uint256"
        },
        {
          "indexed": false,
          "internalType": "uint256",
          "name": "newLiquidationRatio",
          "type": "uint256"
        }
      ],
      "name": "SetLiquidationRatio",
      "type": "event"
    },
    {
      "anonymous": false,
      "inputs": [
        {
          "indexed": false,
          "internalType": "uint256",
          "name": "oldLiquidatorRewardRatio",
          "type": "uint256"
        },
        {
          "indexed": false,
          "internalType": "uint256",
          "name": "newLiquidatorRewardRatio",
          "type": "uint256"
        }
      ],
      "name": "SetLiquidatorRewardRatio",
      "type": "event"
    },
    {
      "anonymous": false,
      "inputs": [
        {
          "indexed": false,
          "internalType": "uint256",
          "name": "oldPlatfromFeeRatio",
          "type": "uint256"
        },
        {
          "indexed": false,
          "internalType": "uint256",
          "name": "newPlatfromFeeRatio",
          "type": "uint256"
        }
      ],
      "name": "SetPlatfromFeeRatio",
      "type": "event"
    },
    {
      "anonymous": false,
      "inputs": [
        {
          "indexed": false,
          "internalType": "uint256",
          "name": "oldRemainingToMinterRatio",
          "type": "uint256"
        },
        {
          "indexed": false,
          "internalType": "uint256",
          "name": "newRemainingToMinterRatio",
          "type": "uint256"
        }
      ],
      "name": "SetRemainingToMinterRatio",
      "type": "event"
    },
    {
      "anonymous": false,
      "inputs": [
        {
          "indexed": false,
          "internalType": "address",
          "name": "account",
          "type": "address"
        }
      ],
      "name": "Unpaused",
      "type": "event"
    },
    {
      "inputs": [
        {
          "internalType": "contract IERC20Burnable",
          "name": "_synthetic",
          "type": "address"
        },
        {
          "internalType": "uint256",
          "name": "_addAmount",
          "type": "uint256"
        }
      ],
      "name": "addCollateral",
      "outputs": [],
      "stateMutability": "nonpayable",
      "type": "function"
    },
    {
      "inputs": [
        {
          "internalType": "address",
          "name": "",
          "type": "address"
        }
      ],
      "name": "addressToPairs",
      "outputs": [
        {
          "internalType": "string",
          "name": "",
          "type": "string"
        }
      ],
      "stateMutability": "view",
      "type": "function"
    },
    {
      "inputs": [],
      "name": "bandOracle",
      "outputs": [
        {
          "internalType": "contract IStdReference",
          "name": "",
          "type": "address"
        }
      ],
      "stateMutability": "view",
      "type": "function"
    },
    {
      "inputs": [],
      "name": "collateralRatio",
      "outputs": [
        {
          "internalType": "uint256",
          "name": "",
          "type": "uint256"
        }
      ],
      "stateMutability": "view",
      "type": "function"
    },
    {
      "inputs": [
        {
          "internalType": "address",
          "name": "",
          "type": "address"
        },
        {
          "internalType": "address",
          "name": "",
          "type": "address"
        }
      ],
      "name": "contracts",
      "outputs": [
        {
          "internalType": "address",
          "name": "minter",
          "type": "address"
        },
        {
          "internalType": "contract IERC20Burnable",
          "name": "asset",
          "type": "address"
        },
        {
          "internalType": "contract IERC20",
          "name": "assetBacked",
          "type": "address"
        },
        {
          "internalType": "uint256",
          "name": "assetAmount",
          "type": "uint256"
        },
        {
          "internalType": "uint256",
          "name": "assetBackedAmount",
          "type": "uint256"
        },
        {
          "internalType": "uint256",
          "name": "currentRatio",
          "type": "uint256"
        },
        {
          "internalType": "uint256",
          "name": "willLiquidateAtPrice",
          "type": "uint256"
        },
        {
          "internalType": "uint256",
          "name": "canMintRemainning",
          "type": "uint256"
        },
        {
          "internalType": "uint256",
          "name": "canWithdrawRemainning",
          "type": "uint256"
        },
        {
          "internalType": "uint256",
          "name": "updatedAt",
          "type": "uint256"
        },
        {
          "internalType": "uint256",
          "name": "updatedBlock",
          "type": "uint256"
        },
        {
          "internalType": "uint256",
          "name": "exchangeRateAtMinted",
          "type": "uint256"
        },
        {
          "internalType": "uint256",
          "name": "currentExchangeRate",
          "type": "uint256"
        }
      ],
      "stateMutability": "view",
      "type": "function"
    },
    {
      "inputs": [],
      "name": "denominator",
      "outputs": [
        {
          "internalType": "uint256",
          "name": "",
          "type": "uint256"
        }
      ],
      "stateMutability": "view",
      "type": "function"
    },
    {
      "inputs": [],
      "name": "devAddress",
      "outputs": [
        {
          "internalType": "address",
          "name": "",
          "type": "address"
        }
      ],
      "stateMutability": "view",
      "type": "function"
    },
    {
      "inputs": [],
      "name": "dolly",
      "outputs": [
        {
          "internalType": "contract IERC20",
          "name": "",
          "type": "address"
        }
      ],
      "stateMutability": "view",
      "type": "function"
    },
    {
      "inputs": [
        {
          "internalType": "string",
          "name": "_pairs",
          "type": "string"
        }
      ],
      "name": "getRate",
      "outputs": [
        {
          "internalType": "uint256",
          "name": "",
          "type": "uint256"
        }
      ],
      "stateMutability": "view",
      "type": "function"
    },
    {
      "inputs": [
        {
          "internalType": "string",
          "name": "_pairs",
          "type": "string"
        }
      ],
      "name": "isSupported",
      "outputs": [
        {
          "internalType": "bool",
          "name": "",
          "type": "bool"
        }
      ],
      "stateMutability": "view",
      "type": "function"
    },
    {
      "inputs": [
        {
          "internalType": "contract IERC20Burnable",
          "name": "_synthetic",
          "type": "address"
        },
        {
          "internalType": "address",
          "name": "_minter",
          "type": "address"
        }
      ],
      "name": "liquidate",
      "outputs": [],
      "stateMutability": "nonpayable",
      "type": "function"
    },
    {
      "inputs": [],
      "name": "liquidationRatio",
      "outputs": [
        {
          "internalType": "uint256",
          "name": "",
          "type": "uint256"
        }
      ],
      "stateMutability": "view",
      "type": "function"
    },
    {
      "inputs": [],
      "name": "liquidatorRewardRatio",
      "outputs": [
        {
          "internalType": "uint256",
          "name": "",
          "type": "uint256"
        }
      ],
      "stateMutability": "view",
      "type": "function"
    },
    {
      "inputs": [
        {
          "internalType": "contract IERC20Burnable",
          "name": "_synthetic",
          "type": "address"
        },
        {
          "internalType": "uint256",
          "name": "_amount",
          "type": "uint256"
        },
        {
          "internalType": "uint256",
          "name": "_backedAmount",
          "type": "uint256"
        }
      ],
      "name": "mintSynthetic",
      "outputs": [],
      "stateMutability": "nonpayable",
      "type": "function"
    },
    {
      "inputs": [],
      "name": "owner",
      "outputs": [
        {
          "internalType": "address",
          "name": "",
          "type": "address"
        }
      ],
      "stateMutability": "view",
      "type": "function"
    },
    {
      "inputs": [
        {
          "internalType": "string",
          "name": "",
          "type": "string"
        }
      ],
      "name": "pairsToAddress",
      "outputs": [
        {
          "internalType": "address",
          "name": "",
          "type": "address"
        }
      ],
      "stateMutability": "view",
      "type": "function"
    },
    {
      "inputs": [
        {
          "internalType": "string",
          "name": "",
          "type": "string"
        },
        {
          "internalType": "uint256",
          "name": "",
          "type": "uint256"
        }
      ],
      "name": "pairsToQuote",
      "outputs": [
        {
          "internalType": "string",
          "name": "",
          "type": "string"
        }
      ],
      "stateMutability": "view",
      "type": "function"
    },
    {
      "inputs": [],
      "name": "pause",
      "outputs": [],
      "stateMutability": "nonpayable",
      "type": "function"
    },
    {
      "inputs": [],
      "name": "paused",
      "outputs": [
        {
          "internalType": "bool",
          "name": "",
          "type": "bool"
        }
      ],
      "stateMutability": "view",
      "type": "function"
    },
    {
      "inputs": [],
      "name": "platfromFeeRatio",
      "outputs": [
        {
          "internalType": "uint256",
          "name": "",
          "type": "uint256"
        }
      ],
      "stateMutability": "view",
      "type": "function"
    },
    {
      "inputs": [
        {
          "internalType": "contract IERC20Burnable",
          "name": "_synthetic",
          "type": "address"
        },
        {
          "internalType": "uint256",
          "name": "_amount",
          "type": "uint256"
        }
      ],
      "name": "redeemSynthetic",
      "outputs": [],
      "stateMutability": "nonpayable",
      "type": "function"
    },
    {
      "inputs": [],
      "name": "remainingToMinterRatio",
      "outputs": [
        {
          "internalType": "uint256",
          "name": "",
          "type": "uint256"
        }
      ],
      "stateMutability": "view",
      "type": "function"
    },
    {
      "inputs": [
        {
          "internalType": "contract IERC20Burnable",
          "name": "_synthetic",
          "type": "address"
        },
        {
          "internalType": "uint256",
          "name": "_removeBackedAmount",
          "type": "uint256"
        }
      ],
      "name": "removeCollateral",
      "outputs": [],
      "stateMutability": "nonpayable",
      "type": "function"
    },
    {
      "inputs": [
        {
          "internalType": "contract IERC20Burnable",
          "name": "_synthetic",
          "type": "address"
        },
        {
          "internalType": "uint256",
          "name": "_removeAmount",
          "type": "uint256"
        }
      ],
      "name": "removeLowerCollateral",
      "outputs": [],
      "stateMutability": "nonpayable",
      "type": "function"
    },
    {
      "inputs": [],
      "name": "renounceOwnership",
      "outputs": [],
      "stateMutability": "nonpayable",
      "type": "function"
    },
    {
      "inputs": [
        {
          "internalType": "address",
          "name": "_syntheticAddress",
          "type": "address"
        },
        {
          "internalType": "string",
          "name": "_pairs",
          "type": "string"
        }
      ],
      "name": "setAddressToPairs",
      "outputs": [],
      "stateMutability": "nonpayable",
      "type": "function"
    },
    {
      "inputs": [
        {
          "internalType": "uint256",
          "name": "_collateralRatio",
          "type": "uint256"
        }
      ],
      "name": "setCollateralRatio",
      "outputs": [],
      "stateMutability": "nonpayable",
      "type": "function"
    },
    {
      "inputs": [
        {
          "internalType": "address",
          "name": "_devAddress",
          "type": "address"
        }
      ],
      "name": "setDevAddress",
      "outputs": [],
      "stateMutability": "nonpayable",
      "type": "function"
    },
    {
      "inputs": [
        {
          "internalType": "uint256",
          "name": "_liquidationRatio",
          "type": "uint256"
        }
      ],
      "name": "setLiquidationRatio",
      "outputs": [],
      "stateMutability": "nonpayable",
      "type": "function"
    },
    {
      "inputs": [
        {
          "internalType": "uint256",
          "name": "_liquidatorRewardRatio",
          "type": "uint256"
        }
      ],
      "name": "setLiquidatorRewardRatio",
      "outputs": [],
      "stateMutability": "nonpayable",
      "type": "function"
    },
    {
      "inputs": [
        {
          "internalType": "string",
          "name": "_pairs",
          "type": "string"
        },
        {
          "internalType": "address",
          "name": "_syntheticAddress",
          "type": "address"
        }
      ],
      "name": "setPairsToAddress",
      "outputs": [],
      "stateMutability": "nonpayable",
      "type": "function"
    },
    {
      "inputs": [
        {
          "internalType": "string",
          "name": "_pairs",
          "type": "string"
        },
        {
          "internalType": "string[2]",
          "name": "baseAndQuote",
          "type": "string[2]"
        }
      ],
      "name": "setPairsToQuote",
      "outputs": [],
      "stateMutability": "nonpayable",
      "type": "function"
    },
    {
      "inputs": [
        {
          "internalType": "uint256",
          "name": "_platfromFeeRatio",
          "type": "uint256"
        }
      ],
      "name": "setPlatfromFeeRatio",
      "outputs": [],
      "stateMutability": "nonpayable",
      "type": "function"
    },
    {
      "inputs": [
        {
          "internalType": "uint256",
          "name": "_remainingToMinterRatio",
          "type": "uint256"
        }
      ],
      "name": "setRemainingToMinterRatio",
      "outputs": [],
      "stateMutability": "nonpayable",
      "type": "function"
    },
    {
      "inputs": [],
      "name": "systheticAsset",
      "outputs": [
        {
          "internalType": "contract IERC20Burnable",
          "name": "",
          "type": "address"
        }
      ],
      "stateMutability": "view",
      "type": "function"
    },
    {
      "inputs": [
        {
          "internalType": "address",
          "name": "newOwner",
          "type": "address"
        }
      ],
      "name": "transferOwnership",
      "outputs": [],
      "stateMutability": "nonpayable",
      "type": "function"
    },
    {
      "inputs": [],
      "name": "unpause",
      "outputs": [],
      "stateMutability": "nonpayable",
      "type": "function"
    },
    {
      "inputs": [
        {
          "internalType": "contract IERC20Burnable",
          "name": "_synthetic",
          "type": "address"
        },
        {
          "internalType": "address",
          "name": "_minter",
          "type": "address"
        }
      ],
      "name": "viewRewardFromLiquidate",
      "outputs": [
        {
          "internalType": "uint256",
          "name": "",
          "type": "uint256"
        },
        {
          "internalType": "uint256",
          "name": "",
          "type": "uint256"
        },
        {
          "internalType": "uint256",
          "name": "",
          "type": "uint256"
        },
        {
          "internalType": "uint256",
          "name": "",
          "type": "uint256"
        },
        {
          "internalType": "uint256",
          "name": "",
          "type": "uint256"
        }
      ],
      "stateMutability": "view",
      "type": "function"
    }
  ],
  "bytecode": "0x60806040526714d1120d7b160000600855671158e460913d000060095566b1a2bc2ec50000600a5566b1a2bc2ec50000600b55670c7d713b49da0000600c553480156200004b57600080fd5b506040516200376c3803806200376c8339810160408190526200006e916200013c565b60006200007a62000138565b600080546001600160a01b0319166001600160a01b0383169081178255604051929350917f8be0079c531659141344cd1fd0a4f28419497f9722a3daafe3b4186f6b6457e0908290a3506000805460ff60a01b1916905560018055600380546001600160a01b038085166001600160a01b03199283161790925560048054928416929091169190911790556200010f62000138565b600d80546001600160a01b0319166001600160a01b039290921691909117905550620001939050565b3390565b600080604083850312156200014f578182fd5b82516200015c816200017a565b60208401519092506200016f816200017a565b809150509250929050565b6001600160a01b03811681146200019057600080fd5b50565b6135c980620001a36000396000f3fe608060405234801561001057600080fd5b50600436106102325760003560e01c80638456cb5911610130578063b32ec546116100b8578063d2cd69611161007c578063d2cd69611461045d578063e150f64714610470578063f2fde38b14610483578063f3a014a214610496578063fcb589d5146104a957610232565b8063b32ec54614610409578063b4eae1cb1461041c578063bad8269014610424578063bf15c3e114610437578063d0d41fe11461044a57610232565b80638da5cb5b116100ff5780638da5cb5b146103cb578063946ce8cd146103d3578063956dcd1f146103e657806396ce0795146103ee5780639a12944c146103f657610232565b80638456cb591461038a57806384cd9b571461039257806386b9d81f146103a5578063876467f8146103b857610232565b80635bcbdc96116101be5780636d75b9ee116101825780636d75b9ee146103415780636e1aa51b14610354578063715018a61461035c5780637bda6e28146103645780638223c7701461037757610232565b80635bcbdc96146102eb5780635c975abb146102fe5780636060663e1461031357806365c3ad00146103265780636c0daed81461032e57610232565b80631775765f116102055780631775765f146102ab5780633ad10ef6146102b35780633f4ba83a146102bb5780633f97bc5b146102c35780634e55b8a7146102e357610232565b8063095f1404146102375780630b87d86e14610255578063123b08901461026a57806314057fca1461027f575b600080fd5b61023f6104cd565b60405161024c91906134e1565b60405180910390f35b61025d6104d3565b60405161024c9190612ed0565b61027d610278366004612e19565b6104e2565b005b61029261028d366004612b60565b610566565b60405161024c9d9c9b9a99989796959493929190612f3b565b61023f6105e6565b61025d6105ec565b61027d6105fb565b6102d66102d1366004612d99565b61065e565b60405161024c9190612fb4565b61023f610715565b61027d6102f9366004612cf7565b61071b565b610306610780565b60405161024c9190612fa9565b61027d610321366004612e19565b610790565b61023f6107ff565b61023f61033c366004612c77565b610805565b61027d61034f366004612c18565b6108f0565b61025d610c16565b61027d610c25565b61027d610372366004612cb2565b610ca4565b61027d610385366004612b98565b610d1d565b61027d610d7b565b61027d6103a0366004612e19565b610ddd565b61027d6103b3366004612c06565b610e4c565b61027d6103c6366004612c18565b611322565b61025d611611565b61027d6103e1366004612e19565b611620565b61025d61168f565b61023f61169e565b61027d610404366004612c43565b6116aa565b61027d610417366004612c18565b611a2d565b61023f611fdb565b61025d610432366004612c77565b611fe1565b6102d6610445366004612b44565b612007565b61027d610458366004612b44565b61206f565b61027d61046b366004612e19565b6120f7565b61027d61047e366004612c18565b612166565b61027d610491366004612b44565b612432565b6103066104a4366004612c77565b6124e8565b6104bc6104b7366004612c06565b612526565b60405161024c9594939291906134f8565b600a5481565b6003546001600160a01b031681565b6104ea6126f7565b6000546001600160a01b039081169116146105205760405162461bcd60e51b8152600401610517906132c5565b60405180910390fd5b600c8054908290556040517f2e3ff2a57d8574a2f22d5c3e4f6d87795bb4311b40b959c0fdc5bce2d20758189061055a90839085906134ea565b60405180910390a15050565b600e602090815260009283526040808420909152908252902080546001820154600283015460038401546004850154600586015460068701546007880154600889015460098a0154600a8b0154600b8c0154600c909c01546001600160a01b039b8c169c9a8c169b9099169997989697959694959394929391929091908d565b60095481565b600d546001600160a01b031681565b610603610780565b61061f5760405162461bcd60e51b815260040161051790613015565b6106276126f7565b6000546001600160a01b039081169116146106545760405162461bcd60e51b8152600401610517906132c5565b61065c6126fb565b565b81516020818401810180516005825292820191850191909120919052816002811061068557fe5b01805460408051602060026001851615610100026000190190941693909304601f8101849004840282018401909252818152945091925083018282801561070d5780601f106106e25761010080835404028352916020019161070d565b820191906000526020600020905b8154815290600101906020018083116106f057829003601f168201915b505050505081565b600c5481565b6107236126f7565b6000546001600160a01b039081169116146107505760405162461bcd60e51b8152600401610517906132c5565b806005836040516107619190612eb4565b90815260405190819003602001902061077b916002612977565b505050565b600054600160a01b900460ff1690565b6107986126f7565b6000546001600160a01b039081169116146107c55760405162461bcd60e51b8152600401610517906132c5565b60088054908290556040517fe21aac16189a7da506d3ccd8621d8639e3a32d51634174a427ebd25800884e999061055a90839085906134ea565b600b5481565b6000610810826124e8565b61081957600080fd5b6108216129c7565b6004546040516001600160a01b03909116906365555bcc90600590610847908790612eb4565b9081526040519081900360200190206000016005866040516108699190612eb4565b9081526040519081900360200190206001016040518363ffffffff1660e01b8152600401610898929190612fe7565b60606040518083038186803b1580156108b057600080fd5b505afa1580156108c4573d6000803e3d6000fd5b505050506040513d601f19601f820116820180604052508101906108e89190612ddc565b519392505050565b6108f8610780565b156109155760405162461bcd60e51b8152600401610517906131be565b600260015414156109385760405162461bcd60e51b8152600401610517906133fb565b60026001556000600e8161094a6126f7565b6001600160a01b03166001600160a01b031681526020019081526020016000206000846001600160a01b03166001600160a01b03168152602001908152602001600020905060008160030154116109b35760405162461bcd60e51b815260040161051790613157565b60048101546109c2908361276c565b60048201556001600160a01b038316600090815260076020908152604080832080548251601f60026000196101006001861615020190931692909204918201859004850281018501909352808352610a6f93830182828015610a655780601f10610a3a57610100808354040283529160200191610a65565b820191906000526020600020905b815481529060010190602001808311610a4857829003601f168201915b5050505050610805565b90506000610a9c670de0b6b3a7640000610a9684866003015461279a90919063ffffffff16565b906127d4565b90506000610ac1670de0b6b3a7640000610a966008548561279a90919063ffffffff16565b90506000610adc82866004015461281690919063ffffffff16565b6003549091506001600160a01b03166323b872dd610af86126f7565b30896040518463ffffffff1660e01b8152600401610b1893929190612ee4565b602060405180830381600087803b158015610b3257600080fd5b505af1158015610b46573d6000803e3d6000fd5b505050506040513d601f19601f82011682018060405250810190610b6a9190612be6565b610b7357600080fd5b610b81856004015484612858565b60058601819055610b9390859061287c565b600686015560088501819055610ba98184612858565b6007860155600c850184905542600986015543600a860155610bc96126f7565b6001600160a01b03167f2ac90482c3b6bea30a2c085cf093016bad7f970d91c5fd233e6b848d3e231dc387604051610c0191906134e1565b60405180910390a25050600180555050505050565b6002546001600160a01b031681565b610c2d6126f7565b6000546001600160a01b03908116911614610c5a5760405162461bcd60e51b8152600401610517906132c5565b600080546040516001600160a01b03909116907f8be0079c531659141344cd1fd0a4f28419497f9722a3daafe3b4186f6b6457e0908390a3600080546001600160a01b0319169055565b610cac6126f7565b6000546001600160a01b03908116911614610cd95760405162461bcd60e51b8152600401610517906132c5565b80600683604051610cea9190612eb4565b90815260405190819003602001902080546001600160a01b03929092166001600160a01b03199092169190911790555050565b610d256126f7565b6000546001600160a01b03908116911614610d525760405162461bcd60e51b8152600401610517906132c5565b6001600160a01b0382166000908152600760209081526040909120825161077b928401906129e8565b610d83610780565b15610da05760405162461bcd60e51b8152600401610517906131be565b610da86126f7565b6000546001600160a01b03908116911614610dd55760405162461bcd60e51b8152600401610517906132c5565b61065c6128b3565b610de56126f7565b6000546001600160a01b03908116911614610e125760405162461bcd60e51b8152600401610517906132c5565b600a8054908290556040517f3ccaefdfe3295630104d687db5f7e07f2a19848b9f68c4f55a4ab591c9b5d90f9061055a90839085906134ea565b610e54610780565b15610e715760405162461bcd60e51b8152600401610517906131be565b60026001541415610e945760405162461bcd60e51b8152600401610517906133fb565b60026001556001600160a01b038082166000908152600e60209081526040808320868516845290915290208054909116610ee05760405162461bcd60e51b8152600401610517906133b7565b600954816005015410610f055760405162461bcd60e51b8152600401610517906131e8565b6001600160a01b038316600090815260076020908152604080832080548251601f60026000196101006001861615020190931692909204918201859004850281018501909352808352610f7893830182828015610a655780601f10610a3a57610100808354040283529160200191610a65565b905080826006015410610f9d5760405162461bcd60e51b815260040161051790613043565b6000610fc2670de0b6b3a7640000610a9684866003015461279a90919063ffffffff16565b90506000610fdd82856004015461281690919063ffffffff16565b90506000611002670de0b6b3a7640000610a96600c548561279a90919063ffffffff16565b90506000611027670de0b6b3a7640000610a96600a548661279a90919063ffffffff16565b9050600061104c670de0b6b3a7640000610a96600b548761279a90919063ffffffff16565b6003549091506001600160a01b03166323b872dd6110686126f7565b30886040518463ffffffff1660e01b815260040161108893929190612ee4565b602060405180830381600087803b1580156110a257600080fd5b505af11580156110b6573d6000803e3d6000fd5b505050506040513d601f19601f820116820180604052508101906110da9190612be6565b50600354875460405163a9059cbb60e01b81526001600160a01b039283169263a9059cbb92611110929116908790600401612f08565b602060405180830381600087803b15801561112a57600080fd5b505af115801561113e573d6000803e3d6000fd5b505050506040513d601f19601f820116820180604052508101906111629190612be6565b506003546001600160a01b031663a9059cbb61117c6126f7565b611186888661276c565b6040518363ffffffff1660e01b81526004016111a3929190612f08565b602060405180830381600087803b1580156111bd57600080fd5b505af11580156111d1573d6000803e3d6000fd5b505050506040513d601f19601f820116820180604052508101906111f59190612be6565b50600354600d5460405163a9059cbb60e01b81526001600160a01b039283169263a9059cbb9261122c929116908590600401612f08565b602060405180830381600087803b15801561124657600080fd5b505af115801561125a573d6000803e3d6000fd5b505050506040513d601f19601f8201168201806040525081019061127e9190612be6565b5050506001600160a01b039586166000908152600e602090815260408083209990981682529790975250505091832080546001600160a01b03199081168255600180830180548316905560028301805490921690915560038201859055600482018590556005820185905560068201859055600782018590556008820185905560098201859055600a8201859055600b8201859055600c9091019390935550508055565b61132a610780565b156113475760405162461bcd60e51b8152600401610517906131be565b6002600154141561136a5760405162461bcd60e51b8152600401610517906133fb565b60026001556000600e8161137c6126f7565b6001600160a01b03166001600160a01b031681526020019081526020016000206000846001600160a01b03166001600160a01b03168152602001908152602001600020905060008160030154116113e55760405162461bcd60e51b8152600401610517906132fa565b60048101546113f49083612816565b6004820155600881015482111561141d5760405162461bcd60e51b815260040161051790613484565b6001600160a01b038316600090815260076020908152604080832080548251601f6002600019610100600186161502019093169290920491820185900485028101850190935280835261149093830182828015610a655780601f10610a3a57610100808354040283529160200191610a65565b905060006114b7670de0b6b3a7640000610a9684866003015461279a90919063ffffffff16565b905060006114dc670de0b6b3a7640000610a966008548561279a90919063ffffffff16565b905060006114f782866004015461281690919063ffffffff16565b90506003546001600160a01b031663a9059cbb6115126126f7565b886040518363ffffffff1660e01b8152600401611530929190612f08565b602060405180830381600087803b15801561154a57600080fd5b505af115801561155e573d6000803e3d6000fd5b505050506040513d601f19601f820116820180604052508101906115829190612be6565b50611591856004015484612858565b600586018190556115a390859061287c565b6006860155600885018190556115b98184612858565b6007860155600c850184905542600986015543600a8601556115d96126f7565b6001600160a01b03167fe25410a4059619c9594dc6f022fe231b02aaea733f689e7ab0cd21b3d4d0eb5487604051610c0191906134e1565b6000546001600160a01b031690565b6116286126f7565b6000546001600160a01b039081169116146116555760405162461bcd60e51b8152600401610517906132c5565b60098054908290556040517fad82ab9177533366e9282d4fe3d9537bd1beaf004633ebab48e3ef4e47f258bd9061055a90839085906134ea565b6004546001600160a01b031681565b670de0b6b3a764000081565b6116b2610780565b156116cf5760405162461bcd60e51b8152600401610517906131be565b600260015414156116f25760405162461bcd60e51b8152600401610517906133fb565b60026001556000600e816117046126f7565b6001600160a01b0390811682526020808301939093526040918201600090812088831682529093529120805490925016156117515760405162461bcd60e51b815260040161051790613367565b6001600160a01b038416600090815260076020908152604080832080548251601f600260001961010060018616150201909316929092049182018590048502810185019093528083526117c493830182828015610a655780601f10610a3a57610100808354040283529160200191610a65565b905060006117de670de0b6b3a7640000610a96878561279a565b90506000611803670de0b6b3a7640000610a966008548561279a90919063ffffffff16565b9050808510156118255760405162461bcd60e51b81526004016105179061310d565b60006118318683612816565b9050876001600160a01b03166340c10f1961184a6126f7565b896040518363ffffffff1660e01b8152600401611868929190612f08565b600060405180830381600087803b15801561188257600080fd5b505af1158015611896573d6000803e3d6000fd5b50506003546001600160a01b031691506323b872dd90506118b56126f7565b30896040518463ffffffff1660e01b81526004016118d593929190612ee4565b602060405180830381600087803b1580156118ef57600080fd5b505af1158015611903573d6000803e3d6000fd5b505050506040513d601f19601f820116820180604052508101906119279190612be6565b61193057600080fd5b6119386126f7565b85546001600160a01b039182166001600160a01b03199182161787556001870180548b8416908316179055600380546002890180549093169316929092179055850187905560048501869055600b8501849055600c850184905561199c8684612858565b600586018190556119ae90859061287c565b6006860155600885018190556119c48184612858565b600786015542600986015543600a8601556001600160a01b0388167fd7918d04fa8d2763da038d81b4ab65ea7b9eb8e5e3b199c548142ac304a8ad6f611a086126f7565b89604051611a17929190612f08565b60405180910390a2505060018055505050505050565b611a35610780565b15611a525760405162461bcd60e51b8152600401610517906131be565b60026001541415611a755760405162461bcd60e51b8152600401610517906133fb565b60026001556000600e81611a876126f7565b6001600160a01b03166001600160a01b031681526020019081526020016000206000846001600160a01b03166001600160a01b0316815260200190815260200160002090508181600301541015611af05760405162461bcd60e51b81526004016105179061322f565b8060030154821415611cd257826001600160a01b03166379cc6790611b136126f7565b846040518363ffffffff1660e01b8152600401611b31929190612f08565b600060405180830381600087803b158015611b4b57600080fd5b505af1158015611b5f573d6000803e3d6000fd5b50506003546001600160a01b0316915063a9059cbb9050611b7e6126f7565b83600401546040518363ffffffff1660e01b8152600401611ba0929190612f08565b602060405180830381600087803b158015611bba57600080fd5b505af1158015611bce573d6000803e3d6000fd5b505050506040513d601f19601f82011682018060405250810190611bf29190612be6565b50600e6000611bff6126f7565b6001600160a01b039081168252602080830193909352604091820160009081209187168082529190935281832080546001600160a01b0319908116825560018201805482169055600282018054909116905560038101849055600481018490556005810184905560068101849055600781018490556008810184905560098101849055600a8101849055600b8101849055600c0192909255517fb99b782c502642cbb60ce7d75f893727e5ef94003f2f9e56bcbbb013615e193e90611cc59085906134e1565b60405180910390a2611fd2565b6000611ce2838360030154612858565b90506000670de0b6b3a76400008284600301540281611cfd57fe5b0490506000670de0b6b3a76400008385600401540281611d1957fe5b6001600160a01b038816600090815260076020908152604080832080548251601f600260001961010060018616150201909316929092049182018590048502810185019093528083529590940495509193611d959391830182828015610a655780601f10610a3a57610100808354040283529160200191610a65565b90506000611db083876004015461281690919063ffffffff16565b90506000611dcb85886003015461281690919063ffffffff16565b90506000611de5670de0b6b3a7640000610a96848761279a565b90506000611e0a670de0b6b3a7640000610a966008548561279a90919063ffffffff16565b905080841015611e2c5760405162461bcd60e51b815260040161051790613432565b6000611e388583612816565b90508b6001600160a01b03166379cc6790611e516126f7565b8a6040518363ffffffff1660e01b8152600401611e6f929190612f08565b600060405180830381600087803b158015611e8957600080fd5b505af1158015611e9d573d6000803e3d6000fd5b50506003546001600160a01b0316915063a9059cbb9050611ebc6126f7565b896040518363ffffffff1660e01b8152600401611eda929190612f08565b602060405180830381600087803b158015611ef457600080fd5b505af1158015611f08573d6000803e3d6000fd5b505050506040513d601f19601f82011682018060405250810190611f2c9190612be6565b5060038a0184905560048a01859055611f458584612858565b60058b01819055611f5790879061287c565b60068b015560088a01819055611f6d8184612858565b60078b0155600c8a018690554260098b015543600a8b01556040516001600160a01b038d16907fb99b782c502642cbb60ce7d75f893727e5ef94003f2f9e56bcbbb013615e193e90611fc0908e906134e1565b60405180910390a25050505050505050505b50506001805550565b60085481565b80516020818301810180516006825292820191909301209152546001600160a01b031681565b60076020908152600091825260409182902080548351601f60026000196101006001861615020190931692909204918201849004840281018401909452808452909183018282801561070d5780601f106106e25761010080835404028352916020019161070d565b6120776126f7565b6000546001600160a01b039081169116146120a45760405162461bcd60e51b8152600401610517906132c5565b600d80546001600160a01b038381166001600160a01b03198316179092556040519116907f618c54559e94f1499a808aad71ee8729f8e74e8c48e979616328ce493a1a52e79061055a9083908590612f21565b6120ff6126f7565b6000546001600160a01b0390811691161461212c5760405162461bcd60e51b8152600401610517906132c5565b600b8054908290556040517f6fe3d84266b6434a6a63810addd9a2075a300a5d5af2a48aba78e443e7eab3f99061055a90839085906134ea565b61216e6126f7565b6000546001600160a01b0390811691161461219b5760405162461bcd60e51b8152600401610517906132c5565b6121a3610780565b156121c05760405162461bcd60e51b8152600401610517906131be565b600260015414156121e35760405162461bcd60e51b8152600401610517906133fb565b60026001556000600e816121f56126f7565b6001600160a01b03166001600160a01b031681526020019081526020016000206000846001600160a01b03166001600160a01b031681526020019081526020016000209050600081600301541161225e5760405162461bcd60e51b8152600401610517906132fa565b600481015461226d9083612816565b60048201556001600160a01b038316600090815260076020908152604080832080548251601f600260001961010060018616150201909316929092049182018590048502810185019093528083526122e593830182828015610a655780601f10610a3a57610100808354040283529160200191610a65565b9050600061230c670de0b6b3a7640000610a9684866003015461279a90919063ffffffff16565b6003549091506001600160a01b031663a9059cbb6123286126f7565b866040518363ffffffff1660e01b8152600401612346929190612f08565b602060405180830381600087803b15801561236057600080fd5b505af1158015612374573d6000803e3d6000fd5b505050506040513d601f19601f820116820180604052508101906123989190612be6565b506123a7836004015482612858565b600584018190556123b990839061287c565b60068401556000600884018190556007840155600c830182905542600984015543600a8401556123e76126f7565b6001600160a01b03167fe25410a4059619c9594dc6f022fe231b02aaea733f689e7ab0cd21b3d4d0eb548560405161241f91906134e1565b60405180910390a2505060018055505050565b61243a6126f7565b6000546001600160a01b039081169116146124675760405162461bcd60e51b8152600401610517906132c5565b6001600160a01b03811661248d5760405162461bcd60e51b815260040161051790613090565b600080546040516001600160a01b03808516939216917f8be0079c531659141344cd1fd0a4f28419497f9722a3daafe3b4186f6b6457e091a3600080546001600160a01b0319166001600160a01b0392909216919091179055565b6000806001600160a01b03166006836040516125049190612eb4565b908152604051908190036020019020546001600160a01b031614159050919050565b6001600160a01b038082166000908152600e6020908152604080832086851684529091528120805491928392839283928392166125755760405162461bcd60e51b8152600401610517906133b7565b60095481600501541061259a5760405162461bcd60e51b8152600401610517906131e8565b6001600160a01b038816600090815260076020908152604080832080548251601f6002600019610100600186161502019093169290920491820185900485028101850190935280835261260d93830182828015610a655780601f10610a3a57610100808354040283529160200191610a65565b9050808260060154106126325760405162461bcd60e51b815260040161051790613043565b6000612657670de0b6b3a7640000610a9684866003015461279a90919063ffffffff16565b9050600061267282856004015461281690919063ffffffff16565b90506000612697670de0b6b3a7640000610a96600c548561279a90919063ffffffff16565b905060006126bc670de0b6b3a7640000610a96600a548661279a90919063ffffffff16565b905060006126e1670de0b6b3a7640000610a96600b548761279a90919063ffffffff16565b949e939d50919b50995091975095505050505050565b3390565b612703610780565b61271f5760405162461bcd60e51b815260040161051790613015565b6000805460ff60a01b191690557f5db9ee0a495bf2e6ff9c91a7834c1ba4fdd244a5e8aa4e537bd38aeae4b073aa6127556126f7565b6040516127629190612ed0565b60405180910390a1565b6000828201838110156127915760405162461bcd60e51b8152600401610517906130d6565b90505b92915050565b6000826127a957506000612794565b828202828482816127b657fe5b04146127915760405162461bcd60e51b815260040161051790613284565b600061279183836040518060400160405280601a81526020017f536166654d6174683a206469766973696f6e206279207a65726f000000000000815250612914565b600061279183836040518060400160405280601e81526020017f536166654d6174683a207375627472616374696f6e206f766572666c6f77000081525061294b565b6000612791670de0b6b3a7640000610a96816128768683898461279a565b9061279a565b6000612791670de0b6b3a7640000610a966128ac670de0b6b3a7640000600954038661281690919063ffffffff16565b869061279a565b6128bb610780565b156128d85760405162461bcd60e51b8152600401610517906131be565b6000805460ff60a01b1916600160a01b1790557f62e78cea01bee320cd4e420270b5ea74000d11b0c9f74754ebdbfc544b05a2586127556126f7565b600081836129355760405162461bcd60e51b81526004016105179190612fb4565b50600083858161294157fe5b0495945050505050565b6000818484111561296f5760405162461bcd60e51b81526004016105179190612fb4565b505050900390565b82600281019282156129b7579160200282015b828111156129b757825180516129a79184916020909101906129e8565b509160200191906001019061298a565b506129c3929150612a62565b5090565b60405180606001604052806000815260200160008152602001600081525090565b828054600181600116156101000203166002900490600052602060002090601f016020900481019282601f10612a2957805160ff1916838001178555612a56565b82800160010185558215612a56579182015b82811115612a56578251825591602001919060010190612a3b565b506129c3929150612a7f565b808211156129c3576000612a768282612a94565b50600101612a62565b5b808211156129c35760008155600101612a80565b50805460018160011615610100020316600290046000825580601f10612aba5750612ad8565b601f016020900490600052602060002090810190612ad89190612a7f565b50565b600082601f830112612aeb578081fd5b813567ffffffffffffffff811115612b01578182fd5b612b14601f8201601f191660200161351b565b9150808252836020828501011115612b2b57600080fd5b8060208401602084013760009082016020015292915050565b600060208284031215612b55578081fd5b81356127918161357e565b60008060408385031215612b72578081fd5b8235612b7d8161357e565b91506020830135612b8d8161357e565b809150509250929050565b60008060408385031215612baa578182fd5b8235612bb58161357e565b9150602083013567ffffffffffffffff811115612bd0578182fd5b612bdc85828601612adb565b9150509250929050565b600060208284031215612bf7578081fd5b81518015158114612791578182fd5b60008060408385031215612b72578182fd5b60008060408385031215612c2a578182fd5b8235612c358161357e565b946020939093013593505050565b600080600060608486031215612c57578081fd5b8335612c628161357e565b95602085013595506040909401359392505050565b600060208284031215612c88578081fd5b813567ffffffffffffffff811115612c9e578182fd5b612caa84828501612adb565b949350505050565b60008060408385031215612cc4578182fd5b823567ffffffffffffffff811115612cda578283fd5b612ce685828601612adb565b9250506020830135612b8d8161357e565b60008060408385031215612d09578182fd5b823567ffffffffffffffff80821115612d20578384fd5b612d2c86838701612adb565b9350602091508185013581811115612d42578384fd5b85019050601f81018613612d54578283fd5b612d5e604061351b565b8082855b6002811015612d8a57612d788a83358701612adb565b84529285019290850190600101612d62565b50959890975095505050505050565b60008060408385031215612dab578182fd5b823567ffffffffffffffff811115612dc1578283fd5b612dcd85828601612adb565b95602094909401359450505050565b600060608284031215612ded578081fd5b612df7606061351b565b8251815260208301516020820152604083015160408201528091505092915050565b600060208284031215612e2a578081fd5b5035919050565b60008154600180821660008114612e4f5760018114612e6d57612eab565b60028304607f16865260ff1983166020870152604086019350612eab565b60028304808752612e7d86613542565b60005b82811015612ea15781546020828b0101528482019150602081019050612e80565b8801602001955050505b50505092915050565b60008251612ec681846020870161354e565b9190910192915050565b6001600160a01b0391909116815260200190565b6001600160a01b039384168152919092166020820152604081019190915260600190565b6001600160a01b03929092168252602082015260400190565b6001600160a01b0392831681529116602082015260400190565b6001600160a01b039d8e1681529b8d1660208d015299909b1660408b015260608a0197909752608089019590955260a088019390935260c087019190915260e08601526101008501526101208401526101408301526101608201929092526101808101919091526101a00190565b901515815260200190565b6000602082528251806020840152612fd381604085016020870161354e565b601f01601f19169190910160400192915050565b600060408252612ffa6040830185612e31565b828103602084015261300c8185612e31565b95945050505050565b60208082526014908201527314185d5cd8589b194e881b9bdd081c185d5cd95960621b604082015260600190565b6020808252602d908201527f53796e7468657469633a3a6c69717569646174653a206173736574207072696360408201526c6520697320736173746973667960981b606082015260800190565b60208082526026908201527f4f776e61626c653a206e6577206f776e657220697320746865207a65726f206160408201526564647265737360d01b606082015260800190565b6020808252601b908201527f536166654d6174683a206164646974696f6e206f766572666c6f770000000000604082015260600190565b6020808252602a908201527f53796e7468657469633a3a6d696e7453796e7468657469633a20756e6465722060408201526918dbdb1b185d195c985b60b21b606082015260800190565b60208082526041908201527f53796e7468657469633a3a616464436f6c6c61746572616c3a2063616e6e6f7460408201527f2061646420636f6c6c61746572616c20746f20656d70747920636f6e747261636060820152601d60fa1b608082015260a00190565b60208082526010908201526f14185d5cd8589b194e881c185d5cd95960821b604082015260600190565b60208082526027908201527f53796e7468657469633a3a6c69717569646174653a20726174696f20697320736040820152666173746973667960c81b606082015260800190565b60208082526035908201527f53796e7468657469633a3a72656465656d53796e7468657469633a20616d6f756040820152741b9d08195e18d959591cc818dbdb1b185d195c985b605a1b606082015260800190565b60208082526021908201527f536166654d6174683a206d756c7469706c69636174696f6e206f766572666c6f6040820152607760f81b606082015260800190565b6020808252818101527f4f776e61626c653a2063616c6c6572206973206e6f7420746865206f776e6572604082015260600190565b60208082526047908201527f53796e7468657469633a3a72656d6f7665436f6c6c61746572616c3a2063616e60408201527f6e6f742072656d6f766520636f6c6c61746572616c20746f20656d70747920636060820152661bdb9d1c9858dd60ca1b608082015260a00190565b60208082526030908201527f53796e7468657469633a3a6d696e7453796e7468657469633a207472616e736660408201526f657220746f206164647265737328302960801b606082015260800190565b60208082526024908201527f53796e7468657469633a3a6c69717569646174653a20656d70747920636f6e746040820152631c9858dd60e21b606082015260800190565b6020808252601f908201527f5265656e7472616e637947756172643a207265656e7472616e742063616c6c00604082015260600190565b60208082526032908201527f53796e7468657469633a3a72656465656d53796e7468657469633a20756e64656040820152717220636f6c6c61746572616c20726174696f60701b606082015260800190565b6020808252603f908201527f53796e7468657469633a3a72656d6f7665436f6c6c61746572616c3a20616d6f60408201527f756e74206578636565647320726571756972656420636f6c6c61746572616c00606082015260800190565b90815260200190565b918252602082015260400190565b948552602085019390935260408401919091526060830152608082015260a00190565b60405181810167ffffffffffffffff8111828210171561353a57600080fd5b604052919050565b60009081526020902090565b60005b83811015613569578181015183820152602001613551565b83811115613578576000848401525b50505050565b6001600160a01b0381168114612ad857600080fdfea2646970667358221220f51c80dc731a39bf63e3188b41180b2496893a760c587c31a4fca61145c3774a64736f6c634300060c0033",
  "linkReferences": {},
  "deployedLinkReferences": {}
}