{
  "_format": "hh-sol-artifact-1",
  "contractName": "Synthetic",
  "sourceName": "contracts/Synthetic.sol",
  "abi": [
    {
      "inputs": [
        {
          "internalType": "contract IERC20",
          "name": "_dolly",
          "type": "address"
        },
        {
          "internalType": "contract IStdReference",
          "name": "_ref",
          "type": "address"
        }
      ],
      "stateMutability": "nonpayable",
      "type": "constructor"
    },
    {
      "anonymous": false,
      "inputs": [
        {
          "indexed": true,
          "internalType": "address",
          "name": "previousOwner",
          "type": "address"
        },
        {
          "indexed": true,
          "internalType": "address",
          "name": "newOwner",
          "type": "address"
        }
      ],
      "name": "OwnershipTransferred",
      "type": "event"
    },
    {
      "inputs": [],
      "name": "dolly",
      "outputs": [
        {
          "internalType": "contract IERC20",
          "name": "",
          "type": "address"
        }
      ],
      "stateMutability": "view",
      "type": "function"
    },
    {
      "inputs": [
        {
          "internalType": "string",
          "name": "_pairs",
          "type": "string"
        }
      ],
      "name": "isSupported",
      "outputs": [
        {
          "internalType": "bool",
          "name": "",
          "type": "bool"
        }
      ],
      "stateMutability": "view",
      "type": "function"
    },
    {
      "inputs": [],
      "name": "liquidate",
      "outputs": [],
      "stateMutability": "nonpayable",
      "type": "function"
    },
    {
      "inputs": [
        {
          "internalType": "address",
          "name": "_synthetic",
          "type": "address"
        },
        {
          "internalType": "uint256",
          "name": "_amount",
          "type": "uint256"
        },
        {
          "internalType": "uint256",
          "name": "_backedAmount",
          "type": "uint256"
        }
      ],
      "name": "mintSynthetic",
      "outputs": [],
      "stateMutability": "nonpayable",
      "type": "function"
    },
    {
      "inputs": [],
      "name": "oracle",
      "outputs": [
        {
          "internalType": "contract IStdReference",
          "name": "",
          "type": "address"
        }
      ],
      "stateMutability": "view",
      "type": "function"
    },
    {
      "inputs": [],
      "name": "owner",
      "outputs": [
        {
          "internalType": "address",
          "name": "",
          "type": "address"
        }
      ],
      "stateMutability": "view",
      "type": "function"
    },
    {
      "inputs": [],
      "name": "redeemSynthetic",
      "outputs": [],
      "stateMutability": "nonpayable",
      "type": "function"
    },
    {
      "inputs": [],
      "name": "renounceOwnership",
      "outputs": [],
      "stateMutability": "nonpayable",
      "type": "function"
    },
    {
      "inputs": [
        {
          "internalType": "string",
          "name": "",
          "type": "string"
        },
        {
          "internalType": "uint256",
          "name": "",
          "type": "uint256"
        }
      ],
      "name": "supportedAssets",
      "outputs": [
        {
          "internalType": "string",
          "name": "",
          "type": "string"
        }
      ],
      "stateMutability": "view",
      "type": "function"
    },
    {
      "inputs": [],
      "name": "synAsset",
      "outputs": [
        {
          "internalType": "contract IERC20",
          "name": "",
          "type": "address"
        }
      ],
      "stateMutability": "view",
      "type": "function"
    },
    {
      "inputs": [
        {
          "internalType": "address",
          "name": "newOwner",
          "type": "address"
        }
      ],
      "name": "transferOwnership",
      "outputs": [],
      "stateMutability": "nonpayable",
      "type": "function"
    }
  ],
  "bytecode": "0x60806040523480156200001157600080fd5b5060405162000bf338038062000bf38339810160408190526200003491620004a7565b60006200004062000348565b600080546001600160a01b0319166001600160a01b0383169081178255604051929350917f8be0079c531659141344cd1fd0a4f28419497f9722a3daafe3b4186f6b6457e0908290a350600280546001600160a01b038085166001600160a01b0319928316179092556003805492841692909116919091178155604080516080810182526004818301818152631050541360e21b6060840152825282518084018452938452621554d160ea1b60208581019190915282019390935290519091906200010b90620004e5565b908152604051908190036020019020620001279160026200034c565b506040805160808101825260048183018181526321a7a4a760e11b606084015282528251808401845260038152621554d160ea1b6020828101919091528301529151909190620001779062000547565b908152604051908190036020019020620001939160026200034c565b506040805160808101825260048183018181526354534c4160e01b606084015282528251808401845260038152621554d160ea1b6020828101919091528301529151909190620001e390620004f9565b908152604051908190036020019020620001ff9160026200034c565b506040805160808101825260038183018181526251515160e81b6060840152825282518084018452908152621554d160ea1b60208281019190915282015290516004906200024d9062000534565b908152604051908190036020019020620002699160026200034c565b506040805160808101825260048183018181526320a6ad2760e11b606084015282528251808401845260038152621554d160ea1b6020828101919091528301529151909190620002b99062000520565b908152604051908190036020019020620002d59160026200034c565b506040805160808101825260038183018181526258415560e81b6060840152825282518084018452908152621554d160ea1b602082810191909152820152905160049062000323906200050d565b9081526040519081900360200190206200033f9160026200034c565b50505062000571565b3390565b826002810192821562000391579160200282015b8281111562000391578251805162000380918491602090910190620003a3565b509160200191906001019062000360565b506200039f92915062000424565b5090565b828054600181600116156101000203166002900490600052602060002090601f016020900481019282601f10620003e657805160ff191683800117855562000416565b8280016001018555821562000416579182015b8281111562000416578251825591602001919060010190620003f9565b506200039f92915062000445565b808211156200039f5760006200043b82826200045c565b5060010162000424565b5b808211156200039f576000815560010162000446565b50805460018160011615610100020316600290046000825580601f10620004845750620004a4565b601f016020900490600052602060002090810190620004a4919062000445565b50565b60008060408385031215620004ba578182fd5b8251620004c7816200055b565b6020840151909250620004da816200055b565b809150509250929050565b67105054130bd554d160c21b815260080190565b671514d3104bd554d160c21b815260080190565b661610554bd554d160ca1b815260070190565b67105356938bd554d160c21b815260080190565b661454544bd554d160ca1b815260070190565b6710d3d2538bd554d160c21b815260080190565b6001600160a01b0381168114620004a457600080fd5b61067280620005816000396000f3fe608060405234801561001057600080fd5b50600436106100a95760003560e01c80637ee9e29c116100715780637ee9e29c146100cc5780638da5cb5b146100ee57806395ac1cf2146100f65780639a12944c14610116578063f2fde38b14610129578063f3a014a21461013c576100a9565b80630b87d86e146100ae57806328a07025146100cc5780634970b140146100d6578063715018a6146100de5780637dc0d1d0146100e6575b600080fd5b6100b661015c565b6040516100c3919061053f565b60405180910390f35b6100d461016b565b005b6100b661016d565b6100d461017c565b6100b6610204565b6100b6610213565b6101096101043660046104e0565b610222565b6040516100c3919061055e565b6100d4610124366004610472565b6102d9565b6100d4610137366004610450565b6102de565b61014f61014a3660046104a5565b610394565b6040516100c39190610553565b6002546001600160a01b031681565b565b6001546001600160a01b031681565b6101846103b1565b6000546001600160a01b039081169116146101ba5760405162461bcd60e51b81526004016101b1906105d7565b60405180910390fd5b600080546040516001600160a01b03909116907f8be0079c531659141344cd1fd0a4f28419497f9722a3daafe3b4186f6b6457e0908390a3600080546001600160a01b0319169055565b6003546001600160a01b031681565b6000546001600160a01b031690565b81516020818401810180516004825292820191850191909120919052816002811061024957fe5b01805460408051602060026001851615610100026000190190941693909304601f810184900484028201840190925281815294509192508301828280156102d15780601f106102a6576101008083540402835291602001916102d1565b820191906000526020600020905b8154815290600101906020018083116102b457829003601f168201915b505050505081565b505050565b6102e66103b1565b6000546001600160a01b039081169116146103135760405162461bcd60e51b81526004016101b1906105d7565b6001600160a01b0381166103395760405162461bcd60e51b81526004016101b190610591565b600080546040516001600160a01b03808516939216917f8be0079c531659141344cd1fd0a4f28419497f9722a3daafe3b4186f6b6457e091a3600080546001600160a01b0319166001600160a01b0392909216919091179055565b6000806004836040516103a79190610523565b5260021192915050565b3390565b80356001600160a01b03811681146103cc57600080fd5b92915050565b600082601f8301126103e2578081fd5b813567ffffffffffffffff808211156103f9578283fd5b604051601f8301601f191681016020018281118282101715610419578485fd5b60405282815292508284830160200186101561043457600080fd5b8260208601602083013760006020848301015250505092915050565b600060208284031215610461578081fd5b61046b83836103b5565b9392505050565b600080600060608486031215610486578182fd5b61049085856103b5565b95602085013595506040909401359392505050565b6000602082840312156104b6578081fd5b813567ffffffffffffffff8111156104cc578182fd5b6104d8848285016103d2565b949350505050565b600080604083850312156104f2578182fd5b823567ffffffffffffffff811115610508578283fd5b610514858286016103d2565b95602094909401359450505050565b6000825161053581846020870161060c565b9190910192915050565b6001600160a01b0391909116815260200190565b901515815260200190565b600060208252825180602084015261057d81604085016020870161060c565b601f01601f19169190910160400192915050565b60208082526026908201527f4f776e61626c653a206e6577206f776e657220697320746865207a65726f206160408201526564647265737360d01b606082015260800190565b6020808252818101527f4f776e61626c653a2063616c6c6572206973206e6f7420746865206f776e6572604082015260600190565b60005b8381101561062757818101518382015260200161060f565b83811115610636576000848401525b5050505056fea264697066735822122049cb977a3f5f06e5f5e3b42cb2c2198643b423b66fa19f8fe73a9542552d5db064736f6c634300060c0033",
  "linkReferences": {},
  "deployedLinkReferences": {}
}