{
  "_format": "hh-sol-artifact-1",
  "contractName": "Synthetic",
  "sourceName": "contracts/Synthetic.sol",
  "abi": [
    {
      "inputs": [
        {
          "internalType": "contract IERC20",
          "name": "_dolly",
          "type": "address"
        },
        {
          "internalType": "contract IStdReference",
          "name": "_ref",
          "type": "address"
        }
      ],
      "stateMutability": "nonpayable",
      "type": "constructor"
    },
    {
      "anonymous": false,
      "inputs": [
        {
          "indexed": true,
          "internalType": "address",
          "name": "user",
          "type": "address"
        },
        {
          "indexed": false,
          "internalType": "uint256",
          "name": "amount",
          "type": "uint256"
        }
      ],
      "name": "AddCollateral",
      "type": "event"
    },
    {
      "anonymous": false,
      "inputs": [
        {
          "indexed": true,
          "internalType": "address",
          "name": "liquidated",
          "type": "address"
        },
        {
          "indexed": true,
          "internalType": "address",
          "name": "liquidator",
          "type": "address"
        },
        {
          "indexed": true,
          "internalType": "address",
          "name": "syntheticAddress",
          "type": "address"
        },
        {
          "indexed": false,
          "internalType": "uint256",
          "name": "amount",
          "type": "uint256"
        },
        {
          "indexed": false,
          "internalType": "uint256",
          "name": "timestamp",
          "type": "uint256"
        }
      ],
      "name": "Liquidated",
      "type": "event"
    },
    {
      "anonymous": false,
      "inputs": [
        {
          "indexed": false,
          "internalType": "address",
          "name": "minter",
          "type": "address"
        },
        {
          "indexed": true,
          "internalType": "address",
          "name": "syntheticAddress",
          "type": "address"
        },
        {
          "indexed": false,
          "internalType": "uint256",
          "name": "amount",
          "type": "uint256"
        }
      ],
      "name": "MintAsset",
      "type": "event"
    },
    {
      "anonymous": false,
      "inputs": [
        {
          "indexed": true,
          "internalType": "address",
          "name": "previousOwner",
          "type": "address"
        },
        {
          "indexed": true,
          "internalType": "address",
          "name": "newOwner",
          "type": "address"
        }
      ],
      "name": "OwnershipTransferred",
      "type": "event"
    },
    {
      "anonymous": false,
      "inputs": [
        {
          "indexed": false,
          "internalType": "address",
          "name": "account",
          "type": "address"
        }
      ],
      "name": "Paused",
      "type": "event"
    },
    {
      "anonymous": false,
      "inputs": [
        {
          "indexed": true,
          "internalType": "address",
          "name": "syntheticAddress",
          "type": "address"
        },
        {
          "indexed": false,
          "internalType": "uint256",
          "name": "amount",
          "type": "uint256"
        }
      ],
      "name": "RedeemAsset",
      "type": "event"
    },
    {
      "anonymous": false,
      "inputs": [
        {
          "indexed": true,
          "internalType": "address",
          "name": "user",
          "type": "address"
        },
        {
          "indexed": false,
          "internalType": "uint256",
          "name": "amount",
          "type": "uint256"
        }
      ],
      "name": "RemoveCollateral",
      "type": "event"
    },
    {
      "anonymous": false,
      "inputs": [
        {
          "indexed": false,
          "internalType": "uint256",
          "name": "oldCollateralRatio",
          "type": "uint256"
        },
        {
          "indexed": false,
          "internalType": "uint256",
          "name": "newCollateralRatio",
          "type": "uint256"
        }
      ],
      "name": "SetCollateralRatio",
      "type": "event"
    },
    {
      "anonymous": false,
      "inputs": [
        {
          "indexed": false,
          "internalType": "address",
          "name": "oldDevAddress",
          "type": "address"
        },
        {
          "indexed": false,
          "internalType": "address",
          "name": "newDevAddress",
          "type": "address"
        }
      ],
      "name": "SetDevAddress",
      "type": "event"
    },
    {
      "anonymous": false,
      "inputs": [
        {
          "indexed": false,
          "internalType": "uint256",
          "name": "oldLiquidationRatio",
          "type": "uint256"
        },
        {
          "indexed": false,
          "internalType": "uint256",
          "name": "newLiquidationRatio",
          "type": "uint256"
        }
      ],
      "name": "SetLiquidationRatio",
      "type": "event"
    },
    {
      "anonymous": false,
      "inputs": [
        {
          "indexed": false,
          "internalType": "uint256",
          "name": "oldLiquidatorRewardRatio",
          "type": "uint256"
        },
        {
          "indexed": false,
          "internalType": "uint256",
          "name": "newLiquidatorRewardRatio",
          "type": "uint256"
        }
      ],
      "name": "SetLiquidatorRewardRatio",
      "type": "event"
    },
    {
      "anonymous": false,
      "inputs": [
        {
          "indexed": false,
          "internalType": "uint256",
          "name": "oldPlatfromFeeRatio",
          "type": "uint256"
        },
        {
          "indexed": false,
          "internalType": "uint256",
          "name": "newPlatfromFeeRatio",
          "type": "uint256"
        }
      ],
      "name": "SetPlatfromFeeRatio",
      "type": "event"
    },
    {
      "anonymous": false,
      "inputs": [
        {
          "indexed": false,
          "internalType": "uint256",
          "name": "oldRemainingToMinterRatio",
          "type": "uint256"
        },
        {
          "indexed": false,
          "internalType": "uint256",
          "name": "newRemainingToMinterRatio",
          "type": "uint256"
        }
      ],
      "name": "SetRemainingToMinterRatio",
      "type": "event"
    },
    {
      "anonymous": false,
      "inputs": [
        {
          "indexed": false,
          "internalType": "address",
          "name": "account",
          "type": "address"
        }
      ],
      "name": "Unpaused",
      "type": "event"
    },
    {
      "inputs": [
        {
          "internalType": "contract IERC20Burnable",
          "name": "_synthetic",
          "type": "address"
        },
        {
          "internalType": "uint256",
          "name": "_addAmount",
          "type": "uint256"
        }
      ],
      "name": "addCollateral",
      "outputs": [],
      "stateMutability": "nonpayable",
      "type": "function"
    },
    {
      "inputs": [
        {
          "internalType": "contract IERC20Burnable",
          "name": "_synthetic",
          "type": "address"
        },
        {
          "internalType": "uint256",
          "name": "_addAmount",
          "type": "uint256"
        }
      ],
      "name": "addSynthetic",
      "outputs": [],
      "stateMutability": "nonpayable",
      "type": "function"
    },
    {
      "inputs": [
        {
          "internalType": "address",
          "name": "",
          "type": "address"
        }
      ],
      "name": "addressToPairs",
      "outputs": [
        {
          "internalType": "string",
          "name": "",
          "type": "string"
        }
      ],
      "stateMutability": "view",
      "type": "function"
    },
    {
      "inputs": [],
      "name": "bandOracle",
      "outputs": [
        {
          "internalType": "contract IStdReference",
          "name": "",
          "type": "address"
        }
      ],
      "stateMutability": "view",
      "type": "function"
    },
    {
      "inputs": [],
      "name": "collateralRatio",
      "outputs": [
        {
          "internalType": "uint256",
          "name": "",
          "type": "uint256"
        }
      ],
      "stateMutability": "view",
      "type": "function"
    },
    {
      "inputs": [
        {
          "internalType": "address",
          "name": "",
          "type": "address"
        },
        {
          "internalType": "address",
          "name": "",
          "type": "address"
        }
      ],
      "name": "contracts",
      "outputs": [
        {
          "internalType": "address",
          "name": "minter",
          "type": "address"
        },
        {
          "internalType": "contract IERC20Burnable",
          "name": "asset",
          "type": "address"
        },
        {
          "internalType": "contract IERC20",
          "name": "assetBacked",
          "type": "address"
        },
        {
          "internalType": "uint256",
          "name": "assetAmount",
          "type": "uint256"
        },
        {
          "internalType": "uint256",
          "name": "assetBackedAmount",
          "type": "uint256"
        },
        {
          "internalType": "uint256",
          "name": "currentRatio",
          "type": "uint256"
        },
        {
          "internalType": "uint256",
          "name": "willLiquidateAtPrice",
          "type": "uint256"
        },
        {
          "internalType": "uint256",
          "name": "canMintRemainning",
          "type": "uint256"
        },
        {
          "internalType": "uint256",
          "name": "canWithdrawRemainning",
          "type": "uint256"
        },
        {
          "internalType": "uint256",
          "name": "updatedAt",
          "type": "uint256"
        },
        {
          "internalType": "uint256",
          "name": "updatedBlock",
          "type": "uint256"
        },
        {
          "internalType": "uint256",
          "name": "exchangeRateAtMinted",
          "type": "uint256"
        },
        {
          "internalType": "uint256",
          "name": "currentExchangeRate",
          "type": "uint256"
        }
      ],
      "stateMutability": "view",
      "type": "function"
    },
    {
      "inputs": [],
      "name": "denominator",
      "outputs": [
        {
          "internalType": "uint256",
          "name": "",
          "type": "uint256"
        }
      ],
      "stateMutability": "view",
      "type": "function"
    },
    {
      "inputs": [],
      "name": "devAddress",
      "outputs": [
        {
          "internalType": "address",
          "name": "",
          "type": "address"
        }
      ],
      "stateMutability": "view",
      "type": "function"
    },
    {
      "inputs": [],
      "name": "dolly",
      "outputs": [
        {
          "internalType": "contract IERC20",
          "name": "",
          "type": "address"
        }
      ],
      "stateMutability": "view",
      "type": "function"
    },
    {
      "inputs": [
        {
          "internalType": "string",
          "name": "_pairs",
          "type": "string"
        }
      ],
      "name": "getRate",
      "outputs": [
        {
          "internalType": "uint256",
          "name": "",
          "type": "uint256"
        }
      ],
      "stateMutability": "view",
      "type": "function"
    },
    {
      "inputs": [
        {
          "internalType": "contract IERC20Burnable",
          "name": "_synthetic",
          "type": "address"
        },
        {
          "internalType": "address",
          "name": "_minter",
          "type": "address"
        }
      ],
      "name": "getRewardFromLiquidate",
      "outputs": [
        {
          "internalType": "uint256",
          "name": "",
          "type": "uint256"
        },
        {
          "internalType": "uint256",
          "name": "",
          "type": "uint256"
        },
        {
          "internalType": "uint256",
          "name": "",
          "type": "uint256"
        },
        {
          "internalType": "uint256",
          "name": "",
          "type": "uint256"
        },
        {
          "internalType": "uint256",
          "name": "",
          "type": "uint256"
        }
      ],
      "stateMutability": "view",
      "type": "function"
    },
    {
      "inputs": [
        {
          "internalType": "string",
          "name": "_pairs",
          "type": "string"
        }
      ],
      "name": "isSupported",
      "outputs": [
        {
          "internalType": "bool",
          "name": "",
          "type": "bool"
        }
      ],
      "stateMutability": "view",
      "type": "function"
    },
    {
      "inputs": [
        {
          "internalType": "contract IERC20Burnable",
          "name": "_synthetic",
          "type": "address"
        },
        {
          "internalType": "address",
          "name": "_minter",
          "type": "address"
        }
      ],
      "name": "liquidate",
      "outputs": [],
      "stateMutability": "nonpayable",
      "type": "function"
    },
    {
      "inputs": [],
      "name": "liquidationRatio",
      "outputs": [
        {
          "internalType": "uint256",
          "name": "",
          "type": "uint256"
        }
      ],
      "stateMutability": "view",
      "type": "function"
    },
    {
      "inputs": [],
      "name": "liquidatorRewardRatio",
      "outputs": [
        {
          "internalType": "uint256",
          "name": "",
          "type": "uint256"
        }
      ],
      "stateMutability": "view",
      "type": "function"
    },
    {
      "inputs": [
        {
          "internalType": "contract IERC20Burnable",
          "name": "_synthetic",
          "type": "address"
        },
        {
          "internalType": "uint256",
          "name": "_amount",
          "type": "uint256"
        },
        {
          "internalType": "uint256",
          "name": "_backedAmount",
          "type": "uint256"
        }
      ],
      "name": "mintSynthetic",
      "outputs": [],
      "stateMutability": "nonpayable",
      "type": "function"
    },
    {
      "inputs": [],
      "name": "owner",
      "outputs": [
        {
          "internalType": "address",
          "name": "",
          "type": "address"
        }
      ],
      "stateMutability": "view",
      "type": "function"
    },
    {
      "inputs": [
        {
          "internalType": "string",
          "name": "",
          "type": "string"
        }
      ],
      "name": "pairsToAddress",
      "outputs": [
        {
          "internalType": "address",
          "name": "",
          "type": "address"
        }
      ],
      "stateMutability": "view",
      "type": "function"
    },
    {
      "inputs": [
        {
          "internalType": "string",
          "name": "",
          "type": "string"
        },
        {
          "internalType": "uint256",
          "name": "",
          "type": "uint256"
        }
      ],
      "name": "pairsToQuote",
      "outputs": [
        {
          "internalType": "string",
          "name": "",
          "type": "string"
        }
      ],
      "stateMutability": "view",
      "type": "function"
    },
    {
      "inputs": [],
      "name": "pause",
      "outputs": [],
      "stateMutability": "nonpayable",
      "type": "function"
    },
    {
      "inputs": [],
      "name": "paused",
      "outputs": [
        {
          "internalType": "bool",
          "name": "",
          "type": "bool"
        }
      ],
      "stateMutability": "view",
      "type": "function"
    },
    {
      "inputs": [],
      "name": "platfromFeeRatio",
      "outputs": [
        {
          "internalType": "uint256",
          "name": "",
          "type": "uint256"
        }
      ],
      "stateMutability": "view",
      "type": "function"
    },
    {
      "inputs": [
        {
          "internalType": "contract IERC20Burnable",
          "name": "_synthetic",
          "type": "address"
        },
        {
          "internalType": "uint256",
          "name": "_amount",
          "type": "uint256"
        }
      ],
      "name": "redeemSynthetic",
      "outputs": [],
      "stateMutability": "nonpayable",
      "type": "function"
    },
    {
      "inputs": [],
      "name": "remainingToMinterRatio",
      "outputs": [
        {
          "internalType": "uint256",
          "name": "",
          "type": "uint256"
        }
      ],
      "stateMutability": "view",
      "type": "function"
    },
    {
      "inputs": [
        {
          "internalType": "contract IERC20Burnable",
          "name": "_synthetic",
          "type": "address"
        },
        {
          "internalType": "uint256",
          "name": "_removeBackedAmount",
          "type": "uint256"
        }
      ],
      "name": "removeCollateral",
      "outputs": [],
      "stateMutability": "nonpayable",
      "type": "function"
    },
    {
      "inputs": [
        {
          "internalType": "contract IERC20Burnable",
          "name": "_synthetic",
          "type": "address"
        },
        {
          "internalType": "uint256",
          "name": "_removeAmount",
          "type": "uint256"
        }
      ],
      "name": "removeLowerCollateral",
      "outputs": [],
      "stateMutability": "nonpayable",
      "type": "function"
    },
    {
      "inputs": [],
      "name": "renounceOwnership",
      "outputs": [],
      "stateMutability": "nonpayable",
      "type": "function"
    },
    {
      "inputs": [
        {
          "internalType": "address",
          "name": "_syntheticAddress",
          "type": "address"
        },
        {
          "internalType": "string",
          "name": "_pairs",
          "type": "string"
        }
      ],
      "name": "setAddressToPairs",
      "outputs": [],
      "stateMutability": "nonpayable",
      "type": "function"
    },
    {
      "inputs": [
        {
          "internalType": "uint256",
          "name": "_collateralRatio",
          "type": "uint256"
        }
      ],
      "name": "setCollateralRatio",
      "outputs": [],
      "stateMutability": "nonpayable",
      "type": "function"
    },
    {
      "inputs": [
        {
          "internalType": "address",
          "name": "_devAddress",
          "type": "address"
        }
      ],
      "name": "setDevAddress",
      "outputs": [],
      "stateMutability": "nonpayable",
      "type": "function"
    },
    {
      "inputs": [
        {
          "internalType": "uint256",
          "name": "_liquidationRatio",
          "type": "uint256"
        }
      ],
      "name": "setLiquidationRatio",
      "outputs": [],
      "stateMutability": "nonpayable",
      "type": "function"
    },
    {
      "inputs": [
        {
          "internalType": "uint256",
          "name": "_liquidatorRewardRatio",
          "type": "uint256"
        }
      ],
      "name": "setLiquidatorRewardRatio",
      "outputs": [],
      "stateMutability": "nonpayable",
      "type": "function"
    },
    {
      "inputs": [
        {
          "internalType": "string",
          "name": "_pairs",
          "type": "string"
        },
        {
          "internalType": "address",
          "name": "_syntheticAddress",
          "type": "address"
        }
      ],
      "name": "setPairsToAddress",
      "outputs": [],
      "stateMutability": "nonpayable",
      "type": "function"
    },
    {
      "inputs": [
        {
          "internalType": "string",
          "name": "_pairs",
          "type": "string"
        },
        {
          "internalType": "string[2]",
          "name": "baseAndQuote",
          "type": "string[2]"
        }
      ],
      "name": "setPairsToQuote",
      "outputs": [],
      "stateMutability": "nonpayable",
      "type": "function"
    },
    {
      "inputs": [
        {
          "internalType": "uint256",
          "name": "_platfromFeeRatio",
          "type": "uint256"
        }
      ],
      "name": "setPlatfromFeeRatio",
      "outputs": [],
      "stateMutability": "nonpayable",
      "type": "function"
    },
    {
      "inputs": [
        {
          "internalType": "uint256",
          "name": "_remainingToMinterRatio",
          "type": "uint256"
        }
      ],
      "name": "setRemainingToMinterRatio",
      "outputs": [],
      "stateMutability": "nonpayable",
      "type": "function"
    },
    {
      "inputs": [
        {
          "internalType": "address",
          "name": "newOwner",
          "type": "address"
        }
      ],
      "name": "transferOwnership",
      "outputs": [],
      "stateMutability": "nonpayable",
      "type": "function"
    },
    {
      "inputs": [],
      "name": "unpause",
      "outputs": [],
      "stateMutability": "nonpayable",
      "type": "function"
    }
  ],
  "bytecode": "0x60806040526714d1120d7b160000600755671158e460913d000060085566b1a2bc2ec5000060095566b1a2bc2ec50000600a55670c7d713b49da0000600b553480156200004b57600080fd5b50604051620037d3380380620037d38339810160408190526200006e916200013c565b60006200007a62000138565b600080546001600160a01b0319166001600160a01b0383169081178255604051929350917f8be0079c531659141344cd1fd0a4f28419497f9722a3daafe3b4186f6b6457e0908290a3506000805460ff60a01b1916905560018055600280546001600160a01b038085166001600160a01b03199283161790925560038054928416929091169190911790556200010f62000138565b600c80546001600160a01b0319166001600160a01b039290921691909117905550620001939050565b3390565b600080604083850312156200014f578182fd5b82516200015c816200017a565b60208401519092506200016f816200017a565b809150509250929050565b6001600160a01b03811681146200019057600080fd5b50565b61363080620001a36000396000f3fe608060405234801561001057600080fd5b50600436106102325760003560e01c80638456cb5911610130578063b32ec546116100b8578063d2cd69611161007c578063d2cd696114610479578063d8ef0f911461048c578063e150f6471461049f578063f2fde38b146104b2578063f3a014a2146104c557610232565b8063b32ec54614610425578063b4eae1cb14610438578063bad8269014610440578063bf15c3e114610453578063d0d41fe11461046657610232565b80638da5cb5b116100ff5780638da5cb5b146103e7578063946ce8cd146103ef578063956dcd1f1461040257806396ce07951461040a5780639a12944c1461041257610232565b80638456cb59146103a657806384cd9b57146103ae57806386b9d81f146103c1578063876467f8146103d457610232565b80634e55b8a7116101be5780636c0daed8116101825780636c0daed8146103525780636d75b9ee14610365578063715018a6146103785780637bda6e28146103805780638223c7701461039357610232565b80634e55b8a7146103075780635bcbdc961461030f5780635c975abb146103225780636060663e1461033757806365c3ad001461034a57610232565b806314057fca1161020557806314057fca146102a35780631775765f146102cf5780633ad10ef6146102d75780633f4ba83a146102df5780633f97bc5b146102e757610232565b8063095f1404146102375780630b87d86e146102555780630cff3c5f1461026a578063123b08901461028e575b600080fd5b61023f6104d8565b60405161024c9190613548565b60405180910390f35b61025d6104de565b60405161024c9190612ee0565b61027d610278366004612c16565b6104ed565b60405161024c95949392919061355f565b6102a161029c366004612e29565b6106a4565b005b6102b66102b1366004612b70565b61071f565b60405161024c9d9c9b9a99989796959493929190612f4b565b61023f61079f565b61025d6107a5565b6102a16107b4565b6102fa6102f5366004612da9565b610817565b60405161024c9190612fc4565b61023f6108ce565b6102a161031d366004612d07565b6108d4565b61032a610939565b60405161024c9190612fb9565b6102a1610345366004612e29565b610949565b61023f6109b8565b61023f610360366004612c87565b6109be565b6102a1610373366004612c28565b610aa9565b6102a1610d8d565b6102a161038e366004612cc2565b610e0c565b6102a16103a1366004612ba8565b610e85565b6102a1610ee3565b6102a16103bc366004612e29565b610f45565b6102a16103cf366004612c16565b610fb4565b6102a16103e2366004612c28565b611383565b61025d611659565b6102a16103fd366004612e29565b611668565b61025d6116d7565b61023f6116e6565b6102a1610420366004612c53565b6116f2565b6102a1610433366004612c28565b611a0a565b61023f611f9e565b61025d61044e366004612c87565b611fa4565b6102fa610461366004612b54565b611fca565b6102a1610474366004612b54565b612032565b6102a1610487366004612e29565b6120ba565b6102a161049a366004612c28565b612129565b6102a16104ad366004612c28565b61232f565b6102a16104c0366004612b54565b6125fb565b61032a6104d3366004612c87565b6126b1565b60095481565b6002546001600160a01b031681565b6001600160a01b038082166000908152600d6020908152604080832086851684529091528120805491928392839283928392166105455760405162461bcd60e51b815260040161053c9061341e565b60405180910390fd5b60085481600501541061056a5760405162461bcd60e51b815260040161053c906131f8565b6001600160a01b038816600090815260066020908152604080832080548251601f60026000196101006001861615020190931692909204918201859004850281018501909352808352610612938301828280156106085780601f106105dd57610100808354040283529160200191610608565b820191906000526020600020905b8154815290600101906020018083116105eb57829003601f168201915b50505050506109be565b9050808260060154106106375760405162461bcd60e51b815260040161053c90613053565b60006106478360030154836126ef565b9050600080600080848760040154111561068f5784876004015403935061067084600b546126ef565b925061067e846009546126ef565b915061068c84600a546126ef565b90505b939d929c50909a509850909650945050505050565b6106ac612710565b6000546001600160a01b039081169116146106d95760405162461bcd60e51b815260040161053c90613333565b600b8054908290556040517f2e3ff2a57d8574a2f22d5c3e4f6d87795bb4311b40b959c0fdc5bce2d2075818906107139083908590613551565b60405180910390a15050565b600d602090815260009283526040808420909152908252902080546001820154600283015460038401546004850154600586015460068701546007880154600889015460098a0154600a8b0154600b8c0154600c909c01546001600160a01b039b8c169c9a8c169b9099169997989697959694959394929391929091908d565b60085481565b600c546001600160a01b031681565b6107bc610939565b6107d85760405162461bcd60e51b815260040161053c90613025565b6107e0612710565b6000546001600160a01b0390811691161461080d5760405162461bcd60e51b815260040161053c90613333565b610815612714565b565b81516020818401810180516004825292820191850191909120919052816002811061083e57fe5b01805460408051602060026001851615610100026000190190941693909304601f810184900484028201840190925281815294509192508301828280156108c65780601f1061089b576101008083540402835291602001916108c6565b820191906000526020600020905b8154815290600101906020018083116108a957829003601f168201915b505050505081565b600b5481565b6108dc612710565b6000546001600160a01b039081169116146109095760405162461bcd60e51b815260040161053c90613333565b8060048360405161091a9190612ec4565b908152604051908190036020019020610934916002612987565b505050565b600054600160a01b900460ff1690565b610951612710565b6000546001600160a01b0390811691161461097e5760405162461bcd60e51b815260040161053c90613333565b60078054908290556040517fe21aac16189a7da506d3ccd8621d8639e3a32d51634174a427ebd25800884e99906107139083908590613551565b600a5481565b60006109c9826126b1565b6109d257600080fd5b6109da6129d7565b6003546040516001600160a01b03909116906365555bcc90600490610a00908790612ec4565b908152604051908190036020019020600001600486604051610a229190612ec4565b9081526040519081900360200190206001016040518363ffffffff1660e01b8152600401610a51929190612ff7565b60606040518083038186803b158015610a6957600080fd5b505afa158015610a7d573d6000803e3d6000fd5b505050506040513d601f19601f82011682018060405250810190610aa19190612dec565b519392505050565b610ab1610939565b15610ace5760405162461bcd60e51b815260040161053c906131ce565b60026001541415610af15760405162461bcd60e51b815260040161053c90613462565b60026001556000600d81610b03612710565b6001600160a01b03166001600160a01b031681526020019081526020016000206000846001600160a01b03166001600160a01b0316815260200190815260200160002090506000816003015411610b6c5760405162461bcd60e51b815260040161053c90613167565b6004810154610b7b9083612785565b60048201556001600160a01b038316600090815260066020908152604080832080548251601f60026000196101006001861615020190931692909204918201859004850281018501909352808352610bf3938301828280156106085780601f106105dd57610100808354040283529160200191610608565b90506000610c20670de0b6b3a7640000610c1a8486600301546127aa90919063ffffffff16565b906127e4565b90506000610c45670de0b6b3a7640000610c1a600754856127aa90919063ffffffff16565b6002549091506001600160a01b03166323b872dd610c61612710565b30886040518463ffffffff1660e01b8152600401610c8193929190612ef4565b602060405180830381600087803b158015610c9b57600080fd5b505af1158015610caf573d6000803e3d6000fd5b505050506040513d601f19601f82011682018060405250810190610cd39190612bf6565b610cdc57600080fd5b610cea846004015483612826565b60058501819055610cfc90849061284a565b60068501556004840154610d109082612881565b60088501819055610d219083612826565b6007850155600c840183905542600985015543600a850155610d41612710565b6001600160a01b03167f2ac90482c3b6bea30a2c085cf093016bad7f970d91c5fd233e6b848d3e231dc386604051610d799190613548565b60405180910390a250506001805550505050565b610d95612710565b6000546001600160a01b03908116911614610dc25760405162461bcd60e51b815260040161053c90613333565b600080546040516001600160a01b03909116907f8be0079c531659141344cd1fd0a4f28419497f9722a3daafe3b4186f6b6457e0908390a3600080546001600160a01b0319169055565b610e14612710565b6000546001600160a01b03908116911614610e415760405162461bcd60e51b815260040161053c90613333565b80600583604051610e529190612ec4565b90815260405190819003602001902080546001600160a01b03929092166001600160a01b03199092169190911790555050565b610e8d612710565b6000546001600160a01b03908116911614610eba5760405162461bcd60e51b815260040161053c90613333565b6001600160a01b03821660009081526006602090815260409091208251610934928401906129f8565b610eeb610939565b15610f085760405162461bcd60e51b815260040161053c906131ce565b610f10612710565b6000546001600160a01b03908116911614610f3d5760405162461bcd60e51b815260040161053c90613333565b6108156128c3565b610f4d612710565b6000546001600160a01b03908116911614610f7a5760405162461bcd60e51b815260040161053c90613333565b60098054908290556040517f3ccaefdfe3295630104d687db5f7e07f2a19848b9f68c4f55a4ab591c9b5d90f906107139083908590613551565b610fbc610939565b15610fd95760405162461bcd60e51b815260040161053c906131ce565b60026001541415610ffc5760405162461bcd60e51b815260040161053c90613462565b600260015560008080808061101187876104ed565b945094509450945094506000841115611256576002546001600160a01b03166323b872dd61103d612710565b30886040518463ffffffff1660e01b815260040161105d93929190612ef4565b602060405180830381600087803b15801561107757600080fd5b505af115801561108b573d6000803e3d6000fd5b505050506040513d601f19601f820116820180604052508101906110af9190612bf6565b5060025460405163a9059cbb60e01b81526001600160a01b039091169063a9059cbb906110e29089908790600401612f18565b602060405180830381600087803b1580156110fc57600080fd5b505af1158015611110573d6000803e3d6000fd5b505050506040513d601f19601f820116820180604052508101906111349190612bf6565b506002546001600160a01b031663a9059cbb61114e612710565b6111588886612785565b6040518363ffffffff1660e01b8152600401611175929190612f18565b602060405180830381600087803b15801561118f57600080fd5b505af11580156111a3573d6000803e3d6000fd5b505050506040513d601f19601f820116820180604052508101906111c79190612bf6565b50600254600c5460405163a9059cbb60e01b81526001600160a01b039283169263a9059cbb926111fe929116908590600401612f18565b602060405180830381600087803b15801561121857600080fd5b505af115801561122c573d6000803e3d6000fd5b505050506040513d601f19601f820116820180604052508101906112509190612bf6565b506112e3565b6002546001600160a01b03166323b872dd61126f612710565b30886040518463ffffffff1660e01b815260040161128f93929190612ef4565b602060405180830381600087803b1580156112a957600080fd5b505af11580156112bd573d6000803e3d6000fd5b505050506040513d601f19601f820116820180604052508101906112e19190612bf6565b505b5050506001600160a01b039283166000908152600d60209081526040808320969095168252949094525050812080546001600160a01b03199081168255600180830180548316905560028301805490921690915560038201839055600482018390556005820183905560068201839055600782018390556008820183905560098201839055600a8201839055600b8201839055600c909101919091558055565b61138b610939565b156113a85760405162461bcd60e51b815260040161053c906131ce565b600260015414156113cb5760405162461bcd60e51b815260040161053c90613462565b60026001556000600d816113dd612710565b6001600160a01b03166001600160a01b031681526020019081526020016000206000846001600160a01b03166001600160a01b03168152602001908152602001600020905060008160030154116114465760405162461bcd60e51b815260040161053c90613368565b60048101546114559083612881565b60048201556001600160a01b038316600090815260066020908152604080832080548251601f600260001961010060018616150201909316929092049182018590048502810185019093528083526114cd938301828280156106085780601f106105dd57610100808354040283529160200191610608565b905060006114df8360030154836126ef565b905060006114ef826007546126ef565b9050600061150a82866004015461288190919063ffffffff16565b90508581101561152c5760405162461bcd60e51b815260040161053c906134eb565b6002546001600160a01b031663a9059cbb611545612710565b886040518363ffffffff1660e01b8152600401611563929190612f18565b602060405180830381600087803b15801561157d57600080fd5b505af1158015611591573d6000803e3d6000fd5b505050506040513d601f19601f820116820180604052508101906115b59190612bf6565b506115c4856004015484612826565b600586018190556115d690859061284a565b6006860155600885018190556115ec8184612826565b6007860155600c850184905542600986015543600a86015561160c612710565b6001600160a01b03167fe25410a4059619c9594dc6f022fe231b02aaea733f689e7ab0cd21b3d4d0eb54876040516116449190613548565b60405180910390a25050600180555050505050565b6000546001600160a01b031690565b611670612710565b6000546001600160a01b0390811691161461169d5760405162461bcd60e51b815260040161053c90613333565b60088054908290556040517fad82ab9177533366e9282d4fe3d9537bd1beaf004633ebab48e3ef4e47f258bd906107139083908590613551565b6003546001600160a01b031681565b670de0b6b3a764000081565b6116fa610939565b156117175760405162461bcd60e51b815260040161053c906131ce565b6002600154141561173a5760405162461bcd60e51b815260040161053c90613462565b60026001556000600d8161174c612710565b6001600160a01b0390811682526020808301939093526040918201600090812091881681529083528181206006845282822080548451601f6002600019610100600186161502019093169290920491820187900487028101870190955280855291955091936117de939291908301828280156106085780601f106105dd57610100808354040283529160200191610608565b905060006117ec85836126ef565b905060006117fc826007546126ef565b90508085101561181e5760405162461bcd60e51b815260040161053c9061311d565b866001600160a01b03166340c10f19611835612710565b886040518363ffffffff1660e01b8152600401611853929190612f18565b600060405180830381600087803b15801561186d57600080fd5b505af1158015611881573d6000803e3d6000fd5b50506002546001600160a01b031691506323b872dd90506118a0612710565b30886040518463ffffffff1660e01b81526004016118c093929190612ef4565b602060405180830381600087803b1580156118da57600080fd5b505af11580156118ee573d6000803e3d6000fd5b505050506040513d601f19601f820116820180604052508101906119129190612bf6565b61191b57600080fd5b611923612710565b84546001600160a01b03199081166001600160a01b0392831617865560018601805482168a84161790556002805490870180549190931691161790556003840186905560048401859055600b8401839055600c84018390556119858583612826565b6005850181905561199790849061284a565b60068501556119a68582612881565b600885018190556119b79083612826565b600785015542600985015543600a8501556001600160a01b0387167fd7918d04fa8d2763da038d81b4ab65ea7b9eb8e5e3b199c548142ac304a8ad6f6119fb612710565b88604051611644929190612f18565b611a12610939565b15611a2f5760405162461bcd60e51b815260040161053c906131ce565b60026001541415611a525760405162461bcd60e51b815260040161053c90613462565b60026001556000600d81611a64612710565b6001600160a01b03166001600160a01b031681526020019081526020016000206000846001600160a01b03166001600160a01b0316815260200190815260200160002090508181600301541015611acd5760405162461bcd60e51b815260040161053c9061329d565b8060030154821415611caf57826001600160a01b03166379cc6790611af0612710565b846040518363ffffffff1660e01b8152600401611b0e929190612f18565b600060405180830381600087803b158015611b2857600080fd5b505af1158015611b3c573d6000803e3d6000fd5b50506002546001600160a01b0316915063a9059cbb9050611b5b612710565b83600401546040518363ffffffff1660e01b8152600401611b7d929190612f18565b602060405180830381600087803b158015611b9757600080fd5b505af1158015611bab573d6000803e3d6000fd5b505050506040513d601f19601f82011682018060405250810190611bcf9190612bf6565b50600d6000611bdc612710565b6001600160a01b039081168252602080830193909352604091820160009081209187168082529190935281832080546001600160a01b0319908116825560018201805482169055600282018054909116905560038101849055600481018490556005810184905560068101849055600781018490556008810184905560098101849055600a8101849055600b8101849055600c0192909255517fb99b782c502642cbb60ce7d75f893727e5ef94003f2f9e56bcbbb013615e193e90611ca2908590613548565b60405180910390a2611f95565b6000611cbf838360030154612826565b90506000611cd18360030154836126ef565b90506000611ce38460040154846126ef565b6001600160a01b038716600090815260066020908152604080832080548251601f600260001961010060018616150201909316929092049182018590048502810185019093528083529495509293611d5d9391928301828280156106085780601f106105dd57610100808354040283529160200191610608565b90506000611d7883876004015461288190919063ffffffff16565b90506000611d9385886003015461288190919063ffffffff16565b90506000611dad670de0b6b3a7640000610c1a84876127aa565b90506000611dd2670de0b6b3a7640000610c1a600754856127aa90919063ffffffff16565b905080841015611df45760405162461bcd60e51b815260040161053c90613499565b8a6001600160a01b03166379cc6790611e0b612710565b896040518363ffffffff1660e01b8152600401611e29929190612f18565b600060405180830381600087803b158015611e4357600080fd5b505af1158015611e57573d6000803e3d6000fd5b50506002546001600160a01b0316915063a9059cbb9050611e76612710565b886040518363ffffffff1660e01b8152600401611e94929190612f18565b602060405180830381600087803b158015611eae57600080fd5b505af1158015611ec2573d6000803e3d6000fd5b505050506040513d601f19601f82011682018060405250810190611ee69190612bf6565b506003890183905560048901849055611eff8483612826565b60058a01819055611f1190869061284a565b60068a0155611f208482612881565b60088a01819055611f319083612826565b60078a0155600c89018590554260098a015543600a8a01556040516001600160a01b038c16907fb99b782c502642cbb60ce7d75f893727e5ef94003f2f9e56bcbbb013615e193e90611f84908d90613548565b60405180910390a250505050505050505b50506001805550565b60075481565b80516020818301810180516005825292820191909301209152546001600160a01b031681565b60066020908152600091825260409182902080548351601f6002600019610100600186161502019093169290920491820184900484028101840190945280845290918301828280156108c65780601f1061089b576101008083540402835291602001916108c6565b61203a612710565b6000546001600160a01b039081169116146120675760405162461bcd60e51b815260040161053c90613333565b600c80546001600160a01b038381166001600160a01b03198316179092556040519116907f618c54559e94f1499a808aad71ee8729f8e74e8c48e979616328ce493a1a52e7906107139083908590612f31565b6120c2612710565b6000546001600160a01b039081169116146120ef5760405162461bcd60e51b815260040161053c90613333565b600a8054908290556040517f6fe3d84266b6434a6a63810addd9a2075a300a5d5af2a48aba78e443e7eab3f9906107139083908590613551565b612131610939565b1561214e5760405162461bcd60e51b815260040161053c906131ce565b600260015414156121715760405162461bcd60e51b815260040161053c90613462565b60026001556000600d81612183612710565b6001600160a01b03166001600160a01b031681526020019081526020016000206000846001600160a01b03166001600160a01b03168152602001908152602001600020905060008160030154116121ec5760405162461bcd60e51b815260040161053c9061323f565b60038101546121fb9083612785565b60038201556001600160a01b038316600090815260066020908152604080832080548251601f60026000196101006001861615020190931692909204918201859004850281018501909352808352612273938301828280156106085780601f106105dd57610100808354040283529160200191610608565b905060006122858360030154836126ef565b90506000612295826007546126ef565b9050808460040154116122ba5760405162461bcd60e51b815260040161053c906133d5565b856001600160a01b03166340c10f196122d1612710565b876040518363ffffffff1660e01b81526004016122ef929190612f18565b600060405180830381600087803b15801561230957600080fd5b505af115801561231d573d6000803e3d6000fd5b50505050610cea846004015483612826565b612337612710565b6000546001600160a01b039081169116146123645760405162461bcd60e51b815260040161053c90613333565b61236c610939565b156123895760405162461bcd60e51b815260040161053c906131ce565b600260015414156123ac5760405162461bcd60e51b815260040161053c90613462565b60026001556000600d816123be612710565b6001600160a01b03166001600160a01b031681526020019081526020016000206000846001600160a01b03166001600160a01b03168152602001908152602001600020905060008160030154116124275760405162461bcd60e51b815260040161053c90613368565b60048101546124369083612881565b60048201556001600160a01b038316600090815260066020908152604080832080548251601f600260001961010060018616150201909316929092049182018590048502810185019093528083526124ae938301828280156106085780601f106105dd57610100808354040283529160200191610608565b905060006124d5670de0b6b3a7640000610c1a8486600301546127aa90919063ffffffff16565b6002549091506001600160a01b031663a9059cbb6124f1612710565b866040518363ffffffff1660e01b815260040161250f929190612f18565b602060405180830381600087803b15801561252957600080fd5b505af115801561253d573d6000803e3d6000fd5b505050506040513d601f19601f820116820180604052508101906125619190612bf6565b50612570836004015482612826565b6005840181905561258290839061284a565b60068401556000600884018190556007840155600c830182905542600984015543600a8401556125b0612710565b6001600160a01b03167fe25410a4059619c9594dc6f022fe231b02aaea733f689e7ab0cd21b3d4d0eb54856040516125e89190613548565b60405180910390a2505060018055505050565b612603612710565b6000546001600160a01b039081169116146126305760405162461bcd60e51b815260040161053c90613333565b6001600160a01b0381166126565760405162461bcd60e51b815260040161053c906130a0565b600080546040516001600160a01b03808516939216917f8be0079c531659141344cd1fd0a4f28419497f9722a3daafe3b4186f6b6457e091a3600080546001600160a01b0319166001600160a01b0392909216919091179055565b6000806001600160a01b03166005836040516126cd9190612ec4565b908152604051908190036020019020546001600160a01b031614159050919050565b6000612707670de0b6b3a7640000610c1a85856127aa565b90505b92915050565b3390565b61271c610939565b6127385760405162461bcd60e51b815260040161053c90613025565b6000805460ff60a01b191690557f5db9ee0a495bf2e6ff9c91a7834c1ba4fdd244a5e8aa4e537bd38aeae4b073aa61276e612710565b60405161277b9190612ee0565b60405180910390a1565b6000828201838110156127075760405162461bcd60e51b815260040161053c906130e6565b6000826127b95750600061270a565b828202828482816127c657fe5b04146127075760405162461bcd60e51b815260040161053c906132f2565b600061270783836040518060400160405280601a81526020017f536166654d6174683a206469766973696f6e206279207a65726f000000000000815250612924565b6000612707670de0b6b3a7640000610c1a81612844868389846127aa565b906127aa565b6000612707670de0b6b3a7640000610c1a61287a670de0b6b3a7640000600854038661288190919063ffffffff16565b86906127aa565b600061270783836040518060400160405280601e81526020017f536166654d6174683a207375627472616374696f6e206f766572666c6f77000081525061295b565b6128cb610939565b156128e85760405162461bcd60e51b815260040161053c906131ce565b6000805460ff60a01b1916600160a01b1790557f62e78cea01bee320cd4e420270b5ea74000d11b0c9f74754ebdbfc544b05a25861276e612710565b600081836129455760405162461bcd60e51b815260040161053c9190612fc4565b50600083858161295157fe5b0495945050505050565b6000818484111561297f5760405162461bcd60e51b815260040161053c9190612fc4565b505050900390565b82600281019282156129c7579160200282015b828111156129c757825180516129b79184916020909101906129f8565b509160200191906001019061299a565b506129d3929150612a72565b5090565b60405180606001604052806000815260200160008152602001600081525090565b828054600181600116156101000203166002900490600052602060002090601f016020900481019282601f10612a3957805160ff1916838001178555612a66565b82800160010185558215612a66579182015b82811115612a66578251825591602001919060010190612a4b565b506129d3929150612a8f565b808211156129d3576000612a868282612aa4565b50600101612a72565b5b808211156129d35760008155600101612a90565b50805460018160011615610100020316600290046000825580601f10612aca5750612ae8565b601f016020900490600052602060002090810190612ae89190612a8f565b50565b600082601f830112612afb578081fd5b813567ffffffffffffffff811115612b11578182fd5b612b24601f8201601f1916602001613582565b9150808252836020828501011115612b3b57600080fd5b8060208401602084013760009082016020015292915050565b600060208284031215612b65578081fd5b8135612707816135e5565b60008060408385031215612b82578081fd5b8235612b8d816135e5565b91506020830135612b9d816135e5565b809150509250929050565b60008060408385031215612bba578182fd5b8235612bc5816135e5565b9150602083013567ffffffffffffffff811115612be0578182fd5b612bec85828601612aeb565b9150509250929050565b600060208284031215612c07578081fd5b81518015158114612707578182fd5b60008060408385031215612b82578182fd5b60008060408385031215612c3a578182fd5b8235612c45816135e5565b946020939093013593505050565b600080600060608486031215612c67578081fd5b8335612c72816135e5565b95602085013595506040909401359392505050565b600060208284031215612c98578081fd5b813567ffffffffffffffff811115612cae578182fd5b612cba84828501612aeb565b949350505050565b60008060408385031215612cd4578182fd5b823567ffffffffffffffff811115612cea578283fd5b612cf685828601612aeb565b9250506020830135612b9d816135e5565b60008060408385031215612d19578182fd5b823567ffffffffffffffff80821115612d30578384fd5b612d3c86838701612aeb565b9350602091508185013581811115612d52578384fd5b85019050601f81018613612d64578283fd5b612d6e6040613582565b8082855b6002811015612d9a57612d888a83358701612aeb565b84529285019290850190600101612d72565b50959890975095505050505050565b60008060408385031215612dbb578182fd5b823567ffffffffffffffff811115612dd1578283fd5b612ddd85828601612aeb565b95602094909401359450505050565b600060608284031215612dfd578081fd5b612e076060613582565b8251815260208301516020820152604083015160408201528091505092915050565b600060208284031215612e3a578081fd5b5035919050565b60008154600180821660008114612e5f5760018114612e7d57612ebb565b60028304607f16865260ff1983166020870152604086019350612ebb565b60028304808752612e8d866135a9565b60005b82811015612eb15781546020828b0101528482019150602081019050612e90565b8801602001955050505b50505092915050565b60008251612ed68184602087016135b5565b9190910192915050565b6001600160a01b0391909116815260200190565b6001600160a01b039384168152919092166020820152604081019190915260600190565b6001600160a01b03929092168252602082015260400190565b6001600160a01b0392831681529116602082015260400190565b6001600160a01b039d8e1681529b8d1660208d015299909b1660408b015260608a0197909752608089019590955260a088019390935260c087019190915260e08601526101008501526101208401526101408301526101608201929092526101808101919091526101a00190565b901515815260200190565b6000602082528251806020840152612fe38160408501602087016135b5565b601f01601f19169190910160400192915050565b60006040825261300a6040830185612e41565b828103602084015261301c8185612e41565b95945050505050565b60208082526014908201527314185d5cd8589b194e881b9bdd081c185d5cd95960621b604082015260600190565b6020808252602d908201527f53796e7468657469633a3a6c69717569646174653a206173736574207072696360408201526c6520697320736173746973667960981b606082015260800190565b60208082526026908201527f4f776e61626c653a206e6577206f776e657220697320746865207a65726f206160408201526564647265737360d01b606082015260800190565b6020808252601b908201527f536166654d6174683a206164646974696f6e206f766572666c6f770000000000604082015260600190565b6020808252602a908201527f53796e7468657469633a3a6d696e7453796e7468657469633a20756e6465722060408201526918dbdb1b185d195c985b60b21b606082015260800190565b60208082526041908201527f53796e7468657469633a3a616464436f6c6c61746572616c3a2063616e6e6f7460408201527f2061646420636f6c6c61746572616c20746f20656d70747920636f6e747261636060820152601d60fa1b608082015260a00190565b60208082526010908201526f14185d5cd8589b194e881c185d5cd95960821b604082015260600190565b60208082526027908201527f53796e7468657469633a3a6c69717569646174653a20726174696f20697320736040820152666173746973667960c81b606082015260800190565b602080825260409082018190527f53796e7468657469633a3a616464436f6c6c61746572616c3a2063616e6e6f74908201527f206164642073796e74686574696320746f20656d70747920636f6e7472616374606082015260800190565b60208082526035908201527f53796e7468657469633a3a72656465656d53796e7468657469633a20616d6f756040820152741b9d08195e18d959591cc818dbdb1b185d195c985b605a1b606082015260800190565b60208082526021908201527f536166654d6174683a206d756c7469706c69636174696f6e206f766572666c6f6040820152607760f81b606082015260800190565b6020808252818101527f4f776e61626c653a2063616c6c6572206973206e6f7420746865206f776e6572604082015260600190565b60208082526047908201527f53796e7468657469633a3a72656d6f7665436f6c6c61746572616c3a2063616e60408201527f6e6f742072656d6f766520636f6c6c61746572616c20746f20656d70747920636060820152661bdb9d1c9858dd60ca1b608082015260a00190565b60208082526029908201527f53796e7468657469633a3a61646453796e7468657469633a20756e64657220636040820152681bdb1b185d195c985b60ba1b606082015260800190565b60208082526024908201527f53796e7468657469633a3a6c69717569646174653a20656d70747920636f6e746040820152631c9858dd60e21b606082015260800190565b6020808252601f908201527f5265656e7472616e637947756172643a207265656e7472616e742063616c6c00604082015260600190565b60208082526032908201527f53796e7468657469633a3a72656465656d53796e7468657469633a20756e64656040820152717220636f6c6c61746572616c20726174696f60701b606082015260800190565b6020808252603f908201527f53796e7468657469633a3a72656d6f7665436f6c6c61746572616c3a20616d6f60408201527f756e74206578636565647320726571756972656420636f6c6c61746572616c00606082015260800190565b90815260200190565b918252602082015260400190565b948552602085019390935260408401919091526060830152608082015260a00190565b60405181810167ffffffffffffffff811182821017156135a157600080fd5b604052919050565b60009081526020902090565b60005b838110156135d05781810151838201526020016135b8565b838111156135df576000848401525b50505050565b6001600160a01b0381168114612ae857600080fdfea264697066735822122013e46df92c4bd62015bbb0788030fdee5ab0ef76dbcab37f3b5082399a7fb29c64736f6c634300060c0033",
  "linkReferences": {},
  "deployedLinkReferences": {}
}