{
  "_format": "hh-sol-artifact-1",
  "contractName": "Synthetic",
  "sourceName": "contracts/Synthetic.sol",
  "abi": [
    {
      "inputs": [
        {
          "internalType": "contract IERC20",
          "name": "_dolly",
          "type": "address"
        },
        {
          "internalType": "contract IStdReference",
          "name": "_ref",
          "type": "address"
        }
      ],
      "stateMutability": "nonpayable",
      "type": "constructor"
    },
    {
      "anonymous": false,
      "inputs": [
        {
          "indexed": true,
          "internalType": "address",
          "name": "user",
          "type": "address"
        },
        {
          "indexed": false,
          "internalType": "uint256",
          "name": "amount",
          "type": "uint256"
        }
      ],
      "name": "AddCollateral",
      "type": "event"
    },
    {
      "anonymous": false,
      "inputs": [
        {
          "indexed": true,
          "internalType": "address",
          "name": "liquidated",
          "type": "address"
        },
        {
          "indexed": true,
          "internalType": "address",
          "name": "liquidator",
          "type": "address"
        },
        {
          "indexed": true,
          "internalType": "address",
          "name": "syntheticAddress",
          "type": "address"
        },
        {
          "indexed": false,
          "internalType": "uint256",
          "name": "amount",
          "type": "uint256"
        },
        {
          "indexed": false,
          "internalType": "uint256",
          "name": "timestamp",
          "type": "uint256"
        }
      ],
      "name": "Liquidated",
      "type": "event"
    },
    {
      "anonymous": false,
      "inputs": [
        {
          "indexed": false,
          "internalType": "address",
          "name": "minter",
          "type": "address"
        },
        {
          "indexed": true,
          "internalType": "address",
          "name": "syntheticAddress",
          "type": "address"
        },
        {
          "indexed": false,
          "internalType": "uint256",
          "name": "amount",
          "type": "uint256"
        }
      ],
      "name": "MintAsset",
      "type": "event"
    },
    {
      "anonymous": false,
      "inputs": [
        {
          "indexed": true,
          "internalType": "address",
          "name": "previousOwner",
          "type": "address"
        },
        {
          "indexed": true,
          "internalType": "address",
          "name": "newOwner",
          "type": "address"
        }
      ],
      "name": "OwnershipTransferred",
      "type": "event"
    },
    {
      "anonymous": false,
      "inputs": [
        {
          "indexed": true,
          "internalType": "address",
          "name": "syntheticAddress",
          "type": "address"
        },
        {
          "indexed": false,
          "internalType": "uint256",
          "name": "amount",
          "type": "uint256"
        }
      ],
      "name": "RedeemAsset",
      "type": "event"
    },
    {
      "anonymous": false,
      "inputs": [
        {
          "indexed": true,
          "internalType": "address",
          "name": "user",
          "type": "address"
        },
        {
          "indexed": false,
          "internalType": "uint256",
          "name": "amount",
          "type": "uint256"
        }
      ],
      "name": "RemoveCollateral",
      "type": "event"
    },
    {
      "inputs": [
        {
          "internalType": "contract IERC20Burnable",
          "name": "_synthetic",
          "type": "address"
        },
        {
          "internalType": "uint256",
          "name": "_addAmount",
          "type": "uint256"
        }
      ],
      "name": "addCollateral",
      "outputs": [],
      "stateMutability": "nonpayable",
      "type": "function"
    },
    {
      "inputs": [
        {
          "internalType": "address",
          "name": "",
          "type": "address"
        }
      ],
      "name": "addressToPairs",
      "outputs": [
        {
          "internalType": "string",
          "name": "",
          "type": "string"
        }
      ],
      "stateMutability": "view",
      "type": "function"
    },
    {
      "inputs": [],
      "name": "bandOracle",
      "outputs": [
        {
          "internalType": "contract IStdReference",
          "name": "",
          "type": "address"
        }
      ],
      "stateMutability": "view",
      "type": "function"
    },
    {
      "inputs": [],
      "name": "collateralRatio",
      "outputs": [
        {
          "internalType": "uint256",
          "name": "",
          "type": "uint256"
        }
      ],
      "stateMutability": "view",
      "type": "function"
    },
    {
      "inputs": [],
      "name": "denominator",
      "outputs": [
        {
          "internalType": "uint256",
          "name": "",
          "type": "uint256"
        }
      ],
      "stateMutability": "view",
      "type": "function"
    },
    {
      "inputs": [],
      "name": "dolly",
      "outputs": [
        {
          "internalType": "contract IERC20",
          "name": "",
          "type": "address"
        }
      ],
      "stateMutability": "view",
      "type": "function"
    },
    {
      "inputs": [
        {
          "internalType": "string",
          "name": "_pairs",
          "type": "string"
        }
      ],
      "name": "getRate",
      "outputs": [
        {
          "internalType": "uint256",
          "name": "",
          "type": "uint256"
        }
      ],
      "stateMutability": "view",
      "type": "function"
    },
    {
      "inputs": [
        {
          "internalType": "string",
          "name": "_pairs",
          "type": "string"
        }
      ],
      "name": "isSupported",
      "outputs": [
        {
          "internalType": "bool",
          "name": "",
          "type": "bool"
        }
      ],
      "stateMutability": "view",
      "type": "function"
    },
    {
      "inputs": [],
      "name": "liquidate",
      "outputs": [],
      "stateMutability": "nonpayable",
      "type": "function"
    },
    {
      "inputs": [],
      "name": "liquidationRatio",
      "outputs": [
        {
          "internalType": "uint256",
          "name": "",
          "type": "uint256"
        }
      ],
      "stateMutability": "view",
      "type": "function"
    },
    {
      "inputs": [
        {
          "internalType": "contract IERC20Burnable",
          "name": "_synthetic",
          "type": "address"
        },
        {
          "internalType": "uint256",
          "name": "_amount",
          "type": "uint256"
        },
        {
          "internalType": "uint256",
          "name": "_backedAmount",
          "type": "uint256"
        }
      ],
      "name": "mintSynthetic",
      "outputs": [],
      "stateMutability": "nonpayable",
      "type": "function"
    },
    {
      "inputs": [
        {
          "internalType": "address",
          "name": "",
          "type": "address"
        },
        {
          "internalType": "address",
          "name": "",
          "type": "address"
        }
      ],
      "name": "minter",
      "outputs": [
        {
          "internalType": "address",
          "name": "minter",
          "type": "address"
        },
        {
          "internalType": "contract IERC20Burnable",
          "name": "asset",
          "type": "address"
        },
        {
          "internalType": "contract IERC20",
          "name": "assetBacked",
          "type": "address"
        },
        {
          "internalType": "uint256",
          "name": "assetAmount",
          "type": "uint256"
        },
        {
          "internalType": "uint256",
          "name": "assetBackedAmount",
          "type": "uint256"
        },
        {
          "internalType": "uint256",
          "name": "currentRatio",
          "type": "uint256"
        },
        {
          "internalType": "uint256",
          "name": "willLiquidateAtPrice",
          "type": "uint256"
        },
        {
          "internalType": "uint256",
          "name": "canMintRemainning",
          "type": "uint256"
        },
        {
          "internalType": "uint256",
          "name": "canWithdrawRemainning",
          "type": "uint256"
        },
        {
          "internalType": "uint256",
          "name": "updatedAt",
          "type": "uint256"
        },
        {
          "internalType": "uint256",
          "name": "updatedBlock",
          "type": "uint256"
        },
        {
          "internalType": "uint256",
          "name": "exchangeRateAtMinted",
          "type": "uint256"
        },
        {
          "internalType": "uint256",
          "name": "currentExchangeRate",
          "type": "uint256"
        }
      ],
      "stateMutability": "view",
      "type": "function"
    },
    {
      "inputs": [],
      "name": "owner",
      "outputs": [
        {
          "internalType": "address",
          "name": "",
          "type": "address"
        }
      ],
      "stateMutability": "view",
      "type": "function"
    },
    {
      "inputs": [
        {
          "internalType": "string",
          "name": "",
          "type": "string"
        }
      ],
      "name": "pairsToAddress",
      "outputs": [
        {
          "internalType": "address",
          "name": "",
          "type": "address"
        }
      ],
      "stateMutability": "view",
      "type": "function"
    },
    {
      "inputs": [
        {
          "internalType": "string",
          "name": "",
          "type": "string"
        },
        {
          "internalType": "uint256",
          "name": "",
          "type": "uint256"
        }
      ],
      "name": "pairsToQuote",
      "outputs": [
        {
          "internalType": "string",
          "name": "",
          "type": "string"
        }
      ],
      "stateMutability": "view",
      "type": "function"
    },
    {
      "inputs": [
        {
          "internalType": "contract IERC20Burnable",
          "name": "_synthetic",
          "type": "address"
        },
        {
          "internalType": "uint256",
          "name": "_amount",
          "type": "uint256"
        }
      ],
      "name": "redeemSynthetic",
      "outputs": [],
      "stateMutability": "nonpayable",
      "type": "function"
    },
    {
      "inputs": [
        {
          "internalType": "contract IERC20Burnable",
          "name": "_synthetic",
          "type": "address"
        },
        {
          "internalType": "uint256",
          "name": "_removeBackedAmount",
          "type": "uint256"
        }
      ],
      "name": "removeCollateral",
      "outputs": [],
      "stateMutability": "nonpayable",
      "type": "function"
    },
    {
      "inputs": [
        {
          "internalType": "contract IERC20Burnable",
          "name": "_synthetic",
          "type": "address"
        },
        {
          "internalType": "uint256",
          "name": "_removeAmount",
          "type": "uint256"
        }
      ],
      "name": "removeLowerCollateral",
      "outputs": [],
      "stateMutability": "nonpayable",
      "type": "function"
    },
    {
      "inputs": [],
      "name": "renounceOwnership",
      "outputs": [],
      "stateMutability": "nonpayable",
      "type": "function"
    },
    {
      "inputs": [
        {
          "internalType": "address",
          "name": "_syntheticAddress",
          "type": "address"
        },
        {
          "internalType": "string",
          "name": "_pairs",
          "type": "string"
        }
      ],
      "name": "setAddressToPairs",
      "outputs": [],
      "stateMutability": "nonpayable",
      "type": "function"
    },
    {
      "inputs": [
        {
          "internalType": "string",
          "name": "_pairs",
          "type": "string"
        },
        {
          "internalType": "address",
          "name": "_syntheticAddress",
          "type": "address"
        }
      ],
      "name": "setPairsToAddress",
      "outputs": [],
      "stateMutability": "nonpayable",
      "type": "function"
    },
    {
      "inputs": [
        {
          "internalType": "string",
          "name": "_pairs",
          "type": "string"
        },
        {
          "internalType": "string[2]",
          "name": "baseAndQuote",
          "type": "string[2]"
        }
      ],
      "name": "setPairsToQuote",
      "outputs": [],
      "stateMutability": "nonpayable",
      "type": "function"
    },
    {
      "inputs": [],
      "name": "systheticAsset",
      "outputs": [
        {
          "internalType": "contract IERC20Burnable",
          "name": "",
          "type": "address"
        }
      ],
      "stateMutability": "view",
      "type": "function"
    },
    {
      "inputs": [
        {
          "internalType": "address",
          "name": "newOwner",
          "type": "address"
        }
      ],
      "name": "transferOwnership",
      "outputs": [],
      "stateMutability": "nonpayable",
      "type": "function"
    }
  ],
  "bytecode": "0x6080604052670de0b6b3a76400006007556714d1120d7b160000600855671158e460913d00006009553480156200003557600080fd5b50604051620029a5380380620029a5833981016040819052620000589162000370565b60006200006462000211565b600080546001600160a01b0319166001600160a01b0383169081178255604051929350917f8be0079c531659141344cd1fd0a4f28419497f9722a3daafe3b4186f6b6457e0908290a350600280546001600160a01b038085166001600160a01b03199283161790925560038054928416929091169190911781556040805160808101825260048183018181526354534c4160e01b6060840152825282518084018452938452621554d160ea1b60208581019190915282019390935290519091906200012f90620003ae565b9081526040519081900360200190206200014b91600262000215565b507365cac0f09efdb88195a002e8dd4cbf6ec9bc7f6060056040516200017190620003ae565b908152604080516020928190038301812080546001600160a01b0319166001600160a01b039590951694909417909355828101905260088252671514d3104bd554d160c21b8183019081527365cac0f09efdb88195a002e8dd4cbf6ec9bc7f606000526006909152905162000208917fb5aea66d9b9a38ebc3abed41876b8c9b8e80920b3fb821e1e214caaf12318c23916200026c565b505050620003d8565b3390565b82600281019282156200025a579160200282015b828111156200025a5782518051620002499184916020909101906200026c565b509160200191906001019062000229565b5062000268929150620002ed565b5090565b828054600181600116156101000203166002900490600052602060002090601f016020900481019282601f10620002af57805160ff1916838001178555620002df565b82800160010185558215620002df579182015b82811115620002df578251825591602001919060010190620002c2565b50620002689291506200030e565b808211156200026857600062000304828262000325565b50600101620002ed565b5b808211156200026857600081556001016200030f565b50805460018160011615610100020316600290046000825580601f106200034d57506200036d565b601f0160209004906000526020600020908101906200036d91906200030e565b50565b6000806040838503121562000383578182fd5b82516200039081620003c2565b6020840151909250620003a381620003c2565b809150509250929050565b671514d3104bd554d160c21b815260080190565b6001600160a01b03811681146200036d57600080fd5b6125bd80620003e86000396000f3fe608060405234801561001057600080fd5b50600436106101585760003560e01c8063876467f8116100c3578063b4eae1cb1161007c578063b4eae1cb146102a6578063bad82690146102ae578063bf15c3e1146102c1578063e150f647146102d4578063f2fde38b146102e7578063f3a014a2146102fa57610158565b8063876467f8146102555780638da5cb5b14610268578063956dcd1f1461027057806396ce0795146102785780639a12944c14610280578063b32ec5461461029357610158565b80636c0daed8116101155780636c0daed8146101f95780636d75b9ee1461020c5780636e1aa51b1461021f578063715018a6146102275780637bda6e281461022f5780638223c7701461024257610158565b80630b87d86e1461015d5780631775765f1461017b57806328a07025146101905780633f97bc5b1461019a5780635bcbdc96146101ba5780636502d171146101cd575b600080fd5b61016561031a565b6040516101729190612076565b60405180910390f35b610183610329565b6040516101729190612506565b61019861032f565b005b6101ad6101a8366004611f57565b610331565b6040516101729190612140565b6101986101c8366004611eb5565b6103e8565b6101e06101db366004611d30565b610456565b6040516101729d9c9b9a999897969594939291906120c7565b610183610207366004611e35565b6104d3565b61019861021a366004611dd6565b6105be565b6101656108c3565b6101986108d2565b61019861023d366004611e70565b610951565b610198610250366004611d68565b6109ca565b610198610263366004611dd6565b610a28565b610165610cf4565b610165610d03565b610183610d12565b61019861028e366004611e01565b610d18565b6101986102a1366004611dd6565b61107b565b610183611611565b6101656102bc366004611e35565b611617565b6101ad6102cf366004611d14565b61163d565b6101986102e2366004611dd6565b6116a5565b6101986102f5366004611d14565b611921565b61030d610308366004611e35565b6119d7565b6040516101729190612135565b6002546001600160a01b031681565b60095481565b565b81516020818401810180516004825292820191850191909120919052816002811061035857fe5b01805460408051602060026001851615610100026000190190941693909304601f810184900484028201840190925281815294509192508301828280156103e05780601f106103b5576101008083540402835291602001916103e0565b820191906000526020600020905b8154815290600101906020018083116103c357829003601f168201915b505050505081565b6103f06119f4565b6000546001600160a01b039081169116146104265760405162461bcd60e51b815260040161041d90612365565b60405180910390fd5b80600483604051610437919061205a565b908152604051908190036020019020610451916002611b47565b505050565b600a602081815260009384526040808520909152918352912080546001820154600283015460038401546004850154600586015460068701546007880154600889015460098a01549a8a0154600b8b0154600c909b01546001600160a01b039a8b169c998b169b9a9098169996989597949693959294919390918d565b60006104de826119d7565b6104e757600080fd5b6104ef611b97565b6003546040516001600160a01b03909116906365555bcc9060049061051590879061205a565b908152604051908190036020019020600001600486604051610537919061205a565b9081526040519081900360200190206001016040518363ffffffff1660e01b8152600401610566929190612173565b60606040518083038186803b15801561057e57600080fd5b505afa158015610592573d6000803e3d6000fd5b505050506040513d601f19601f820116820180604052508101906105b69190611f9a565b519392505050565b6000600a60006105cc6119f4565b6001600160a01b03166001600160a01b031681526020019081526020016000206000846001600160a01b03166001600160a01b03168152602001908152602001600020905060008160030154116106355760405162461bcd60e51b815260040161041d90612268565b600481015461064490836119f8565b60048201556001600160a01b038316600090815260066020908152604080832080548251601f600260001961010060018616150201909316929092049182018590048502810185019093528083526106f1938301828280156106e75780601f106106bc576101008083540402835291602001916106e7565b820191906000526020600020905b8154815290600101906020018083116106ca57829003601f168201915b50505050506104d3565b90506000610718600754610712848660030154611a2690919063ffffffff16565b90611a60565b9050600061073760075461071260085485611a2690919063ffffffff16565b90506000610752828660040154611aa290919063ffffffff16565b6002549091506001600160a01b03166323b872dd61076e6119f4565b30896040518463ffffffff1660e01b815260040161078e9392919061208a565b602060405180830381600087803b1580156107a857600080fd5b505af11580156107bc573d6000803e3d6000fd5b505050506040513d601f19601f820116820180604052508101906107e09190611db6565b6107e957600080fd5b610818600754610712600754610812886107126007548c60040154611a2690919063ffffffff16565b90611a26565b6005860155600754600954600487015461083792916107129190611a26565b60068601556008850181905560075461085a906107128161081288838784611a26565b6007860155600c850184905542600986015543600a86015561087a6119f4565b6001600160a01b03167f2ac90482c3b6bea30a2c085cf093016bad7f970d91c5fd233e6b848d3e231dc3876040516108b29190612506565b60405180910390a250505050505050565b6001546001600160a01b031681565b6108da6119f4565b6000546001600160a01b039081169116146109075760405162461bcd60e51b815260040161041d90612365565b600080546040516001600160a01b03909116907f8be0079c531659141344cd1fd0a4f28419497f9722a3daafe3b4186f6b6457e0908390a3600080546001600160a01b0319169055565b6109596119f4565b6000546001600160a01b039081169116146109865760405162461bcd60e51b815260040161041d90612365565b80600583604051610997919061205a565b90815260405190819003602001902080546001600160a01b03929092166001600160a01b03199092169190911790555050565b6109d26119f4565b6000546001600160a01b039081169116146109ff5760405162461bcd60e51b815260040161041d90612365565b6001600160a01b0382166000908152600660209081526040909120825161045192840190611bb8565b6000600a6000610a366119f4565b6001600160a01b03166001600160a01b031681526020019081526020016000206000846001600160a01b03166001600160a01b0316815260200190815260200160002090506000816003015411610a9f5760405162461bcd60e51b815260040161041d9061239a565b6004810154610aae9083611aa2565b60048201556008810154821115610ad75760405162461bcd60e51b815260040161041d906124a9565b6001600160a01b038316600090815260066020908152604080832080548251601f60026000196101006001861615020190931692909204918201859004850281018501909352808352610b4a938301828280156106e75780601f106106bc576101008083540402835291602001916106e7565b90506000610b6b600754610712848660030154611a2690919063ffffffff16565b90506000610b8a60075461071260085485611a2690919063ffffffff16565b90506000610ba5828660040154611aa290919063ffffffff16565b90506002546001600160a01b031663a9059cbb610bc06119f4565b886040518363ffffffff1660e01b8152600401610bde9291906120ae565b602060405180830381600087803b158015610bf857600080fd5b505af1158015610c0c573d6000803e3d6000fd5b505050506040513d601f19601f82011682018060405250810190610c309190611db6565b50610c5a600754610712600754610812886107126007548c60040154611a2690919063ffffffff16565b60058601556007546009546004870154610c7992916107129190611a26565b600686015560088501819055600754610c9c906107128161081288838784611a26565b6007860155600c850184905542600986015543600a860155610cbc6119f4565b6001600160a01b03167fe25410a4059619c9594dc6f022fe231b02aaea733f689e7ab0cd21b3d4d0eb54876040516108b29190612506565b6000546001600160a01b031690565b6003546001600160a01b031681565b60075481565b6000600a6000610d266119f4565b6001600160a01b039081168252602080830193909352604091820160009081208883168252909352912080549092501615610d735760405162461bcd60e51b815260040161041d90612407565b6001600160a01b038416600090815260066020908152604080832080548251601f60026000196101006001861615020190931692909204918201859004850281018501909352808352610de6938301828280156106e75780601f106106bc576101008083540402835291602001916106e7565b90506000610e036007546107128488611a2690919063ffffffff16565b90506000610e2260075461071260085485611a2690919063ffffffff16565b905080851015610e445760405162461bcd60e51b815260040161041d9061221e565b6000610e508683611aa2565b9050876001600160a01b03166340c10f19610e696119f4565b896040518363ffffffff1660e01b8152600401610e879291906120ae565b600060405180830381600087803b158015610ea157600080fd5b505af1158015610eb5573d6000803e3d6000fd5b50506002546001600160a01b031691506323b872dd9050610ed46119f4565b30896040518463ffffffff1660e01b8152600401610ef49392919061208a565b602060405180830381600087803b158015610f0e57600080fd5b505af1158015610f22573d6000803e3d6000fd5b505050506040513d601f19601f82011682018060405250810190610f469190611db6565b610f4f57600080fd5b610f576119f4565b85546001600160a01b03199081166001600160a01b0392831617875560018701805482168b84161790556002805490880180549190931691161790556003850187905560048501869055600b8501849055600c8501849055600754610fc6906107128161081287838c84611a26565b6005860155600754600954610fe19190610712908990611a26565b600686015560088086018290556007549054611016918991611010919061071290829061081290838e84611a26565b90611aa2565b600786015542600986015543600a8601556001600160a01b0388167fd7918d04fa8d2763da038d81b4ab65ea7b9eb8e5e3b199c548142ac304a8ad6f61105a6119f4565b896040516110699291906120ae565b60405180910390a25050505050505050565b6000600a60006110896119f4565b6001600160a01b03166001600160a01b031681526020019081526020016000206000846001600160a01b03166001600160a01b03168152602001908152602001600020905081816003015410156110f25760405162461bcd60e51b815260040161041d906122cf565b80600301548214156112d457826001600160a01b03166379cc67906111156119f4565b846040518363ffffffff1660e01b81526004016111339291906120ae565b600060405180830381600087803b15801561114d57600080fd5b505af1158015611161573d6000803e3d6000fd5b50506002546001600160a01b0316915063a9059cbb90506111806119f4565b83600401546040518363ffffffff1660e01b81526004016111a29291906120ae565b602060405180830381600087803b1580156111bc57600080fd5b505af11580156111d0573d6000803e3d6000fd5b505050506040513d601f19601f820116820180604052508101906111f49190611db6565b50600a60006112016119f4565b6001600160a01b039081168252602080830193909352604091820160009081209187168082529190935281832080546001600160a01b0319908116825560018201805482169055600282018054909116905560038101849055600481018490556005810184905560068101849055600781018490556008810184905560098101849055600a8101849055600b8101849055600c0192909255517fb99b782c502642cbb60ce7d75f893727e5ef94003f2f9e56bcbbb013615e193e906112c7908590612506565b60405180910390a2610451565b60006112ff60075461071260075461081286600301546107126007548a611a2690919063ffffffff16565b90506000600754828460030154028161131457fe5b0490506000600754838560040154028161132a57fe5b6001600160a01b038816600090815260066020908152604080832080548251601f6002600019610100600186161502019093169290920491820185900485028101850190935280835295909404955091936113a693918301828280156106e75780601f106106bc576101008083540402835291602001916106e7565b905060006113c1838760040154611aa290919063ffffffff16565b905060006113dc858860030154611aa290919063ffffffff16565b905060006113f96007546107128685611a2690919063ffffffff16565b9050600061141860075461071260085485611a2690919063ffffffff16565b90508084101561143a5760405162461bcd60e51b815260040161041d90612457565b60006114468583611aa2565b90508b6001600160a01b03166379cc679061145f6119f4565b8a6040518363ffffffff1660e01b815260040161147d9291906120ae565b600060405180830381600087803b15801561149757600080fd5b505af11580156114ab573d6000803e3d6000fd5b50506002546001600160a01b0316915063a9059cbb90506114ca6119f4565b896040518363ffffffff1660e01b81526004016114e89291906120ae565b602060405180830381600087803b15801561150257600080fd5b505af1158015611516573d6000803e3d6000fd5b505050506040513d601f19601f8201168201806040525081019061153a9190611db6565b5060038a0184905560048a01859055600754611566906107128186818a028161155f57fe5b0490611a26565b60058b015560075460095460048c015461158592916107129190611a26565b60068b015560088a018190556007546115a890610712816108128a838784611a26565b60078b0155600c8a018690554260098b015543600a8b01556040516001600160a01b038d16907fb99b782c502642cbb60ce7d75f893727e5ef94003f2f9e56bcbbb013615e193e906115fb908e90612506565b60405180910390a2505050505050505050505050565b60085481565b80516020818301810180516005825292820191909301209152546001600160a01b031681565b60066020908152600091825260409182902080548351601f6002600019610100600186161502019093169290920491820184900484028101840190945280845290918301828280156103e05780601f106103b5576101008083540402835291602001916103e0565b6116ad6119f4565b6000546001600160a01b039081169116146116da5760405162461bcd60e51b815260040161041d90612365565b6000600a60006116e86119f4565b6001600160a01b03166001600160a01b031681526020019081526020016000206000846001600160a01b03166001600160a01b03168152602001908152602001600020905060008160030154116117515760405162461bcd60e51b815260040161041d9061239a565b60048101546117609083611aa2565b60048201556001600160a01b038316600090815260066020908152604080832080548251601f600260001961010060018616150201909316929092049182018590048502810185019093528083526117d8938301828280156106e75780601f106106bc576101008083540402835291602001916106e7565b6002549091506001600160a01b031663a9059cbb6117f46119f4565b856040518363ffffffff1660e01b81526004016118129291906120ae565b602060405180830381600087803b15801561182c57600080fd5b505af1158015611840573d6000803e3d6000fd5b505050506040513d601f19601f820116820180604052508101906118649190611db6565b5061188e600754610712600754610812856107126007548960040154611a2690919063ffffffff16565b600583015560075460095460048401546118ad92916107129190611a26565b60068301556000600883018190556007830155600c820181905542600983015543600a8301556118db6119f4565b6001600160a01b03167fe25410a4059619c9594dc6f022fe231b02aaea733f689e7ab0cd21b3d4d0eb54846040516119139190612506565b60405180910390a250505050565b6119296119f4565b6000546001600160a01b039081169116146119565760405162461bcd60e51b815260040161041d90612365565b6001600160a01b03811661197c5760405162461bcd60e51b815260040161041d906121a1565b600080546040516001600160a01b03808516939216917f8be0079c531659141344cd1fd0a4f28419497f9722a3daafe3b4186f6b6457e091a3600080546001600160a01b0319166001600160a01b0392909216919091179055565b6000806004836040516119ea919061205a565b5260021192915050565b3390565b600082820183811015611a1d5760405162461bcd60e51b815260040161041d906121e7565b90505b92915050565b600082611a3557506000611a20565b82820282848281611a4257fe5b0414611a1d5760405162461bcd60e51b815260040161041d90612324565b6000611a1d83836040518060400160405280601a81526020017f536166654d6174683a206469766973696f6e206279207a65726f000000000000815250611ae4565b6000611a1d83836040518060400160405280601e81526020017f536166654d6174683a207375627472616374696f6e206f766572666c6f770000815250611b1b565b60008183611b055760405162461bcd60e51b815260040161041d9190612140565b506000838581611b1157fe5b0495945050505050565b60008184841115611b3f5760405162461bcd60e51b815260040161041d9190612140565b505050900390565b8260028101928215611b87579160200282015b82811115611b875782518051611b77918491602090910190611bb8565b5091602001919060010190611b5a565b50611b93929150611c32565b5090565b60405180606001604052806000815260200160008152602001600081525090565b828054600181600116156101000203166002900490600052602060002090601f016020900481019282601f10611bf957805160ff1916838001178555611c26565b82800160010185558215611c26579182015b82811115611c26578251825591602001919060010190611c0b565b50611b93929150611c4f565b80821115611b93576000611c468282611c64565b50600101611c32565b5b80821115611b935760008155600101611c50565b50805460018160011615610100020316600290046000825580601f10611c8a5750611ca8565b601f016020900490600052602060002090810190611ca89190611c4f565b50565b600082601f830112611cbb578081fd5b813567ffffffffffffffff811115611cd1578182fd5b611ce4601f8201601f191660200161250f565b9150808252836020828501011115611cfb57600080fd5b8060208401602084013760009082016020015292915050565b600060208284031215611d25578081fd5b8135611a1d81612572565b60008060408385031215611d42578081fd5b8235611d4d81612572565b91506020830135611d5d81612572565b809150509250929050565b60008060408385031215611d7a578182fd5b8235611d8581612572565b9150602083013567ffffffffffffffff811115611da0578182fd5b611dac85828601611cab565b9150509250929050565b600060208284031215611dc7578081fd5b81518015158114611a1d578182fd5b60008060408385031215611de8578182fd5b8235611df381612572565b946020939093013593505050565b600080600060608486031215611e15578081fd5b8335611e2081612572565b95602085013595506040909401359392505050565b600060208284031215611e46578081fd5b813567ffffffffffffffff811115611e5c578182fd5b611e6884828501611cab565b949350505050565b60008060408385031215611e82578182fd5b823567ffffffffffffffff811115611e98578283fd5b611ea485828601611cab565b9250506020830135611d5d81612572565b60008060408385031215611ec7578182fd5b823567ffffffffffffffff80821115611ede578384fd5b611eea86838701611cab565b9350602091508185013581811115611f00578384fd5b85019050601f81018613611f12578283fd5b611f1c604061250f565b8082855b6002811015611f4857611f368a83358701611cab565b84529285019290850190600101611f20565b50959890975095505050505050565b60008060408385031215611f69578182fd5b823567ffffffffffffffff811115611f7f578283fd5b611f8b85828601611cab565b95602094909401359450505050565b600060608284031215611fab578081fd5b611fb5606061250f565b8251815260208301516020820152604083015160408201528091505092915050565b60008154600180821660008114611ff5576001811461201357612051565b60028304607f16865260ff1983166020870152604086019350612051565b6002830480875261202386612536565b60005b828110156120475781546020828b0101528482019150602081019050612026565b8801602001955050505b50505092915050565b6000825161206c818460208701612542565b9190910192915050565b6001600160a01b0391909116815260200190565b6001600160a01b039384168152919092166020820152604081019190915260600190565b6001600160a01b03929092168252602082015260400190565b6001600160a01b039d8e1681529b8d1660208d015299909b1660408b015260608a0197909752608089019590955260a088019390935260c087019190915260e08601526101008501526101208401526101408301526101608201929092526101808101919091526101a00190565b901515815260200190565b600060208252825180602084015261215f816040850160208701612542565b601f01601f19169190910160400192915050565b6000604082526121866040830185611fd7565b82810360208401526121988185611fd7565b95945050505050565b60208082526026908201527f4f776e61626c653a206e6577206f776e657220697320746865207a65726f206160408201526564647265737360d01b606082015260800190565b6020808252601b908201527f536166654d6174683a206164646974696f6e206f766572666c6f770000000000604082015260600190565b6020808252602a908201527f53796e7468657469633a3a6d696e7453796e7468657469633a20756e6465722060408201526918dbdb1b185d195c985b60b21b606082015260800190565b60208082526041908201527f53796e7468657469633a3a616464436f6c6c61746572616c3a2063616e6e6f7460408201527f2061646420636f6c6c61746572616c20746f20656d70747920636f6e747261636060820152601d60fa1b608082015260a00190565b60208082526035908201527f53796e7468657469633a3a72656465656d53796e7468657469633a20616d6f756040820152741b9d08195e18d959591cc818dbdb1b185d195c985b605a1b606082015260800190565b60208082526021908201527f536166654d6174683a206d756c7469706c69636174696f6e206f766572666c6f6040820152607760f81b606082015260800190565b6020808252818101527f4f776e61626c653a2063616c6c6572206973206e6f7420746865206f776e6572604082015260600190565b60208082526047908201527f53796e7468657469633a3a72656d6f7665436f6c6c61746572616c3a2063616e60408201527f6e6f742072656d6f766520636f6c6c61746572616c20746f20656d70747920636060820152661bdb9d1c9858dd60ca1b608082015260a00190565b60208082526030908201527f53796e7468657469633a3a6d696e7453796e7468657469633a207472616e736660408201526f657220746f206164647265737328302960801b606082015260800190565b60208082526032908201527f53796e7468657469633a3a72656465656d53796e7468657469633a20756e64656040820152717220636f6c6c61746572616c20726174696f60701b606082015260800190565b6020808252603f908201527f53796e7468657469633a3a72656d6f7665436f6c6c61746572616c3a20616d6f60408201527f756e74206578636565647320726571756972656420636f6c6c61746572616c00606082015260800190565b90815260200190565b60405181810167ffffffffffffffff8111828210171561252e57600080fd5b604052919050565b60009081526020902090565b60005b8381101561255d578181015183820152602001612545565b8381111561256c576000848401525b50505050565b6001600160a01b0381168114611ca857600080fdfea2646970667358221220b5fb1b6d9c96de17020489e77852dd619b63bbaf8a63e01ec6e74aae376909d264736f6c634300060c0033",
  "linkReferences": {},
  "deployedLinkReferences": {}
}