{
  "_format": "hh-sol-artifact-1",
  "contractName": "Synthetic",
  "sourceName": "contracts/Synthetic.sol",
  "abi": [
    {
      "inputs": [
        {
          "internalType": "contract IERC20",
          "name": "_dolly",
          "type": "address"
        },
        {
          "internalType": "contract IStdReference",
          "name": "_ref",
          "type": "address"
        }
      ],
      "stateMutability": "nonpayable",
      "type": "constructor"
    },
    {
      "anonymous": false,
      "inputs": [
        {
          "indexed": true,
          "internalType": "address",
          "name": "user",
          "type": "address"
        },
        {
          "indexed": false,
          "internalType": "uint256",
          "name": "amount",
          "type": "uint256"
        }
      ],
      "name": "AddCollateral",
      "type": "event"
    },
    {
      "anonymous": false,
      "inputs": [
        {
          "indexed": true,
          "internalType": "address",
          "name": "user",
          "type": "address"
        },
        {
          "indexed": false,
          "internalType": "uint256",
          "name": "amount",
          "type": "uint256"
        }
      ],
      "name": "AddSynthetic",
      "type": "event"
    },
    {
      "anonymous": false,
      "inputs": [
        {
          "indexed": true,
          "internalType": "address",
          "name": "liquidated",
          "type": "address"
        },
        {
          "indexed": true,
          "internalType": "address",
          "name": "liquidator",
          "type": "address"
        },
        {
          "indexed": true,
          "internalType": "address",
          "name": "syntheticAddress",
          "type": "address"
        },
        {
          "indexed": false,
          "internalType": "uint256",
          "name": "amount",
          "type": "uint256"
        },
        {
          "indexed": false,
          "internalType": "uint256",
          "name": "timestamp",
          "type": "uint256"
        }
      ],
      "name": "Liquidated",
      "type": "event"
    },
    {
      "anonymous": false,
      "inputs": [
        {
          "indexed": false,
          "internalType": "address",
          "name": "minter",
          "type": "address"
        },
        {
          "indexed": true,
          "internalType": "address",
          "name": "syntheticAddress",
          "type": "address"
        },
        {
          "indexed": false,
          "internalType": "uint256",
          "name": "amount",
          "type": "uint256"
        }
      ],
      "name": "MintAsset",
      "type": "event"
    },
    {
      "anonymous": false,
      "inputs": [
        {
          "indexed": true,
          "internalType": "address",
          "name": "previousOwner",
          "type": "address"
        },
        {
          "indexed": true,
          "internalType": "address",
          "name": "newOwner",
          "type": "address"
        }
      ],
      "name": "OwnershipTransferred",
      "type": "event"
    },
    {
      "anonymous": false,
      "inputs": [
        {
          "indexed": false,
          "internalType": "address",
          "name": "account",
          "type": "address"
        }
      ],
      "name": "Paused",
      "type": "event"
    },
    {
      "anonymous": false,
      "inputs": [
        {
          "indexed": true,
          "internalType": "address",
          "name": "syntheticAddress",
          "type": "address"
        },
        {
          "indexed": false,
          "internalType": "uint256",
          "name": "amount",
          "type": "uint256"
        }
      ],
      "name": "RedeemAsset",
      "type": "event"
    },
    {
      "anonymous": false,
      "inputs": [
        {
          "indexed": true,
          "internalType": "address",
          "name": "user",
          "type": "address"
        },
        {
          "indexed": false,
          "internalType": "uint256",
          "name": "amount",
          "type": "uint256"
        }
      ],
      "name": "RemoveCollateral",
      "type": "event"
    },
    {
      "anonymous": false,
      "inputs": [
        {
          "indexed": true,
          "internalType": "address",
          "name": "user",
          "type": "address"
        },
        {
          "indexed": false,
          "internalType": "uint256",
          "name": "amount",
          "type": "uint256"
        }
      ],
      "name": "RemoveSynthetic",
      "type": "event"
    },
    {
      "anonymous": false,
      "inputs": [
        {
          "indexed": false,
          "internalType": "uint256",
          "name": "oldCollateralRatio",
          "type": "uint256"
        },
        {
          "indexed": false,
          "internalType": "uint256",
          "name": "newCollateralRatio",
          "type": "uint256"
        }
      ],
      "name": "SetCollateralRatio",
      "type": "event"
    },
    {
      "anonymous": false,
      "inputs": [
        {
          "indexed": false,
          "internalType": "address",
          "name": "oldDevAddress",
          "type": "address"
        },
        {
          "indexed": false,
          "internalType": "address",
          "name": "newDevAddress",
          "type": "address"
        }
      ],
      "name": "SetDevAddress",
      "type": "event"
    },
    {
      "anonymous": false,
      "inputs": [
        {
          "indexed": false,
          "internalType": "uint256",
          "name": "oldLiquidationRatio",
          "type": "uint256"
        },
        {
          "indexed": false,
          "internalType": "uint256",
          "name": "newLiquidationRatio",
          "type": "uint256"
        }
      ],
      "name": "SetLiquidationRatio",
      "type": "event"
    },
    {
      "anonymous": false,
      "inputs": [
        {
          "indexed": false,
          "internalType": "uint256",
          "name": "oldLiquidatorRewardRatio",
          "type": "uint256"
        },
        {
          "indexed": false,
          "internalType": "uint256",
          "name": "newLiquidatorRewardRatio",
          "type": "uint256"
        }
      ],
      "name": "SetLiquidatorRewardRatio",
      "type": "event"
    },
    {
      "anonymous": false,
      "inputs": [
        {
          "indexed": false,
          "internalType": "uint256",
          "name": "oldPlatfromFeeRatio",
          "type": "uint256"
        },
        {
          "indexed": false,
          "internalType": "uint256",
          "name": "newPlatfromFeeRatio",
          "type": "uint256"
        }
      ],
      "name": "SetPlatfromFeeRatio",
      "type": "event"
    },
    {
      "anonymous": false,
      "inputs": [
        {
          "indexed": false,
          "internalType": "uint256",
          "name": "oldRemainingToMinterRatio",
          "type": "uint256"
        },
        {
          "indexed": false,
          "internalType": "uint256",
          "name": "newRemainingToMinterRatio",
          "type": "uint256"
        }
      ],
      "name": "SetRemainingToMinterRatio",
      "type": "event"
    },
    {
      "anonymous": false,
      "inputs": [
        {
          "indexed": false,
          "internalType": "address",
          "name": "account",
          "type": "address"
        }
      ],
      "name": "Unpaused",
      "type": "event"
    },
    {
      "inputs": [
        {
          "internalType": "contract IERC20Burnable",
          "name": "_synthetic",
          "type": "address"
        },
        {
          "internalType": "uint256",
          "name": "_addAmount",
          "type": "uint256"
        }
      ],
      "name": "addCollateral",
      "outputs": [],
      "stateMutability": "nonpayable",
      "type": "function"
    },
    {
      "inputs": [
        {
          "internalType": "contract IERC20Burnable",
          "name": "_synthetic",
          "type": "address"
        },
        {
          "internalType": "uint256",
          "name": "_addAmount",
          "type": "uint256"
        }
      ],
      "name": "addSynthetic",
      "outputs": [],
      "stateMutability": "nonpayable",
      "type": "function"
    },
    {
      "inputs": [
        {
          "internalType": "address",
          "name": "",
          "type": "address"
        }
      ],
      "name": "addressToPairs",
      "outputs": [
        {
          "internalType": "string",
          "name": "",
          "type": "string"
        }
      ],
      "stateMutability": "view",
      "type": "function"
    },
    {
      "inputs": [],
      "name": "bandOracle",
      "outputs": [
        {
          "internalType": "contract IStdReference",
          "name": "",
          "type": "address"
        }
      ],
      "stateMutability": "view",
      "type": "function"
    },
    {
      "inputs": [],
      "name": "collateralRatio",
      "outputs": [
        {
          "internalType": "uint256",
          "name": "",
          "type": "uint256"
        }
      ],
      "stateMutability": "view",
      "type": "function"
    },
    {
      "inputs": [
        {
          "internalType": "address",
          "name": "",
          "type": "address"
        },
        {
          "internalType": "address",
          "name": "",
          "type": "address"
        }
      ],
      "name": "contracts",
      "outputs": [
        {
          "internalType": "address",
          "name": "minter",
          "type": "address"
        },
        {
          "internalType": "contract IERC20Burnable",
          "name": "asset",
          "type": "address"
        },
        {
          "internalType": "contract IERC20",
          "name": "assetBacked",
          "type": "address"
        },
        {
          "internalType": "uint256",
          "name": "assetAmount",
          "type": "uint256"
        },
        {
          "internalType": "uint256",
          "name": "assetBackedAmount",
          "type": "uint256"
        },
        {
          "internalType": "uint256",
          "name": "currentRatio",
          "type": "uint256"
        },
        {
          "internalType": "uint256",
          "name": "willLiquidateAtPrice",
          "type": "uint256"
        },
        {
          "internalType": "uint256",
          "name": "canMintRemainning",
          "type": "uint256"
        },
        {
          "internalType": "uint256",
          "name": "canWithdrawRemainning",
          "type": "uint256"
        },
        {
          "internalType": "uint256",
          "name": "updatedAt",
          "type": "uint256"
        },
        {
          "internalType": "uint256",
          "name": "updatedBlock",
          "type": "uint256"
        },
        {
          "internalType": "uint256",
          "name": "exchangeRateAtMinted",
          "type": "uint256"
        },
        {
          "internalType": "uint256",
          "name": "currentExchangeRate",
          "type": "uint256"
        }
      ],
      "stateMutability": "view",
      "type": "function"
    },
    {
      "inputs": [],
      "name": "denominator",
      "outputs": [
        {
          "internalType": "uint256",
          "name": "",
          "type": "uint256"
        }
      ],
      "stateMutability": "view",
      "type": "function"
    },
    {
      "inputs": [],
      "name": "devAddress",
      "outputs": [
        {
          "internalType": "address",
          "name": "",
          "type": "address"
        }
      ],
      "stateMutability": "view",
      "type": "function"
    },
    {
      "inputs": [],
      "name": "dolly",
      "outputs": [
        {
          "internalType": "contract IERC20",
          "name": "",
          "type": "address"
        }
      ],
      "stateMutability": "view",
      "type": "function"
    },
    {
      "inputs": [
        {
          "internalType": "string",
          "name": "_pairs",
          "type": "string"
        }
      ],
      "name": "getRate",
      "outputs": [
        {
          "internalType": "uint256",
          "name": "",
          "type": "uint256"
        }
      ],
      "stateMutability": "view",
      "type": "function"
    },
    {
      "inputs": [
        {
          "internalType": "contract IERC20Burnable",
          "name": "_synthetic",
          "type": "address"
        },
        {
          "internalType": "address",
          "name": "_minter",
          "type": "address"
        }
      ],
      "name": "getRewardFromLiquidate",
      "outputs": [
        {
          "internalType": "uint256",
          "name": "",
          "type": "uint256"
        },
        {
          "internalType": "uint256",
          "name": "",
          "type": "uint256"
        },
        {
          "internalType": "uint256",
          "name": "",
          "type": "uint256"
        },
        {
          "internalType": "uint256",
          "name": "",
          "type": "uint256"
        },
        {
          "internalType": "uint256",
          "name": "",
          "type": "uint256"
        }
      ],
      "stateMutability": "view",
      "type": "function"
    },
    {
      "inputs": [
        {
          "internalType": "string",
          "name": "_pairs",
          "type": "string"
        }
      ],
      "name": "isSupported",
      "outputs": [
        {
          "internalType": "bool",
          "name": "",
          "type": "bool"
        }
      ],
      "stateMutability": "view",
      "type": "function"
    },
    {
      "inputs": [
        {
          "internalType": "contract IERC20Burnable",
          "name": "_synthetic",
          "type": "address"
        },
        {
          "internalType": "address",
          "name": "_minter",
          "type": "address"
        }
      ],
      "name": "liquidate",
      "outputs": [],
      "stateMutability": "nonpayable",
      "type": "function"
    },
    {
      "inputs": [],
      "name": "liquidationRatio",
      "outputs": [
        {
          "internalType": "uint256",
          "name": "",
          "type": "uint256"
        }
      ],
      "stateMutability": "view",
      "type": "function"
    },
    {
      "inputs": [],
      "name": "liquidatorRewardRatio",
      "outputs": [
        {
          "internalType": "uint256",
          "name": "",
          "type": "uint256"
        }
      ],
      "stateMutability": "view",
      "type": "function"
    },
    {
      "inputs": [
        {
          "internalType": "contract IERC20Burnable",
          "name": "_synthetic",
          "type": "address"
        },
        {
          "internalType": "uint256",
          "name": "_amount",
          "type": "uint256"
        },
        {
          "internalType": "uint256",
          "name": "_backedAmount",
          "type": "uint256"
        }
      ],
      "name": "mintSynthetic",
      "outputs": [],
      "stateMutability": "nonpayable",
      "type": "function"
    },
    {
      "inputs": [],
      "name": "owner",
      "outputs": [
        {
          "internalType": "address",
          "name": "",
          "type": "address"
        }
      ],
      "stateMutability": "view",
      "type": "function"
    },
    {
      "inputs": [
        {
          "internalType": "string",
          "name": "",
          "type": "string"
        }
      ],
      "name": "pairsToAddress",
      "outputs": [
        {
          "internalType": "address",
          "name": "",
          "type": "address"
        }
      ],
      "stateMutability": "view",
      "type": "function"
    },
    {
      "inputs": [
        {
          "internalType": "string",
          "name": "",
          "type": "string"
        },
        {
          "internalType": "uint256",
          "name": "",
          "type": "uint256"
        }
      ],
      "name": "pairsToQuote",
      "outputs": [
        {
          "internalType": "string",
          "name": "",
          "type": "string"
        }
      ],
      "stateMutability": "view",
      "type": "function"
    },
    {
      "inputs": [],
      "name": "pause",
      "outputs": [],
      "stateMutability": "nonpayable",
      "type": "function"
    },
    {
      "inputs": [],
      "name": "paused",
      "outputs": [
        {
          "internalType": "bool",
          "name": "",
          "type": "bool"
        }
      ],
      "stateMutability": "view",
      "type": "function"
    },
    {
      "inputs": [],
      "name": "platfromFeeRatio",
      "outputs": [
        {
          "internalType": "uint256",
          "name": "",
          "type": "uint256"
        }
      ],
      "stateMutability": "view",
      "type": "function"
    },
    {
      "inputs": [
        {
          "internalType": "contract IERC20Burnable",
          "name": "_synthetic",
          "type": "address"
        },
        {
          "internalType": "uint256",
          "name": "_amount",
          "type": "uint256"
        }
      ],
      "name": "redeemSynthetic",
      "outputs": [],
      "stateMutability": "nonpayable",
      "type": "function"
    },
    {
      "inputs": [],
      "name": "remainingToMinterRatio",
      "outputs": [
        {
          "internalType": "uint256",
          "name": "",
          "type": "uint256"
        }
      ],
      "stateMutability": "view",
      "type": "function"
    },
    {
      "inputs": [
        {
          "internalType": "contract IERC20Burnable",
          "name": "_synthetic",
          "type": "address"
        },
        {
          "internalType": "uint256",
          "name": "_removeBackedAmount",
          "type": "uint256"
        }
      ],
      "name": "removeCollateral",
      "outputs": [],
      "stateMutability": "nonpayable",
      "type": "function"
    },
    {
      "inputs": [
        {
          "internalType": "contract IERC20Burnable",
          "name": "_synthetic",
          "type": "address"
        },
        {
          "internalType": "uint256",
          "name": "_removeAmount",
          "type": "uint256"
        }
      ],
      "name": "removeLowerCollateral",
      "outputs": [],
      "stateMutability": "nonpayable",
      "type": "function"
    },
    {
      "inputs": [
        {
          "internalType": "contract IERC20Burnable",
          "name": "_synthetic",
          "type": "address"
        },
        {
          "internalType": "uint256",
          "name": "_removeAmount",
          "type": "uint256"
        }
      ],
      "name": "removeSynthetic",
      "outputs": [],
      "stateMutability": "nonpayable",
      "type": "function"
    },
    {
      "inputs": [],
      "name": "renounceOwnership",
      "outputs": [],
      "stateMutability": "nonpayable",
      "type": "function"
    },
    {
      "inputs": [
        {
          "internalType": "address",
          "name": "_syntheticAddress",
          "type": "address"
        },
        {
          "internalType": "string",
          "name": "_pairs",
          "type": "string"
        }
      ],
      "name": "setAddressToPairs",
      "outputs": [],
      "stateMutability": "nonpayable",
      "type": "function"
    },
    {
      "inputs": [
        {
          "internalType": "uint256",
          "name": "_collateralRatio",
          "type": "uint256"
        }
      ],
      "name": "setCollateralRatio",
      "outputs": [],
      "stateMutability": "nonpayable",
      "type": "function"
    },
    {
      "inputs": [
        {
          "internalType": "address",
          "name": "_devAddress",
          "type": "address"
        }
      ],
      "name": "setDevAddress",
      "outputs": [],
      "stateMutability": "nonpayable",
      "type": "function"
    },
    {
      "inputs": [
        {
          "internalType": "uint256",
          "name": "_liquidationRatio",
          "type": "uint256"
        }
      ],
      "name": "setLiquidationRatio",
      "outputs": [],
      "stateMutability": "nonpayable",
      "type": "function"
    },
    {
      "inputs": [
        {
          "internalType": "uint256",
          "name": "_liquidatorRewardRatio",
          "type": "uint256"
        }
      ],
      "name": "setLiquidatorRewardRatio",
      "outputs": [],
      "stateMutability": "nonpayable",
      "type": "function"
    },
    {
      "inputs": [
        {
          "internalType": "string",
          "name": "_pairs",
          "type": "string"
        },
        {
          "internalType": "address",
          "name": "_syntheticAddress",
          "type": "address"
        }
      ],
      "name": "setPairsToAddress",
      "outputs": [],
      "stateMutability": "nonpayable",
      "type": "function"
    },
    {
      "inputs": [
        {
          "internalType": "string",
          "name": "_pairs",
          "type": "string"
        },
        {
          "internalType": "string[2]",
          "name": "baseAndQuote",
          "type": "string[2]"
        }
      ],
      "name": "setPairsToQuote",
      "outputs": [],
      "stateMutability": "nonpayable",
      "type": "function"
    },
    {
      "inputs": [
        {
          "internalType": "uint256",
          "name": "_platfromFeeRatio",
          "type": "uint256"
        }
      ],
      "name": "setPlatfromFeeRatio",
      "outputs": [],
      "stateMutability": "nonpayable",
      "type": "function"
    },
    {
      "inputs": [
        {
          "internalType": "uint256",
          "name": "_remainingToMinterRatio",
          "type": "uint256"
        }
      ],
      "name": "setRemainingToMinterRatio",
      "outputs": [],
      "stateMutability": "nonpayable",
      "type": "function"
    },
    {
      "inputs": [
        {
          "internalType": "address",
          "name": "newOwner",
          "type": "address"
        }
      ],
      "name": "transferOwnership",
      "outputs": [],
      "stateMutability": "nonpayable",
      "type": "function"
    },
    {
      "inputs": [],
      "name": "unpause",
      "outputs": [],
      "stateMutability": "nonpayable",
      "type": "function"
    }
  ],
  "bytecode": "0x60806040526714d1120d7b160000600755671158e460913d000060085566b1a2bc2ec5000060095566b1a2bc2ec50000600a55670c7d713b49da0000600b553480156200004b57600080fd5b5060405162003b5a38038062003b5a8339810160408190526200006e916200013c565b60006200007a62000138565b600080546001600160a01b0319166001600160a01b0383169081178255604051929350917f8be0079c531659141344cd1fd0a4f28419497f9722a3daafe3b4186f6b6457e0908290a3506000805460ff60a01b1916905560018055600280546001600160a01b038085166001600160a01b03199283161790925560038054928416929091169190911790556200010f62000138565b600c80546001600160a01b0319166001600160a01b039290921691909117905550620001939050565b3390565b600080604083850312156200014f578182fd5b82516200015c816200017a565b60208401519092506200016f816200017a565b809150509250929050565b6001600160a01b03811681146200019057600080fd5b50565b6139b780620001a36000396000f3fe608060405234801561001057600080fd5b506004361061023d5760003560e01c80638456cb591161013b578063b4eae1cb116100b8578063d2cd69611161007c578063d2cd696114610497578063d8ef0f91146104aa578063e150f647146104bd578063f2fde38b146104d0578063f3a014a2146104e35761023d565b8063b4eae1cb14610443578063bad826901461044b578063bf15c3e11461045e578063d0d41fe114610471578063d139b873146104845761023d565b8063946ce8cd116100ff578063946ce8cd146103fa578063956dcd1f1461040d57806396ce0795146104155780639a12944c1461041d578063b32ec546146104305761023d565b80638456cb59146103b157806384cd9b57146103b957806386b9d81f146103cc578063876467f8146103df5780638da5cb5b146103f25761023d565b80634e55b8a7116101c95780636c0daed81161018d5780636c0daed81461035d5780636d75b9ee14610370578063715018a6146103835780637bda6e281461038b5780638223c7701461039e5761023d565b80634e55b8a7146103125780635bcbdc961461031a5780635c975abb1461032d5780636060663e1461034257806365c3ad00146103555761023d565b806314057fca1161021057806314057fca146102ae5780631775765f146102da5780633ad10ef6146102e25780633f4ba83a146102ea5780633f97bc5b146102f25761023d565b8063095f1404146102425780630b87d86e146102605780630cff3c5f14610275578063123b089014610299575b600080fd5b61024a6104f6565b60405161025791906138cf565b60405180910390f35b6102686104fc565b60405161025791906131ff565b610288610283366004612f35565b61050b565b6040516102579594939291906138e6565b6102ac6102a7366004613148565b6106c2565b005b6102c16102bc366004612e8f565b61073d565b6040516102579d9c9b9a9998979695949392919061326a565b61024a6107bd565b6102686107c3565b6102ac6107d2565b6103056103003660046130c8565b610835565b60405161025791906132e3565b61024a6108ec565b6102ac610328366004613026565b6108f2565b610335610957565b60405161025791906132d8565b6102ac610350366004613148565b610967565b61024a6109d6565b61024a61036b366004612fa6565b6109dc565b6102ac61037e366004612f47565b610ac7565b6102ac610dab565b6102ac610399366004612fe1565b610e2a565b6102ac6103ac366004612ec7565b610ea3565b6102ac610f01565b6102ac6103c7366004613148565b610f63565b6102ac6103da366004612f35565b610fd2565b6102ac6103ed366004612f47565b6113a1565b610268611677565b6102ac610408366004613148565b611686565b6102686116f5565b61024a611704565b6102ac61042b366004612f72565b611710565b6102ac61043e366004612f47565b611a28565b61024a611fbc565b610268610459366004612fa6565b611fc2565b61030561046c366004612e73565b611fe8565b6102ac61047f366004612e73565b612050565b6102ac610492366004612f47565b6120d8565b6102ac6104a5366004613148565b61234a565b6102ac6104b8366004612f47565b6123b9565b6102ac6104cb366004612f47565b61264e565b6102ac6104de366004612e73565b61291a565b6103356104f1366004612fa6565b6129d0565b60095481565b6002546001600160a01b031681565b6001600160a01b038082166000908152600d6020908152604080832086851684529091528120805491928392839283928392166105635760405162461bcd60e51b815260040161055a906137a5565b60405180910390fd5b6008548160050154106105885760405162461bcd60e51b815260040161055a90613517565b6001600160a01b038816600090815260066020908152604080832080548251601f60026000196101006001861615020190931692909204918201859004850281018501909352808352610630938301828280156106265780601f106105fb57610100808354040283529160200191610626565b820191906000526020600020905b81548152906001019060200180831161060957829003601f168201915b50505050506109dc565b9050808260060154106106555760405162461bcd60e51b815260040161055a90613372565b6000610665836003015483612a0e565b905060008060008084876004015411156106ad5784876004015403935061068e84600b54612a0e565b925061069c84600954612a0e565b91506106aa84600a54612a0e565b90505b939d929c50909a509850909650945050505050565b6106ca612a2f565b6000546001600160a01b039081169116146106f75760405162461bcd60e51b815260040161055a906136ba565b600b8054908290556040517f2e3ff2a57d8574a2f22d5c3e4f6d87795bb4311b40b959c0fdc5bce2d20758189061073190839085906138d8565b60405180910390a15050565b600d602090815260009283526040808420909152908252902080546001820154600283015460038401546004850154600586015460068701546007880154600889015460098a0154600a8b0154600b8c0154600c909c01546001600160a01b039b8c169c9a8c169b9099169997989697959694959394929391929091908d565b60085481565b600c546001600160a01b031681565b6107da610957565b6107f65760405162461bcd60e51b815260040161055a90613344565b6107fe612a2f565b6000546001600160a01b0390811691161461082b5760405162461bcd60e51b815260040161055a906136ba565b610833612a33565b565b81516020818401810180516004825292820191850191909120919052816002811061085c57fe5b01805460408051602060026001851615610100026000190190941693909304601f810184900484028201840190925281815294509192508301828280156108e45780601f106108b9576101008083540402835291602001916108e4565b820191906000526020600020905b8154815290600101906020018083116108c757829003601f168201915b505050505081565b600b5481565b6108fa612a2f565b6000546001600160a01b039081169116146109275760405162461bcd60e51b815260040161055a906136ba565b8060048360405161093891906131e3565b908152604051908190036020019020610952916002612ca6565b505050565b600054600160a01b900460ff1690565b61096f612a2f565b6000546001600160a01b0390811691161461099c5760405162461bcd60e51b815260040161055a906136ba565b60078054908290556040517fe21aac16189a7da506d3ccd8621d8639e3a32d51634174a427ebd25800884e999061073190839085906138d8565b600a5481565b60006109e7826129d0565b6109f057600080fd5b6109f8612cf6565b6003546040516001600160a01b03909116906365555bcc90600490610a1e9087906131e3565b908152604051908190036020019020600001600486604051610a4091906131e3565b9081526040519081900360200190206001016040518363ffffffff1660e01b8152600401610a6f929190613316565b60606040518083038186803b158015610a8757600080fd5b505afa158015610a9b573d6000803e3d6000fd5b505050506040513d601f19601f82011682018060405250810190610abf919061310b565b519392505050565b610acf610957565b15610aec5760405162461bcd60e51b815260040161055a906134ed565b60026001541415610b0f5760405162461bcd60e51b815260040161055a906137e9565b60026001556000600d81610b21612a2f565b6001600160a01b03166001600160a01b031681526020019081526020016000206000846001600160a01b03166001600160a01b0316815260200190815260200160002090506000816003015411610b8a5760405162461bcd60e51b815260040161055a90613486565b6004810154610b999083612aa4565b60048201556001600160a01b038316600090815260066020908152604080832080548251601f60026000196101006001861615020190931692909204918201859004850281018501909352808352610c11938301828280156106265780601f106105fb57610100808354040283529160200191610626565b90506000610c3e670de0b6b3a7640000610c38848660030154612ac990919063ffffffff16565b90612b03565b90506000610c63670de0b6b3a7640000610c3860075485612ac990919063ffffffff16565b6002549091506001600160a01b03166323b872dd610c7f612a2f565b30886040518463ffffffff1660e01b8152600401610c9f93929190613213565b602060405180830381600087803b158015610cb957600080fd5b505af1158015610ccd573d6000803e3d6000fd5b505050506040513d601f19601f82011682018060405250810190610cf19190612f15565b610cfa57600080fd5b610d08846004015483612b45565b60058501819055610d1a908490612b69565b60068501556004840154610d2e9082612ba0565b60088501819055610d3f9083612b45565b6007850155600c840183905542600985015543600a850155610d5f612a2f565b6001600160a01b03167f2ac90482c3b6bea30a2c085cf093016bad7f970d91c5fd233e6b848d3e231dc386604051610d9791906138cf565b60405180910390a250506001805550505050565b610db3612a2f565b6000546001600160a01b03908116911614610de05760405162461bcd60e51b815260040161055a906136ba565b600080546040516001600160a01b03909116907f8be0079c531659141344cd1fd0a4f28419497f9722a3daafe3b4186f6b6457e0908390a3600080546001600160a01b0319169055565b610e32612a2f565b6000546001600160a01b03908116911614610e5f5760405162461bcd60e51b815260040161055a906136ba565b80600583604051610e7091906131e3565b90815260405190819003602001902080546001600160a01b03929092166001600160a01b03199092169190911790555050565b610eab612a2f565b6000546001600160a01b03908116911614610ed85760405162461bcd60e51b815260040161055a906136ba565b6001600160a01b0382166000908152600660209081526040909120825161095292840190612d17565b610f09610957565b15610f265760405162461bcd60e51b815260040161055a906134ed565b610f2e612a2f565b6000546001600160a01b03908116911614610f5b5760405162461bcd60e51b815260040161055a906136ba565b610833612be2565b610f6b612a2f565b6000546001600160a01b03908116911614610f985760405162461bcd60e51b815260040161055a906136ba565b60098054908290556040517f3ccaefdfe3295630104d687db5f7e07f2a19848b9f68c4f55a4ab591c9b5d90f9061073190839085906138d8565b610fda610957565b15610ff75760405162461bcd60e51b815260040161055a906134ed565b6002600154141561101a5760405162461bcd60e51b815260040161055a906137e9565b600260015560008080808061102f878761050b565b945094509450945094506000841115611274576002546001600160a01b03166323b872dd61105b612a2f565b30886040518463ffffffff1660e01b815260040161107b93929190613213565b602060405180830381600087803b15801561109557600080fd5b505af11580156110a9573d6000803e3d6000fd5b505050506040513d601f19601f820116820180604052508101906110cd9190612f15565b5060025460405163a9059cbb60e01b81526001600160a01b039091169063a9059cbb906111009089908790600401613237565b602060405180830381600087803b15801561111a57600080fd5b505af115801561112e573d6000803e3d6000fd5b505050506040513d601f19601f820116820180604052508101906111529190612f15565b506002546001600160a01b031663a9059cbb61116c612a2f565b6111768886612aa4565b6040518363ffffffff1660e01b8152600401611193929190613237565b602060405180830381600087803b1580156111ad57600080fd5b505af11580156111c1573d6000803e3d6000fd5b505050506040513d601f19601f820116820180604052508101906111e59190612f15565b50600254600c5460405163a9059cbb60e01b81526001600160a01b039283169263a9059cbb9261121c929116908590600401613237565b602060405180830381600087803b15801561123657600080fd5b505af115801561124a573d6000803e3d6000fd5b505050506040513d601f19601f8201168201806040525081019061126e9190612f15565b50611301565b6002546001600160a01b03166323b872dd61128d612a2f565b30886040518463ffffffff1660e01b81526004016112ad93929190613213565b602060405180830381600087803b1580156112c757600080fd5b505af11580156112db573d6000803e3d6000fd5b505050506040513d601f19601f820116820180604052508101906112ff9190612f15565b505b5050506001600160a01b039283166000908152600d60209081526040808320969095168252949094525050812080546001600160a01b03199081168255600180830180548316905560028301805490921690915560038201839055600482018390556005820183905560068201839055600782018390556008820183905560098201839055600a8201839055600b8201839055600c909101919091558055565b6113a9610957565b156113c65760405162461bcd60e51b815260040161055a906134ed565b600260015414156113e95760405162461bcd60e51b815260040161055a906137e9565b60026001556000600d816113fb612a2f565b6001600160a01b03166001600160a01b031681526020019081526020016000206000846001600160a01b03166001600160a01b03168152602001908152602001600020905060008160030154116114645760405162461bcd60e51b815260040161055a906136ef565b60048101546114739083612ba0565b60048201556001600160a01b038316600090815260066020908152604080832080548251601f600260001961010060018616150201909316929092049182018590048502810185019093528083526114eb938301828280156106265780601f106105fb57610100808354040283529160200191610626565b905060006114fd836003015483612a0e565b9050600061150d82600754612a0e565b90506000611528828660040154612ba090919063ffffffff16565b90508581101561154a5760405162461bcd60e51b815260040161055a90613872565b6002546001600160a01b031663a9059cbb611563612a2f565b886040518363ffffffff1660e01b8152600401611581929190613237565b602060405180830381600087803b15801561159b57600080fd5b505af11580156115af573d6000803e3d6000fd5b505050506040513d601f19601f820116820180604052508101906115d39190612f15565b506115e2856004015484612b45565b600586018190556115f4908590612b69565b60068601556008850181905561160a8184612b45565b6007860155600c850184905542600986015543600a86015561162a612a2f565b6001600160a01b03167fe25410a4059619c9594dc6f022fe231b02aaea733f689e7ab0cd21b3d4d0eb548760405161166291906138cf565b60405180910390a25050600180555050505050565b6000546001600160a01b031690565b61168e612a2f565b6000546001600160a01b039081169116146116bb5760405162461bcd60e51b815260040161055a906136ba565b60088054908290556040517fad82ab9177533366e9282d4fe3d9537bd1beaf004633ebab48e3ef4e47f258bd9061073190839085906138d8565b6003546001600160a01b031681565b670de0b6b3a764000081565b611718610957565b156117355760405162461bcd60e51b815260040161055a906134ed565b600260015414156117585760405162461bcd60e51b815260040161055a906137e9565b60026001556000600d8161176a612a2f565b6001600160a01b0390811682526020808301939093526040918201600090812091881681529083528181206006845282822080548451601f6002600019610100600186161502019093169290920491820187900487028101870190955280855291955091936117fc939291908301828280156106265780601f106105fb57610100808354040283529160200191610626565b9050600061180a8583612a0e565b9050600061181a82600754612a0e565b90508085101561183c5760405162461bcd60e51b815260040161055a9061343c565b866001600160a01b03166340c10f19611853612a2f565b886040518363ffffffff1660e01b8152600401611871929190613237565b600060405180830381600087803b15801561188b57600080fd5b505af115801561189f573d6000803e3d6000fd5b50506002546001600160a01b031691506323b872dd90506118be612a2f565b30886040518463ffffffff1660e01b81526004016118de93929190613213565b602060405180830381600087803b1580156118f857600080fd5b505af115801561190c573d6000803e3d6000fd5b505050506040513d601f19601f820116820180604052508101906119309190612f15565b61193957600080fd5b611941612a2f565b84546001600160a01b03199081166001600160a01b0392831617865560018601805482168a84161790556002805490870180549190931691161790556003840186905560048401859055600b8401839055600c84018390556119a38583612b45565b600585018190556119b5908490612b69565b60068501556119c48582612ba0565b600885018190556119d59083612b45565b600785015542600985015543600a8501556001600160a01b0387167fd7918d04fa8d2763da038d81b4ab65ea7b9eb8e5e3b199c548142ac304a8ad6f611a19612a2f565b88604051611662929190613237565b611a30610957565b15611a4d5760405162461bcd60e51b815260040161055a906134ed565b60026001541415611a705760405162461bcd60e51b815260040161055a906137e9565b60026001556000600d81611a82612a2f565b6001600160a01b03166001600160a01b031681526020019081526020016000206000846001600160a01b03166001600160a01b0316815260200190815260200160002090508181600301541015611aeb5760405162461bcd60e51b815260040161055a90613624565b8060030154821415611ccd57826001600160a01b03166379cc6790611b0e612a2f565b846040518363ffffffff1660e01b8152600401611b2c929190613237565b600060405180830381600087803b158015611b4657600080fd5b505af1158015611b5a573d6000803e3d6000fd5b50506002546001600160a01b0316915063a9059cbb9050611b79612a2f565b83600401546040518363ffffffff1660e01b8152600401611b9b929190613237565b602060405180830381600087803b158015611bb557600080fd5b505af1158015611bc9573d6000803e3d6000fd5b505050506040513d601f19601f82011682018060405250810190611bed9190612f15565b50600d6000611bfa612a2f565b6001600160a01b039081168252602080830193909352604091820160009081209187168082529190935281832080546001600160a01b0319908116825560018201805482169055600282018054909116905560038101849055600481018490556005810184905560068101849055600781018490556008810184905560098101849055600a8101849055600b8101849055600c0192909255517fb99b782c502642cbb60ce7d75f893727e5ef94003f2f9e56bcbbb013615e193e90611cc09085906138cf565b60405180910390a2611fb3565b6000611cdd838360030154612b45565b90506000611cef836003015483612a0e565b90506000611d01846004015484612a0e565b6001600160a01b038716600090815260066020908152604080832080548251601f600260001961010060018616150201909316929092049182018590048502810185019093528083529495509293611d7b9391928301828280156106265780601f106105fb57610100808354040283529160200191610626565b90506000611d96838760040154612ba090919063ffffffff16565b90506000611db1858860030154612ba090919063ffffffff16565b90506000611dcb670de0b6b3a7640000610c388487612ac9565b90506000611df0670de0b6b3a7640000610c3860075485612ac990919063ffffffff16565b905080841015611e125760405162461bcd60e51b815260040161055a90613820565b8a6001600160a01b03166379cc6790611e29612a2f565b896040518363ffffffff1660e01b8152600401611e47929190613237565b600060405180830381600087803b158015611e6157600080fd5b505af1158015611e75573d6000803e3d6000fd5b50506002546001600160a01b0316915063a9059cbb9050611e94612a2f565b886040518363ffffffff1660e01b8152600401611eb2929190613237565b602060405180830381600087803b158015611ecc57600080fd5b505af1158015611ee0573d6000803e3d6000fd5b505050506040513d601f19601f82011682018060405250810190611f049190612f15565b506003890183905560048901849055611f1d8483612b45565b60058a01819055611f2f908690612b69565b60068a0155611f3e8482612ba0565b60088a01819055611f4f9083612b45565b60078a0155600c89018590554260098a015543600a8a01556040516001600160a01b038c16907fb99b782c502642cbb60ce7d75f893727e5ef94003f2f9e56bcbbb013615e193e90611fa2908d906138cf565b60405180910390a250505050505050505b50506001805550565b60075481565b80516020818301810180516005825292820191909301209152546001600160a01b031681565b60066020908152600091825260409182902080548351601f6002600019610100600186161502019093169290920491820184900484028101840190945280845290918301828280156108e45780601f106108b9576101008083540402835291602001916108e4565b612058612a2f565b6000546001600160a01b039081169116146120855760405162461bcd60e51b815260040161055a906136ba565b600c80546001600160a01b038381166001600160a01b03198316179092556040519116907f618c54559e94f1499a808aad71ee8729f8e74e8c48e979616328ce493a1a52e7906107319083908590613250565b6120e0610957565b156120fd5760405162461bcd60e51b815260040161055a906134ed565b600260015414156121205760405162461bcd60e51b815260040161055a906137e9565b60026001556000600d81612132612a2f565b6001600160a01b03166001600160a01b031681526020019081526020016000206000846001600160a01b03166001600160a01b031681526020019081526020016000209050600081600301541161219b5760405162461bcd60e51b815260040161055a9061355e565b60038101546121aa9083612ba0565b60038201556001600160a01b038316600090815260066020908152604080832080548251601f60026000196101006001861615020190931692909204918201859004850281018501909352808352612222938301828280156106265780601f106105fb57610100808354040283529160200191610626565b90506000612234836003015483612a0e565b9050600061224482600754612a0e565b9050856001600160a01b03166379cc679061225d612a2f565b876040518363ffffffff1660e01b815260040161227b929190613237565b600060405180830381600087803b15801561229557600080fd5b505af11580156122a9573d6000803e3d6000fd5b505050506122bb846004015483612b45565b600585018190556122cd908490612b69565b600685015560048401546122e19082612ba0565b600885018190556122f29083612b45565b6007850155600c840183905542600985015543600a850155612312612a2f565b6001600160a01b03167f0cfc3db41d82b0cd638fa65ecb2b04df3a494abc01437f91896487f2a170900286604051610d9791906138cf565b612352612a2f565b6000546001600160a01b0390811691161461237f5760405162461bcd60e51b815260040161055a906136ba565b600a8054908290556040517f6fe3d84266b6434a6a63810addd9a2075a300a5d5af2a48aba78e443e7eab3f99061073190839085906138d8565b6123c1610957565b156123de5760405162461bcd60e51b815260040161055a906134ed565b600260015414156124015760405162461bcd60e51b815260040161055a906137e9565b60026001556000600d81612413612a2f565b6001600160a01b03166001600160a01b031681526020019081526020016000206000846001600160a01b03166001600160a01b031681526020019081526020016000209050600081600301541161247c5760405162461bcd60e51b815260040161055a906135c6565b600381015461248b9083612aa4565b60038201556001600160a01b038316600090815260066020908152604080832080548251601f60026000196101006001861615020190931692909204918201859004850281018501909352808352612503938301828280156106265780601f106105fb57610100808354040283529160200191610626565b90506000612515836003015483612a0e565b9050600061252582600754612a0e565b90508084600401541161254a5760405162461bcd60e51b815260040161055a9061375c565b856001600160a01b03166340c10f19612561612a2f565b876040518363ffffffff1660e01b815260040161257f929190613237565b600060405180830381600087803b15801561259957600080fd5b505af11580156125ad573d6000803e3d6000fd5b505050506125bf846004015483612b45565b600585018190556125d1908490612b69565b600685015560048401546125e59082612ba0565b600885018190556125f69083612b45565b6007850155600c840183905542600985015543600a850155612616612a2f565b6001600160a01b03167f27306db1a5134fbc777edd5d395b7e6f2dd535800e7624e9d8f4b6d8d03451d986604051610d9791906138cf565b612656612a2f565b6000546001600160a01b039081169116146126835760405162461bcd60e51b815260040161055a906136ba565b61268b610957565b156126a85760405162461bcd60e51b815260040161055a906134ed565b600260015414156126cb5760405162461bcd60e51b815260040161055a906137e9565b60026001556000600d816126dd612a2f565b6001600160a01b03166001600160a01b031681526020019081526020016000206000846001600160a01b03166001600160a01b03168152602001908152602001600020905060008160030154116127465760405162461bcd60e51b815260040161055a906136ef565b60048101546127559083612ba0565b60048201556001600160a01b038316600090815260066020908152604080832080548251601f600260001961010060018616150201909316929092049182018590048502810185019093528083526127cd938301828280156106265780601f106105fb57610100808354040283529160200191610626565b905060006127f4670de0b6b3a7640000610c38848660030154612ac990919063ffffffff16565b6002549091506001600160a01b031663a9059cbb612810612a2f565b866040518363ffffffff1660e01b815260040161282e929190613237565b602060405180830381600087803b15801561284857600080fd5b505af115801561285c573d6000803e3d6000fd5b505050506040513d601f19601f820116820180604052508101906128809190612f15565b5061288f836004015482612b45565b600584018190556128a1908390612b69565b60068401556000600884018190556007840155600c830182905542600984015543600a8401556128cf612a2f565b6001600160a01b03167fe25410a4059619c9594dc6f022fe231b02aaea733f689e7ab0cd21b3d4d0eb548560405161290791906138cf565b60405180910390a2505060018055505050565b612922612a2f565b6000546001600160a01b0390811691161461294f5760405162461bcd60e51b815260040161055a906136ba565b6001600160a01b0381166129755760405162461bcd60e51b815260040161055a906133bf565b600080546040516001600160a01b03808516939216917f8be0079c531659141344cd1fd0a4f28419497f9722a3daafe3b4186f6b6457e091a3600080546001600160a01b0319166001600160a01b0392909216919091179055565b6000806001600160a01b03166005836040516129ec91906131e3565b908152604051908190036020019020546001600160a01b031614159050919050565b6000612a26670de0b6b3a7640000610c388585612ac9565b90505b92915050565b3390565b612a3b610957565b612a575760405162461bcd60e51b815260040161055a90613344565b6000805460ff60a01b191690557f5db9ee0a495bf2e6ff9c91a7834c1ba4fdd244a5e8aa4e537bd38aeae4b073aa612a8d612a2f565b604051612a9a91906131ff565b60405180910390a1565b600082820183811015612a265760405162461bcd60e51b815260040161055a90613405565b600082612ad857506000612a29565b82820282848281612ae557fe5b0414612a265760405162461bcd60e51b815260040161055a90613679565b6000612a2683836040518060400160405280601a81526020017f536166654d6174683a206469766973696f6e206279207a65726f000000000000815250612c43565b6000612a26670de0b6b3a7640000610c3881612b6386838984612ac9565b90612ac9565b6000612a26670de0b6b3a7640000610c38612b99670de0b6b3a76400006008540386612ba090919063ffffffff16565b8690612ac9565b6000612a2683836040518060400160405280601e81526020017f536166654d6174683a207375627472616374696f6e206f766572666c6f770000815250612c7a565b612bea610957565b15612c075760405162461bcd60e51b815260040161055a906134ed565b6000805460ff60a01b1916600160a01b1790557f62e78cea01bee320cd4e420270b5ea74000d11b0c9f74754ebdbfc544b05a258612a8d612a2f565b60008183612c645760405162461bcd60e51b815260040161055a91906132e3565b506000838581612c7057fe5b0495945050505050565b60008184841115612c9e5760405162461bcd60e51b815260040161055a91906132e3565b505050900390565b8260028101928215612ce6579160200282015b82811115612ce65782518051612cd6918491602090910190612d17565b5091602001919060010190612cb9565b50612cf2929150612d91565b5090565b60405180606001604052806000815260200160008152602001600081525090565b828054600181600116156101000203166002900490600052602060002090601f016020900481019282601f10612d5857805160ff1916838001178555612d85565b82800160010185558215612d85579182015b82811115612d85578251825591602001919060010190612d6a565b50612cf2929150612dae565b80821115612cf2576000612da58282612dc3565b50600101612d91565b5b80821115612cf25760008155600101612daf565b50805460018160011615610100020316600290046000825580601f10612de95750612e07565b601f016020900490600052602060002090810190612e079190612dae565b50565b600082601f830112612e1a578081fd5b813567ffffffffffffffff811115612e30578182fd5b612e43601f8201601f1916602001613909565b9150808252836020828501011115612e5a57600080fd5b8060208401602084013760009082016020015292915050565b600060208284031215612e84578081fd5b8135612a268161396c565b60008060408385031215612ea1578081fd5b8235612eac8161396c565b91506020830135612ebc8161396c565b809150509250929050565b60008060408385031215612ed9578182fd5b8235612ee48161396c565b9150602083013567ffffffffffffffff811115612eff578182fd5b612f0b85828601612e0a565b9150509250929050565b600060208284031215612f26578081fd5b81518015158114612a26578182fd5b60008060408385031215612ea1578182fd5b60008060408385031215612f59578182fd5b8235612f648161396c565b946020939093013593505050565b600080600060608486031215612f86578081fd5b8335612f918161396c565b95602085013595506040909401359392505050565b600060208284031215612fb7578081fd5b813567ffffffffffffffff811115612fcd578182fd5b612fd984828501612e0a565b949350505050565b60008060408385031215612ff3578182fd5b823567ffffffffffffffff811115613009578283fd5b61301585828601612e0a565b9250506020830135612ebc8161396c565b60008060408385031215613038578182fd5b823567ffffffffffffffff8082111561304f578384fd5b61305b86838701612e0a565b9350602091508185013581811115613071578384fd5b85019050601f81018613613083578283fd5b61308d6040613909565b8082855b60028110156130b9576130a78a83358701612e0a565b84529285019290850190600101613091565b50959890975095505050505050565b600080604083850312156130da578182fd5b823567ffffffffffffffff8111156130f0578283fd5b6130fc85828601612e0a565b95602094909401359450505050565b60006060828403121561311c578081fd5b6131266060613909565b8251815260208301516020820152604083015160408201528091505092915050565b600060208284031215613159578081fd5b5035919050565b6000815460018082166000811461317e576001811461319c576131da565b60028304607f16865260ff19831660208701526040860193506131da565b600283048087526131ac86613930565b60005b828110156131d05781546020828b01015284820191506020810190506131af565b8801602001955050505b50505092915050565b600082516131f581846020870161393c565b9190910192915050565b6001600160a01b0391909116815260200190565b6001600160a01b039384168152919092166020820152604081019190915260600190565b6001600160a01b03929092168252602082015260400190565b6001600160a01b0392831681529116602082015260400190565b6001600160a01b039d8e1681529b8d1660208d015299909b1660408b015260608a0197909752608089019590955260a088019390935260c087019190915260e08601526101008501526101208401526101408301526101608201929092526101808101919091526101a00190565b901515815260200190565b600060208252825180602084015261330281604085016020870161393c565b601f01601f19169190910160400192915050565b6000604082526133296040830185613160565b828103602084015261333b8185613160565b95945050505050565b60208082526014908201527314185d5cd8589b194e881b9bdd081c185d5cd95960621b604082015260600190565b6020808252602d908201527f53796e7468657469633a3a6c69717569646174653a206173736574207072696360408201526c6520697320736173746973667960981b606082015260800190565b60208082526026908201527f4f776e61626c653a206e6577206f776e657220697320746865207a65726f206160408201526564647265737360d01b606082015260800190565b6020808252601b908201527f536166654d6174683a206164646974696f6e206f766572666c6f770000000000604082015260600190565b6020808252602a908201527f53796e7468657469633a3a6d696e7453796e7468657469633a20756e6465722060408201526918dbdb1b185d195c985b60b21b606082015260800190565b60208082526041908201527f53796e7468657469633a3a616464436f6c6c61746572616c3a2063616e6e6f7460408201527f2061646420636f6c6c61746572616c20746f20656d70747920636f6e747261636060820152601d60fa1b608082015260a00190565b60208082526010908201526f14185d5cd8589b194e881c185d5cd95960821b604082015260600190565b60208082526027908201527f53796e7468657469633a3a6c69717569646174653a20726174696f20697320736040820152666173746973667960c81b606082015260800190565b60208082526042908201527f53796e7468657469633a3a72656d6f766553796e7468657469633a2063616e6e60408201527f6f74206164642073796e74686574696320746f20656d70747920636f6e74726160608201526118dd60f21b608082015260a00190565b602080825260409082018190527f53796e7468657469633a3a616464436f6c6c61746572616c3a2063616e6e6f74908201527f206164642073796e74686574696320746f20656d70747920636f6e7472616374606082015260800190565b60208082526035908201527f53796e7468657469633a3a72656465656d53796e7468657469633a20616d6f756040820152741b9d08195e18d959591cc818dbdb1b185d195c985b605a1b606082015260800190565b60208082526021908201527f536166654d6174683a206d756c7469706c69636174696f6e206f766572666c6f6040820152607760f81b606082015260800190565b6020808252818101527f4f776e61626c653a2063616c6c6572206973206e6f7420746865206f776e6572604082015260600190565b60208082526047908201527f53796e7468657469633a3a72656d6f7665436f6c6c61746572616c3a2063616e60408201527f6e6f742072656d6f766520636f6c6c61746572616c20746f20656d70747920636060820152661bdb9d1c9858dd60ca1b608082015260a00190565b60208082526029908201527f53796e7468657469633a3a61646453796e7468657469633a20756e64657220636040820152681bdb1b185d195c985b60ba1b606082015260800190565b60208082526024908201527f53796e7468657469633a3a6c69717569646174653a20656d70747920636f6e746040820152631c9858dd60e21b606082015260800190565b6020808252601f908201527f5265656e7472616e637947756172643a207265656e7472616e742063616c6c00604082015260600190565b60208082526032908201527f53796e7468657469633a3a72656465656d53796e7468657469633a20756e64656040820152717220636f6c6c61746572616c20726174696f60701b606082015260800190565b6020808252603f908201527f53796e7468657469633a3a72656d6f7665436f6c6c61746572616c3a20616d6f60408201527f756e74206578636565647320726571756972656420636f6c6c61746572616c00606082015260800190565b90815260200190565b918252602082015260400190565b948552602085019390935260408401919091526060830152608082015260a00190565b60405181810167ffffffffffffffff8111828210171561392857600080fd5b604052919050565b60009081526020902090565b60005b8381101561395757818101518382015260200161393f565b83811115613966576000848401525b50505050565b6001600160a01b0381168114612e0757600080fdfea2646970667358221220af5f0c0fd25e99c710047a5852fa0b424a8b9ffb59e3d5a0163b8d8e5392194264736f6c634300060c0033",
  "linkReferences": {},
  "deployedLinkReferences": {}
}