{
  "_format": "hh-sol-artifact-1",
  "contractName": "Synthetic",
  "sourceName": "contracts/Synthetic.sol",
  "abi": [
    {
      "inputs": [
        {
          "internalType": "contract IERC20",
          "name": "_dolly",
          "type": "address"
        },
        {
          "internalType": "contract IStdReference",
          "name": "_ref",
          "type": "address"
        }
      ],
      "stateMutability": "nonpayable",
      "type": "constructor"
    },
    {
      "anonymous": false,
      "inputs": [
        {
          "indexed": true,
          "internalType": "address",
          "name": "previousOwner",
          "type": "address"
        },
        {
          "indexed": true,
          "internalType": "address",
          "name": "newOwner",
          "type": "address"
        }
      ],
      "name": "OwnershipTransferred",
      "type": "event"
    },
    {
      "inputs": [],
      "name": "bandOracle",
      "outputs": [
        {
          "internalType": "contract IStdReference",
          "name": "",
          "type": "address"
        }
      ],
      "stateMutability": "view",
      "type": "function"
    },
    {
      "inputs": [],
      "name": "dolly",
      "outputs": [
        {
          "internalType": "contract IERC20",
          "name": "",
          "type": "address"
        }
      ],
      "stateMutability": "view",
      "type": "function"
    },
    {
      "inputs": [
        {
          "internalType": "string",
          "name": "_pairs",
          "type": "string"
        }
      ],
      "name": "isSupported",
      "outputs": [
        {
          "internalType": "bool",
          "name": "",
          "type": "bool"
        }
      ],
      "stateMutability": "view",
      "type": "function"
    },
    {
      "inputs": [],
      "name": "liquidate",
      "outputs": [],
      "stateMutability": "nonpayable",
      "type": "function"
    },
    {
      "inputs": [
        {
          "internalType": "contract IERC20Burnable",
          "name": "_synthetic",
          "type": "address"
        },
        {
          "internalType": "uint256",
          "name": "_amount",
          "type": "uint256"
        },
        {
          "internalType": "uint256",
          "name": "_backedAmount",
          "type": "uint256"
        }
      ],
      "name": "mintSynthetic",
      "outputs": [],
      "stateMutability": "nonpayable",
      "type": "function"
    },
    {
      "inputs": [],
      "name": "owner",
      "outputs": [
        {
          "internalType": "address",
          "name": "",
          "type": "address"
        }
      ],
      "stateMutability": "view",
      "type": "function"
    },
    {
      "inputs": [],
      "name": "redeemSynthetic",
      "outputs": [],
      "stateMutability": "nonpayable",
      "type": "function"
    },
    {
      "inputs": [],
      "name": "renounceOwnership",
      "outputs": [],
      "stateMutability": "nonpayable",
      "type": "function"
    },
    {
      "inputs": [
        {
          "internalType": "string",
          "name": "",
          "type": "string"
        },
        {
          "internalType": "uint256",
          "name": "",
          "type": "uint256"
        }
      ],
      "name": "supportedAssets",
      "outputs": [
        {
          "internalType": "string",
          "name": "",
          "type": "string"
        }
      ],
      "stateMutability": "view",
      "type": "function"
    },
    {
      "inputs": [
        {
          "internalType": "string",
          "name": "",
          "type": "string"
        }
      ],
      "name": "supportedAssetsAddr",
      "outputs": [
        {
          "internalType": "address",
          "name": "",
          "type": "address"
        }
      ],
      "stateMutability": "view",
      "type": "function"
    },
    {
      "inputs": [],
      "name": "systheticAsset",
      "outputs": [
        {
          "internalType": "contract IERC20Burnable",
          "name": "",
          "type": "address"
        }
      ],
      "stateMutability": "view",
      "type": "function"
    },
    {
      "inputs": [
        {
          "internalType": "address",
          "name": "newOwner",
          "type": "address"
        }
      ],
      "name": "transferOwnership",
      "outputs": [],
      "stateMutability": "nonpayable",
      "type": "function"
    }
  ],
  "bytecode": "0x60806040523480156200001157600080fd5b5060405162000a9138038062000a918339810160408190526200003491620002e6565b60006200004062000187565b600080546001600160a01b0319166001600160a01b0383169081178255604051929350917f8be0079c531659141344cd1fd0a4f28419497f9722a3daafe3b4186f6b6457e0908290a350600280546001600160a01b038085166001600160a01b03199283161790925560038054928416929091169190911781556040805160808101825260048183018181526354534c4160e01b6060840152825282518084018452938452621554d160ea1b60208581019190915282019390935290519091906200010b9062000324565b908152604051908190036020019020620001279160026200018b565b507365cac0f09efdb88195a002e8dd4cbf6ec9bc7f6060056040516200014d9062000324565b908152602001604051809103902060006101000a8154816001600160a01b0302191690836001600160a01b0316021790555050506200034e565b3390565b8260028101928215620001d0579160200282015b82811115620001d05782518051620001bf918491602090910190620001e2565b50916020019190600101906200019f565b50620001de92915062000263565b5090565b828054600181600116156101000203166002900490600052602060002090601f016020900481019282601f106200022557805160ff191683800117855562000255565b8280016001018555821562000255579182015b828111156200025557825182559160200191906001019062000238565b50620001de92915062000284565b80821115620001de5760006200027a82826200029b565b5060010162000263565b5b80821115620001de576000815560010162000285565b50805460018160011615610100020316600290046000825580601f10620002c35750620002e3565b601f016020900490600052602060002090810190620002e3919062000284565b50565b60008060408385031215620002f9578182fd5b8251620003068162000338565b6020840151909250620003198162000338565b809150509250929050565b671514d3104bd554d160c21b815260080190565b6001600160a01b0381168114620002e357600080fd5b610733806200035e6000396000f3fe608060405234801561001057600080fd5b50600436106100b45760003560e01c8063956dcd1f11610071578063956dcd1f146100f957806395ac1cf2146101015780639a12944c14610121578063f2fde38b14610134578063f3a014a214610147578063f7b9f2f714610167576100b4565b80630b87d86e146100b957806328a07025146100d75780636e1aa51b146100e1578063715018a6146100e95780637ee9e29c146100d75780638da5cb5b146100f1575b600080fd5b6100c161017a565b6040516100ce91906105cf565b60405180910390f35b6100df610189565b005b6100c161018b565b6100df61019a565b6100c1610222565b6100c1610231565b61011461010f366004610570565b610240565b6040516100ce9190610607565b6100df61012f366004610501565b6102f7565b6100df6101423660046104de565b610363565b61015a610155366004610535565b610419565b6040516100ce91906105fc565b6100c1610175366004610535565b610436565b6002546001600160a01b031681565b565b6001546001600160a01b031681565b6101a261045c565b6000546001600160a01b039081169116146101d85760405162461bcd60e51b81526004016101cf90610680565b60405180910390fd5b600080546040516001600160a01b03909116907f8be0079c531659141344cd1fd0a4f28419497f9722a3daafe3b4186f6b6457e0908390a3600080546001600160a01b0319169055565b6000546001600160a01b031690565b6003546001600160a01b031681565b81516020818401810180516004825292820191850191909120919052816002811061026757fe5b01805460408051602060026001851615610100026000190190941693909304601f810184900484028201840190925281815294509192508301828280156102ef5780601f106102c4576101008083540402835291602001916102ef565b820191906000526020600020905b8154815290600101906020018083116102d257829003601f168201915b505050505081565b826001600160a01b03166340c10f1961030e61045c565b846040518363ffffffff1660e01b815260040161032c9291906105e3565b600060405180830381600087803b15801561034657600080fd5b505af115801561035a573d6000803e3d6000fd5b50505050505050565b61036b61045c565b6000546001600160a01b039081169116146103985760405162461bcd60e51b81526004016101cf90610680565b6001600160a01b0381166103be5760405162461bcd60e51b81526004016101cf9061063a565b600080546040516001600160a01b03808516939216917f8be0079c531659141344cd1fd0a4f28419497f9722a3daafe3b4186f6b6457e091a3600080546001600160a01b0319166001600160a01b0392909216919091179055565b60008060048360405161042c91906105b3565b5260021192915050565b80516020818301810180516005825292820191909301209152546001600160a01b031681565b3390565b600082601f830112610470578081fd5b813567ffffffffffffffff80821115610487578283fd5b604051601f8301601f1916810160200182811182821017156104a7578485fd5b6040528281529250828483016020018610156104c257600080fd5b8260208601602083013760006020848301015250505092915050565b6000602082840312156104ef578081fd5b81356104fa816106e5565b9392505050565b600080600060608486031215610515578182fd5b8335610520816106e5565b95602085013595506040909401359392505050565b600060208284031215610546578081fd5b813567ffffffffffffffff81111561055c578182fd5b61056884828501610460565b949350505050565b60008060408385031215610582578182fd5b823567ffffffffffffffff811115610598578283fd5b6105a485828601610460565b95602094909401359450505050565b600082516105c58184602087016106b5565b9190910192915050565b6001600160a01b0391909116815260200190565b6001600160a01b03929092168252602082015260400190565b901515815260200190565b60006020825282518060208401526106268160408501602087016106b5565b601f01601f19169190910160400192915050565b60208082526026908201527f4f776e61626c653a206e6577206f776e657220697320746865207a65726f206160408201526564647265737360d01b606082015260800190565b6020808252818101527f4f776e61626c653a2063616c6c6572206973206e6f7420746865206f776e6572604082015260600190565b60005b838110156106d05781810151838201526020016106b8565b838111156106df576000848401525b50505050565b6001600160a01b03811681146106fa57600080fd5b5056fea26469706673582212209b5ce1e5fd86279549d10313a9ce6cc0a08df990547e48bba6f9e85adb22dc0c64736f6c634300060c0033",
  "linkReferences": {},
  "deployedLinkReferences": {}
}