{
  "_format": "hh-sol-artifact-1",
  "contractName": "DoppleSyntheticToken",
  "sourceName": "contracts/DoppleSyntheticToken.sol",
  "abi": [
    {
      "anonymous": false,
      "inputs": [
        {
          "indexed": true,
          "internalType": "address",
          "name": "owner",
          "type": "address"
        },
        {
          "indexed": true,
          "internalType": "address",
          "name": "spender",
          "type": "address"
        },
        {
          "indexed": false,
          "internalType": "uint256",
          "name": "value",
          "type": "uint256"
        }
      ],
      "name": "Approval",
      "type": "event"
    },
    {
      "anonymous": false,
      "inputs": [
        {
          "indexed": true,
          "internalType": "address",
          "name": "previousOwner",
          "type": "address"
        },
        {
          "indexed": true,
          "internalType": "address",
          "name": "newOwner",
          "type": "address"
        }
      ],
      "name": "OwnershipTransferred",
      "type": "event"
    },
    {
      "anonymous": false,
      "inputs": [
        {
          "indexed": false,
          "internalType": "address",
          "name": "account",
          "type": "address"
        }
      ],
      "name": "Paused",
      "type": "event"
    },
    {
      "anonymous": false,
      "inputs": [
        {
          "indexed": false,
          "internalType": "address",
          "name": "oldAddress",
          "type": "address"
        },
        {
          "indexed": false,
          "internalType": "address",
          "name": "newAddress",
          "type": "address"
        }
      ],
      "name": "SetSyntheticAddress",
      "type": "event"
    },
    {
      "anonymous": false,
      "inputs": [
        {
          "indexed": true,
          "internalType": "address",
          "name": "from",
          "type": "address"
        },
        {
          "indexed": true,
          "internalType": "address",
          "name": "to",
          "type": "address"
        },
        {
          "indexed": false,
          "internalType": "uint256",
          "name": "value",
          "type": "uint256"
        }
      ],
      "name": "Transfer",
      "type": "event"
    },
    {
      "anonymous": false,
      "inputs": [
        {
          "indexed": false,
          "internalType": "address",
          "name": "account",
          "type": "address"
        }
      ],
      "name": "Unpaused",
      "type": "event"
    },
    {
      "inputs": [
        {
          "internalType": "address",
          "name": "owner",
          "type": "address"
        },
        {
          "internalType": "address",
          "name": "spender",
          "type": "address"
        }
      ],
      "name": "allowance",
      "outputs": [
        {
          "internalType": "uint256",
          "name": "",
          "type": "uint256"
        }
      ],
      "stateMutability": "view",
      "type": "function"
    },
    {
      "inputs": [
        {
          "internalType": "address",
          "name": "spender",
          "type": "address"
        },
        {
          "internalType": "uint256",
          "name": "amount",
          "type": "uint256"
        }
      ],
      "name": "approve",
      "outputs": [
        {
          "internalType": "bool",
          "name": "",
          "type": "bool"
        }
      ],
      "stateMutability": "nonpayable",
      "type": "function"
    },
    {
      "inputs": [
        {
          "internalType": "address",
          "name": "account",
          "type": "address"
        }
      ],
      "name": "balanceOf",
      "outputs": [
        {
          "internalType": "uint256",
          "name": "",
          "type": "uint256"
        }
      ],
      "stateMutability": "view",
      "type": "function"
    },
    {
      "inputs": [
        {
          "internalType": "uint256",
          "name": "amount",
          "type": "uint256"
        }
      ],
      "name": "burn",
      "outputs": [],
      "stateMutability": "nonpayable",
      "type": "function"
    },
    {
      "inputs": [
        {
          "internalType": "address",
          "name": "account",
          "type": "address"
        },
        {
          "internalType": "uint256",
          "name": "amount",
          "type": "uint256"
        }
      ],
      "name": "burnFrom",
      "outputs": [],
      "stateMutability": "nonpayable",
      "type": "function"
    },
    {
      "inputs": [],
      "name": "decimals",
      "outputs": [
        {
          "internalType": "uint8",
          "name": "",
          "type": "uint8"
        }
      ],
      "stateMutability": "view",
      "type": "function"
    },
    {
      "inputs": [
        {
          "internalType": "address",
          "name": "spender",
          "type": "address"
        },
        {
          "internalType": "uint256",
          "name": "subtractedValue",
          "type": "uint256"
        }
      ],
      "name": "decreaseAllowance",
      "outputs": [
        {
          "internalType": "bool",
          "name": "",
          "type": "bool"
        }
      ],
      "stateMutability": "nonpayable",
      "type": "function"
    },
    {
      "inputs": [
        {
          "internalType": "address",
          "name": "spender",
          "type": "address"
        },
        {
          "internalType": "uint256",
          "name": "addedValue",
          "type": "uint256"
        }
      ],
      "name": "increaseAllowance",
      "outputs": [
        {
          "internalType": "bool",
          "name": "",
          "type": "bool"
        }
      ],
      "stateMutability": "nonpayable",
      "type": "function"
    },
    {
      "inputs": [
        {
          "internalType": "string",
          "name": "_name",
          "type": "string"
        },
        {
          "internalType": "string",
          "name": "_symbol",
          "type": "string"
        },
        {
          "internalType": "address",
          "name": "_owner",
          "type": "address"
        },
        {
          "internalType": "address",
          "name": "_synthetic",
          "type": "address"
        }
      ],
      "name": "initialize",
      "outputs": [],
      "stateMutability": "nonpayable",
      "type": "function"
    },
    {
      "inputs": [
        {
          "internalType": "address",
          "name": "account",
          "type": "address"
        },
        {
          "internalType": "uint256",
          "name": "amount",
          "type": "uint256"
        }
      ],
      "name": "mint",
      "outputs": [],
      "stateMutability": "nonpayable",
      "type": "function"
    },
    {
      "inputs": [],
      "name": "name",
      "outputs": [
        {
          "internalType": "string",
          "name": "",
          "type": "string"
        }
      ],
      "stateMutability": "view",
      "type": "function"
    },
    {
      "inputs": [],
      "name": "owner",
      "outputs": [
        {
          "internalType": "address",
          "name": "",
          "type": "address"
        }
      ],
      "stateMutability": "view",
      "type": "function"
    },
    {
      "inputs": [],
      "name": "pause",
      "outputs": [],
      "stateMutability": "nonpayable",
      "type": "function"
    },
    {
      "inputs": [],
      "name": "paused",
      "outputs": [
        {
          "internalType": "bool",
          "name": "",
          "type": "bool"
        }
      ],
      "stateMutability": "view",
      "type": "function"
    },
    {
      "inputs": [],
      "name": "renounceOwnership",
      "outputs": [],
      "stateMutability": "nonpayable",
      "type": "function"
    },
    {
      "inputs": [
        {
          "internalType": "address",
          "name": "_synthetic",
          "type": "address"
        }
      ],
      "name": "setSyntheticAddress",
      "outputs": [],
      "stateMutability": "nonpayable",
      "type": "function"
    },
    {
      "inputs": [],
      "name": "symbol",
      "outputs": [
        {
          "internalType": "string",
          "name": "",
          "type": "string"
        }
      ],
      "stateMutability": "view",
      "type": "function"
    },
    {
      "inputs": [],
      "name": "synthetic",
      "outputs": [
        {
          "internalType": "address",
          "name": "",
          "type": "address"
        }
      ],
      "stateMutability": "view",
      "type": "function"
    },
    {
      "inputs": [],
      "name": "totalSupply",
      "outputs": [
        {
          "internalType": "uint256",
          "name": "",
          "type": "uint256"
        }
      ],
      "stateMutability": "view",
      "type": "function"
    },
    {
      "inputs": [
        {
          "internalType": "address",
          "name": "recipient",
          "type": "address"
        },
        {
          "internalType": "uint256",
          "name": "amount",
          "type": "uint256"
        }
      ],
      "name": "transfer",
      "outputs": [
        {
          "internalType": "bool",
          "name": "",
          "type": "bool"
        }
      ],
      "stateMutability": "nonpayable",
      "type": "function"
    },
    {
      "inputs": [
        {
          "internalType": "address",
          "name": "sender",
          "type": "address"
        },
        {
          "internalType": "address",
          "name": "recipient",
          "type": "address"
        },
        {
          "internalType": "uint256",
          "name": "amount",
          "type": "uint256"
        }
      ],
      "name": "transferFrom",
      "outputs": [
        {
          "internalType": "bool",
          "name": "",
          "type": "bool"
        }
      ],
      "stateMutability": "nonpayable",
      "type": "function"
    },
    {
      "inputs": [
        {
          "internalType": "address",
          "name": "newOwner",
          "type": "address"
        }
      ],
      "name": "transferOwnership",
      "outputs": [],
      "stateMutability": "nonpayable",
      "type": "function"
    }
  ],
  "bytecode": "0x608060405234801561001057600080fd5b50611984806100206000396000f3fe608060405234801561001057600080fd5b50600436106101425760003560e01c806379cc6790116100b8578063a457c2d71161007c578063a457c2d7146104c2578063a9059cbb146104ee578063afe1f9a41461051a578063dd62ed3e14610522578063ee36688f14610550578063f2fde38b1461057657610142565b806379cc67901461031f5780638456cb591461034b5780638da5cb5b146103535780638f15b4141461037757806395d89b41146104ba57610142565b8063395093511161010a578063395093511461027257806340c10f191461029e57806342966c68146102cc5780635c975abb146102e957806370a08231146102f1578063715018a61461031757610142565b806306fdde0314610147578063095ea7b3146101c457806318160ddd1461020457806323b872dd1461021e578063313ce56714610254575b600080fd5b61014f61059c565b6040805160208082528351818301528351919283929083019185019080838360005b83811015610189578181015183820152602001610171565b50505050905090810190601f1680156101b65780820380516001836020036101000a031916815260200191505b509250505060405180910390f35b6101f0600480360360408110156101da57600080fd5b506001600160a01b038135169060200135610632565b604080519115158252519081900360200190f35b61020c61064f565b60408051918252519081900360200190f35b6101f06004803603606081101561023457600080fd5b506001600160a01b03813581169160208101359091169060400135610655565b61025c6106dc565b6040805160ff9092168252519081900360200190f35b6101f06004803603604081101561028857600080fd5b506001600160a01b0381351690602001356106e5565b6102ca600480360360408110156102b457600080fd5b506001600160a01b038135169060200135610733565b005b6102ca600480360360208110156102e257600080fd5b50356107e7565b6101f06107fb565b61020c6004803603602081101561030757600080fd5b50356001600160a01b0316610804565b6102ca61081f565b6102ca6004803603604081101561033557600080fd5b506001600160a01b0381351690602001356108dd565b6102ca610937565b61035b6109e7565b604080516001600160a01b039092168252519081900360200190f35b6102ca6004803603608081101561038d57600080fd5b8101906020810181356401000000008111156103a857600080fd5b8201836020820111156103ba57600080fd5b803590602001918460018302840111640100000000831117156103dc57600080fd5b91908080601f016020809104026020016040519081016040528093929190818152602001838380828437600092019190915250929594936020810193503591505064010000000081111561042f57600080fd5b82018360208201111561044157600080fd5b8035906020019184600183028401116401000000008311171561046357600080fd5b91908080601f016020809104026020016040519081016040528093929190818152602001838380828437600092019190915250929550506001600160a01b0383358116945060209093013590921691506109f69050565b61014f610ada565b6101f0600480360360408110156104d857600080fd5b506001600160a01b038135169060200135610b3b565b6101f06004803603604081101561050457600080fd5b506001600160a01b038135169060200135610ba3565b61035b610bb7565b61020c6004803603604081101561053857600080fd5b506001600160a01b0381358116916020013516610bc6565b6102ca6004803603602081101561056657600080fd5b50356001600160a01b0316610bf1565b6102ca6004803603602081101561058c57600080fd5b50356001600160a01b0316610cc8565b60688054604080516020601f60026000196101006001881615020190951694909404938401819004810282018101909252828152606093909290918301828280156106285780601f106105fd57610100808354040283529160200191610628565b820191906000526020600020905b81548152906001019060200180831161060b57829003601f168201915b5050505050905090565b600061064661063f610ddd565b8484610de1565b50600192915050565b60675490565b6000610662848484610ecd565b6106d28461066e610ddd565b6106cd85604051806060016040528060288152602001611874602891396001600160a01b038a166000908152606660205260408120906106ac610ddd565b6001600160a01b03168152602081019190915260400160002054919061102a565b610de1565b5060019392505050565b606a5460ff1690565b60006106466106f2610ddd565b846106cd8560666000610703610ddd565b6001600160a01b03908116825260208083019390935260409182016000908120918c1681529252902054906110c1565b61073b6107fb565b15610780576040805162461bcd60e51b815260206004820152601060248201526f14185d5cd8589b194e881c185d5cd95960821b604482015290519081900360640190fd5b60fb546001600160a01b0316610794610ddd565b6001600160a01b0316146107d95760405162461bcd60e51b815260040180806020018281038252603c81526020018061175e603c913960400191505060405180910390fd5b6107e38282611122565b5050565b6107f86107f2610ddd565b82611214565b50565b60c95460ff1690565b6001600160a01b031660009081526065602052604090205490565b610827610ddd565b6001600160a01b03166108386109e7565b6001600160a01b031614610893576040805162461bcd60e51b815260206004820181905260248201527f4f776e61626c653a2063616c6c6572206973206e6f7420746865206f776e6572604482015290519081900360640190fd5b6033546040516000916001600160a01b0316907f8be0079c531659141344cd1fd0a4f28419497f9722a3daafe3b4186f6b6457e0908390a3603380546001600160a01b0319169055565b60006109148260405180606001604052806024815260200161189c6024913961090d86610908610ddd565b610bc6565b919061102a565b905061092883610922610ddd565b83610de1565b6109328383611214565b505050565b61093f6107fb565b15610984576040805162461bcd60e51b815260206004820152601060248201526f14185d5cd8589b194e881c185d5cd95960821b604482015290519081900360640190fd5b60fb546001600160a01b0316610998610ddd565b6001600160a01b0316146109dd5760405162461bcd60e51b815260040180806020018281038252603e815260200180611808603e913960400191505060405180910390fd5b6109e5611310565b565b6033546001600160a01b031690565b600054610100900460ff1680610a0f5750610a0f6113b0565b80610a1d575060005460ff16155b610a585760405162461bcd60e51b815260040180806020018281038252602e815260200180611846602e913960400191505060405180910390fd5b600054610100900460ff16158015610a83576000805460ff1961ff0019909116610100171660011790555b610a8b6113c1565b610a9483610cc8565b610a9e85856114ba565b610aa6611592565b60fb80546001600160a01b0319166001600160a01b0384161790558015610ad3576000805461ff00191690555b5050505050565b60698054604080516020601f60026000196101006001881615020190951694909404938401819004810282018101909252828152606093909290918301828280156106285780601f106105fd57610100808354040283529160200191610628565b6000610646610b48610ddd565b846106cd8560405180606001604052806025815260200161192a6025913960666000610b72610ddd565b6001600160a01b03908116825260208083019390935260409182016000908120918d1681529252902054919061102a565b6000610646610bb0610ddd565b8484610ecd565b60fb546001600160a01b031681565b6001600160a01b03918216600090815260666020908152604080832093909416825291909152205490565b610bf9610ddd565b6001600160a01b0316610c0a6109e7565b6001600160a01b031614610c65576040805162461bcd60e51b815260206004820181905260248201527f4f776e61626c653a2063616c6c6572206973206e6f7420746865206f776e6572604482015290519081900360640190fd5b60fb80546001600160a01b038381166001600160a01b0319831681179093556040805191909216808252602082019390935281517f045d661a3a983e68ee7bc27f00869b29a5176ccbf1c40a852841c20f41fc1a71929181900390910190a15050565b610cd0610ddd565b6001600160a01b0316610ce16109e7565b6001600160a01b031614610d3c576040805162461bcd60e51b815260206004820181905260248201527f4f776e61626c653a2063616c6c6572206973206e6f7420746865206f776e6572604482015290519081900360640190fd5b6001600160a01b038116610d815760405162461bcd60e51b815260040180806020018281038252602681526020018061179a6026913960400191505060405180910390fd5b6033546040516001600160a01b038084169216907f8be0079c531659141344cd1fd0a4f28419497f9722a3daafe3b4186f6b6457e090600090a3603380546001600160a01b0319166001600160a01b0392909216919091179055565b3390565b6001600160a01b038316610e265760405162461bcd60e51b81526004018080602001828103825260248152602001806119066024913960400191505060405180910390fd5b6001600160a01b038216610e6b5760405162461bcd60e51b81526004018080602001828103825260228152602001806117c06022913960400191505060405180910390fd5b6001600160a01b03808416600081815260666020908152604080832094871680845294825291829020859055815185815291517f8c5be1e5ebec7d5bd14f71427d1e84f3dd0314c0f7b2291e5b200ac8c7c3b9259281900390910190a3505050565b6001600160a01b038316610f125760405162461bcd60e51b81526004018080602001828103825260258152602001806118e16025913960400191505060405180910390fd5b6001600160a01b038216610f575760405162461bcd60e51b81526004018080602001828103825260238152602001806117196023913960400191505060405180910390fd5b610f62838383610932565b610f9f816040518060600160405280602681526020016117e2602691396001600160a01b038616600090815260656020526040902054919061102a565b6001600160a01b038085166000908152606560205260408082209390935590841681522054610fce90826110c1565b6001600160a01b0380841660008181526065602090815260409182902094909455805185815290519193928716927fddf252ad1be2c89b69c2b068fc378daa952ba7f163c4a11628f55a4df523b3ef92918290030190a3505050565b600081848411156110b95760405162461bcd60e51b81526004018080602001828103825283818151815260200191508051906020019080838360005b8381101561107e578181015183820152602001611066565b50505050905090810190601f1680156110ab5780820380516001836020036101000a031916815260200191505b509250505060405180910390fd5b505050900390565b60008282018381101561111b576040805162461bcd60e51b815260206004820152601b60248201527f536166654d6174683a206164646974696f6e206f766572666c6f770000000000604482015290519081900360640190fd5b9392505050565b6001600160a01b03821661117d576040805162461bcd60e51b815260206004820152601f60248201527f45524332303a206d696e7420746f20746865207a65726f206164647265737300604482015290519081900360640190fd5b61118960008383610932565b60675461119690826110c1565b6067556001600160a01b0382166000908152606560205260409020546111bc90826110c1565b6001600160a01b03831660008181526065602090815260408083209490945583518581529351929391927fddf252ad1be2c89b69c2b068fc378daa952ba7f163c4a11628f55a4df523b3ef9281900390910190a35050565b6001600160a01b0382166112595760405162461bcd60e51b81526004018080602001828103825260218152602001806118c06021913960400191505060405180910390fd5b61126582600083610932565b6112a28160405180606001604052806022815260200161173c602291396001600160a01b038516600090815260656020526040902054919061102a565b6001600160a01b0383166000908152606560205260409020556067546112c8908261163d565b6067556040805182815290516000916001600160a01b038516917fddf252ad1be2c89b69c2b068fc378daa952ba7f163c4a11628f55a4df523b3ef9181900360200190a35050565b6113186107fb565b1561135d576040805162461bcd60e51b815260206004820152601060248201526f14185d5cd8589b194e881c185d5cd95960821b604482015290519081900360640190fd5b60c9805460ff191660011790557f62e78cea01bee320cd4e420270b5ea74000d11b0c9f74754ebdbfc544b05a258611393610ddd565b604080516001600160a01b039092168252519081900360200190a1565b60006113bb3061167f565b15905090565b600054610100900460ff16806113da57506113da6113b0565b806113e8575060005460ff16155b6114235760405162461bcd60e51b815260040180806020018281038252602e815260200180611846602e913960400191505060405180910390fd5b600054610100900460ff1615801561144e576000805460ff1961ff0019909116610100171660011790555b6000611458610ddd565b603380546001600160a01b0319166001600160a01b038316908117909155604051919250906000907f8be0079c531659141344cd1fd0a4f28419497f9722a3daafe3b4186f6b6457e0908290a35080156107f8576000805461ff001916905550565b600054610100900460ff16806114d357506114d36113b0565b806114e1575060005460ff16155b61151c5760405162461bcd60e51b815260040180806020018281038252602e815260200180611846602e913960400191505060405180910390fd5b600054610100900460ff16158015611547576000805460ff1961ff0019909116610100171660011790555b825161155a906068906020860190611685565b50815161156e906069906020850190611685565b50606a805460ff191660121790558015610932576000805461ff0019169055505050565b600054610100900460ff16806115ab57506115ab6113b0565b806115b9575060005460ff16155b6115f45760405162461bcd60e51b815260040180806020018281038252602e815260200180611846602e913960400191505060405180910390fd5b600054610100900460ff1615801561161f576000805460ff1961ff0019909116610100171660011790555b60c9805460ff1916905580156107f8576000805461ff001916905550565b600061111b83836040518060400160405280601e81526020017f536166654d6174683a207375627472616374696f6e206f766572666c6f77000081525061102a565b3b151590565b828054600181600116156101000203166002900490600052602060002090601f016020900481019282601f106116c657805160ff19168380011785556116f3565b828001600101855582156116f3579182015b828111156116f35782518255916020019190600101906116d8565b506116ff929150611703565b5090565b5b808211156116ff576000815560010161170456fe45524332303a207472616e7366657220746f20746865207a65726f206164647265737345524332303a206275726e20616d6f756e7420657863656564732062616c616e6365446f70706c6553796e746865746963546f6b656e3a3a6d696e743a206f6e6c792073796e74686574696320636f6e74726163742063616e206d696e744f776e61626c653a206e6577206f776e657220697320746865207a65726f206164647265737345524332303a20617070726f766520746f20746865207a65726f206164647265737345524332303a207472616e7366657220616d6f756e7420657863656564732062616c616e6365446f70706c6553796e746865746963546f6b656e3a3a70617573653a206f6e6c792073796e74686574696320636f6e74726163742063616e207061757365496e697469616c697a61626c653a20636f6e747261637420697320616c726561647920696e697469616c697a656445524332303a207472616e7366657220616d6f756e74206578636565647320616c6c6f77616e636545524332303a206275726e20616d6f756e74206578636565647320616c6c6f77616e636545524332303a206275726e2066726f6d20746865207a65726f206164647265737345524332303a207472616e736665722066726f6d20746865207a65726f206164647265737345524332303a20617070726f76652066726f6d20746865207a65726f206164647265737345524332303a2064656372656173656420616c6c6f77616e63652062656c6f77207a65726fa2646970667358221220c2c402c9bd3289f19d03b94b373131bdde3c617e931c65e9eeb80a6d121486e064736f6c634300060c0033",
  "linkReferences": {},
  "deployedLinkReferences": {}
}