{
  "_format": "hh-sol-artifact-1",
  "contractName": "DoppleXAU",
  "sourceName": "contracts/DoppleSyntheticToken.sol",
  "abi": [
    {
      "inputs": [
        {
          "internalType": "address",
          "name": "_syntheticAddress",
          "type": "address"
        }
      ],
      "stateMutability": "nonpayable",
      "type": "constructor"
    },
    {
      "anonymous": false,
      "inputs": [
        {
          "indexed": true,
          "internalType": "address",
          "name": "owner",
          "type": "address"
        },
        {
          "indexed": true,
          "internalType": "address",
          "name": "spender",
          "type": "address"
        },
        {
          "indexed": false,
          "internalType": "uint256",
          "name": "value",
          "type": "uint256"
        }
      ],
      "name": "Approval",
      "type": "event"
    },
    {
      "anonymous": false,
      "inputs": [
        {
          "indexed": true,
          "internalType": "address",
          "name": "_sender",
          "type": "address"
        },
        {
          "indexed": true,
          "internalType": "bytes32",
          "name": "_to",
          "type": "bytes32"
        },
        {
          "indexed": false,
          "internalType": "uint256",
          "name": "amount",
          "type": "uint256"
        }
      ],
      "name": "Burn",
      "type": "event"
    },
    {
      "anonymous": false,
      "inputs": [
        {
          "indexed": true,
          "internalType": "address",
          "name": "previousOwner",
          "type": "address"
        },
        {
          "indexed": true,
          "internalType": "address",
          "name": "newOwner",
          "type": "address"
        }
      ],
      "name": "OwnershipTransferred",
      "type": "event"
    },
    {
      "anonymous": false,
      "inputs": [
        {
          "indexed": true,
          "internalType": "address",
          "name": "from",
          "type": "address"
        },
        {
          "indexed": true,
          "internalType": "address",
          "name": "to",
          "type": "address"
        },
        {
          "indexed": false,
          "internalType": "uint256",
          "name": "value",
          "type": "uint256"
        }
      ],
      "name": "Transfer",
      "type": "event"
    },
    {
      "inputs": [
        {
          "internalType": "address",
          "name": "owner",
          "type": "address"
        },
        {
          "internalType": "address",
          "name": "spender",
          "type": "address"
        }
      ],
      "name": "allowance",
      "outputs": [
        {
          "internalType": "uint256",
          "name": "",
          "type": "uint256"
        }
      ],
      "stateMutability": "view",
      "type": "function"
    },
    {
      "inputs": [
        {
          "internalType": "address",
          "name": "spender",
          "type": "address"
        },
        {
          "internalType": "uint256",
          "name": "amount",
          "type": "uint256"
        }
      ],
      "name": "approve",
      "outputs": [
        {
          "internalType": "bool",
          "name": "",
          "type": "bool"
        }
      ],
      "stateMutability": "nonpayable",
      "type": "function"
    },
    {
      "inputs": [
        {
          "internalType": "address",
          "name": "account",
          "type": "address"
        }
      ],
      "name": "balanceOf",
      "outputs": [
        {
          "internalType": "uint256",
          "name": "",
          "type": "uint256"
        }
      ],
      "stateMutability": "view",
      "type": "function"
    },
    {
      "inputs": [
        {
          "internalType": "uint256",
          "name": "amount",
          "type": "uint256"
        }
      ],
      "name": "burn",
      "outputs": [],
      "stateMutability": "nonpayable",
      "type": "function"
    },
    {
      "inputs": [
        {
          "internalType": "address",
          "name": "account",
          "type": "address"
        },
        {
          "internalType": "uint256",
          "name": "amount",
          "type": "uint256"
        }
      ],
      "name": "burnFrom",
      "outputs": [],
      "stateMutability": "nonpayable",
      "type": "function"
    },
    {
      "inputs": [],
      "name": "decimals",
      "outputs": [
        {
          "internalType": "uint8",
          "name": "",
          "type": "uint8"
        }
      ],
      "stateMutability": "view",
      "type": "function"
    },
    {
      "inputs": [
        {
          "internalType": "address",
          "name": "spender",
          "type": "address"
        },
        {
          "internalType": "uint256",
          "name": "subtractedValue",
          "type": "uint256"
        }
      ],
      "name": "decreaseAllowance",
      "outputs": [
        {
          "internalType": "bool",
          "name": "",
          "type": "bool"
        }
      ],
      "stateMutability": "nonpayable",
      "type": "function"
    },
    {
      "inputs": [
        {
          "internalType": "address",
          "name": "spender",
          "type": "address"
        },
        {
          "internalType": "uint256",
          "name": "addedValue",
          "type": "uint256"
        }
      ],
      "name": "increaseAllowance",
      "outputs": [
        {
          "internalType": "bool",
          "name": "",
          "type": "bool"
        }
      ],
      "stateMutability": "nonpayable",
      "type": "function"
    },
    {
      "inputs": [
        {
          "internalType": "address",
          "name": "account",
          "type": "address"
        },
        {
          "internalType": "uint256",
          "name": "amount",
          "type": "uint256"
        }
      ],
      "name": "mint",
      "outputs": [],
      "stateMutability": "nonpayable",
      "type": "function"
    },
    {
      "inputs": [],
      "name": "name",
      "outputs": [
        {
          "internalType": "string",
          "name": "",
          "type": "string"
        }
      ],
      "stateMutability": "view",
      "type": "function"
    },
    {
      "inputs": [],
      "name": "owner",
      "outputs": [
        {
          "internalType": "address",
          "name": "",
          "type": "address"
        }
      ],
      "stateMutability": "view",
      "type": "function"
    },
    {
      "inputs": [],
      "name": "renounceOwnership",
      "outputs": [],
      "stateMutability": "nonpayable",
      "type": "function"
    },
    {
      "inputs": [
        {
          "internalType": "address",
          "name": "_syntheticAddress",
          "type": "address"
        }
      ],
      "name": "setSyntheticAddress",
      "outputs": [],
      "stateMutability": "nonpayable",
      "type": "function"
    },
    {
      "inputs": [],
      "name": "symbol",
      "outputs": [
        {
          "internalType": "string",
          "name": "",
          "type": "string"
        }
      ],
      "stateMutability": "view",
      "type": "function"
    },
    {
      "inputs": [],
      "name": "syntheticAddress",
      "outputs": [
        {
          "internalType": "address",
          "name": "",
          "type": "address"
        }
      ],
      "stateMutability": "view",
      "type": "function"
    },
    {
      "inputs": [],
      "name": "totalSupply",
      "outputs": [
        {
          "internalType": "uint256",
          "name": "",
          "type": "uint256"
        }
      ],
      "stateMutability": "view",
      "type": "function"
    },
    {
      "inputs": [
        {
          "internalType": "address",
          "name": "recipient",
          "type": "address"
        },
        {
          "internalType": "uint256",
          "name": "amount",
          "type": "uint256"
        }
      ],
      "name": "transfer",
      "outputs": [
        {
          "internalType": "bool",
          "name": "",
          "type": "bool"
        }
      ],
      "stateMutability": "nonpayable",
      "type": "function"
    },
    {
      "inputs": [
        {
          "internalType": "address",
          "name": "sender",
          "type": "address"
        },
        {
          "internalType": "address",
          "name": "recipient",
          "type": "address"
        },
        {
          "internalType": "uint256",
          "name": "amount",
          "type": "uint256"
        }
      ],
      "name": "transferFrom",
      "outputs": [
        {
          "internalType": "bool",
          "name": "",
          "type": "bool"
        }
      ],
      "stateMutability": "nonpayable",
      "type": "function"
    },
    {
      "inputs": [
        {
          "internalType": "address",
          "name": "newOwner",
          "type": "address"
        }
      ],
      "name": "transferOwnership",
      "outputs": [],
      "stateMutability": "nonpayable",
      "type": "function"
    }
  ],
  "bytecode": "0x60806040523480156200001157600080fd5b506040516200155038038062001550833981810160405260208110156200003757600080fd5b5051604080518082018252601a81527f446f70706c652053796e7468657469632058415520546f6b656e0000000000006020828101918252835180850190945260048452636458415560e01b908401528151919291849184918491601291620000a391600391620002ed565b508151620000b9906004906020850190620002ed565b506005805460ff191660ff929092169190911790555060009050620000dd62000173565b60058054610100600160a81b0319166101006001600160a01b03841690810291909117909155604051919250906000907f8be0079c531659141344cd1fd0a4f28419497f9722a3daafe3b4186f6b6457e0908290a350620001493369021e19e0c9bab240000062000177565b600680546001600160a01b0319166001600160a01b03929092169190911790555062000389915050565b3390565b6001600160a01b038216620001d3576040805162461bcd60e51b815260206004820152601f60248201527f45524332303a206d696e7420746f20746865207a65726f206164647265737300604482015290519081900360640190fd5b620001e16000838362000286565b620001fd816002546200028b60201b62000a351790919060201c565b6002556001600160a01b038216600090815260208181526040909120546200023091839062000a356200028b821b17901c565b6001600160a01b0383166000818152602081815260408083209490945583518581529351929391927fddf252ad1be2c89b69c2b068fc378daa952ba7f163c4a11628f55a4df523b3ef9281900390910190a35050565b505050565b600082820183811015620002e6576040805162461bcd60e51b815260206004820152601b60248201527f536166654d6174683a206164646974696f6e206f766572666c6f770000000000604482015290519081900360640190fd5b9392505050565b828054600181600116156101000203166002900490600052602060002090601f016020900481019282601f106200033057805160ff191683800117855562000360565b8280016001018555821562000360579182015b828111156200036057825182559160200191906001019062000343565b506200036e92915062000372565b5090565b5b808211156200036e576000815560010162000373565b6111b780620003996000396000f3fe608060405234801561001057600080fd5b50600436106101215760003560e01c806370a08231116100ad578063a457c2d711610071578063a457c2d714610356578063a9059cbb14610382578063dd62ed3e146103ae578063ee36688f146103dc578063f2fde38b1461040257610121565b806370a08231146102ec578063715018a61461031257806379cc67901461031a5780638da5cb5b1461034657806395d89b411461034e57610121565b806323b872dd116100f457806323b872dd14610221578063313ce56714610257578063395093511461027557806340c10f19146102a157806342966c68146102cf57610121565b806306fdde0314610126578063095ea7b3146101a357806311c549e2146101e357806318160ddd14610207575b600080fd5b61012e610428565b6040805160208082528351818301528351919283929083019185019080838360005b83811015610168578181015183820152602001610150565b50505050905090810190601f1680156101955780820380516001836020036101000a031916815260200191505b509250505060405180910390f35b6101cf600480360360408110156101b957600080fd5b506001600160a01b0381351690602001356104be565b604080519115158252519081900360200190f35b6101eb6104db565b604080516001600160a01b039092168252519081900360200190f35b61020f6104ea565b60408051918252519081900360200190f35b6101cf6004803603606081101561023757600080fd5b506001600160a01b038135811691602081013590911690604001356104f0565b61025f610577565b6040805160ff9092168252519081900360200190f35b6101cf6004803603604081101561028b57600080fd5b506001600160a01b038135169060200135610580565b6102cd600480360360408110156102b757600080fd5b506001600160a01b0381351690602001356105ce565b005b6102cd600480360360208110156102e557600080fd5b5035610625565b61020f6004803603602081101561030257600080fd5b50356001600160a01b0316610639565b6102cd610654565b6102cd6004803603604081101561033057600080fd5b506001600160a01b038135169060200135610713565b6101eb61076d565b61012e610781565b6101cf6004803603604081101561036c57600080fd5b506001600160a01b0381351690602001356107e2565b6101cf6004803603604081101561039857600080fd5b506001600160a01b03813516906020013561084a565b61020f600480360360408110156103c457600080fd5b506001600160a01b038135811691602001351661085e565b6102cd600480360360208110156103f257600080fd5b50356001600160a01b0316610889565b6102cd6004803603602081101561041857600080fd5b50356001600160a01b031661091a565b60038054604080516020601f60026000196101006001881615020190951694909404938401819004810282018101909252828152606093909290918301828280156104b45780601f10610489576101008083540402835291602001916104b4565b820191906000526020600020905b81548152906001019060200180831161049757829003601f168201915b5050505050905090565b60006104d26104cb610a96565b8484610a9a565b50600192915050565b6006546001600160a01b031681565b60025490565b60006104fd848484610b86565b61056d84610509610a96565b6105688560405180606001604052806028815260200161105a602891396001600160a01b038a16600090815260016020526040812090610547610a96565b6001600160a01b031681526020810191909152604001600020549190610ce1565b610a9a565b5060019392505050565b60055460ff1690565b60006104d261058d610a96565b84610568856001600061059e610a96565b6001600160a01b03908116825260208083019390935260409182016000908120918c168152925290205490610a35565b6006546001600160a01b031633146106175760405162461bcd60e51b815260040180806020018281038252604d8152602001806110c7604d913960600191505060405180910390fd5b6106218282610d78565b5050565b610636610630610a96565b82610e68565b50565b6001600160a01b031660009081526020819052604090205490565b61065c610a96565b60055461010090046001600160a01b039081169116146106c3576040805162461bcd60e51b815260206004820181905260248201527f4f776e61626c653a2063616c6c6572206973206e6f7420746865206f776e6572604482015290519081900360640190fd5b60055460405160009161010090046001600160a01b0316907f8be0079c531659141344cd1fd0a4f28419497f9722a3daafe3b4186f6b6457e0908390a360058054610100600160a81b0319169055565b600061074a82604051806060016040528060248152602001611082602491396107438661073e610a96565b61085e565b9190610ce1565b905061075e83610758610a96565b83610a9a565b6107688383610e68565b505050565b60055461010090046001600160a01b031690565b60048054604080516020601f60026000196101006001881615020190951694909404938401819004810282018101909252828152606093909290918301828280156104b45780601f10610489576101008083540402835291602001916104b4565b60006104d26107ef610a96565b846105688560405180606001604052806025815260200161115d6025913960016000610819610a96565b6001600160a01b03908116825260208083019390935260409182016000908120918d16815292529020549190610ce1565b60006104d2610857610a96565b8484610b86565b6001600160a01b03918216600090815260016020908152604080832093909416825291909152205490565b610891610a96565b60055461010090046001600160a01b039081169116146108f8576040805162461bcd60e51b815260206004820181905260248201527f4f776e61626c653a2063616c6c6572206973206e6f7420746865206f776e6572604482015290519081900360640190fd5b600680546001600160a01b0319166001600160a01b0392909216919091179055565b610922610a96565b60055461010090046001600160a01b03908116911614610989576040805162461bcd60e51b815260206004820181905260248201527f4f776e61626c653a2063616c6c6572206973206e6f7420746865206f776e6572604482015290519081900360640190fd5b6001600160a01b0381166109ce5760405162461bcd60e51b8152600401808060200182810382526026815260200180610fec6026913960400191505060405180910390fd5b6005546040516001600160a01b0380841692610100900416907f8be0079c531659141344cd1fd0a4f28419497f9722a3daafe3b4186f6b6457e090600090a3600580546001600160a01b0390921661010002610100600160a81b0319909216919091179055565b600082820183811015610a8f576040805162461bcd60e51b815260206004820152601b60248201527f536166654d6174683a206164646974696f6e206f766572666c6f770000000000604482015290519081900360640190fd5b9392505050565b3390565b6001600160a01b038316610adf5760405162461bcd60e51b81526004018080602001828103825260248152602001806111396024913960400191505060405180910390fd5b6001600160a01b038216610b245760405162461bcd60e51b81526004018080602001828103825260228152602001806110126022913960400191505060405180910390fd5b6001600160a01b03808416600081815260016020908152604080832094871680845294825291829020859055815185815291517f8c5be1e5ebec7d5bd14f71427d1e84f3dd0314c0f7b2291e5b200ac8c7c3b9259281900390910190a3505050565b6001600160a01b038316610bcb5760405162461bcd60e51b81526004018080602001828103825260258152602001806111146025913960400191505060405180910390fd5b6001600160a01b038216610c105760405162461bcd60e51b8152600401808060200182810382526023815260200180610fa76023913960400191505060405180910390fd5b610c1b838383610768565b610c5881604051806060016040528060268152602001611034602691396001600160a01b0386166000908152602081905260409020549190610ce1565b6001600160a01b038085166000908152602081905260408082209390935590841681522054610c879082610a35565b6001600160a01b038084166000818152602081815260409182902094909455805185815290519193928716927fddf252ad1be2c89b69c2b068fc378daa952ba7f163c4a11628f55a4df523b3ef92918290030190a3505050565b60008184841115610d705760405162461bcd60e51b81526004018080602001828103825283818151815260200191508051906020019080838360005b83811015610d35578181015183820152602001610d1d565b50505050905090810190601f168015610d625780820380516001836020036101000a031916815260200191505b509250505060405180910390fd5b505050900390565b6001600160a01b038216610dd3576040805162461bcd60e51b815260206004820152601f60248201527f45524332303a206d696e7420746f20746865207a65726f206164647265737300604482015290519081900360640190fd5b610ddf60008383610768565b600254610dec9082610a35565b6002556001600160a01b038216600090815260208190526040902054610e129082610a35565b6001600160a01b0383166000818152602081815260408083209490945583518581529351929391927fddf252ad1be2c89b69c2b068fc378daa952ba7f163c4a11628f55a4df523b3ef9281900390910190a35050565b6001600160a01b038216610ead5760405162461bcd60e51b81526004018080602001828103825260218152602001806110a66021913960400191505060405180910390fd5b610eb982600083610768565b610ef681604051806060016040528060228152602001610fca602291396001600160a01b0385166000908152602081905260409020549190610ce1565b6001600160a01b038316600090815260208190526040902055600254610f1c9082610f64565b6002556040805182815290516000916001600160a01b038516917fddf252ad1be2c89b69c2b068fc378daa952ba7f163c4a11628f55a4df523b3ef9181900360200190a35050565b6000610a8f83836040518060400160405280601e81526020017f536166654d6174683a207375627472616374696f6e206f766572666c6f770000815250610ce156fe45524332303a207472616e7366657220746f20746865207a65726f206164647265737345524332303a206275726e20616d6f756e7420657863656564732062616c616e63654f776e61626c653a206e6577206f776e657220697320746865207a65726f206164647265737345524332303a20617070726f766520746f20746865207a65726f206164647265737345524332303a207472616e7366657220616d6f756e7420657863656564732062616c616e636545524332303a207472616e7366657220616d6f756e74206578636565647320616c6c6f77616e636545524332303a206275726e20616d6f756e74206578636565647320616c6c6f77616e636545524332303a206275726e2066726f6d20746865207a65726f2061646472657373446f70706c6553796e746865746963546f6b656e3a3a6f6e6c7953796e746865746963436f6e74726163743a206f6e6c792073796e74686574696320636f6e74726163742063616e2063616c6c45524332303a207472616e736665722066726f6d20746865207a65726f206164647265737345524332303a20617070726f76652066726f6d20746865207a65726f206164647265737345524332303a2064656372656173656420616c6c6f77616e63652062656c6f77207a65726fa26469706673582212207215e5da15e7afcd4c890033503553f43f9c2d08fa49ed3c990e33d2baa7399064736f6c634300060c0033",
  "linkReferences": {},
  "deployedLinkReferences": {}
}