{
  "address": "0x9A9F26419E8746681113d70EA0F561C896E041eD",
  "abi": [
    {
      "anonymous": false,
      "inputs": [
        {
          "indexed": true,
          "internalType": "address",
          "name": "owner",
          "type": "address"
        },
        {
          "indexed": true,
          "internalType": "address",
          "name": "spender",
          "type": "address"
        },
        {
          "indexed": false,
          "internalType": "uint256",
          "name": "value",
          "type": "uint256"
        }
      ],
      "name": "Approval",
      "type": "event"
    },
    {
      "anonymous": false,
      "inputs": [
        {
          "indexed": true,
          "internalType": "address",
          "name": "previousOwner",
          "type": "address"
        },
        {
          "indexed": true,
          "internalType": "address",
          "name": "newOwner",
          "type": "address"
        }
      ],
      "name": "OwnershipTransferred",
      "type": "event"
    },
    {
      "anonymous": false,
      "inputs": [
        {
          "indexed": false,
          "internalType": "address",
          "name": "account",
          "type": "address"
        }
      ],
      "name": "Paused",
      "type": "event"
    },
    {
      "anonymous": false,
      "inputs": [
        {
          "indexed": true,
          "internalType": "address",
          "name": "from",
          "type": "address"
        },
        {
          "indexed": true,
          "internalType": "address",
          "name": "to",
          "type": "address"
        },
        {
          "indexed": false,
          "internalType": "uint256",
          "name": "value",
          "type": "uint256"
        }
      ],
      "name": "Transfer",
      "type": "event"
    },
    {
      "anonymous": false,
      "inputs": [
        {
          "indexed": false,
          "internalType": "address",
          "name": "account",
          "type": "address"
        }
      ],
      "name": "Unpaused",
      "type": "event"
    },
    {
      "inputs": [
        {
          "internalType": "address",
          "name": "owner",
          "type": "address"
        },
        {
          "internalType": "address",
          "name": "spender",
          "type": "address"
        }
      ],
      "name": "allowance",
      "outputs": [
        {
          "internalType": "uint256",
          "name": "",
          "type": "uint256"
        }
      ],
      "stateMutability": "view",
      "type": "function"
    },
    {
      "inputs": [
        {
          "internalType": "address",
          "name": "spender",
          "type": "address"
        },
        {
          "internalType": "uint256",
          "name": "amount",
          "type": "uint256"
        }
      ],
      "name": "approve",
      "outputs": [
        {
          "internalType": "bool",
          "name": "",
          "type": "bool"
        }
      ],
      "stateMutability": "nonpayable",
      "type": "function"
    },
    {
      "inputs": [
        {
          "internalType": "address",
          "name": "account",
          "type": "address"
        }
      ],
      "name": "balanceOf",
      "outputs": [
        {
          "internalType": "uint256",
          "name": "",
          "type": "uint256"
        }
      ],
      "stateMutability": "view",
      "type": "function"
    },
    {
      "inputs": [
        {
          "internalType": "uint256",
          "name": "amount",
          "type": "uint256"
        }
      ],
      "name": "burn",
      "outputs": [],
      "stateMutability": "nonpayable",
      "type": "function"
    },
    {
      "inputs": [
        {
          "internalType": "address",
          "name": "account",
          "type": "address"
        },
        {
          "internalType": "uint256",
          "name": "amount",
          "type": "uint256"
        }
      ],
      "name": "burnFrom",
      "outputs": [],
      "stateMutability": "nonpayable",
      "type": "function"
    },
    {
      "inputs": [],
      "name": "decimals",
      "outputs": [
        {
          "internalType": "uint8",
          "name": "",
          "type": "uint8"
        }
      ],
      "stateMutability": "view",
      "type": "function"
    },
    {
      "inputs": [
        {
          "internalType": "address",
          "name": "spender",
          "type": "address"
        },
        {
          "internalType": "uint256",
          "name": "subtractedValue",
          "type": "uint256"
        }
      ],
      "name": "decreaseAllowance",
      "outputs": [
        {
          "internalType": "bool",
          "name": "",
          "type": "bool"
        }
      ],
      "stateMutability": "nonpayable",
      "type": "function"
    },
    {
      "inputs": [
        {
          "internalType": "address",
          "name": "spender",
          "type": "address"
        },
        {
          "internalType": "uint256",
          "name": "addedValue",
          "type": "uint256"
        }
      ],
      "name": "increaseAllowance",
      "outputs": [
        {
          "internalType": "bool",
          "name": "",
          "type": "bool"
        }
      ],
      "stateMutability": "nonpayable",
      "type": "function"
    },
    {
      "inputs": [
        {
          "internalType": "string",
          "name": "_name",
          "type": "string"
        },
        {
          "internalType": "string",
          "name": "_symbol",
          "type": "string"
        },
        {
          "internalType": "address",
          "name": "_owner",
          "type": "address"
        }
      ],
      "name": "initialize",
      "outputs": [],
      "stateMutability": "nonpayable",
      "type": "function"
    },
    {
      "inputs": [
        {
          "internalType": "address",
          "name": "account",
          "type": "address"
        },
        {
          "internalType": "uint256",
          "name": "amount",
          "type": "uint256"
        }
      ],
      "name": "mint",
      "outputs": [],
      "stateMutability": "nonpayable",
      "type": "function"
    },
    {
      "inputs": [],
      "name": "name",
      "outputs": [
        {
          "internalType": "string",
          "name": "",
          "type": "string"
        }
      ],
      "stateMutability": "view",
      "type": "function"
    },
    {
      "inputs": [],
      "name": "owner",
      "outputs": [
        {
          "internalType": "address",
          "name": "",
          "type": "address"
        }
      ],
      "stateMutability": "view",
      "type": "function"
    },
    {
      "inputs": [],
      "name": "pause",
      "outputs": [],
      "stateMutability": "nonpayable",
      "type": "function"
    },
    {
      "inputs": [],
      "name": "paused",
      "outputs": [
        {
          "internalType": "bool",
          "name": "",
          "type": "bool"
        }
      ],
      "stateMutability": "view",
      "type": "function"
    },
    {
      "inputs": [],
      "name": "renounceOwnership",
      "outputs": [],
      "stateMutability": "nonpayable",
      "type": "function"
    },
    {
      "inputs": [],
      "name": "symbol",
      "outputs": [
        {
          "internalType": "string",
          "name": "",
          "type": "string"
        }
      ],
      "stateMutability": "view",
      "type": "function"
    },
    {
      "inputs": [],
      "name": "totalSupply",
      "outputs": [
        {
          "internalType": "uint256",
          "name": "",
          "type": "uint256"
        }
      ],
      "stateMutability": "view",
      "type": "function"
    },
    {
      "inputs": [
        {
          "internalType": "address",
          "name": "recipient",
          "type": "address"
        },
        {
          "internalType": "uint256",
          "name": "amount",
          "type": "uint256"
        }
      ],
      "name": "transfer",
      "outputs": [
        {
          "internalType": "bool",
          "name": "",
          "type": "bool"
        }
      ],
      "stateMutability": "nonpayable",
      "type": "function"
    },
    {
      "inputs": [
        {
          "internalType": "address",
          "name": "sender",
          "type": "address"
        },
        {
          "internalType": "address",
          "name": "recipient",
          "type": "address"
        },
        {
          "internalType": "uint256",
          "name": "amount",
          "type": "uint256"
        }
      ],
      "name": "transferFrom",
      "outputs": [
        {
          "internalType": "bool",
          "name": "",
          "type": "bool"
        }
      ],
      "stateMutability": "nonpayable",
      "type": "function"
    },
    {
      "inputs": [
        {
          "internalType": "address",
          "name": "newOwner",
          "type": "address"
        }
      ],
      "name": "transferOwnership",
      "outputs": [],
      "stateMutability": "nonpayable",
      "type": "function"
    }
  ],
  "transactionHash": "0x627cf2876d972cbce8251afdfc656e8811ee2ebf35b13d7d1c44cc4d288bb6e1",
  "args": [],
  "solcInputHash": "1e6e1ff979ad765eda37783697822248",
  "bytecode": "0x608060405234801561001057600080fd5b506117c7806100206000396000f3fe608060405234801561001057600080fd5b506004361061012c5760003560e01c806370a08231116100ad57806395d89b411161007157806395d89b4114610499578063a457c2d7146104a1578063a9059cbb146104cd578063dd62ed3e146104f9578063f2fde38b146105275761012c565b806370a0823114610413578063715018a61461043957806379cc6790146104415780638456cb591461046d5780638da5cb5b146104755761012c565b8063313ce567116100f4578063313ce56714610378578063395093511461039657806340c10f19146103c257806342966c68146103ee5780635c975abb1461040b5761012c565b806306fdde0314610131578063077f224a146101ae578063095ea7b3146102e857806318160ddd1461032857806323b872dd14610342575b600080fd5b61013961054d565b6040805160208082528351818301528351919283929083019185019080838360005b8381101561017357818101518382015260200161015b565b50505050905090810190601f1680156101a05780820380516001836020036101000a031916815260200191505b509250505060405180910390f35b6102e6600480360360608110156101c457600080fd5b8101906020810181356401000000008111156101df57600080fd5b8201836020820111156101f157600080fd5b8035906020019184600183028401116401000000008311171561021357600080fd5b91908080601f016020809104026020016040519081016040528093929190818152602001838380828437600092019190915250929594936020810193503591505064010000000081111561026657600080fd5b82018360208201111561027857600080fd5b8035906020019184600183028401116401000000008311171561029a57600080fd5b91908080601f016020809104026020016040519081016040528093929190818152602001838380828437600092019190915250929550505090356001600160a01b031691506105e39050565b005b610314600480360360408110156102fe57600080fd5b506001600160a01b0381351690602001356106ab565b604080519115158252519081900360200190f35b6103306106c8565b60408051918252519081900360200190f35b6103146004803603606081101561035857600080fd5b506001600160a01b038135811691602081013590911690604001356106ce565b610380610755565b6040805160ff9092168252519081900360200190f35b610314600480360360408110156103ac57600080fd5b506001600160a01b03813516906020013561075e565b6102e6600480360360408110156103d857600080fd5b506001600160a01b0381351690602001356107ac565b6102e66004803603602081101561040457600080fd5b5035610869565b61031461087d565b6103306004803603602081101561042957600080fd5b50356001600160a01b0316610886565b6102e66108a1565b6102e66004803603604081101561045757600080fd5b506001600160a01b03813516906020013561094d565b6102e66109a7565b61047d610a60565b604080516001600160a01b039092168252519081900360200190f35b610139610a6f565b610314600480360360408110156104b757600080fd5b506001600160a01b038135169060200135610ad0565b610314600480360360408110156104e357600080fd5b506001600160a01b038135169060200135610b38565b6103306004803603604081101561050f57600080fd5b506001600160a01b0381358116916020013516610b4c565b6102e66004803603602081101561053d57600080fd5b50356001600160a01b0316610b77565b60688054604080516020601f60026000196101006001881615020190951694909404938401819004810282018101909252828152606093909290918301828280156105d95780601f106105ae576101008083540402835291602001916105d9565b820191906000526020600020905b8154815290600101906020018083116105bc57829003601f168201915b5050505050905090565b600054610100900460ff16806105fc57506105fc610c7a565b8061060a575060005460ff16155b6106455760405162461bcd60e51b815260040180806020018281038252602e815260200180611669602e913960400191505060405180910390fd5b600054610100900460ff16158015610670576000805460ff1961ff0019909116610100171660011790555b610678610c8b565b61068182610b77565b61068b8484610d84565b610693610e5c565b80156106a5576000805461ff00191690555b50505050565b60006106bf6106b8610f07565b8484610f0b565b50600192915050565b60675490565b60006106db848484610ff7565b61074b846106e7610f07565b61074685604051806060016040528060288152602001611697602891396001600160a01b038a16600090815260666020526040812090610725610f07565b6001600160a01b031681526020810191909152604001600020549190611154565b610f0b565b5060019392505050565b606a5460ff1690565b60006106bf61076b610f07565b84610746856066600061077c610f07565b6001600160a01b03908116825260208083019390935260409182016000908120918c1681529252902054906111eb565b6107b4610f07565b6001600160a01b03166107c5610a60565b6001600160a01b03161461080e576040805162461bcd60e51b815260206004820181905260248201526000805160206116bf833981519152604482015290519081900360640190fd5b61081661087d565b1561085b576040805162461bcd60e51b815260206004820152601060248201526f14185d5cd8589b194e881c185d5cd95960821b604482015290519081900360640190fd5b610865828261124c565b5050565b61087a610874610f07565b8261133e565b50565b60c95460ff1690565b6001600160a01b031660009081526065602052604090205490565b6108a9610f07565b6001600160a01b03166108ba610a60565b6001600160a01b031614610903576040805162461bcd60e51b815260206004820181905260248201526000805160206116bf833981519152604482015290519081900360640190fd5b6033546040516000916001600160a01b0316907f8be0079c531659141344cd1fd0a4f28419497f9722a3daafe3b4186f6b6457e0908390a3603380546001600160a01b0319169055565b6000610984826040518060600160405280602481526020016116df6024913961097d86610978610f07565b610b4c565b9190611154565b905061099883610992610f07565b83610f0b565b6109a2838361133e565b505050565b6109af610f07565b6001600160a01b03166109c0610a60565b6001600160a01b031614610a09576040805162461bcd60e51b815260206004820181905260248201526000805160206116bf833981519152604482015290519081900360640190fd5b610a1161087d565b15610a56576040805162461bcd60e51b815260206004820152601060248201526f14185d5cd8589b194e881c185d5cd95960821b604482015290519081900360640190fd5b610a5e61143a565b565b6033546001600160a01b031690565b60698054604080516020601f60026000196101006001881615020190951694909404938401819004810282018101909252828152606093909290918301828280156105d95780601f106105ae576101008083540402835291602001916105d9565b60006106bf610add610f07565b846107468560405180606001604052806025815260200161176d6025913960666000610b07610f07565b6001600160a01b03908116825260208083019390935260409182016000908120918d16815292529020549190611154565b60006106bf610b45610f07565b8484610ff7565b6001600160a01b03918216600090815260666020908152604080832093909416825291909152205490565b610b7f610f07565b6001600160a01b0316610b90610a60565b6001600160a01b031614610bd9576040805162461bcd60e51b815260206004820181905260248201526000805160206116bf833981519152604482015290519081900360640190fd5b6001600160a01b038116610c1e5760405162461bcd60e51b81526004018080602001828103825260268152602001806115fb6026913960400191505060405180910390fd5b6033546040516001600160a01b038084169216907f8be0079c531659141344cd1fd0a4f28419497f9722a3daafe3b4186f6b6457e090600090a3603380546001600160a01b0319166001600160a01b0392909216919091179055565b6000610c85306114da565b15905090565b600054610100900460ff1680610ca45750610ca4610c7a565b80610cb2575060005460ff16155b610ced5760405162461bcd60e51b815260040180806020018281038252602e815260200180611669602e913960400191505060405180910390fd5b600054610100900460ff16158015610d18576000805460ff1961ff0019909116610100171660011790555b6000610d22610f07565b603380546001600160a01b0319166001600160a01b038316908117909155604051919250906000907f8be0079c531659141344cd1fd0a4f28419497f9722a3daafe3b4186f6b6457e0908290a350801561087a576000805461ff001916905550565b600054610100900460ff1680610d9d5750610d9d610c7a565b80610dab575060005460ff16155b610de65760405162461bcd60e51b815260040180806020018281038252602e815260200180611669602e913960400191505060405180910390fd5b600054610100900460ff16158015610e11576000805460ff1961ff0019909116610100171660011790555b8251610e24906068906020860190611522565b508151610e38906069906020850190611522565b50606a805460ff1916601217905580156109a2576000805461ff0019169055505050565b600054610100900460ff1680610e755750610e75610c7a565b80610e83575060005460ff16155b610ebe5760405162461bcd60e51b815260040180806020018281038252602e815260200180611669602e913960400191505060405180910390fd5b600054610100900460ff16158015610ee9576000805460ff1961ff0019909116610100171660011790555b60c9805460ff19169055801561087a576000805461ff001916905550565b3390565b6001600160a01b038316610f505760405162461bcd60e51b81526004018080602001828103825260248152602001806117496024913960400191505060405180910390fd5b6001600160a01b038216610f955760405162461bcd60e51b81526004018080602001828103825260228152602001806116216022913960400191505060405180910390fd5b6001600160a01b03808416600081815260666020908152604080832094871680845294825291829020859055815185815291517f8c5be1e5ebec7d5bd14f71427d1e84f3dd0314c0f7b2291e5b200ac8c7c3b9259281900390910190a3505050565b6001600160a01b03831661103c5760405162461bcd60e51b81526004018080602001828103825260258152602001806117246025913960400191505060405180910390fd5b6001600160a01b0382166110815760405162461bcd60e51b81526004018080602001828103825260238152602001806115b66023913960400191505060405180910390fd5b61108c8383836109a2565b6110c981604051806060016040528060268152602001611643602691396001600160a01b0386166000908152606560205260409020549190611154565b6001600160a01b0380851660009081526065602052604080822093909355908416815220546110f890826111eb565b6001600160a01b0380841660008181526065602090815260409182902094909455805185815290519193928716927fddf252ad1be2c89b69c2b068fc378daa952ba7f163c4a11628f55a4df523b3ef92918290030190a3505050565b600081848411156111e35760405162461bcd60e51b81526004018080602001828103825283818151815260200191508051906020019080838360005b838110156111a8578181015183820152602001611190565b50505050905090810190601f1680156111d55780820380516001836020036101000a031916815260200191505b509250505060405180910390fd5b505050900390565b600082820183811015611245576040805162461bcd60e51b815260206004820152601b60248201527f536166654d6174683a206164646974696f6e206f766572666c6f770000000000604482015290519081900360640190fd5b9392505050565b6001600160a01b0382166112a7576040805162461bcd60e51b815260206004820152601f60248201527f45524332303a206d696e7420746f20746865207a65726f206164647265737300604482015290519081900360640190fd5b6112b3600083836109a2565b6067546112c090826111eb565b6067556001600160a01b0382166000908152606560205260409020546112e690826111eb565b6001600160a01b03831660008181526065602090815260408083209490945583518581529351929391927fddf252ad1be2c89b69c2b068fc378daa952ba7f163c4a11628f55a4df523b3ef9281900390910190a35050565b6001600160a01b0382166113835760405162461bcd60e51b81526004018080602001828103825260218152602001806117036021913960400191505060405180910390fd5b61138f826000836109a2565b6113cc816040518060600160405280602281526020016115d9602291396001600160a01b0385166000908152606560205260409020549190611154565b6001600160a01b0383166000908152606560205260409020556067546113f290826114e0565b6067556040805182815290516000916001600160a01b038516917fddf252ad1be2c89b69c2b068fc378daa952ba7f163c4a11628f55a4df523b3ef9181900360200190a35050565b61144261087d565b15611487576040805162461bcd60e51b815260206004820152601060248201526f14185d5cd8589b194e881c185d5cd95960821b604482015290519081900360640190fd5b60c9805460ff191660011790557f62e78cea01bee320cd4e420270b5ea74000d11b0c9f74754ebdbfc544b05a2586114bd610f07565b604080516001600160a01b039092168252519081900360200190a1565b3b151590565b600061124583836040518060400160405280601e81526020017f536166654d6174683a207375627472616374696f6e206f766572666c6f770000815250611154565b828054600181600116156101000203166002900490600052602060002090601f016020900481019282601f1061156357805160ff1916838001178555611590565b82800160010185558215611590579182015b82811115611590578251825591602001919060010190611575565b5061159c9291506115a0565b5090565b5b8082111561159c57600081556001016115a156fe45524332303a207472616e7366657220746f20746865207a65726f206164647265737345524332303a206275726e20616d6f756e7420657863656564732062616c616e63654f776e61626c653a206e6577206f776e657220697320746865207a65726f206164647265737345524332303a20617070726f766520746f20746865207a65726f206164647265737345524332303a207472616e7366657220616d6f756e7420657863656564732062616c616e6365496e697469616c697a61626c653a20636f6e747261637420697320616c726561647920696e697469616c697a656445524332303a207472616e7366657220616d6f756e74206578636565647320616c6c6f77616e63654f776e61626c653a2063616c6c6572206973206e6f7420746865206f776e657245524332303a206275726e20616d6f756e74206578636565647320616c6c6f77616e636545524332303a206275726e2066726f6d20746865207a65726f206164647265737345524332303a207472616e736665722066726f6d20746865207a65726f206164647265737345524332303a20617070726f76652066726f6d20746865207a65726f206164647265737345524332303a2064656372656173656420616c6c6f77616e63652062656c6f77207a65726fa26469706673582212205707fc4c01c18a61c2e496e503c470cc85578331f026aec376d1cc499e53ba0664736f6c634300060c0033",
  "devdoc": {
    "kind": "dev",
    "methods": {
      "allowance(address,address)": {
        "details": "See {IERC20-allowance}."
      },
      "approve(address,uint256)": {
        "details": "See {IERC20-approve}. Requirements: - `spender` cannot be the zero address."
      },
      "balanceOf(address)": {
        "details": "See {IERC20-balanceOf}."
      },
      "burn(uint256)": {
        "details": "Destroys `amount` tokens from the caller. See {ERC20-_burn}."
      },
      "burnFrom(address,uint256)": {
        "details": "Destroys `amount` tokens from `account`, deducting from the caller's allowance. See {ERC20-_burn} and {ERC20-allowance}. Requirements: - the caller must have allowance for ``accounts``'s tokens of at least `amount`."
      },
      "decimals()": {
        "details": "Returns the number of decimals used to get its user representation. For example, if `decimals` equals `2`, a balance of `505` tokens should be displayed to a user as `5,05` (`505 / 10 ** 2`). Tokens usually opt for a value of 18, imitating the relationship between Ether and Wei. This is the value {ERC20} uses, unless {_setupDecimals} is called. NOTE: This information is only used for _display_ purposes: it in no way affects any of the arithmetic of the contract, including {IERC20-balanceOf} and {IERC20-transfer}."
      },
      "decreaseAllowance(address,uint256)": {
        "details": "Atomically decreases the allowance granted to `spender` by the caller. This is an alternative to {approve} that can be used as a mitigation for problems described in {IERC20-approve}. Emits an {Approval} event indicating the updated allowance. Requirements: - `spender` cannot be the zero address. - `spender` must have allowance for the caller of at least `subtractedValue`."
      },
      "increaseAllowance(address,uint256)": {
        "details": "Atomically increases the allowance granted to `spender` by the caller. This is an alternative to {approve} that can be used as a mitigation for problems described in {IERC20-approve}. Emits an {Approval} event indicating the updated allowance. Requirements: - `spender` cannot be the zero address."
      },
      "name()": {
        "details": "Returns the name of the token."
      },
      "owner()": {
        "details": "Returns the address of the current owner."
      },
      "paused()": {
        "details": "Returns true if the contract is paused, and false otherwise."
      },
      "renounceOwnership()": {
        "details": "Leaves the contract without owner. It will not be possible to call `onlyOwner` functions anymore. Can only be called by the current owner. NOTE: Renouncing ownership will leave the contract without an owner, thereby removing any functionality that is only available to the owner."
      },
      "symbol()": {
        "details": "Returns the symbol of the token, usually a shorter version of the name."
      },
      "totalSupply()": {
        "details": "See {IERC20-totalSupply}."
      },
      "transfer(address,uint256)": {
        "details": "See {IERC20-transfer}. Requirements: - `recipient` cannot be the zero address. - the caller must have a balance of at least `amount`."
      },
      "transferFrom(address,address,uint256)": {
        "details": "See {IERC20-transferFrom}. Emits an {Approval} event indicating the updated allowance. This is not required by the EIP. See the note at the beginning of {ERC20}; Requirements: - `sender` and `recipient` cannot be the zero address. - `sender` must have a balance of at least `amount`. - the caller must have allowance for ``sender``'s tokens of at least `amount`."
      },
      "transferOwnership(address)": {
        "details": "Transfers ownership of the contract to a new account (`newOwner`). Can only be called by the current owner."
      }
    },
    "version": 1
  },
  "userdoc": {
    "kind": "user",
    "methods": {},
    "version": 1
  },
  "storageLayout": {
    "storage": [
      {
        "astId": 2918,
        "contract": "contracts/DoppleSyntheticToken.sol:DoppleSyntheticToken",
        "label": "_initialized",
        "offset": 0,
        "slot": "0",
        "type": "t_bool"
      },
      {
        "astId": 2921,
        "contract": "contracts/DoppleSyntheticToken.sol:DoppleSyntheticToken",
        "label": "_initializing",
        "offset": 1,
        "slot": "0",
        "type": "t_bool"
      },
      {
        "astId": 5047,
        "contract": "contracts/DoppleSyntheticToken.sol:DoppleSyntheticToken",
        "label": "__gap",
        "offset": 0,
        "slot": "1",
        "type": "t_array(t_uint256)50_storage"
      },
      {
        "astId": 2244,
        "contract": "contracts/DoppleSyntheticToken.sol:DoppleSyntheticToken",
        "label": "_owner",
        "offset": 0,
        "slot": "51",
        "type": "t_address"
      },
      {
        "astId": 2363,
        "contract": "contracts/DoppleSyntheticToken.sol:DoppleSyntheticToken",
        "label": "__gap",
        "offset": 0,
        "slot": "52",
        "type": "t_array(t_uint256)49_storage"
      },
      {
        "astId": 3653,
        "contract": "contracts/DoppleSyntheticToken.sol:DoppleSyntheticToken",
        "label": "_balances",
        "offset": 0,
        "slot": "101",
        "type": "t_mapping(t_address,t_uint256)"
      },
      {
        "astId": 3659,
        "contract": "contracts/DoppleSyntheticToken.sol:DoppleSyntheticToken",
        "label": "_allowances",
        "offset": 0,
        "slot": "102",
        "type": "t_mapping(t_address,t_mapping(t_address,t_uint256))"
      },
      {
        "astId": 3661,
        "contract": "contracts/DoppleSyntheticToken.sol:DoppleSyntheticToken",
        "label": "_totalSupply",
        "offset": 0,
        "slot": "103",
        "type": "t_uint256"
      },
      {
        "astId": 3663,
        "contract": "contracts/DoppleSyntheticToken.sol:DoppleSyntheticToken",
        "label": "_name",
        "offset": 0,
        "slot": "104",
        "type": "t_string_storage"
      },
      {
        "astId": 3665,
        "contract": "contracts/DoppleSyntheticToken.sol:DoppleSyntheticToken",
        "label": "_symbol",
        "offset": 0,
        "slot": "105",
        "type": "t_string_storage"
      },
      {
        "astId": 3667,
        "contract": "contracts/DoppleSyntheticToken.sol:DoppleSyntheticToken",
        "label": "_decimals",
        "offset": 0,
        "slot": "106",
        "type": "t_uint8"
      },
      {
        "astId": 4162,
        "contract": "contracts/DoppleSyntheticToken.sol:DoppleSyntheticToken",
        "label": "__gap",
        "offset": 0,
        "slot": "107",
        "type": "t_array(t_uint256)44_storage"
      },
      {
        "astId": 3628,
        "contract": "contracts/DoppleSyntheticToken.sol:DoppleSyntheticToken",
        "label": "__gap",
        "offset": 0,
        "slot": "151",
        "type": "t_array(t_uint256)50_storage"
      },
      {
        "astId": 5161,
        "contract": "contracts/DoppleSyntheticToken.sol:DoppleSyntheticToken",
        "label": "_paused",
        "offset": 0,
        "slot": "201",
        "type": "t_bool"
      },
      {
        "astId": 5252,
        "contract": "contracts/DoppleSyntheticToken.sol:DoppleSyntheticToken",
        "label": "__gap",
        "offset": 0,
        "slot": "202",
        "type": "t_array(t_uint256)49_storage"
      }
    ],
    "types": {
      "t_address": {
        "encoding": "inplace",
        "label": "address",
        "numberOfBytes": "20"
      },
      "t_array(t_uint256)44_storage": {
        "base": "t_uint256",
        "encoding": "inplace",
        "label": "uint256[44]",
        "numberOfBytes": "1408"
      },
      "t_array(t_uint256)49_storage": {
        "base": "t_uint256",
        "encoding": "inplace",
        "label": "uint256[49]",
        "numberOfBytes": "1568"
      },
      "t_array(t_uint256)50_storage": {
        "base": "t_uint256",
        "encoding": "inplace",
        "label": "uint256[50]",
        "numberOfBytes": "1600"
      },
      "t_bool": {
        "encoding": "inplace",
        "label": "bool",
        "numberOfBytes": "1"
      },
      "t_mapping(t_address,t_mapping(t_address,t_uint256))": {
        "encoding": "mapping",
        "key": "t_address",
        "label": "mapping(address => mapping(address => uint256))",
        "numberOfBytes": "32",
        "value": "t_mapping(t_address,t_uint256)"
      },
      "t_mapping(t_address,t_uint256)": {
        "encoding": "mapping",
        "key": "t_address",
        "label": "mapping(address => uint256)",
        "numberOfBytes": "32",
        "value": "t_uint256"
      },
      "t_string_storage": {
        "encoding": "bytes",
        "label": "string",
        "numberOfBytes": "32"
      },
      "t_uint256": {
        "encoding": "inplace",
        "label": "uint256",
        "numberOfBytes": "32"
      },
      "t_uint8": {
        "encoding": "inplace",
        "label": "uint8",
        "numberOfBytes": "1"
      }
    }
  }
}