{
  "address": "0xD2f944c3Cc22072565acB5cB2f7aA8212908003C",
  "abi": [
    {
      "inputs": [
        {
          "internalType": "address",
          "name": "_libraryAddress",
          "type": "address"
        }
      ],
      "stateMutability": "nonpayable",
      "type": "constructor"
    },
    {
      "anonymous": false,
      "inputs": [
        {
          "indexed": true,
          "internalType": "address",
          "name": "previousOwner",
          "type": "address"
        },
        {
          "indexed": true,
          "internalType": "address",
          "name": "newOwner",
          "type": "address"
        }
      ],
      "name": "OwnershipTransferred",
      "type": "event"
    },
    {
      "anonymous": false,
      "inputs": [
        {
          "indexed": false,
          "internalType": "address",
          "name": "syntheticTokenAddress",
          "type": "address"
        },
        {
          "indexed": false,
          "internalType": "string",
          "name": "symbol",
          "type": "string"
        }
      ],
      "name": "SyntheticTokenCreated",
      "type": "event"
    },
    {
      "inputs": [
        {
          "internalType": "string",
          "name": "",
          "type": "string"
        }
      ],
      "name": "cloned",
      "outputs": [
        {
          "internalType": "address",
          "name": "",
          "type": "address"
        }
      ],
      "stateMutability": "view",
      "type": "function"
    },
    {
      "inputs": [],
      "name": "clonedCount",
      "outputs": [
        {
          "internalType": "uint16",
          "name": "",
          "type": "uint16"
        }
      ],
      "stateMutability": "view",
      "type": "function"
    },
    {
      "inputs": [
        {
          "internalType": "string",
          "name": "_name",
          "type": "string"
        },
        {
          "internalType": "string",
          "name": "_symbol",
          "type": "string"
        },
        {
          "internalType": "address",
          "name": "_owner",
          "type": "address"
        },
        {
          "internalType": "address",
          "name": "_synthetic",
          "type": "address"
        }
      ],
      "name": "createSyntheticToken",
      "outputs": [],
      "stateMutability": "nonpayable",
      "type": "function"
    },
    {
      "inputs": [],
      "name": "libraryAddress",
      "outputs": [
        {
          "internalType": "address",
          "name": "",
          "type": "address"
        }
      ],
      "stateMutability": "view",
      "type": "function"
    },
    {
      "inputs": [],
      "name": "owner",
      "outputs": [
        {
          "internalType": "address",
          "name": "",
          "type": "address"
        }
      ],
      "stateMutability": "view",
      "type": "function"
    },
    {
      "inputs": [
        {
          "internalType": "string",
          "name": "_symbol",
          "type": "string"
        }
      ],
      "name": "pauseAndRemoveCloned",
      "outputs": [],
      "stateMutability": "nonpayable",
      "type": "function"
    },
    {
      "inputs": [],
      "name": "renounceOwnership",
      "outputs": [],
      "stateMutability": "nonpayable",
      "type": "function"
    },
    {
      "inputs": [
        {
          "internalType": "address",
          "name": "newOwner",
          "type": "address"
        }
      ],
      "name": "transferOwnership",
      "outputs": [],
      "stateMutability": "nonpayable",
      "type": "function"
    }
  ],
  "transactionHash": "0x3b3328be58ee1bafb0f889fbfe8138fbdcaf4c4e89e1a1ab845e68c7816a36e9",
  "args": [
    "0xe973CBf1b49d1A6c0939291C77F6423FF2426d84"
  ],
  "solcInputHash": "0cdbf1010803873a79e02f7b1e4e9b81",
  "bytecode": "0x60a060405234801561001057600080fd5b50604051610ddc380380610ddc8339818101604052602081101561003357600080fd5b5051600061003f61009e565b600080546001600160a01b0319166001600160a01b0383169081178255604051929350917f8be0079c531659141344cd1fd0a4f28419497f9722a3daafe3b4186f6b6457e0908290a35060601b6001600160601b0319166080526100a2565b3390565b60805160601c610d186100c4600039806107625280610a625250610d186000f3fe608060405234801561001057600080fd5b50600436106100885760003560e01c80638da5cb5b1161005b5780638da5cb5b1461021a578063acdcc13714610222578063b816f51314610361578063f2fde38b1461036957610088565b806337938efd1461008d5780636e95d9c11461014d5780636ef006891461016c578063715018a614610212575b600080fd5b610131600480360360208110156100a357600080fd5b810190602081018135600160201b8111156100bd57600080fd5b8201836020820111156100cf57600080fd5b803590602001918460018302840111600160201b831117156100f057600080fd5b91908080601f01602080910402602001604051908101604052809392919081815260200183838082843760009201919091525092955061038f945050505050565b604080516001600160a01b039092168252519081900360200190f35b6101556103b5565b6040805161ffff9092168252519081900360200190f35b6102106004803603602081101561018257600080fd5b810190602081018135600160201b81111561019c57600080fd5b8201836020820111156101ae57600080fd5b803590602001918460018302840111600160201b831117156101cf57600080fd5b91908080601f0160208091040260200160405190810160405280939291908181526020018383808284376000920191909152509295506103bf945050505050565b005b610210610652565b6101316106f4565b6102106004803603608081101561023857600080fd5b810190602081018135600160201b81111561025257600080fd5b82018360208201111561026457600080fd5b803590602001918460018302840111600160201b8311171561028557600080fd5b91908080601f0160208091040260200160405190810160405280939291908181526020018383808284376000920191909152509295949360208101935035915050600160201b8111156102d757600080fd5b8201836020820111156102e957600080fd5b803590602001918460018302840111600160201b8311171561030a57600080fd5b91908080601f016020809104026020016040519081016040528093929190818152602001838380828437600092019190915250929550506001600160a01b0383358116945060209093013590921691506107039050565b610131610a60565b6102106004803603602081101561037f57600080fd5b50356001600160a01b0316610a84565b80516020818301810180516001825292820191909301209152546001600160a01b031681565b60025461ffff1681565b6103c7610b7c565b6000546001600160a01b03908116911614610417576040805162461bcd60e51b81526020600482018190526024820152600080516020610c7c833981519152604482015290519081900360640190fd5b60006001600160a01b03166001826040518082805190602001908083835b602083106104545780518252601f199092019160209182019101610435565b51815160209384036101000a60001901801990921691161790529201948552506040519384900301909220546001600160a01b0316929092141591506104cd90505760405162461bcd60e51b815260040180806020018281038252603b815260200180610bf9603b913960400191505060405180910390fd5b60025461ffff1661050f5760405162461bcd60e51b8152600401808060200182810382526048815260200180610c346048913960600191505060405180910390fd5b6002805461ffff19811661ffff9182166000190190911617905560405181516001918391819060208401908083835b6020831061055d5780518252601f19909201916020918201910161053e565b51815160209384036101000a60001901801990921691161790529201948552506040805194859003909101842054638456cb5960e01b855290516001600160a01b0390911693638456cb599350600480820193506000929182900301818387803b1580156105ca57600080fd5b505af11580156105de573d6000803e3d6000fd5b505050506001816040518082805190602001908083835b602083106106145780518252601f1990920191602091820191016105f5565b51815160209384036101000a6000190180199092169116179052920194855250604051938490030190922080546001600160a01b0319169055505050565b61065a610b7c565b6000546001600160a01b039081169116146106aa576040805162461bcd60e51b81526020600482018190526024820152600080516020610c7c833981519152604482015290519081900360640190fd5b600080546040516001600160a01b03909116907f8be0079c531659141344cd1fd0a4f28419497f9722a3daafe3b4186f6b6457e0908390a3600080546001600160a01b0319169055565b6000546001600160a01b031690565b61070b610b7c565b6000546001600160a01b0390811691161461075b576040805162461bcd60e51b81526020600482018190526024820152600080516020610c7c833981519152604482015290519081900360640190fd5b60006107867f0000000000000000000000000000000000000000000000000000000000000000610b80565b9050806001600160a01b0316638f15b414868686866040518563ffffffff1660e01b8152600401808060200180602001856001600160a01b03168152602001846001600160a01b03168152602001838103835287818151815260200191508051906020019080838360005b838110156108095781810151838201526020016107f1565b50505050905090810190601f1680156108365780820380516001836020036101000a031916815260200191505b50838103825286518152865160209182019188019080838360005b83811015610869578181015183820152602001610851565b50505050905090810190601f1680156108965780820380516001836020036101000a031916815260200191505b509650505050505050600060405180830381600087803b1580156108b957600080fd5b505af11580156108cd573d6000803e3d6000fd5b50505050806001856040518082805190602001908083835b602083106109045780518252601f1990920191602091820191016108e5565b51815160209384036101000a6000190180199092169116179052920194855250604051938490030190922080546001600160a01b0319166001600160a01b039490941693909317909255505060025461ffff908116106109955760405162461bcd60e51b8152600401808060200182810382526047815260200180610c9c6047913960600191505060405180910390fd5b6002805461ffff8082166001011661ffff19909116179055604080516001600160a01b0383168152602080820183815287519383019390935286517f816dbe9ba67587cf85807712c4f7d4b8c4edd097b2d199147e6703c17e34783493859389939092606084019185019080838360005b83811015610a1e578181015183820152602001610a06565b50505050905090810190601f168015610a4b5780820380516001836020036101000a031916815260200191505b50935050505060405180910390a15050505050565b7f000000000000000000000000000000000000000000000000000000000000000081565b610a8c610b7c565b6000546001600160a01b03908116911614610adc576040805162461bcd60e51b81526020600482018190526024820152600080516020610c7c833981519152604482015290519081900360640190fd5b6001600160a01b038116610b215760405162461bcd60e51b8152600401808060200182810382526026815260200180610bd36026913960400191505060405180910390fd5b600080546040516001600160a01b03808516939216917f8be0079c531659141344cd1fd0a4f28419497f9722a3daafe3b4186f6b6457e091a3600080546001600160a01b0319166001600160a01b0392909216919091179055565b3390565b6000808260601b9050604051733d602d80600a3d3981f3363d3d373d3d3d363d7360601b81528160148201526e5af43d82803e903d91602b57fd5bf360881b60288201526037816000f094935050505056fe4f776e61626c653a206e6577206f776e657220697320746865207a65726f2061646472657373446f70706c6553796e746865746963546f6b656e466163746f72793a3a72656d6f7665436c6f6e65643a2073796d626f6c206e6f7420666f756e64446f70706c6553796e746865746963546f6b656e466163746f72793a3a63726561746553796e746865746963546f6b656e3a20636c6f6e6564436f756e7420756e646572666c6f774f776e61626c653a2063616c6c6572206973206e6f7420746865206f776e6572446f70706c6553796e746865746963546f6b656e466163746f72793a3a63726561746553796e746865746963546f6b656e3a20636c6f6e6564436f756e74206f766572666c6f77a2646970667358221220ac8cfca9f48009f72b4afc24994ed79ea531cab46e8ba0202f88f60c280881d964736f6c634300060c0033",
  "devdoc": {
    "kind": "dev",
    "methods": {
      "owner()": {
        "details": "Returns the address of the current owner."
      },
      "renounceOwnership()": {
        "details": "Leaves the contract without owner. It will not be possible to call `onlyOwner` functions anymore. Can only be called by the current owner. NOTE: Renouncing ownership will leave the contract without an owner, thereby removing any functionality that is only available to the owner."
      },
      "transferOwnership(address)": {
        "details": "Transfers ownership of the contract to a new account (`newOwner`). Can only be called by the current owner."
      }
    },
    "version": 1
  },
  "userdoc": {
    "kind": "user",
    "methods": {},
    "version": 1
  },
  "storageLayout": {
    "storage": [
      {
        "astId": 2171,
        "contract": "contracts/DoppleSyntheticTokenFactory.sol:DoppleSyntheticTokenFactory",
        "label": "_owner",
        "offset": 0,
        "slot": "0",
        "type": "t_address"
      },
      {
        "astId": 292,
        "contract": "contracts/DoppleSyntheticTokenFactory.sol:DoppleSyntheticTokenFactory",
        "label": "cloned",
        "offset": 0,
        "slot": "1",
        "type": "t_mapping(t_string_memory_ptr,t_address)"
      },
      {
        "astId": 294,
        "contract": "contracts/DoppleSyntheticTokenFactory.sol:DoppleSyntheticTokenFactory",
        "label": "clonedCount",
        "offset": 0,
        "slot": "2",
        "type": "t_uint16"
      }
    ],
    "types": {
      "t_address": {
        "encoding": "inplace",
        "label": "address",
        "numberOfBytes": "20"
      },
      "t_mapping(t_string_memory_ptr,t_address)": {
        "encoding": "mapping",
        "key": "t_string_memory_ptr",
        "label": "mapping(string => address)",
        "numberOfBytes": "32",
        "value": "t_address"
      },
      "t_string_memory_ptr": {
        "encoding": "bytes",
        "label": "string",
        "numberOfBytes": "32"
      },
      "t_uint16": {
        "encoding": "inplace",
        "label": "uint16",
        "numberOfBytes": "2"
      }
    }
  }
}