{
  "address": "0xa9EF605E15256a2E33Fb224CcA71785C256cB22C",
  "abi": [
    {
      "inputs": [
        {
          "internalType": "address",
          "name": "_libraryAddress",
          "type": "address"
        }
      ],
      "stateMutability": "nonpayable",
      "type": "constructor"
    },
    {
      "anonymous": false,
      "inputs": [
        {
          "indexed": true,
          "internalType": "address",
          "name": "previousOwner",
          "type": "address"
        },
        {
          "indexed": true,
          "internalType": "address",
          "name": "newOwner",
          "type": "address"
        }
      ],
      "name": "OwnershipTransferred",
      "type": "event"
    },
    {
      "anonymous": false,
      "inputs": [
        {
          "indexed": false,
          "internalType": "address",
          "name": "syntheticTokenAddress",
          "type": "address"
        }
      ],
      "name": "SyntheticTokenCreated",
      "type": "event"
    },
    {
      "inputs": [
        {
          "internalType": "string",
          "name": "_name",
          "type": "string"
        },
        {
          "internalType": "string",
          "name": "_symbol",
          "type": "string"
        },
        {
          "internalType": "address",
          "name": "_owner",
          "type": "address"
        }
      ],
      "name": "createSyntheticToken",
      "outputs": [],
      "stateMutability": "nonpayable",
      "type": "function"
    },
    {
      "inputs": [],
      "name": "libraryAddress",
      "outputs": [
        {
          "internalType": "address",
          "name": "",
          "type": "address"
        }
      ],
      "stateMutability": "view",
      "type": "function"
    },
    {
      "inputs": [],
      "name": "owner",
      "outputs": [
        {
          "internalType": "address",
          "name": "",
          "type": "address"
        }
      ],
      "stateMutability": "view",
      "type": "function"
    },
    {
      "inputs": [],
      "name": "renounceOwnership",
      "outputs": [],
      "stateMutability": "nonpayable",
      "type": "function"
    },
    {
      "inputs": [
        {
          "internalType": "address",
          "name": "_libraryAddress",
          "type": "address"
        }
      ],
      "name": "setLibraryAddress",
      "outputs": [],
      "stateMutability": "nonpayable",
      "type": "function"
    },
    {
      "inputs": [
        {
          "internalType": "address",
          "name": "newOwner",
          "type": "address"
        }
      ],
      "name": "transferOwnership",
      "outputs": [],
      "stateMutability": "nonpayable",
      "type": "function"
    }
  ],
  "transactionHash": "0x02b6f6a294484ed068e620d9a67e1a8d41623e725bd9003f4627b4b03382c2b9",
  "args": [
    "0xcBC80Eb06B46D53fce77Fe76159F9948EE28f390"
  ],
  "solcInputHash": "1cd581000a943065c927402552ce302d",
  "bytecode": "0x608060405234801561001057600080fd5b506040516107d33803806107d38339818101604052602081101561003357600080fd5b5051600061003f6100ae565b600080546001600160a01b0319166001600160a01b0383169081178255604051929350917f8be0079c531659141344cd1fd0a4f28419497f9722a3daafe3b4186f6b6457e0908290a350600180546001600160a01b0319166001600160a01b03929092169190911790556100b2565b3390565b610712806100c16000396000f3fe608060405234801561001057600080fd5b50600436106100625760003560e01c80634863ba1714610067578063540638631461008f578063715018a6146101c75780638da5cb5b146101cf578063b816f513146101f3578063f2fde38b146101fb575b600080fd5b61008d6004803603602081101561007d57600080fd5b50356001600160a01b0316610221565b005b61008d600480360360608110156100a557600080fd5b8101906020810181356401000000008111156100c057600080fd5b8201836020820111156100d257600080fd5b803590602001918460018302840111640100000000831117156100f457600080fd5b91908080601f016020809104026020016040519081016040528093929190818152602001838380828437600092019190915250929594936020810193503591505064010000000081111561014757600080fd5b82018360208201111561015957600080fd5b8035906020019184600183028401116401000000008311171561017b57600080fd5b91908080601f016020809104026020016040519081016040528093929190818152602001838380828437600092019190915250929550505090356001600160a01b0316915061029b9050565b61008d610488565b6101d761052a565b604080516001600160a01b039092168252519081900360200190f35b6101d7610539565b61008d6004803603602081101561021157600080fd5b50356001600160a01b0316610548565b610229610640565b6000546001600160a01b03908116911614610279576040805162461bcd60e51b815260206004820181905260248201526000805160206106bd833981519152604482015290519081900360640190fd5b600180546001600160a01b0319166001600160a01b0392909216919091179055565b6102a3610640565b6000546001600160a01b039081169116146102f3576040805162461bcd60e51b815260206004820181905260248201526000805160206106bd833981519152604482015290519081900360640190fd5b60015460009061030b906001600160a01b0316610644565b9050806001600160a01b031663077f224a8585856040518463ffffffff1660e01b8152600401808060200180602001846001600160a01b03168152602001838103835286818151815260200191508051906020019080838360005b8381101561037e578181015183820152602001610366565b50505050905090810190601f1680156103ab5780820380516001836020036101000a031916815260200191505b50838103825285518152855160209182019187019080838360005b838110156103de5781810151838201526020016103c6565b50505050905090810190601f16801561040b5780820380516001836020036101000a031916815260200191505b5095505050505050600060405180830381600087803b15801561042d57600080fd5b505af1158015610441573d6000803e3d6000fd5b5050604080516001600160a01b038516815290517f51f9f83e007687f536e67d51ca84cd411e0d7363ba959838de3456bd5b9690d19350908190036020019150a150505050565b610490610640565b6000546001600160a01b039081169116146104e0576040805162461bcd60e51b815260206004820181905260248201526000805160206106bd833981519152604482015290519081900360640190fd5b600080546040516001600160a01b03909116907f8be0079c531659141344cd1fd0a4f28419497f9722a3daafe3b4186f6b6457e0908390a3600080546001600160a01b0319169055565b6000546001600160a01b031690565b6001546001600160a01b031681565b610550610640565b6000546001600160a01b039081169116146105a0576040805162461bcd60e51b815260206004820181905260248201526000805160206106bd833981519152604482015290519081900360640190fd5b6001600160a01b0381166105e55760405162461bcd60e51b81526004018080602001828103825260268152602001806106976026913960400191505060405180910390fd5b600080546040516001600160a01b03808516939216917f8be0079c531659141344cd1fd0a4f28419497f9722a3daafe3b4186f6b6457e091a3600080546001600160a01b0319166001600160a01b0392909216919091179055565b3390565b6000808260601b9050604051733d602d80600a3d3981f3363d3d373d3d3d363d7360601b81528160148201526e5af43d82803e903d91602b57fd5bf360881b60288201526037816000f094935050505056fe4f776e61626c653a206e6577206f776e657220697320746865207a65726f20616464726573734f776e61626c653a2063616c6c6572206973206e6f7420746865206f776e6572a2646970667358221220ae8484cb791ac05f426fd736c74cca0c5ecf1baba9927b447b13bedc9548b60064736f6c634300060c0033",
  "devdoc": {
    "kind": "dev",
    "methods": {
      "owner()": {
        "details": "Returns the address of the current owner."
      },
      "renounceOwnership()": {
        "details": "Leaves the contract without owner. It will not be possible to call `onlyOwner` functions anymore. Can only be called by the current owner. NOTE: Renouncing ownership will leave the contract without an owner, thereby removing any functionality that is only available to the owner."
      },
      "transferOwnership(address)": {
        "details": "Transfers ownership of the contract to a new account (`newOwner`). Can only be called by the current owner."
      }
    },
    "version": 1
  },
  "userdoc": {
    "kind": "user",
    "methods": {},
    "version": 1
  },
  "storageLayout": {
    "storage": [
      {
        "astId": 2045,
        "contract": "contracts/DoppleSyntheticTokenFactory.sol:DoppleSyntheticTokenFactory",
        "label": "_owner",
        "offset": 0,
        "slot": "0",
        "type": "t_address"
      },
      {
        "astId": 222,
        "contract": "contracts/DoppleSyntheticTokenFactory.sol:DoppleSyntheticTokenFactory",
        "label": "libraryAddress",
        "offset": 0,
        "slot": "1",
        "type": "t_address"
      }
    ],
    "types": {
      "t_address": {
        "encoding": "inplace",
        "label": "address",
        "numberOfBytes": "20"
      }
    }
  }
}