{
  "address": "0xcBC80Eb06B46D53fce77Fe76159F9948EE28f390",
  "abi": [
    {
      "anonymous": false,
      "inputs": [
        {
          "indexed": true,
          "internalType": "address",
          "name": "owner",
          "type": "address"
        },
        {
          "indexed": true,
          "internalType": "address",
          "name": "spender",
          "type": "address"
        },
        {
          "indexed": false,
          "internalType": "uint256",
          "name": "value",
          "type": "uint256"
        }
      ],
      "name": "Approval",
      "type": "event"
    },
    {
      "anonymous": false,
      "inputs": [
        {
          "indexed": true,
          "internalType": "address",
          "name": "previousOwner",
          "type": "address"
        },
        {
          "indexed": true,
          "internalType": "address",
          "name": "newOwner",
          "type": "address"
        }
      ],
      "name": "OwnershipTransferred",
      "type": "event"
    },
    {
      "anonymous": false,
      "inputs": [
        {
          "indexed": true,
          "internalType": "address",
          "name": "from",
          "type": "address"
        },
        {
          "indexed": true,
          "internalType": "address",
          "name": "to",
          "type": "address"
        },
        {
          "indexed": false,
          "internalType": "uint256",
          "name": "value",
          "type": "uint256"
        }
      ],
      "name": "Transfer",
      "type": "event"
    },
    {
      "inputs": [
        {
          "internalType": "address",
          "name": "owner",
          "type": "address"
        },
        {
          "internalType": "address",
          "name": "spender",
          "type": "address"
        }
      ],
      "name": "allowance",
      "outputs": [
        {
          "internalType": "uint256",
          "name": "",
          "type": "uint256"
        }
      ],
      "stateMutability": "view",
      "type": "function"
    },
    {
      "inputs": [
        {
          "internalType": "address",
          "name": "spender",
          "type": "address"
        },
        {
          "internalType": "uint256",
          "name": "amount",
          "type": "uint256"
        }
      ],
      "name": "approve",
      "outputs": [
        {
          "internalType": "bool",
          "name": "",
          "type": "bool"
        }
      ],
      "stateMutability": "nonpayable",
      "type": "function"
    },
    {
      "inputs": [
        {
          "internalType": "address",
          "name": "account",
          "type": "address"
        }
      ],
      "name": "balanceOf",
      "outputs": [
        {
          "internalType": "uint256",
          "name": "",
          "type": "uint256"
        }
      ],
      "stateMutability": "view",
      "type": "function"
    },
    {
      "inputs": [
        {
          "internalType": "uint256",
          "name": "amount",
          "type": "uint256"
        }
      ],
      "name": "burn",
      "outputs": [],
      "stateMutability": "nonpayable",
      "type": "function"
    },
    {
      "inputs": [
        {
          "internalType": "address",
          "name": "account",
          "type": "address"
        },
        {
          "internalType": "uint256",
          "name": "amount",
          "type": "uint256"
        }
      ],
      "name": "burnFrom",
      "outputs": [],
      "stateMutability": "nonpayable",
      "type": "function"
    },
    {
      "inputs": [],
      "name": "decimals",
      "outputs": [
        {
          "internalType": "uint8",
          "name": "",
          "type": "uint8"
        }
      ],
      "stateMutability": "view",
      "type": "function"
    },
    {
      "inputs": [
        {
          "internalType": "address",
          "name": "spender",
          "type": "address"
        },
        {
          "internalType": "uint256",
          "name": "subtractedValue",
          "type": "uint256"
        }
      ],
      "name": "decreaseAllowance",
      "outputs": [
        {
          "internalType": "bool",
          "name": "",
          "type": "bool"
        }
      ],
      "stateMutability": "nonpayable",
      "type": "function"
    },
    {
      "inputs": [
        {
          "internalType": "address",
          "name": "spender",
          "type": "address"
        },
        {
          "internalType": "uint256",
          "name": "addedValue",
          "type": "uint256"
        }
      ],
      "name": "increaseAllowance",
      "outputs": [
        {
          "internalType": "bool",
          "name": "",
          "type": "bool"
        }
      ],
      "stateMutability": "nonpayable",
      "type": "function"
    },
    {
      "inputs": [
        {
          "internalType": "string",
          "name": "_name",
          "type": "string"
        },
        {
          "internalType": "string",
          "name": "_symbol",
          "type": "string"
        },
        {
          "internalType": "address",
          "name": "_owner",
          "type": "address"
        }
      ],
      "name": "initialize",
      "outputs": [],
      "stateMutability": "nonpayable",
      "type": "function"
    },
    {
      "inputs": [
        {
          "internalType": "address",
          "name": "account",
          "type": "address"
        },
        {
          "internalType": "uint256",
          "name": "amount",
          "type": "uint256"
        }
      ],
      "name": "mint",
      "outputs": [],
      "stateMutability": "nonpayable",
      "type": "function"
    },
    {
      "inputs": [],
      "name": "name",
      "outputs": [
        {
          "internalType": "string",
          "name": "",
          "type": "string"
        }
      ],
      "stateMutability": "view",
      "type": "function"
    },
    {
      "inputs": [],
      "name": "owner",
      "outputs": [
        {
          "internalType": "address",
          "name": "",
          "type": "address"
        }
      ],
      "stateMutability": "view",
      "type": "function"
    },
    {
      "inputs": [],
      "name": "renounceOwnership",
      "outputs": [],
      "stateMutability": "nonpayable",
      "type": "function"
    },
    {
      "inputs": [],
      "name": "symbol",
      "outputs": [
        {
          "internalType": "string",
          "name": "",
          "type": "string"
        }
      ],
      "stateMutability": "view",
      "type": "function"
    },
    {
      "inputs": [],
      "name": "totalSupply",
      "outputs": [
        {
          "internalType": "uint256",
          "name": "",
          "type": "uint256"
        }
      ],
      "stateMutability": "view",
      "type": "function"
    },
    {
      "inputs": [
        {
          "internalType": "address",
          "name": "recipient",
          "type": "address"
        },
        {
          "internalType": "uint256",
          "name": "amount",
          "type": "uint256"
        }
      ],
      "name": "transfer",
      "outputs": [
        {
          "internalType": "bool",
          "name": "",
          "type": "bool"
        }
      ],
      "stateMutability": "nonpayable",
      "type": "function"
    },
    {
      "inputs": [
        {
          "internalType": "address",
          "name": "sender",
          "type": "address"
        },
        {
          "internalType": "address",
          "name": "recipient",
          "type": "address"
        },
        {
          "internalType": "uint256",
          "name": "amount",
          "type": "uint256"
        }
      ],
      "name": "transferFrom",
      "outputs": [
        {
          "internalType": "bool",
          "name": "",
          "type": "bool"
        }
      ],
      "stateMutability": "nonpayable",
      "type": "function"
    },
    {
      "inputs": [
        {
          "internalType": "address",
          "name": "newOwner",
          "type": "address"
        }
      ],
      "name": "transferOwnership",
      "outputs": [],
      "stateMutability": "nonpayable",
      "type": "function"
    }
  ],
  "transactionHash": "0x2c6fc23609b3c551c39d121d44f87d3cb11c34ce09b0e6b92024b7fb918234f0",
  "args": [],
  "solcInputHash": "1cd581000a943065c927402552ce302d",
  "bytecode": "0x608060405234801561001057600080fd5b50611555806100206000396000f3fe608060405234801561001057600080fd5b50600436106101165760003560e01c806370a08231116100a257806395d89b411161007157806395d89b4114610473578063a457c2d71461047b578063a9059cbb146104a7578063dd62ed3e146104d3578063f2fde38b1461050157610116565b806370a08231146103f5578063715018a61461041b57806379cc6790146104235780638da5cb5b1461044f57610116565b806323b872dd116100e957806323b872dd1461032c578063313ce56714610362578063395093511461038057806340c10f19146103ac57806342966c68146103d857610116565b806306fdde031461011b578063077f224a14610198578063095ea7b3146102d257806318160ddd14610312575b600080fd5b610123610527565b6040805160208082528351818301528351919283929083019185019080838360005b8381101561015d578181015183820152602001610145565b50505050905090810190601f16801561018a5780820380516001836020036101000a031916815260200191505b509250505060405180910390f35b6102d0600480360360608110156101ae57600080fd5b8101906020810181356401000000008111156101c957600080fd5b8201836020820111156101db57600080fd5b803590602001918460018302840111640100000000831117156101fd57600080fd5b91908080601f016020809104026020016040519081016040528093929190818152602001838380828437600092019190915250929594936020810193503591505064010000000081111561025057600080fd5b82018360208201111561026257600080fd5b8035906020019184600183028401116401000000008311171561028457600080fd5b91908080601f016020809104026020016040519081016040528093929190818152602001838380828437600092019190915250929550505090356001600160a01b031691506105bd9050565b005b6102fe600480360360408110156102e857600080fd5b506001600160a01b03813516906020013561067d565b604080519115158252519081900360200190f35b61031a61069a565b60408051918252519081900360200190f35b6102fe6004803603606081101561034257600080fd5b506001600160a01b038135811691602081013590911690604001356106a0565b61036a610727565b6040805160ff9092168252519081900360200190f35b6102fe6004803603604081101561039657600080fd5b506001600160a01b038135169060200135610730565b6102d0600480360360408110156103c257600080fd5b506001600160a01b03813516906020013561077e565b6102d0600480360360208110156103ee57600080fd5b5035610800565b61031a6004803603602081101561040b57600080fd5b50356001600160a01b0316610814565b6102d061082f565b6102d06004803603604081101561043957600080fd5b506001600160a01b0381351690602001356108ed565b610457610947565b604080516001600160a01b039092168252519081900360200190f35b610123610956565b6102fe6004803603604081101561049157600080fd5b506001600160a01b0381351690602001356109b7565b6102fe600480360360408110156104bd57600080fd5b506001600160a01b038135169060200135610a1f565b61031a600480360360408110156104e957600080fd5b506001600160a01b0381358116916020013516610a33565b6102d06004803603602081101561051757600080fd5b50356001600160a01b0316610a5e565b60688054604080516020601f60026000196101006001881615020190951694909404938401819004810282018101909252828152606093909290918301828280156105b35780601f10610588576101008083540402835291602001916105b3565b820191906000526020600020905b81548152906001019060200180831161059657829003601f168201915b5050505050905090565b600054610100900460ff16806105d657506105d6610b73565b806105e4575060005460ff16155b61061f5760405162461bcd60e51b815260040180806020018281038252602e815260200180611417602e913960400191505060405180910390fd5b600054610100900460ff1615801561064a576000805460ff1961ff0019909116610100171660011790555b610652610b84565b61065b82610a5e565b6106658484610c7d565b8015610677576000805461ff00191690555b50505050565b600061069161068a610d55565b8484610d59565b50600192915050565b60675490565b60006106ad848484610e45565b61071d846106b9610d55565b61071885604051806060016040528060288152602001611445602891396001600160a01b038a166000908152606660205260408120906106f7610d55565b6001600160a01b031681526020810191909152604001600020549190610fa2565b610d59565b5060019392505050565b606a5460ff1690565b600061069161073d610d55565b84610718856066600061074e610d55565b6001600160a01b03908116825260208083019390935260409182016000908120918c168152925290205490611039565b610786610d55565b6001600160a01b0316610797610947565b6001600160a01b0316146107f2576040805162461bcd60e51b815260206004820181905260248201527f4f776e61626c653a2063616c6c6572206973206e6f7420746865206f776e6572604482015290519081900360640190fd5b6107fc828261109a565b5050565b61081161080b610d55565b8261118c565b50565b6001600160a01b031660009081526065602052604090205490565b610837610d55565b6001600160a01b0316610848610947565b6001600160a01b0316146108a3576040805162461bcd60e51b815260206004820181905260248201527f4f776e61626c653a2063616c6c6572206973206e6f7420746865206f776e6572604482015290519081900360640190fd5b6033546040516000916001600160a01b0316907f8be0079c531659141344cd1fd0a4f28419497f9722a3daafe3b4186f6b6457e0908390a3603380546001600160a01b0319169055565b60006109248260405180606001604052806024815260200161146d6024913961091d86610918610d55565b610a33565b9190610fa2565b905061093883610932610d55565b83610d59565b610942838361118c565b505050565b6033546001600160a01b031690565b60698054604080516020601f60026000196101006001881615020190951694909404938401819004810282018101909252828152606093909290918301828280156105b35780601f10610588576101008083540402835291602001916105b3565b60006106916109c4610d55565b84610718856040518060600160405280602581526020016114fb60259139606660006109ee610d55565b6001600160a01b03908116825260208083019390935260409182016000908120918d16815292529020549190610fa2565b6000610691610a2c610d55565b8484610e45565b6001600160a01b03918216600090815260666020908152604080832093909416825291909152205490565b610a66610d55565b6001600160a01b0316610a77610947565b6001600160a01b031614610ad2576040805162461bcd60e51b815260206004820181905260248201527f4f776e61626c653a2063616c6c6572206973206e6f7420746865206f776e6572604482015290519081900360640190fd5b6001600160a01b038116610b175760405162461bcd60e51b81526004018080602001828103825260268152602001806113a96026913960400191505060405180910390fd5b6033546040516001600160a01b038084169216907f8be0079c531659141344cd1fd0a4f28419497f9722a3daafe3b4186f6b6457e090600090a3603380546001600160a01b0319166001600160a01b0392909216919091179055565b6000610b7e30611288565b15905090565b600054610100900460ff1680610b9d5750610b9d610b73565b80610bab575060005460ff16155b610be65760405162461bcd60e51b815260040180806020018281038252602e815260200180611417602e913960400191505060405180910390fd5b600054610100900460ff16158015610c11576000805460ff1961ff0019909116610100171660011790555b6000610c1b610d55565b603380546001600160a01b0319166001600160a01b038316908117909155604051919250906000907f8be0079c531659141344cd1fd0a4f28419497f9722a3daafe3b4186f6b6457e0908290a3508015610811576000805461ff001916905550565b600054610100900460ff1680610c965750610c96610b73565b80610ca4575060005460ff16155b610cdf5760405162461bcd60e51b815260040180806020018281038252602e815260200180611417602e913960400191505060405180910390fd5b600054610100900460ff16158015610d0a576000805460ff1961ff0019909116610100171660011790555b8251610d1d9060689060208601906112d0565b508151610d319060699060208501906112d0565b50606a805460ff191660121790558015610942576000805461ff0019169055505050565b3390565b6001600160a01b038316610d9e5760405162461bcd60e51b81526004018080602001828103825260248152602001806114d76024913960400191505060405180910390fd5b6001600160a01b038216610de35760405162461bcd60e51b81526004018080602001828103825260228152602001806113cf6022913960400191505060405180910390fd5b6001600160a01b03808416600081815260666020908152604080832094871680845294825291829020859055815185815291517f8c5be1e5ebec7d5bd14f71427d1e84f3dd0314c0f7b2291e5b200ac8c7c3b9259281900390910190a3505050565b6001600160a01b038316610e8a5760405162461bcd60e51b81526004018080602001828103825260258152602001806114b26025913960400191505060405180910390fd5b6001600160a01b038216610ecf5760405162461bcd60e51b81526004018080602001828103825260238152602001806113646023913960400191505060405180910390fd5b610eda838383610942565b610f17816040518060600160405280602681526020016113f1602691396001600160a01b0386166000908152606560205260409020549190610fa2565b6001600160a01b038085166000908152606560205260408082209390935590841681522054610f469082611039565b6001600160a01b0380841660008181526065602090815260409182902094909455805185815290519193928716927fddf252ad1be2c89b69c2b068fc378daa952ba7f163c4a11628f55a4df523b3ef92918290030190a3505050565b600081848411156110315760405162461bcd60e51b81526004018080602001828103825283818151815260200191508051906020019080838360005b83811015610ff6578181015183820152602001610fde565b50505050905090810190601f1680156110235780820380516001836020036101000a031916815260200191505b509250505060405180910390fd5b505050900390565b600082820183811015611093576040805162461bcd60e51b815260206004820152601b60248201527f536166654d6174683a206164646974696f6e206f766572666c6f770000000000604482015290519081900360640190fd5b9392505050565b6001600160a01b0382166110f5576040805162461bcd60e51b815260206004820152601f60248201527f45524332303a206d696e7420746f20746865207a65726f206164647265737300604482015290519081900360640190fd5b61110160008383610942565b60675461110e9082611039565b6067556001600160a01b0382166000908152606560205260409020546111349082611039565b6001600160a01b03831660008181526065602090815260408083209490945583518581529351929391927fddf252ad1be2c89b69c2b068fc378daa952ba7f163c4a11628f55a4df523b3ef9281900390910190a35050565b6001600160a01b0382166111d15760405162461bcd60e51b81526004018080602001828103825260218152602001806114916021913960400191505060405180910390fd5b6111dd82600083610942565b61121a81604051806060016040528060228152602001611387602291396001600160a01b0385166000908152606560205260409020549190610fa2565b6001600160a01b038316600090815260656020526040902055606754611240908261128e565b6067556040805182815290516000916001600160a01b038516917fddf252ad1be2c89b69c2b068fc378daa952ba7f163c4a11628f55a4df523b3ef9181900360200190a35050565b3b151590565b600061109383836040518060400160405280601e81526020017f536166654d6174683a207375627472616374696f6e206f766572666c6f770000815250610fa2565b828054600181600116156101000203166002900490600052602060002090601f016020900481019282601f1061131157805160ff191683800117855561133e565b8280016001018555821561133e579182015b8281111561133e578251825591602001919060010190611323565b5061134a92915061134e565b5090565b5b8082111561134a576000815560010161134f56fe45524332303a207472616e7366657220746f20746865207a65726f206164647265737345524332303a206275726e20616d6f756e7420657863656564732062616c616e63654f776e61626c653a206e6577206f776e657220697320746865207a65726f206164647265737345524332303a20617070726f766520746f20746865207a65726f206164647265737345524332303a207472616e7366657220616d6f756e7420657863656564732062616c616e6365496e697469616c697a61626c653a20636f6e747261637420697320616c726561647920696e697469616c697a656445524332303a207472616e7366657220616d6f756e74206578636565647320616c6c6f77616e636545524332303a206275726e20616d6f756e74206578636565647320616c6c6f77616e636545524332303a206275726e2066726f6d20746865207a65726f206164647265737345524332303a207472616e736665722066726f6d20746865207a65726f206164647265737345524332303a20617070726f76652066726f6d20746865207a65726f206164647265737345524332303a2064656372656173656420616c6c6f77616e63652062656c6f77207a65726fa2646970667358221220470eecba8ee0f26a216fde4a075647638a94a2888f13b0033626c6e7f936b50364736f6c634300060c0033",
  "devdoc": {
    "kind": "dev",
    "methods": {
      "allowance(address,address)": {
        "details": "See {IERC20-allowance}."
      },
      "approve(address,uint256)": {
        "details": "See {IERC20-approve}. Requirements: - `spender` cannot be the zero address."
      },
      "balanceOf(address)": {
        "details": "See {IERC20-balanceOf}."
      },
      "burn(uint256)": {
        "details": "Destroys `amount` tokens from the caller. See {ERC20-_burn}."
      },
      "burnFrom(address,uint256)": {
        "details": "Destroys `amount` tokens from `account`, deducting from the caller's allowance. See {ERC20-_burn} and {ERC20-allowance}. Requirements: - the caller must have allowance for ``accounts``'s tokens of at least `amount`."
      },
      "decimals()": {
        "details": "Returns the number of decimals used to get its user representation. For example, if `decimals` equals `2`, a balance of `505` tokens should be displayed to a user as `5,05` (`505 / 10 ** 2`). Tokens usually opt for a value of 18, imitating the relationship between Ether and Wei. This is the value {ERC20} uses, unless {_setupDecimals} is called. NOTE: This information is only used for _display_ purposes: it in no way affects any of the arithmetic of the contract, including {IERC20-balanceOf} and {IERC20-transfer}."
      },
      "decreaseAllowance(address,uint256)": {
        "details": "Atomically decreases the allowance granted to `spender` by the caller. This is an alternative to {approve} that can be used as a mitigation for problems described in {IERC20-approve}. Emits an {Approval} event indicating the updated allowance. Requirements: - `spender` cannot be the zero address. - `spender` must have allowance for the caller of at least `subtractedValue`."
      },
      "increaseAllowance(address,uint256)": {
        "details": "Atomically increases the allowance granted to `spender` by the caller. This is an alternative to {approve} that can be used as a mitigation for problems described in {IERC20-approve}. Emits an {Approval} event indicating the updated allowance. Requirements: - `spender` cannot be the zero address."
      },
      "name()": {
        "details": "Returns the name of the token."
      },
      "owner()": {
        "details": "Returns the address of the current owner."
      },
      "renounceOwnership()": {
        "details": "Leaves the contract without owner. It will not be possible to call `onlyOwner` functions anymore. Can only be called by the current owner. NOTE: Renouncing ownership will leave the contract without an owner, thereby removing any functionality that is only available to the owner."
      },
      "symbol()": {
        "details": "Returns the symbol of the token, usually a shorter version of the name."
      },
      "totalSupply()": {
        "details": "See {IERC20-totalSupply}."
      },
      "transfer(address,uint256)": {
        "details": "See {IERC20-transfer}. Requirements: - `recipient` cannot be the zero address. - the caller must have a balance of at least `amount`."
      },
      "transferFrom(address,address,uint256)": {
        "details": "See {IERC20-transferFrom}. Emits an {Approval} event indicating the updated allowance. This is not required by the EIP. See the note at the beginning of {ERC20}; Requirements: - `sender` and `recipient` cannot be the zero address. - `sender` must have a balance of at least `amount`. - the caller must have allowance for ``sender``'s tokens of at least `amount`."
      },
      "transferOwnership(address)": {
        "details": "Transfers ownership of the contract to a new account (`newOwner`). Can only be called by the current owner."
      }
    },
    "version": 1
  },
  "userdoc": {
    "kind": "user",
    "methods": {},
    "version": 1
  },
  "storageLayout": {
    "storage": [
      {
        "astId": 2831,
        "contract": "contracts/DoppleSyntheticToken.sol:DoppleSyntheticToken",
        "label": "_initialized",
        "offset": 0,
        "slot": "0",
        "type": "t_bool"
      },
      {
        "astId": 2834,
        "contract": "contracts/DoppleSyntheticToken.sol:DoppleSyntheticToken",
        "label": "_initializing",
        "offset": 1,
        "slot": "0",
        "type": "t_bool"
      },
      {
        "astId": 4960,
        "contract": "contracts/DoppleSyntheticToken.sol:DoppleSyntheticToken",
        "label": "__gap",
        "offset": 0,
        "slot": "1",
        "type": "t_array(t_uint256)50_storage"
      },
      {
        "astId": 2157,
        "contract": "contracts/DoppleSyntheticToken.sol:DoppleSyntheticToken",
        "label": "_owner",
        "offset": 0,
        "slot": "51",
        "type": "t_address"
      },
      {
        "astId": 2276,
        "contract": "contracts/DoppleSyntheticToken.sol:DoppleSyntheticToken",
        "label": "__gap",
        "offset": 0,
        "slot": "52",
        "type": "t_array(t_uint256)49_storage"
      },
      {
        "astId": 3566,
        "contract": "contracts/DoppleSyntheticToken.sol:DoppleSyntheticToken",
        "label": "_balances",
        "offset": 0,
        "slot": "101",
        "type": "t_mapping(t_address,t_uint256)"
      },
      {
        "astId": 3572,
        "contract": "contracts/DoppleSyntheticToken.sol:DoppleSyntheticToken",
        "label": "_allowances",
        "offset": 0,
        "slot": "102",
        "type": "t_mapping(t_address,t_mapping(t_address,t_uint256))"
      },
      {
        "astId": 3574,
        "contract": "contracts/DoppleSyntheticToken.sol:DoppleSyntheticToken",
        "label": "_totalSupply",
        "offset": 0,
        "slot": "103",
        "type": "t_uint256"
      },
      {
        "astId": 3576,
        "contract": "contracts/DoppleSyntheticToken.sol:DoppleSyntheticToken",
        "label": "_name",
        "offset": 0,
        "slot": "104",
        "type": "t_string_storage"
      },
      {
        "astId": 3578,
        "contract": "contracts/DoppleSyntheticToken.sol:DoppleSyntheticToken",
        "label": "_symbol",
        "offset": 0,
        "slot": "105",
        "type": "t_string_storage"
      },
      {
        "astId": 3580,
        "contract": "contracts/DoppleSyntheticToken.sol:DoppleSyntheticToken",
        "label": "_decimals",
        "offset": 0,
        "slot": "106",
        "type": "t_uint8"
      },
      {
        "astId": 4075,
        "contract": "contracts/DoppleSyntheticToken.sol:DoppleSyntheticToken",
        "label": "__gap",
        "offset": 0,
        "slot": "107",
        "type": "t_array(t_uint256)44_storage"
      },
      {
        "astId": 3541,
        "contract": "contracts/DoppleSyntheticToken.sol:DoppleSyntheticToken",
        "label": "__gap",
        "offset": 0,
        "slot": "151",
        "type": "t_array(t_uint256)50_storage"
      }
    ],
    "types": {
      "t_address": {
        "encoding": "inplace",
        "label": "address",
        "numberOfBytes": "20"
      },
      "t_array(t_uint256)44_storage": {
        "base": "t_uint256",
        "encoding": "inplace",
        "label": "uint256[44]",
        "numberOfBytes": "1408"
      },
      "t_array(t_uint256)49_storage": {
        "base": "t_uint256",
        "encoding": "inplace",
        "label": "uint256[49]",
        "numberOfBytes": "1568"
      },
      "t_array(t_uint256)50_storage": {
        "base": "t_uint256",
        "encoding": "inplace",
        "label": "uint256[50]",
        "numberOfBytes": "1600"
      },
      "t_bool": {
        "encoding": "inplace",
        "label": "bool",
        "numberOfBytes": "1"
      },
      "t_mapping(t_address,t_mapping(t_address,t_uint256))": {
        "encoding": "mapping",
        "key": "t_address",
        "label": "mapping(address => mapping(address => uint256))",
        "numberOfBytes": "32",
        "value": "t_mapping(t_address,t_uint256)"
      },
      "t_mapping(t_address,t_uint256)": {
        "encoding": "mapping",
        "key": "t_address",
        "label": "mapping(address => uint256)",
        "numberOfBytes": "32",
        "value": "t_uint256"
      },
      "t_string_storage": {
        "encoding": "bytes",
        "label": "string",
        "numberOfBytes": "32"
      },
      "t_uint256": {
        "encoding": "inplace",
        "label": "uint256",
        "numberOfBytes": "32"
      },
      "t_uint8": {
        "encoding": "inplace",
        "label": "uint8",
        "numberOfBytes": "1"
      }
    }
  }
}