{
  "address": "0x6E07760D0b08E679fc85320B6266a3dC3aD59214",
  "abi": [
    {
      "inputs": [
        {
          "internalType": "address",
          "name": "_libraryAddress",
          "type": "address"
        }
      ],
      "stateMutability": "nonpayable",
      "type": "constructor"
    },
    {
      "anonymous": false,
      "inputs": [
        {
          "indexed": true,
          "internalType": "address",
          "name": "previousOwner",
          "type": "address"
        },
        {
          "indexed": true,
          "internalType": "address",
          "name": "newOwner",
          "type": "address"
        }
      ],
      "name": "OwnershipTransferred",
      "type": "event"
    },
    {
      "anonymous": false,
      "inputs": [
        {
          "indexed": false,
          "internalType": "address",
          "name": "newThingAddress",
          "type": "address"
        }
      ],
      "name": "ThingCreated",
      "type": "event"
    },
    {
      "inputs": [
        {
          "internalType": "string",
          "name": "_name",
          "type": "string"
        }
      ],
      "name": "createThing",
      "outputs": [],
      "stateMutability": "nonpayable",
      "type": "function"
    },
    {
      "inputs": [],
      "name": "libraryAddress",
      "outputs": [
        {
          "internalType": "address",
          "name": "",
          "type": "address"
        }
      ],
      "stateMutability": "view",
      "type": "function"
    },
    {
      "inputs": [],
      "name": "owner",
      "outputs": [
        {
          "internalType": "address",
          "name": "",
          "type": "address"
        }
      ],
      "stateMutability": "view",
      "type": "function"
    },
    {
      "inputs": [],
      "name": "renounceOwnership",
      "outputs": [],
      "stateMutability": "nonpayable",
      "type": "function"
    },
    {
      "inputs": [
        {
          "internalType": "address",
          "name": "_libraryAddress",
          "type": "address"
        }
      ],
      "name": "setLibraryAddress",
      "outputs": [],
      "stateMutability": "nonpayable",
      "type": "function"
    },
    {
      "inputs": [
        {
          "internalType": "address",
          "name": "newOwner",
          "type": "address"
        }
      ],
      "name": "transferOwnership",
      "outputs": [],
      "stateMutability": "nonpayable",
      "type": "function"
    }
  ],
  "transactionHash": "0x16dd85ee93cd4d3bdabf0aea11291fa46141cf4bf9e18ea611c4dccd75a1a364",
  "args": [
    "0xe278a1851c3686144C83431Bb488aC2a681F5D49"
  ],
  "solcInputHash": "11214d07197b472a78fd642a5ccb505a",
  "bytecode": "0x608060405234801561001057600080fd5b506040516106c83803806106c88339818101604052602081101561003357600080fd5b5051600061003f6100ae565b600080546001600160a01b0319166001600160a01b0383169081178255604051929350917f8be0079c531659141344cd1fd0a4f28419497f9722a3daafe3b4186f6b6457e0908290a350600180546001600160a01b0319166001600160a01b03929092169190911790556100b2565b3390565b610607806100c16000396000f3fe608060405234801561001057600080fd5b50600436106100625760003560e01c80633504bb6b146100675780634863ba171461010f578063715018a6146101355780638da5cb5b1461013d578063b816f51314610161578063f2fde38b14610169575b600080fd5b61010d6004803603602081101561007d57600080fd5b81019060208101813564010000000081111561009857600080fd5b8201836020820111156100aa57600080fd5b803590602001918460018302840111640100000000831117156100cc57600080fd5b91908080601f01602080910402602001604051908101604052809392919081815260200183838082843760009201919091525092955061018f945050505050565b005b61010d6004803603602081101561012557600080fd5b50356001600160a01b0316610303565b61010d61037d565b61014561041f565b604080516001600160a01b039092168252519081900360200190f35b61014561042e565b61010d6004803603602081101561017f57600080fd5b50356001600160a01b031661043d565b610197610535565b6000546001600160a01b039081169116146101e7576040805162461bcd60e51b815260206004820181905260248201526000805160206105b2833981519152604482015290519081900360640190fd5b6001546000906101ff906001600160a01b0316610539565b604051631ec5a31160e31b81526020600482018181528551602484015285519394506001600160a01b0385169363f62d188893879383926044909201919085019080838360005b8381101561025e578181015183820152602001610246565b50505050905090810190601f16801561028b5780820380516001836020036101000a031916815260200191505b5092505050600060405180830381600087803b1580156102aa57600080fd5b505af11580156102be573d6000803e3d6000fd5b5050604080516001600160a01b038516815290517f2d4294d0f147fc1954a12fa9af35f0d314ed4b2d7fb1dff7bd73a9256239d9819350908190036020019150a15050565b61030b610535565b6000546001600160a01b0390811691161461035b576040805162461bcd60e51b815260206004820181905260248201526000805160206105b2833981519152604482015290519081900360640190fd5b600180546001600160a01b0319166001600160a01b0392909216919091179055565b610385610535565b6000546001600160a01b039081169116146103d5576040805162461bcd60e51b815260206004820181905260248201526000805160206105b2833981519152604482015290519081900360640190fd5b600080546040516001600160a01b03909116907f8be0079c531659141344cd1fd0a4f28419497f9722a3daafe3b4186f6b6457e0908390a3600080546001600160a01b0319169055565b6000546001600160a01b031690565b6001546001600160a01b031681565b610445610535565b6000546001600160a01b03908116911614610495576040805162461bcd60e51b815260206004820181905260248201526000805160206105b2833981519152604482015290519081900360640190fd5b6001600160a01b0381166104da5760405162461bcd60e51b815260040180806020018281038252602681526020018061058c6026913960400191505060405180910390fd5b600080546040516001600160a01b03808516939216917f8be0079c531659141344cd1fd0a4f28419497f9722a3daafe3b4186f6b6457e091a3600080546001600160a01b0319166001600160a01b0392909216919091179055565b3390565b6000808260601b9050604051733d602d80600a3d3981f3363d3d373d3d3d363d7360601b81528160148201526e5af43d82803e903d91602b57fd5bf360881b60288201526037816000f094935050505056fe4f776e61626c653a206e6577206f776e657220697320746865207a65726f20616464726573734f776e61626c653a2063616c6c6572206973206e6f7420746865206f776e6572a2646970667358221220e88e26aa37feea511da2d3b95096f7fd0022dee50b4c2c5966838ffea1bf381364736f6c634300060c0033",
  "devdoc": {
    "kind": "dev",
    "methods": {
      "owner()": {
        "details": "Returns the address of the current owner."
      },
      "renounceOwnership()": {
        "details": "Leaves the contract without owner. It will not be possible to call `onlyOwner` functions anymore. Can only be called by the current owner. NOTE: Renouncing ownership will leave the contract without an owner, thereby removing any functionality that is only available to the owner."
      },
      "transferOwnership(address)": {
        "details": "Transfers ownership of the contract to a new account (`newOwner`). Can only be called by the current owner."
      }
    },
    "version": 1
  },
  "userdoc": {
    "kind": "user",
    "methods": {},
    "version": 1
  },
  "storageLayout": {
    "storage": [
      {
        "astId": 2182,
        "contract": "contracts/ThingFactory.sol:ThingFactory",
        "label": "_owner",
        "offset": 0,
        "slot": "0",
        "type": "t_address"
      },
      {
        "astId": 2122,
        "contract": "contracts/ThingFactory.sol:ThingFactory",
        "label": "libraryAddress",
        "offset": 0,
        "slot": "1",
        "type": "t_address"
      }
    ],
    "types": {
      "t_address": {
        "encoding": "inplace",
        "label": "address",
        "numberOfBytes": "20"
      }
    }
  }
}