{
  "address": "0xe278a1851c3686144C83431Bb488aC2a681F5D49",
  "abi": [
    {
      "anonymous": false,
      "inputs": [
        {
          "indexed": true,
          "internalType": "address",
          "name": "previousOwner",
          "type": "address"
        },
        {
          "indexed": true,
          "internalType": "address",
          "name": "newOwner",
          "type": "address"
        }
      ],
      "name": "OwnershipTransferred",
      "type": "event"
    },
    {
      "inputs": [
        {
          "internalType": "string",
          "name": "_name",
          "type": "string"
        }
      ],
      "name": "initialize",
      "outputs": [],
      "stateMutability": "nonpayable",
      "type": "function"
    },
    {
      "inputs": [],
      "name": "name",
      "outputs": [
        {
          "internalType": "string",
          "name": "",
          "type": "string"
        }
      ],
      "stateMutability": "view",
      "type": "function"
    },
    {
      "inputs": [],
      "name": "owner",
      "outputs": [
        {
          "internalType": "address",
          "name": "",
          "type": "address"
        }
      ],
      "stateMutability": "view",
      "type": "function"
    },
    {
      "inputs": [],
      "name": "renounceOwnership",
      "outputs": [],
      "stateMutability": "nonpayable",
      "type": "function"
    },
    {
      "inputs": [
        {
          "internalType": "address",
          "name": "newOwner",
          "type": "address"
        }
      ],
      "name": "transferOwnership",
      "outputs": [],
      "stateMutability": "nonpayable",
      "type": "function"
    }
  ],
  "transactionHash": "0x67fb96ad9e2eacdf781f7d60693c2ae9833286bf7badf1ac203decb8b0e986f0",
  "args": [],
  "solcInputHash": "11214d07197b472a78fd642a5ccb505a",
  "bytecode": "0x608060405234801561001057600080fd5b506107e5806100206000396000f3fe608060405234801561001057600080fd5b50600436106100575760003560e01c806306fdde031461005c578063715018a6146100d95780638da5cb5b146100e3578063f2fde38b14610107578063f62d18881461012d575b600080fd5b6100646101d3565b6040805160208082528351818301528351919283929083019185019080838360005b8381101561009e578181015183820152602001610086565b50505050905090810190601f1680156100cb5780820380516001836020036101000a031916815260200191505b509250505060405180910390f35b6100e1610261565b005b6100eb61031f565b604080516001600160a01b039092168252519081900360200190f35b6100e16004803603602081101561011d57600080fd5b50356001600160a01b031661032e565b6100e16004803603602081101561014357600080fd5b81019060208101813564010000000081111561015e57600080fd5b82018360208201111561017057600080fd5b8035906020019184600183028401116401000000008311171561019257600080fd5b91908080601f016020809104026020016040519081016040528093929190818152602001838380828437600092019190915250929550610443945050505050565b6065805460408051602060026001851615610100026000190190941693909304601f810184900484028201840190925281815292918301828280156102595780601f1061022e57610100808354040283529160200191610259565b820191906000526020600020905b81548152906001019060200180831161023c57829003601f168201915b505050505081565b610269610462565b6001600160a01b031661027a61031f565b6001600160a01b0316146102d5576040805162461bcd60e51b815260206004820181905260248201527f4f776e61626c653a2063616c6c6572206973206e6f7420746865206f776e6572604482015290519081900360640190fd5b6033546040516000916001600160a01b0316907f8be0079c531659141344cd1fd0a4f28419497f9722a3daafe3b4186f6b6457e0908390a3603380546001600160a01b0319169055565b6033546001600160a01b031690565b610336610462565b6001600160a01b031661034761031f565b6001600160a01b0316146103a2576040805162461bcd60e51b815260206004820181905260248201527f4f776e61626c653a2063616c6c6572206973206e6f7420746865206f776e6572604482015290519081900360640190fd5b6001600160a01b0381166103e75760405162461bcd60e51b815260040180806020018281038252602681526020018061075c6026913960400191505060405180910390fd5b6033546040516001600160a01b038084169216907f8be0079c531659141344cd1fd0a4f28419497f9722a3daafe3b4186f6b6457e090600090a3603380546001600160a01b0319166001600160a01b0392909216919091179055565b61044b610466565b805161045e9060659060208401906106c8565b5050565b3390565b600054610100900460ff168061047f575061047f610518565b8061048d575060005460ff16155b6104c85760405162461bcd60e51b815260040180806020018281038252602e815260200180610782602e913960400191505060405180910390fd5b600054610100900460ff161580156104f3576000805460ff1961ff0019909116610100171660011790555b6104fb610529565b6105036105c9565b8015610515576000805461ff00191690555b50565b6000610523306106c2565b15905090565b600054610100900460ff16806105425750610542610518565b80610550575060005460ff16155b61058b5760405162461bcd60e51b815260040180806020018281038252602e815260200180610782602e913960400191505060405180910390fd5b600054610100900460ff16158015610503576000805460ff1961ff0019909116610100171660011790558015610515576000805461ff001916905550565b600054610100900460ff16806105e257506105e2610518565b806105f0575060005460ff16155b61062b5760405162461bcd60e51b815260040180806020018281038252602e815260200180610782602e913960400191505060405180910390fd5b600054610100900460ff16158015610656576000805460ff1961ff0019909116610100171660011790555b6000610660610462565b603380546001600160a01b0319166001600160a01b038316908117909155604051919250906000907f8be0079c531659141344cd1fd0a4f28419497f9722a3daafe3b4186f6b6457e0908290a3508015610515576000805461ff001916905550565b3b151590565b828054600181600116156101000203166002900490600052602060002090601f016020900481019282601f1061070957805160ff1916838001178555610736565b82800160010185558215610736579182015b8281111561073657825182559160200191906001019061071b565b50610742929150610746565b5090565b5b80821115610742576000815560010161074756fe4f776e61626c653a206e6577206f776e657220697320746865207a65726f2061646472657373496e697469616c697a61626c653a20636f6e747261637420697320616c726561647920696e697469616c697a6564a2646970667358221220d79a378d0aa42d9bb14319e760a055dd691be81c2c35760cef284f7ee411801064736f6c634300060c0033",
  "devdoc": {
    "kind": "dev",
    "methods": {
      "owner()": {
        "details": "Returns the address of the current owner."
      },
      "renounceOwnership()": {
        "details": "Leaves the contract without owner. It will not be possible to call `onlyOwner` functions anymore. Can only be called by the current owner. NOTE: Renouncing ownership will leave the contract without an owner, thereby removing any functionality that is only available to the owner."
      },
      "transferOwnership(address)": {
        "details": "Transfers ownership of the contract to a new account (`newOwner`). Can only be called by the current owner."
      }
    },
    "version": 1
  },
  "userdoc": {
    "kind": "user",
    "methods": {},
    "version": 1
  },
  "storageLayout": {
    "storage": [
      {
        "astId": 3223,
        "contract": "contracts/Thing.sol:Thing",
        "label": "_initialized",
        "offset": 0,
        "slot": "0",
        "type": "t_bool"
      },
      {
        "astId": 3226,
        "contract": "contracts/Thing.sol:Thing",
        "label": "_initializing",
        "offset": 1,
        "slot": "0",
        "type": "t_bool"
      },
      {
        "astId": 5268,
        "contract": "contracts/Thing.sol:Thing",
        "label": "__gap",
        "offset": 0,
        "slot": "1",
        "type": "t_array(t_uint256)50_storage"
      },
      {
        "astId": 2294,
        "contract": "contracts/Thing.sol:Thing",
        "label": "_owner",
        "offset": 0,
        "slot": "51",
        "type": "t_address"
      },
      {
        "astId": 2413,
        "contract": "contracts/Thing.sol:Thing",
        "label": "__gap",
        "offset": 0,
        "slot": "52",
        "type": "t_array(t_uint256)49_storage"
      },
      {
        "astId": 2095,
        "contract": "contracts/Thing.sol:Thing",
        "label": "name",
        "offset": 0,
        "slot": "101",
        "type": "t_string_storage"
      }
    ],
    "types": {
      "t_address": {
        "encoding": "inplace",
        "label": "address",
        "numberOfBytes": "20"
      },
      "t_array(t_uint256)49_storage": {
        "base": "t_uint256",
        "encoding": "inplace",
        "label": "uint256[49]",
        "numberOfBytes": "1568"
      },
      "t_array(t_uint256)50_storage": {
        "base": "t_uint256",
        "encoding": "inplace",
        "label": "uint256[50]",
        "numberOfBytes": "1600"
      },
      "t_bool": {
        "encoding": "inplace",
        "label": "bool",
        "numberOfBytes": "1"
      },
      "t_string_storage": {
        "encoding": "bytes",
        "label": "string",
        "numberOfBytes": "32"
      },
      "t_uint256": {
        "encoding": "inplace",
        "label": "uint256",
        "numberOfBytes": "32"
      }
    }
  }
}